{
  "abi": [
    {
      "inputs": [],
      "stateMutability": "nonpayable",
      "type": "constructor"
    },
    {
      "inputs": [
        {
          "internalType": "uint256",
          "name": "amount",
          "type": "uint256"
        }
      ],
      "name": "deposit",
      "outputs": [],
      "stateMutability": "nonpayable",
      "type": "function"
    },
    {
      "inputs": [],
      "name": "down",
      "outputs": [
        {
          "internalType": "contract RebaseableToken",
          "name": "",
          "type": "address"
        }
      ],
      "stateMutability": "view",
      "type": "function"
    },
    {
      "inputs": [],
      "name": "epoch",
      "outputs": [
        {
          "internalType": "uint256",
          "name": "",
          "type": "uint256"
        }
      ],
      "stateMutability": "view",
      "type": "function"
    },
    {
      "inputs": [],
      "name": "epochLength",
      "outputs": [
        {
          "internalType": "uint256",
          "name": "",
          "type": "uint256"
        }
      ],
      "stateMutability": "view",
      "type": "function"
    },
    {
      "inputs": [],
      "name": "epochStart",
      "outputs": [
        {
          "internalType": "uint256",
          "name": "",
          "type": "uint256"
        }
      ],
      "stateMutability": "view",
      "type": "function"
    },
    {
      "inputs": [],
      "name": "epochStartPrice",
      "outputs": [
        {
          "internalType": "uint256",
          "name": "",
          "type": "uint256"
        }
      ],
      "stateMutability": "view",
      "type": "function"
    },
    {
      "inputs": [
        {
          "internalType": "uint256",
          "name": "",
          "type": "uint256"
        }
      ],
      "name": "epochToPrice",
      "outputs": [
        {
          "internalType": "uint256",
          "name": "",
          "type": "uint256"
        }
      ],
      "stateMutability": "view",
      "type": "function"
    },
    {
      "inputs": [
        {
          "internalType": "address",
          "name": "owner_",
          "type": "address"
        },
        {
          "internalType": "address",
          "name": "payoutToken_",
          "type": "address"
        },
        {
          "internalType": "uint256",
          "name": "epochLength_",
          "type": "uint256"
        },
        {
          "internalType": "uint8",
          "name": "multiplier_",
          "type": "uint8"
        },
        {
          "internalType": "address",
          "name": "oracle_",
          "type": "address"
        },
        {
          "internalType": "address",
          "name": "factory_",
          "type": "address"
        },
        {
          "internalType": "address",
          "name": "underlying_",
          "type": "address"
        }
      ],
      "name": "initialize",
      "outputs": [],
      "stateMutability": "nonpayable",
      "type": "function"
    },
    {
      "inputs": [],
      "name": "liquidate",
      "outputs": [],
      "stateMutability": "nonpayable",
      "type": "function"
    },
    {
      "inputs": [],
      "name": "multiplier",
      "outputs": [
        {
          "internalType": "uint8",
          "name": "",
          "type": "uint8"
        }
      ],
      "stateMutability": "view",
      "type": "function"
    },
    {
      "inputs": [],
      "name": "oracle",
      "outputs": [
        {
          "internalType": "contract IPriceOracleGetter",
          "name": "",
          "type": "address"
        }
      ],
      "stateMutability": "view",
      "type": "function"
    },
    {
      "inputs": [],
      "name": "payoutToken",
      "outputs": [
        {
          "internalType": "contract IERC20",
          "name": "",
          "type": "address"
        }
      ],
      "stateMutability": "view",
      "type": "function"
    },
    {
      "inputs": [
        {
          "internalType": "address",
          "name": "newOwner",
          "type": "address"
        }
      ],
      "name": "setOwner",
      "outputs": [],
      "stateMutability": "nonpayable",
      "type": "function"
    },
    {
      "inputs": [],
      "name": "settle",
      "outputs": [],
      "stateMutability": "nonpayable",
      "type": "function"
    },
    {
      "inputs": [
        {
          "internalType": "address",
          "name": "",
          "type": "address"
        }
      ],
      "name": "settlements",
      "outputs": [
        {
          "internalType": "uint256",
          "name": "ups",
          "type": "uint256"
        },
        {
          "internalType": "uint256",
          "name": "downs",
          "type": "uint256"
        },
        {
          "internalType": "uint256",
          "name": "epoch",
          "type": "uint256"
        }
      ],
      "stateMutability": "view",
      "type": "function"
    },
    {
      "inputs": [],
      "name": "testForEnd",
      "outputs": [],
      "stateMutability": "nonpayable",
      "type": "function"
    },
    {
      "inputs": [],
      "name": "underlying",
      "outputs": [
        {
          "internalType": "contract IERC20",
          "name": "",
          "type": "address"
        }
      ],
      "stateMutability": "view",
      "type": "function"
    },
    {
      "inputs": [],
      "name": "uniswapFactory",
      "outputs": [
        {
          "internalType": "contract IMinimalUniswapV2Factory",
          "name": "",
          "type": "address"
        }
      ],
      "stateMutability": "view",
      "type": "function"
    },
    {
      "inputs": [],
      "name": "uniswapPair",
      "outputs": [
        {
          "internalType": "contract IMinimalUniswapV2Pair",
          "name": "",
          "type": "address"
        }
      ],
      "stateMutability": "view",
      "type": "function"
    },
    {
      "inputs": [],
      "name": "up",
      "outputs": [
        {
          "internalType": "contract RebaseableToken",
          "name": "",
          "type": "address"
        }
      ],
      "stateMutability": "view",
      "type": "function"
    },
    {
      "inputs": [],
      "name": "version",
      "outputs": [
        {
          "internalType": "uint8",
          "name": "",
          "type": "uint8"
        }
      ],
      "stateMutability": "view",
      "type": "function"
    }
  ],
  "address": "0xA1262f7745Af1A4487a3b69E83FfB972b9872cb6",
  "args": [],
  "solcInputHash": "0xa384714b4114896e15179291f1424c1d857b011c1b7635067c11a0c547394e4a",
  "bytecode": "0x608060405260016000806101000a81548160ff021916908360ff160217905550600060095534801561003057600080fd5b5033600560006101000a81548173ffffffffffffffffffffffffffffffffffffffff021916908373ffffffffffffffffffffffffffffffffffffffff160217905550615e73806100816000396000f3fe60806040523480156200001157600080fd5b50600436106200011e5760003560e01c806311da60b4146200012357806313af4035146200012f57806315e5a1e514620001765780631b3ed722146200019657806328a0702514620001bc5780634efa82b614620001c857806354fd4d50146200021457806357d775f8146200023a5780636f307dc3146200025a578063713df9e814620002a65780637dc0d1d014620002b25780638334109414620002fe5780638471de9214620003dc57806384be9a8314620004215780638bdb2afa1462000441578063900cf0cf146200048d578063b6b55f2514620004ad578063ba25b1b314620004de578063c816841b1462000547578063d5a49e011462000593578063d833792814620005df575b600080fd5b6200012d6200062b565b005b62000174600480360360208110156200014757600080fd5b81019080803573ffffffffffffffffffffffffffffffffffffffff1690602001909291905050506200093a565b005b6200018062000a42565b6040518082815260200191505060405180910390f35b620001a062000a48565b604051808260ff1660ff16815260200191505060405180910390f35b620001c662000a5b565b005b620001d262001039565b604051808273ffffffffffffffffffffffffffffffffffffffff1673ffffffffffffffffffffffffffffffffffffffff16815260200191505060405180910390f35b6200021e6200105f565b604051808260ff1660ff16815260200191505060405180910390f35b6200024462001071565b6040518082815260200191505060405180910390f35b6200026462001077565b604051808273ffffffffffffffffffffffffffffffffffffffff1673ffffffffffffffffffffffffffffffffffffffff16815260200191505060405180910390f35b620002b06200109d565b005b620002bc620010ca565b604051808273ffffffffffffffffffffffffffffffffffffffff1673ffffffffffffffffffffffffffffffffffffffff16815260200191505060405180910390f35b620003da600480360360e08110156200031657600080fd5b81019080803573ffffffffffffffffffffffffffffffffffffffff169060200190929190803573ffffffffffffffffffffffffffffffffffffffff16906020019092919080359060200190929190803560ff169060200190929190803573ffffffffffffffffffffffffffffffffffffffff169060200190929190803573ffffffffffffffffffffffffffffffffffffffff169060200190929190803573ffffffffffffffffffffffffffffffffffffffff169060200190929190505050620010f0565b005b6200040b60048036036020811015620003f457600080fd5b81019080803590602001909291905050506200141a565b6040518082815260200191505060405180910390f35b6200042b62001432565b6040518082815260200191505060405180910390f35b6200044b62001438565b604051808273ffffffffffffffffffffffffffffffffffffffff1673ffffffffffffffffffffffffffffffffffffffff16815260200191505060405180910390f35b620004976200145e565b6040518082815260200191505060405180910390f35b620004dc60048036036020811015620004c557600080fd5b810190808035906020019092919050505062001464565b005b6200052360048036036020811015620004f657600080fd5b81019080803573ffffffffffffffffffffffffffffffffffffffff1690602001909291905050506200194e565b60405180848152602001838152602001828152602001935050505060405180910390f35b6200055162001978565b604051808273ffffffffffffffffffffffffffffffffffffffff1673ffffffffffffffffffffffffffffffffffffffff16815260200191505060405180910390f35b6200059d6200199e565b604051808273ffffffffffffffffffffffffffffffffffffffff1673ffffffffffffffffffffffffffffffffffffffff16815260200191505060405180910390f35b620005e9620019c4565b604051808273ffffffffffffffffffffffffffffffffffffffff1673ffffffffffffffffffffffffffffffffffffffff16815260200191505060405180910390f35b6000600160003373ffffffffffffffffffffffffffffffffffffffff1673ffffffffffffffffffffffffffffffffffffffff1681526020019081526020016000206002015414620006e4576040517f08c379a00000000000000000000000000000000000000000000000000000000081526004018080602001828103825260158152602001807f5570446f776e3a68617320736574746c656d656e74000000000000000000000081525060200191505060405180910390fd5b620006fd600a54600854620019ea90919063ffffffff16565b43106200070f576200070e62001a73565b5b6000600360009054906101000a900473ffffffffffffffffffffffffffffffffffffffff1673ffffffffffffffffffffffffffffffffffffffff16632f865568336040518263ffffffff1660e01b8152600401808273ffffffffffffffffffffffffffffffffffffffff1673ffffffffffffffffffffffffffffffffffffffff168152602001915050602060405180830381600087803b158015620007b357600080fd5b505af1158015620007c8573d6000803e3d6000fd5b505050506040513d6020811015620007df57600080fd5b810190808051906020019092919050505090506000600460009054906101000a900473ffffffffffffffffffffffffffffffffffffffff1673ffffffffffffffffffffffffffffffffffffffff16632f865568336040518263ffffffff1660e01b8152600401808273ffffffffffffffffffffffffffffffffffffffff1673ffffffffffffffffffffffffffffffffffffffff168152602001915050602060405180830381600087803b1580156200089657600080fd5b505af1158015620008ab573d6000803e3d6000fd5b505050506040513d6020811015620008c257600080fd5b810190808051906020019092919050505090506000600160003373ffffffffffffffffffffffffffffffffffffffff1673ffffffffffffffffffffffffffffffffffffffff16815260200190815260200160002090506009548160020181905550828160000181905550818160010181905550505050565b600560009054906101000a900473ffffffffffffffffffffffffffffffffffffffff1673ffffffffffffffffffffffffffffffffffffffff163373ffffffffffffffffffffffffffffffffffffffff1614620009fe576040517f08c379a00000000000000000000000000000000000000000000000000000000081526004018080602001828103825260118152602001807f5570446f776e3a4f6e6c79206f776e657200000000000000000000000000000081525060200191505060405180910390fd5b80600560006101000a81548173ffffffffffffffffffffffffffffffffffffffff021916908373ffffffffffffffffffffffffffffffffffffffff16021790555050565b60085481565b600e60149054906101000a900460ff1681565b62000a74600a54600854620019ea90919063ffffffff16565b431062000a865762000a8562001a73565b5b6000600160003373ffffffffffffffffffffffffffffffffffffffff1673ffffffffffffffffffffffffffffffffffffffff168152602001908152602001600020905060095481600201541062000b45576040517f08c379a00000000000000000000000000000000000000000000000000000000081526004018080602001828103825260168152602001807f746f6f206561726c7920746f206c69717569646174650000000000000000000081525060200191505060405180910390fd5b6000600360009054906101000a900473ffffffffffffffffffffffffffffffffffffffff1673ffffffffffffffffffffffffffffffffffffffff1663dff4e22083600201546040518263ffffffff1660e01b81526004018082815260200191505060206040518083038186803b15801562000bbf57600080fd5b505afa15801562000bd4573d6000803e3d6000fd5b505050506040513d602081101562000beb57600080fd5b810190808051906020019092919050505090506000600460009054906101000a900473ffffffffffffffffffffffffffffffffffffffff1673ffffffffffffffffffffffffffffffffffffffff1663dff4e22084600201546040518263ffffffff1660e01b81526004018082815260200191505060206040518083038186803b15801562000c7857600080fd5b505afa15801562000c8d573d6000803e3d6000fd5b505050506040513d602081101562000ca457600080fd5b8101908080519060200190929190505050905060008083111562000cde5762000cdb83856000015462001b7e90919063ffffffff16565b90505b600082111562000d065762000d0182856001015462001b7e90919063ffffffff16565b810190505b6000600160003373ffffffffffffffffffffffffffffffffffffffff1673ffffffffffffffffffffffffffffffffffffffff168152602001908152602001600020600001819055506000600160003373ffffffffffffffffffffffffffffffffffffffff1673ffffffffffffffffffffffffffffffffffffffff168152602001908152602001600020600101819055506000600160003373ffffffffffffffffffffffffffffffffffffffff1673ffffffffffffffffffffffffffffffffffffffff16815260200190815260200160002060020181905550600062000df660c88362001b7e90919063ffffffff16565b9050600062000e116103e88362001b7e90919063ffffffff16565b9050600062000e2a828462001bca90919063ffffffff16565b9050600c60009054906101000a900473ffffffffffffffffffffffffffffffffffffffff1673ffffffffffffffffffffffffffffffffffffffff1663a9059cbb33836040518363ffffffff1660e01b8152600401808373ffffffffffffffffffffffffffffffffffffffff1673ffffffffffffffffffffffffffffffffffffffff16815260200182815260200192505050602060405180830381600087803b15801562000ed657600080fd5b505af115801562000eeb573d6000803e3d6000fd5b505050506040513d602081101562000f0257600080fd5b810190808051906020019092919050505062000f1d57600080fd5b600c60009054906101000a900473ffffffffffffffffffffffffffffffffffffffff1673ffffffffffffffffffffffffffffffffffffffff1663a9059cbb600560009054906101000a900473ffffffffffffffffffffffffffffffffffffffff16846040518363ffffffff1660e01b8152600401808373ffffffffffffffffffffffffffffffffffffffff1673ffffffffffffffffffffffffffffffffffffffff16815260200182815260200192505050602060405180830381600087803b15801562000fe957600080fd5b505af115801562000ffe573d6000803e3d6000fd5b505050506040513d60208110156200101557600080fd5b81019080805190602001909291905050506200103057600080fd5b50505050505050565b600c60009054906101000a900473ffffffffffffffffffffffffffffffffffffffff1681565b6000809054906101000a900460ff1681565b600a5481565b600b60009054906101000a900473ffffffffffffffffffffffffffffffffffffffff1681565b620010b6600a54600854620019ea90919063ffffffff16565b4310620010c857620010c762001a73565b5b565b600660009054906101000a900473ffffffffffffffffffffffffffffffffffffffff1681565b600560009054906101000a900473ffffffffffffffffffffffffffffffffffffffff1673ffffffffffffffffffffffffffffffffffffffff163373ffffffffffffffffffffffffffffffffffffffff1614620011b4576040517f08c379a00000000000000000000000000000000000000000000000000000000081526004018080602001828103825260118152602001807f5570446f776e3a4f6e6c79206f776e657200000000000000000000000000000081525060200191505060405180910390fd5b86600560006101000a81548173ffffffffffffffffffffffffffffffffffffffff021916908373ffffffffffffffffffffffffffffffffffffffff16021790555085600c60006101000a81548173ffffffffffffffffffffffffffffffffffffffff021916908373ffffffffffffffffffffffffffffffffffffffff16021790555082600660006101000a81548173ffffffffffffffffffffffffffffffffffffffff021916908373ffffffffffffffffffffffffffffffffffffffff16021790555081600d60006101000a81548173ffffffffffffffffffffffffffffffffffffffff021916908373ffffffffffffffffffffffffffffffffffffffff1602179055504360088190555084600a8190555083600e60146101000a81548160ff021916908360ff16021790555080600b60006101000a81548173ffffffffffffffffffffffffffffffffffffffff021916908373ffffffffffffffffffffffffffffffffffffffff160217905550600660009054906101000a900473ffffffffffffffffffffffffffffffffffffffff1673ffffffffffffffffffffffffffffffffffffffff1663b3596f07826040518263ffffffff1660e01b8152600401808273ffffffffffffffffffffffffffffffffffffffff1673ffffffffffffffffffffffffffffffffffffffff16815260200191505060206040518083038186803b158015620013c257600080fd5b505afa158015620013d7573d6000803e3d6000fd5b505050506040513d6020811015620013ee57600080fd5b81019080805190602001909291905050506007819055506200140f62001c16565b505050505050505050565b60026020528060005260406000206000915090505481565b60075481565b600d60009054906101000a900473ffffffffffffffffffffffffffffffffffffffff1681565b60095481565b6000600160003373ffffffffffffffffffffffffffffffffffffffff1673ffffffffffffffffffffffffffffffffffffffff16815260200190815260200160002060020154146200151d576040517f08c379a00000000000000000000000000000000000000000000000000000000081526004018080602001828103825260158152602001807f5570446f776e3a68617320736574746c656d656e74000000000000000000000081525060200191505060405180910390fd5b62001536600a54600854620019ea90919063ffffffff16565b431062001548576200154762001a73565b5b600c60009054906101000a900473ffffffffffffffffffffffffffffffffffffffff1673ffffffffffffffffffffffffffffffffffffffff166323b872dd3330846040518463ffffffff1660e01b8152600401808473ffffffffffffffffffffffffffffffffffffffff1673ffffffffffffffffffffffffffffffffffffffff1681526020018373ffffffffffffffffffffffffffffffffffffffff1673ffffffffffffffffffffffffffffffffffffffff1681526020018281526020019350505050602060405180830381600087803b1580156200162657600080fd5b505af11580156200163b573d6000803e3d6000fd5b505050506040513d60208110156200165257600080fd5b81019080805190602001909291905050506200166d57600080fd5b600360009054906101000a900473ffffffffffffffffffffffffffffffffffffffff1673ffffffffffffffffffffffffffffffffffffffff166340c10f1933620016c260648562001f6a90919063ffffffff16565b6040518363ffffffff1660e01b8152600401808373ffffffffffffffffffffffffffffffffffffffff1673ffffffffffffffffffffffffffffffffffffffff16815260200182815260200192505050602060405180830381600087803b1580156200172c57600080fd5b505af115801562001741573d6000803e3d6000fd5b505050506040513d60208110156200175857600080fd5b8101908080519060200190929190505050620017dc576040517f08c379a00000000000000000000000000000000000000000000000000000000081526004018080602001828103825260158152602001807f4f7074696f6e73506f6f6c3a6661696c6564207570000000000000000000000081525060200191505060405180910390fd5b600460009054906101000a900473ffffffffffffffffffffffffffffffffffffffff1673ffffffffffffffffffffffffffffffffffffffff166340c10f19336200183160648562001f6a90919063ffffffff16565b6040518363ffffffff1660e01b8152600401808373ffffffffffffffffffffffffffffffffffffffff1673ffffffffffffffffffffffffffffffffffffffff16815260200182815260200192505050602060405180830381600087803b1580156200189b57600080fd5b505af1158015620018b0573d6000803e3d6000fd5b505050506040513d6020811015620018c757600080fd5b81019080805190602001909291905050506200194b576040517f08c379a00000000000000000000000000000000000000000000000000000000081526004018080602001828103825260178152602001807f4f7074696f6e73506f6f6c3a6661696c656420646f776e00000000000000000081525060200191505060405180910390fd5b50565b60016020528060005260406000206000915090508060000154908060010154908060020154905083565b600e60009054906101000a900473ffffffffffffffffffffffffffffffffffffffff1681565b600360009054906101000a900473ffffffffffffffffffffffffffffffffffffffff1681565b600460009054906101000a900473ffffffffffffffffffffffffffffffffffffffff1681565b60008082840190508381101562001a69576040517f08c379a000000000000000000000000000000000000000000000000000000000815260040180806020018281038252601b8152602001807f536166654d6174683a206164646974696f6e206f766572666c6f77000000000081525060200191505060405180910390fd5b8091505092915050565b62001b7c600660009054906101000a900473ffffffffffffffffffffffffffffffffffffffff1673ffffffffffffffffffffffffffffffffffffffff1663b3596f07600b60009054906101000a900473ffffffffffffffffffffffffffffffffffffffff166040518263ffffffff1660e01b8152600401808273ffffffffffffffffffffffffffffffffffffffff1673ffffffffffffffffffffffffffffffffffffffff16815260200191505060206040518083038186803b15801562001b3957600080fd5b505afa15801562001b4e573d6000803e3d6000fd5b505050506040513d602081101562001b6557600080fd5b810190808051906020019092919050505062001ff5565b565b600062001bc283836040518060400160405280601a81526020017f536166654d6174683a206469766973696f6e206279207a65726f00000000000081525062002ab6565b905092915050565b600062001c0e83836040518060400160405280601e81526020017f536166654d6174683a207375627472616374696f6e206f766572666c6f77000081525062002b81565b905092915050565b60008060606040518060200162001c2d9062003345565b6020820181038252601f19601f8201166040525090506000306000604051602001808373ffffffffffffffffffffffffffffffffffffffff1673ffffffffffffffffffffffffffffffffffffffff1660601b81526014018260000b60000b60f81b8152600101925050506040516020818303038152906040528051906020012090506000306001604051602001808373ffffffffffffffffffffffffffffffffffffffff1673ffffffffffffffffffffffffffffffffffffffff1660601b81526014018260000b60000b60f81b81526001019250505060405160208183030381529060405280519060200120905062001d296000838562002c45565b945062001d396000828562002c45565b93508473ffffffffffffffffffffffffffffffffffffffff1663077f224a306040518263ffffffff1660e01b81526004018080602001806020018473ffffffffffffffffffffffffffffffffffffffff1673ffffffffffffffffffffffffffffffffffffffff168152602001838103835260088152602001807f5570446f776e5570000000000000000000000000000000000000000000000000815250602001838103825260048152602001807f75645570000000000000000000000000000000000000000000000000000000008152506020019350505050600060405180830381600087803b15801562001e2d57600080fd5b505af115801562001e42573d6000803e3d6000fd5b505050508373ffffffffffffffffffffffffffffffffffffffff1663077f224a306040518263ffffffff1660e01b81526004018080602001806020018473ffffffffffffffffffffffffffffffffffffffff1673ffffffffffffffffffffffffffffffffffffffff1681526020018381038352600a8152602001807f5570446f776e446f776e00000000000000000000000000000000000000000000815250602001838103825260048152602001807f7564446e000000000000000000000000000000000000000000000000000000008152506020019350505050600060405180830381600087803b15801562001f3857600080fd5b505af115801562001f4d573d6000803e3d6000fd5b5050505062001f5d858562002df2565b8484945094505050509091565b60008083141562001f7f576000905062001fef565b600082840290508284828162001f9157fe5b041462001fea576040517f08c379a000000000000000000000000000000000000000000000000000000000815260040180806020018281038252602181526020018062005e1d6021913960400191505060405180910390fd5b809150505b92915050565b600060075490506000600360009054906101000a900473ffffffffffffffffffffffffffffffffffffffff1673ffffffffffffffffffffffffffffffffffffffff166318160ddd6040518163ffffffff1660e01b815260040160206040518083038186803b1580156200206757600080fd5b505afa1580156200207c573d6000803e3d6000fd5b505050506040513d60208110156200209357600080fd5b810190808051906020019092919050505090506000600460009054906101000a900473ffffffffffffffffffffffffffffffffffffffff1673ffffffffffffffffffffffffffffffffffffffff166318160ddd6040518163ffffffff1660e01b815260040160206040518083038186803b1580156200211157600080fd5b505afa15801562002126573d6000803e3d6000fd5b505050506040513d60208110156200213d57600080fd5b810190808051906020019092919050505090506000620021678284620019ea90919063ffffffff16565b9050600084861115620021915762002189858762001bca90919063ffffffff16565b9050620021a9565b620021a6868662001bca90919063ffffffff16565b90505b6000620021b7828762002f3c565b905060028510158015620021cc575060028410155b156200274e5785871115620023cd5760006200221c62002212670de0b6b3a764000062002203858862001f6a90919063ffffffff16565b62001b7e90919063ffffffff16565b6001870362003006565b9050600360009054906101000a900473ffffffffffffffffffffffffffffffffffffffff1673ffffffffffffffffffffffffffffffffffffffff16637a43e23f600954836040518363ffffffff1660e01b81526004018083815260200182815260200192505050602060405180830381600087803b1580156200229e57600080fd5b505af1158015620022b3573d6000803e3d6000fd5b505050506040513d6020811015620022ca57600080fd5b810190808051906020019092919050505050600460009054906101000a900473ffffffffffffffffffffffffffffffffffffffff1673ffffffffffffffffffffffffffffffffffffffff16637a43e23f6009547fffffffffffffffffffffffffffffffffffffffffffffffffffffffffffffffff84026040518363ffffffff1660e01b81526004018083815260200182815260200192505050602060405180830381600087803b1580156200237e57600080fd5b505af115801562002393573d6000803e3d6000fd5b505050506040513d6020811015620023aa57600080fd5b810190808051906020019092919050505050620023c662003021565b5062002748565b85871015620025c8576000620024176200240d670de0b6b3a7640000620023fe858862001f6a90919063ffffffff16565b62001b7e90919063ffffffff16565b6001880362003006565b9050600460009054906101000a900473ffffffffffffffffffffffffffffffffffffffff1673ffffffffffffffffffffffffffffffffffffffff16637a43e23f600954836040518363ffffffff1660e01b81526004018083815260200182815260200192505050602060405180830381600087803b1580156200249957600080fd5b505af1158015620024ae573d6000803e3d6000fd5b505050506040513d6020811015620024c557600080fd5b810190808051906020019092919050505050600360009054906101000a900473ffffffffffffffffffffffffffffffffffffffff1673ffffffffffffffffffffffffffffffffffffffff16637a43e23f6009547fffffffffffffffffffffffffffffffffffffffffffffffffffffffffffffffff84026040518363ffffffff1660e01b81526004018083815260200182815260200192505050602060405180830381600087803b1580156200257957600080fd5b505af11580156200258e573d6000803e3d6000fd5b505050506040513d6020811015620025a557600080fd5b810190808051906020019092919050505050620025c162003021565b5062002747565b600460009054906101000a900473ffffffffffffffffffffffffffffffffffffffff1673ffffffffffffffffffffffffffffffffffffffff16637a43e23f60095460006040518363ffffffff1660e01b81526004018083815260200182815260200192505050602060405180830381600087803b1580156200264957600080fd5b505af11580156200265e573d6000803e3d6000fd5b505050506040513d60208110156200267557600080fd5b810190808051906020019092919050505050600360009054906101000a900473ffffffffffffffffffffffffffffffffffffffff1673ffffffffffffffffffffffffffffffffffffffff16637a43e23f60095460006040518363ffffffff1660e01b81526004018083815260200182815260200192505050602060405180830381600087803b1580156200270857600080fd5b505af11580156200271d573d6000803e3d6000fd5b505050506040513d60208110156200273457600080fd5b8101908080519060200190929190505050505b5b620028cd565b600460009054906101000a900473ffffffffffffffffffffffffffffffffffffffff1673ffffffffffffffffffffffffffffffffffffffff16637a43e23f60095460006040518363ffffffff1660e01b81526004018083815260200182815260200192505050602060405180830381600087803b158015620027cf57600080fd5b505af1158015620027e4573d6000803e3d6000fd5b505050506040513d6020811015620027fb57600080fd5b810190808051906020019092919050505050600360009054906101000a900473ffffffffffffffffffffffffffffffffffffffff1673ffffffffffffffffffffffffffffffffffffffff16637a43e23f60095460006040518363ffffffff1660e01b81526004018083815260200182815260200192505050602060405180830381600087803b1580156200288e57600080fd5b505af1158015620028a3573d6000803e3d6000fd5b505050506040513d6020811015620028ba57600080fd5b8101908080519060200190929190505050505b600360009054906101000a900473ffffffffffffffffffffffffffffffffffffffff1673ffffffffffffffffffffffffffffffffffffffff166389afcb44306040518263ffffffff1660e01b8152600401808273ffffffffffffffffffffffffffffffffffffffff1673ffffffffffffffffffffffffffffffffffffffff168152602001915050602060405180830381600087803b1580156200296f57600080fd5b505af115801562002984573d6000803e3d6000fd5b505050506040513d60208110156200299b57600080fd5b810190808051906020019092919050505050600460009054906101000a900473ffffffffffffffffffffffffffffffffffffffff1673ffffffffffffffffffffffffffffffffffffffff166389afcb44306040518263ffffffff1660e01b8152600401808273ffffffffffffffffffffffffffffffffffffffff1673ffffffffffffffffffffffffffffffffffffffff168152602001915050602060405180830381600087803b15801562002a4f57600080fd5b505af115801562002a64573d6000803e3d6000fd5b505050506040513d602081101562002a7b57600080fd5b810190808051906020019092919050505050866007819055506009600081548092919060010191905055504360088190555050505050505050565b6000808311829062002b66576040517f08c379a00000000000000000000000000000000000000000000000000000000081526004018080602001828103825283818151815260200191508051906020019080838360005b8381101562002b2a57808201518184015260208101905062002b0d565b50505050905090810190601f16801562002b585780820380516001836020036101000a031916815260200191505b509250505060405180910390fd5b50600083858162002b7357fe5b049050809150509392505050565b600083831115829062002c32576040517f08c379a00000000000000000000000000000000000000000000000000000000081526004018080602001828103825283818151815260200191508051906020019080838360005b8381101562002bf657808201518184015260208101905062002bd9565b50505050905090810190601f16801562002c245780820380516001836020036101000a031916815260200191505b509250505060405180910390fd5b5060008385039050809150509392505050565b6000808447101562002cbf576040517f08c379a000000000000000000000000000000000000000000000000000000000815260040180806020018281038252601d8152602001807f437265617465323a20696e73756666696369656e742062616c616e636500000081525060200191505060405180910390fd5b60008351141562002d38576040517f08c379a00000000000000000000000000000000000000000000000000000000081526004018080602001828103825260208152602001807f437265617465323a2062797465636f6465206c656e677468206973207a65726f81525060200191505060405180910390fd5b8383516020850187f59050600073ffffffffffffffffffffffffffffffffffffffff168173ffffffffffffffffffffffffffffffffffffffff16141562002de7576040517f08c379a00000000000000000000000000000000000000000000000000000000081526004018080602001828103825260198152602001807f437265617465323a204661696c6564206f6e206465706c6f790000000000000081525060200191505060405180910390fd5b809150509392505050565b600560009054906101000a900473ffffffffffffffffffffffffffffffffffffffff1673ffffffffffffffffffffffffffffffffffffffff163373ffffffffffffffffffffffffffffffffffffffff161462002eb6576040517f08c379a00000000000000000000000000000000000000000000000000000000081526004018080602001828103825260118152602001807f5570446f776e3a4f6e6c79206f776e657200000000000000000000000000000081525060200191505060405180910390fd5b81600360006101000a81548173ffffffffffffffffffffffffffffffffffffffff021916908373ffffffffffffffffffffffffffffffffffffffff16021790555080600460006101000a81548173ffffffffffffffffffffffffffffffffffffffff021916908373ffffffffffffffffffffffffffffffffffffffff1602179055505050565b60008082141562002f51576000905062003000565b600062002fc8600e60149054906101000a900460ff1660ff1662002fb962002f8b670de0b6b3a76400008762001f6a90919063ffffffff16565b62002faa670de0b6b3a7640000808a0262001f6a90919063ffffffff16565b62001b7e90919063ffffffff16565b62001f6a90919063ffffffff16565b9050670de0b6b3a7640000811062002ffb5762002ff86001670de0b6b3a764000062001bca90919063ffffffff16565b90505b809150505b92915050565b600081831062003017578162003019565b825b905092915050565b600073ffffffffffffffffffffffffffffffffffffffff16600d60009054906101000a900473ffffffffffffffffffffffffffffffffffffffff1673ffffffffffffffffffffffffffffffffffffffff16146200334357600073ffffffffffffffffffffffffffffffffffffffff16600e60009054906101000a900473ffffffffffffffffffffffffffffffffffffffff1673ffffffffffffffffffffffffffffffffffffffff1614156200326657600d60009054906101000a900473ffffffffffffffffffffffffffffffffffffffff1673ffffffffffffffffffffffffffffffffffffffff1663e6a43905600360009054906101000a900473ffffffffffffffffffffffffffffffffffffffff16600460009054906101000a900473ffffffffffffffffffffffffffffffffffffffff166040518363ffffffff1660e01b8152600401808373ffffffffffffffffffffffffffffffffffffffff1673ffffffffffffffffffffffffffffffffffffffff1681526020018273ffffffffffffffffffffffffffffffffffffffff1673ffffffffffffffffffffffffffffffffffffffff1681526020019250505060206040518083038186803b158015620031e857600080fd5b505afa158015620031fd573d6000803e3d6000fd5b505050506040513d60208110156200321457600080fd5b8101908080519060200190929190505050600e60006101000a81548173ffffffffffffffffffffffffffffffffffffffff021916908373ffffffffffffffffffffffffffffffffffffffff1602179055505b600073ffffffffffffffffffffffffffffffffffffffff16600e60009054906101000a900473ffffffffffffffffffffffffffffffffffffffff1673ffffffffffffffffffffffffffffffffffffffff16146200334257600e60009054906101000a900473ffffffffffffffffffffffffffffffffffffffff1673ffffffffffffffffffffffffffffffffffffffff1663fff6cae96040518163ffffffff1660e01b8152600401600060405180830381600087803b1580156200332857600080fd5b505af11580156200333d573d6000803e3d6000fd5b505050505b5b565b612ac980620033548339019056fe60806040526012600360006101000a81548160ff021916908360ff16021790555034801561002c57600080fd5b50600061003d61014360201b60201c565b9050806000806101000a81548173ffffffffffffffffffffffffffffffffffffffff021916908373ffffffffffffffffffffffffffffffffffffffff1602179055508073ffffffffffffffffffffffffffffffffffffffff16600073ffffffffffffffffffffffffffffffffffffffff167f8be0079c531659141344cd1fd0a4f28419497f9722a3daafe3b4186f6b6457e060405160405180910390a35060006004819055506000600760003373ffffffffffffffffffffffffffffffffffffffff1673ffffffffffffffffffffffffffffffffffffffff168152602001908152602001600020819055506ec097ce7bc90715b34b9f100000000060068190555061014b565b600033905090565b61296f8061015a6000396000f3fe608060405234801561001057600080fd5b50600436106101125760003560e01c806306fdde0314610117578063077f224a1461019a578063095ea7b31461030c57806318160ddd1461037257806323b872dd146103905780632f86556814610416578063395093511461046e57806340c10f19146104d457806370a082311461053a578063715018a6146105925780637a43e23f1461059c57806389afcb44146105e85780638da5cb5b1461064457806395d89b411461068e578063a457c2d714610711578063a9059cbb14610777578063b84c8246146107dd578063c47f002714610898578063c4996f5114610953578063dd62ed3e14610971578063dff4e220146109e9578063f2fde38b14610a2b575b600080fd5b61011f610a6f565b6040518080602001828103825283818151815260200191508051906020019080838360005b8381101561015f578082015181840152602081019050610144565b50505050905090810190601f16801561018c5780820380516001836020036101000a031916815260200191505b509250505060405180910390f35b61030a600480360360608110156101b057600080fd5b81019080803590602001906401000000008111156101cd57600080fd5b8201836020820111156101df57600080fd5b8035906020019184600183028401116401000000008311171561020157600080fd5b91908080601f016020809104026020016040519081016040528093929190818152602001838380828437600081840152601f19601f8201169050808301925050505050505091929192908035906020019064010000000081111561026457600080fd5b82018360208201111561027657600080fd5b8035906020019184600183028401116401000000008311171561029857600080fd5b91908080601f016020809104026020016040519081016040528093929190818152602001838380828437600081840152601f19601f820116905080830192505050505050509192919290803573ffffffffffffffffffffffffffffffffffffffff169060200190929190505050610b11565b005b6103586004803603604081101561032257600080fd5b81019080803573ffffffffffffffffffffffffffffffffffffffff16906020019092919080359060200190929190505050610d41565b604051808215151515815260200191505060405180910390f35b61037a610e33565b6040518082815260200191505060405180910390f35b6103fc600480360360608110156103a657600080fd5b81019080803573ffffffffffffffffffffffffffffffffffffffff169060200190929190803573ffffffffffffffffffffffffffffffffffffffff16906020019092919080359060200190929190505050610e3d565b604051808215151515815260200191505060405180910390f35b6104586004803603602081101561042c57600080fd5b81019080803573ffffffffffffffffffffffffffffffffffffffff169060200190929190505050610fd7565b6040518082815260200191505060405180910390f35b6104ba6004803603604081101561048457600080fd5b81019080803573ffffffffffffffffffffffffffffffffffffffff16906020019092919080359060200190929190505050611150565b604051808215151515815260200191505060405180910390f35b610520600480360360408110156104ea57600080fd5b81019080803573ffffffffffffffffffffffffffffffffffffffff1690602001909291908035906020019092919050505061134c565b604051808215151515815260200191505060405180910390f35b61057c6004803603602081101561055057600080fd5b81019080803573ffffffffffffffffffffffffffffffffffffffff169060200190929190505050611506565b6040518082815260200191505060405180910390f35b61059a611563565b005b6105d2600480360360408110156105b257600080fd5b8101908080359060200190929190803590602001909291905050506116eb565b6040518082815260200191505060405180910390f35b61062a600480360360208110156105fe57600080fd5b81019080803573ffffffffffffffffffffffffffffffffffffffff169060200190929190505050611921565b604051808215151515815260200191505060405180910390f35b61064c611acf565b604051808273ffffffffffffffffffffffffffffffffffffffff1673ffffffffffffffffffffffffffffffffffffffff16815260200191505060405180910390f35b610696611af8565b6040518080602001828103825283818151815260200191508051906020019080838360005b838110156106d65780820151818401526020810190506106bb565b50505050905090810190601f1680156107035780820380516001836020036101000a031916815260200191505b509250505060405180910390f35b61075d6004803603604081101561072757600080fd5b81019080803573ffffffffffffffffffffffffffffffffffffffff16906020019092919080359060200190929190505050611b9a565b604051808215151515815260200191505060405180910390f35b6107c36004803603604081101561078d57600080fd5b81019080803573ffffffffffffffffffffffffffffffffffffffff16906020019092919080359060200190929190505050611e2a565b604051808215151515815260200191505060405180910390f35b610896600480360360208110156107f357600080fd5b810190808035906020019064010000000081111561081057600080fd5b82018360208201111561082257600080fd5b8035906020019184600183028401116401000000008311171561084457600080fd5b91908080601f016020809104026020016040519081016040528093929190818152602001838380828437600081840152601f19601f820116905080830192505050505050509192919290505050612054565b005b610951600480360360208110156108ae57600080fd5b81019080803590602001906401000000008111156108cb57600080fd5b8201836020820111156108dd57600080fd5b803590602001918460018302840111640100000000831117156108ff57600080fd5b91908080601f016020809104026020016040519081016040528093929190818152602001838380828437600081840152601f19601f82011690508083019250505050505050919291929050505061206e565b005b61095b612088565b6040518082815260200191505060405180910390f35b6109d36004803603604081101561098757600080fd5b81019080803573ffffffffffffffffffffffffffffffffffffffff169060200190929190803573ffffffffffffffffffffffffffffffffffffffff16906020019092919050505061208e565b6040518082815260200191505060405180910390f35b610a15600480360360208110156109ff57600080fd5b8101908080359060200190929190505050612115565b6040518082815260200191505060405180910390f35b610a6d60048036036020811015610a4157600080fd5b81019080803573ffffffffffffffffffffffffffffffffffffffff16906020019092919050505061212d565b005b606060018054600181600116156101000203166002900480601f016020809104026020016040519081016040528092919081815260200182805460018160011615610100020316600290048015610b075780601f10610adc57610100808354040283529160200191610b07565b820191906000526020600020905b815481529060010190602001808311610aea57829003601f168201915b5050505050905090565b610b1961233a565b73ffffffffffffffffffffffffffffffffffffffff166000809054906101000a900473ffffffffffffffffffffffffffffffffffffffff1673ffffffffffffffffffffffffffffffffffffffff1614610bda576040517f08c379a00000000000000000000000000000000000000000000000000000000081526004018080602001828103825260208152602001807f4f776e61626c653a2063616c6c6572206973206e6f7420746865206f776e657281525060200191505060405180910390fd5b610be38361206e565b610bec82612054565b600060076000610bfa611acf565b73ffffffffffffffffffffffffffffffffffffffff1673ffffffffffffffffffffffffffffffffffffffff168152602001908152602001600020549050600060076000610c45611acf565b73ffffffffffffffffffffffffffffffffffffffff1673ffffffffffffffffffffffffffffffffffffffff16815260200190815260200160002081905550610cd581600760008573ffffffffffffffffffffffffffffffffffffffff1673ffffffffffffffffffffffffffffffffffffffff1681526020019081526020016000205461234290919063ffffffff16565b600760008473ffffffffffffffffffffffffffffffffffffffff1673ffffffffffffffffffffffffffffffffffffffff168152602001908152602001600020819055506006546008600080815260200190815260200160002081905550610d3b8261212d565b50505050565b600081600960003373ffffffffffffffffffffffffffffffffffffffff1673ffffffffffffffffffffffffffffffffffffffff16815260200190815260200160002060008573ffffffffffffffffffffffffffffffffffffffff1673ffffffffffffffffffffffffffffffffffffffff168152602001908152602001600020819055508273ffffffffffffffffffffffffffffffffffffffff163373ffffffffffffffffffffffffffffffffffffffff167f8c5be1e5ebec7d5bd14f71427d1e84f3dd0314c0f7b2291e5b200ac8c7c3b925846040518082815260200191505060405180910390a36001905092915050565b6000600454905090565b600082600073ffffffffffffffffffffffffffffffffffffffff168173ffffffffffffffffffffffffffffffffffffffff161415610e7a57600080fd5b3073ffffffffffffffffffffffffffffffffffffffff168173ffffffffffffffffffffffffffffffffffffffff161415610eb357600080fd5b610f4283600960008873ffffffffffffffffffffffffffffffffffffffff1673ffffffffffffffffffffffffffffffffffffffff16815260200190815260200160002060003373ffffffffffffffffffffffffffffffffffffffff1673ffffffffffffffffffffffffffffffffffffffff168152602001908152602001600020546123ca90919063ffffffff16565b600960008773ffffffffffffffffffffffffffffffffffffffff1673ffffffffffffffffffffffffffffffffffffffff16815260200190815260200160002060003373ffffffffffffffffffffffffffffffffffffffff1673ffffffffffffffffffffffffffffffffffffffff16815260200190815260200160002081905550610fcd858585612414565b9150509392505050565b6000610fe161233a565b73ffffffffffffffffffffffffffffffffffffffff166000809054906101000a900473ffffffffffffffffffffffffffffffffffffffff1673ffffffffffffffffffffffffffffffffffffffff16146110a2576040517f08c379a00000000000000000000000000000000000000000000000000000000081526004018080602001828103825260208152602001807f4f776e61626c653a2063616c6c6572206973206e6f7420746865206f776e657281525060200191505060405180910390fd5b60006110ad83611506565b905060006110c6600654836125c990919063ffffffff16565b90506110da846110d4611acf565b84612414565b507f05aeea22582abbfdbc7681fd1d04fa2fe248c0f77e3734a766e0e431f5f92c2a8483604051808373ffffffffffffffffffffffffffffffffffffffff1673ffffffffffffffffffffffffffffffffffffffff1681526020018281526020019250505060405180910390a18092505050919050565b60006111e182600960003373ffffffffffffffffffffffffffffffffffffffff1673ffffffffffffffffffffffffffffffffffffffff16815260200190815260200160002060008673ffffffffffffffffffffffffffffffffffffffff1673ffffffffffffffffffffffffffffffffffffffff1681526020019081526020016000205461234290919063ffffffff16565b600960003373ffffffffffffffffffffffffffffffffffffffff1673ffffffffffffffffffffffffffffffffffffffff16815260200190815260200160002060008573ffffffffffffffffffffffffffffffffffffffff1673ffffffffffffffffffffffffffffffffffffffff168152602001908152602001600020819055508273ffffffffffffffffffffffffffffffffffffffff163373ffffffffffffffffffffffffffffffffffffffff167f8c5be1e5ebec7d5bd14f71427d1e84f3dd0314c0f7b2291e5b200ac8c7c3b925600960003373ffffffffffffffffffffffffffffffffffffffff1673ffffffffffffffffffffffffffffffffffffffff16815260200190815260200160002060008773ffffffffffffffffffffffffffffffffffffffff1673ffffffffffffffffffffffffffffffffffffffff168152602001908152602001600020546040518082815260200191505060405180910390a36001905092915050565b600061135661233a565b73ffffffffffffffffffffffffffffffffffffffff166000809054906101000a900473ffffffffffffffffffffffffffffffffffffffff1673ffffffffffffffffffffffffffffffffffffffff1614611417576040517f08c379a00000000000000000000000000000000000000000000000000000000081526004018080602001828103825260208152602001807f4f776e61626c653a2063616c6c6572206973206e6f7420746865206f776e657281525060200191505060405180910390fd5b61142c8260045461234290919063ffffffff16565b6004819055506000611449600654846125c990919063ffffffff16565b905061149d81600760008773ffffffffffffffffffffffffffffffffffffffff1673ffffffffffffffffffffffffffffffffffffffff1681526020019081526020016000205461234290919063ffffffff16565b600760008673ffffffffffffffffffffffffffffffffffffffff1673ffffffffffffffffffffffffffffffffffffffff168152602001908152602001600020819055506114f58160055461234290919063ffffffff16565b600581905550600191505092915050565b600061155c600654600760008573ffffffffffffffffffffffffffffffffffffffff1673ffffffffffffffffffffffffffffffffffffffff1681526020019081526020016000205461264f90919063ffffffff16565b9050919050565b61156b61233a565b73ffffffffffffffffffffffffffffffffffffffff166000809054906101000a900473ffffffffffffffffffffffffffffffffffffffff1673ffffffffffffffffffffffffffffffffffffffff161461162c576040517f08c379a00000000000000000000000000000000000000000000000000000000081526004018080602001828103825260208152602001807f4f776e61626c653a2063616c6c6572206973206e6f7420746865206f776e657281525060200191505060405180910390fd5b600073ffffffffffffffffffffffffffffffffffffffff166000809054906101000a900473ffffffffffffffffffffffffffffffffffffffff1673ffffffffffffffffffffffffffffffffffffffff167f8be0079c531659141344cd1fd0a4f28419497f9722a3daafe3b4186f6b6457e060405160405180910390a360008060006101000a81548173ffffffffffffffffffffffffffffffffffffffff021916908373ffffffffffffffffffffffffffffffffffffffff160217905550565b60006116f561233a565b73ffffffffffffffffffffffffffffffffffffffff166000809054906101000a900473ffffffffffffffffffffffffffffffffffffffff1673ffffffffffffffffffffffffffffffffffffffff16146117b6576040517f08c379a00000000000000000000000000000000000000000000000000000000081526004018080602001828103825260208152602001807f4f776e61626c653a2063616c6c6572206973206e6f7420746865206f776e657281525060200191505060405180910390fd5b600082141561181d57827f72725a3b1e5bd622d6bcd1339bb31279c351abe8f541ac7fd320f24e1b1641f26004546040518082815260200191505060405180910390a26006546008600085815260200190815260200160002081905550600454905061191b565b600082121561184e5761184361183283612699565b6004546123ca90919063ffffffff16565b60048190555061186a565b6118638260045461234290919063ffffffff16565b6004819055505b6000196fffffffffffffffffffffffffffffffff1660045411156118a4576000196fffffffffffffffffffffffffffffffff166004819055505b6118bb60045460055461264f90919063ffffffff16565b6006819055506006546008600085815260200190815260200160002081905550827f72725a3b1e5bd622d6bcd1339bb31279c351abe8f541ac7fd320f24e1b1641f26004546040518082815260200191505060405180910390a260045490505b92915050565b600061192b61233a565b73ffffffffffffffffffffffffffffffffffffffff166000809054906101000a900473ffffffffffffffffffffffffffffffffffffffff1673ffffffffffffffffffffffffffffffffffffffff16146119ec576040517f08c379a00000000000000000000000000000000000000000000000000000000081526004018080602001828103825260208152602001807f4f776e61626c653a2063616c6c6572206973206e6f7420746865206f776e657281525060200191505060405180910390fd5b6000600760008473ffffffffffffffffffffffffffffffffffffffff1673ffffffffffffffffffffffffffffffffffffffff1681526020019081526020016000205490506000600760008573ffffffffffffffffffffffffffffffffffffffff1673ffffffffffffffffffffffffffffffffffffffff168152602001908152602001600020819055506000611a8c6006548361264f90919063ffffffff16565b9050611aa3826005546123ca90919063ffffffff16565b600581905550611abe816004546123ca90919063ffffffff16565b600481905550600192505050919050565b60008060009054906101000a900473ffffffffffffffffffffffffffffffffffffffff16905090565b606060028054600181600116156101000203166002900480601f016020809104026020016040519081016040528092919081815260200182805460018160011615610100020316600290048015611b905780601f10611b6557610100808354040283529160200191611b90565b820191906000526020600020905b815481529060010190602001808311611b7357829003601f168201915b5050505050905090565b600080600960003373ffffffffffffffffffffffffffffffffffffffff1673ffffffffffffffffffffffffffffffffffffffff16815260200190815260200160002060008573ffffffffffffffffffffffffffffffffffffffff1673ffffffffffffffffffffffffffffffffffffffff168152602001908152602001600020549050808310611caa576000600960003373ffffffffffffffffffffffffffffffffffffffff1673ffffffffffffffffffffffffffffffffffffffff16815260200190815260200160002060008673ffffffffffffffffffffffffffffffffffffffff1673ffffffffffffffffffffffffffffffffffffffff16815260200190815260200160002081905550611d3e565b611cbd83826123ca90919063ffffffff16565b600960003373ffffffffffffffffffffffffffffffffffffffff1673ffffffffffffffffffffffffffffffffffffffff16815260200190815260200160002060008673ffffffffffffffffffffffffffffffffffffffff1673ffffffffffffffffffffffffffffffffffffffff168152602001908152602001600020819055505b8373ffffffffffffffffffffffffffffffffffffffff163373ffffffffffffffffffffffffffffffffffffffff167f8c5be1e5ebec7d5bd14f71427d1e84f3dd0314c0f7b2291e5b200ac8c7c3b925600960003373ffffffffffffffffffffffffffffffffffffffff1673ffffffffffffffffffffffffffffffffffffffff16815260200190815260200160002060008873ffffffffffffffffffffffffffffffffffffffff1673ffffffffffffffffffffffffffffffffffffffff168152602001908152602001600020546040518082815260200191505060405180910390a3600191505092915050565b600082600073ffffffffffffffffffffffffffffffffffffffff168173ffffffffffffffffffffffffffffffffffffffff161415611e6757600080fd5b3073ffffffffffffffffffffffffffffffffffffffff168173ffffffffffffffffffffffffffffffffffffffff161415611ea057600080fd5b6000611eb7600654856125c990919063ffffffff16565b9050611f0b81600760003373ffffffffffffffffffffffffffffffffffffffff1673ffffffffffffffffffffffffffffffffffffffff168152602001908152602001600020546123ca90919063ffffffff16565b600760003373ffffffffffffffffffffffffffffffffffffffff1673ffffffffffffffffffffffffffffffffffffffff16815260200190815260200160002081905550611fa081600760008873ffffffffffffffffffffffffffffffffffffffff1673ffffffffffffffffffffffffffffffffffffffff1681526020019081526020016000205461234290919063ffffffff16565b600760008773ffffffffffffffffffffffffffffffffffffffff1673ffffffffffffffffffffffffffffffffffffffff168152602001908152602001600020819055508473ffffffffffffffffffffffffffffffffffffffff163373ffffffffffffffffffffffffffffffffffffffff167fddf252ad1be2c89b69c2b068fc378daa952ba7f163c4a11628f55a4df523b3ef866040518082815260200191505060405180910390a360019250505092915050565b806002908051906020019061206a92919061284d565b5050565b806001908051906020019061208492919061284d565b5050565b60065481565b6000600960008473ffffffffffffffffffffffffffffffffffffffff1673ffffffffffffffffffffffffffffffffffffffff16815260200190815260200160002060008373ffffffffffffffffffffffffffffffffffffffff1673ffffffffffffffffffffffffffffffffffffffff16815260200190815260200160002054905092915050565b60086020528060005260406000206000915090505481565b61213561233a565b73ffffffffffffffffffffffffffffffffffffffff166000809054906101000a900473ffffffffffffffffffffffffffffffffffffffff1673ffffffffffffffffffffffffffffffffffffffff16146121f6576040517f08c379a00000000000000000000000000000000000000000000000000000000081526004018080602001828103825260208152602001807f4f776e61626c653a2063616c6c6572206973206e6f7420746865206f776e657281525060200191505060405180910390fd5b600073ffffffffffffffffffffffffffffffffffffffff168173ffffffffffffffffffffffffffffffffffffffff16141561227c576040517f08c379a00000000000000000000000000000000000000000000000000000000081526004018080602001828103825260268152602001806128f36026913960400191505060405180910390fd5b8073ffffffffffffffffffffffffffffffffffffffff166000809054906101000a900473ffffffffffffffffffffffffffffffffffffffff1673ffffffffffffffffffffffffffffffffffffffff167f8be0079c531659141344cd1fd0a4f28419497f9722a3daafe3b4186f6b6457e060405160405180910390a3806000806101000a81548173ffffffffffffffffffffffffffffffffffffffff021916908373ffffffffffffffffffffffffffffffffffffffff16021790555050565b600033905090565b6000808284019050838110156123c0576040517f08c379a000000000000000000000000000000000000000000000000000000000815260040180806020018281038252601b8152602001807f536166654d6174683a206164646974696f6e206f766572666c6f77000000000081525060200191505060405180910390fd5b8091505092915050565b600061240c83836040518060400160405280601e81526020017f536166654d6174683a207375627472616374696f6e206f766572666c6f7700008152506126c7565b905092915050565b60008061242c600654846125c990919063ffffffff16565b905061248081600760008873ffffffffffffffffffffffffffffffffffffffff1673ffffffffffffffffffffffffffffffffffffffff168152602001908152602001600020546123ca90919063ffffffff16565b600760008773ffffffffffffffffffffffffffffffffffffffff1673ffffffffffffffffffffffffffffffffffffffff1681526020019081526020016000208190555061251581600760008773ffffffffffffffffffffffffffffffffffffffff1673ffffffffffffffffffffffffffffffffffffffff1681526020019081526020016000205461234290919063ffffffff16565b600760008673ffffffffffffffffffffffffffffffffffffffff1673ffffffffffffffffffffffffffffffffffffffff168152602001908152602001600020819055508373ffffffffffffffffffffffffffffffffffffffff168573ffffffffffffffffffffffffffffffffffffffff167fddf252ad1be2c89b69c2b068fc378daa952ba7f163c4a11628f55a4df523b3ef856040518082815260200191505060405180910390a360019150509392505050565b6000808314156125dc5760009050612649565b60008284029050828482816125ed57fe5b0414612644576040517f08c379a00000000000000000000000000000000000000000000000000000000081526004018080602001828103825260218152602001806129196021913960400191505060405180910390fd5b809150505b92915050565b600061269183836040518060400160405280601a81526020017f536166654d6174683a206469766973696f6e206279207a65726f000000000000815250612787565b905092915050565b600060ff6001901b8214156126ad57600080fd5b600082126126bb57816126c0565b816000035b9050919050565b6000838311158290612774576040517f08c379a00000000000000000000000000000000000000000000000000000000081526004018080602001828103825283818151815260200191508051906020019080838360005b8381101561273957808201518184015260208101905061271e565b50505050905090810190601f1680156127665780820380516001836020036101000a031916815260200191505b509250505060405180910390fd5b5060008385039050809150509392505050565b60008083118290612833576040517f08c379a00000000000000000000000000000000000000000000000000000000081526004018080602001828103825283818151815260200191508051906020019080838360005b838110156127f85780820151818401526020810190506127dd565b50505050905090810190601f1680156128255780820380516001836020036101000a031916815260200191505b509250505060405180910390fd5b50600083858161283f57fe5b049050809150509392505050565b828054600181600116156101000203166002900490600052602060002090601f016020900481019282601f1061288e57805160ff19168380011785556128bc565b828001600101855582156128bc579182015b828111156128bb5782518255916020019190600101906128a0565b5b5090506128c991906128cd565b5090565b6128ef91905b808211156128eb5760008160009055506001016128d3565b5090565b9056fe4f776e61626c653a206e6577206f776e657220697320746865207a65726f2061646472657373536166654d6174683a206d756c7469706c69636174696f6e206f766572666c6f77a2646970667358221220aa672aa2e69e51de22e941b11f1ec6aa2ef8c4a0c51fab48b7e2ebad098c324a64736f6c63430006060033536166654d6174683a206d756c7469706c69636174696f6e206f766572666c6f77a2646970667358221220de2f51a48214a8d7c4c99fdbf72eff0376b663a3eabc6a322bcd03be9549977364736f6c63430006060033"
}