{
  "abi": [
    {
      "inputs": [],
      "stateMutability": "nonpayable",
      "type": "constructor"
    },
    {
      "inputs": [
        {
          "internalType": "uint256",
          "name": "amount",
          "type": "uint256"
        }
      ],
      "name": "deposit",
      "outputs": [],
      "stateMutability": "nonpayable",
      "type": "function"
    },
    {
      "inputs": [],
      "name": "down",
      "outputs": [
        {
          "internalType": "contract RebaseableToken",
          "name": "",
          "type": "address"
        }
      ],
      "stateMutability": "view",
      "type": "function"
    },
    {
      "inputs": [],
      "name": "downsLiquidated",
      "outputs": [
        {
          "internalType": "uint256",
          "name": "",
          "type": "uint256"
        }
      ],
      "stateMutability": "view",
      "type": "function"
    },
    {
      "inputs": [],
      "name": "epoch",
      "outputs": [
        {
          "internalType": "uint256",
          "name": "",
          "type": "uint256"
        }
      ],
      "stateMutability": "view",
      "type": "function"
    },
    {
      "inputs": [],
      "name": "epochLength",
      "outputs": [
        {
          "internalType": "uint256",
          "name": "",
          "type": "uint256"
        }
      ],
      "stateMutability": "view",
      "type": "function"
    },
    {
      "inputs": [],
      "name": "epochStart",
      "outputs": [
        {
          "internalType": "uint256",
          "name": "",
          "type": "uint256"
        }
      ],
      "stateMutability": "view",
      "type": "function"
    },
    {
      "inputs": [],
      "name": "epochStartPrice",
      "outputs": [
        {
          "internalType": "uint256",
          "name": "",
          "type": "uint256"
        }
      ],
      "stateMutability": "view",
      "type": "function"
    },
    {
      "inputs": [
        {
          "internalType": "address",
          "name": "owner_",
          "type": "address"
        },
        {
          "internalType": "address",
          "name": "payoutToken_",
          "type": "address"
        },
        {
          "internalType": "uint256",
          "name": "epochLength_",
          "type": "uint256"
        },
        {
          "internalType": "uint8",
          "name": "multiplier_",
          "type": "uint8"
        },
        {
          "internalType": "address",
          "name": "oracle_",
          "type": "address"
        },
        {
          "internalType": "address",
          "name": "factory_",
          "type": "address"
        },
        {
          "internalType": "address",
          "name": "underlying_",
          "type": "address"
        }
      ],
      "name": "initialize",
      "outputs": [],
      "stateMutability": "nonpayable",
      "type": "function"
    },
    {
      "inputs": [],
      "name": "liquidate",
      "outputs": [],
      "stateMutability": "nonpayable",
      "type": "function"
    },
    {
      "inputs": [],
      "name": "multiplier",
      "outputs": [
        {
          "internalType": "uint8",
          "name": "",
          "type": "uint8"
        }
      ],
      "stateMutability": "view",
      "type": "function"
    },
    {
      "inputs": [],
      "name": "oracle",
      "outputs": [
        {
          "internalType": "contract IPriceOracleGetter",
          "name": "",
          "type": "address"
        }
      ],
      "stateMutability": "view",
      "type": "function"
    },
    {
      "inputs": [],
      "name": "payoutToken",
      "outputs": [
        {
          "internalType": "contract IERC20",
          "name": "",
          "type": "address"
        }
      ],
      "stateMutability": "view",
      "type": "function"
    },
    {
      "inputs": [
        {
          "internalType": "address",
          "name": "newOwner",
          "type": "address"
        }
      ],
      "name": "setOwner",
      "outputs": [],
      "stateMutability": "nonpayable",
      "type": "function"
    },
    {
      "inputs": [],
      "name": "settle",
      "outputs": [],
      "stateMutability": "nonpayable",
      "type": "function"
    },
    {
      "inputs": [],
      "name": "testForEnd",
      "outputs": [],
      "stateMutability": "nonpayable",
      "type": "function"
    },
    {
      "inputs": [],
      "name": "underlying",
      "outputs": [
        {
          "internalType": "contract IERC20",
          "name": "",
          "type": "address"
        }
      ],
      "stateMutability": "view",
      "type": "function"
    },
    {
      "inputs": [],
      "name": "uniswapFactory",
      "outputs": [
        {
          "internalType": "contract IMinimalUniswapV2Factory",
          "name": "",
          "type": "address"
        }
      ],
      "stateMutability": "view",
      "type": "function"
    },
    {
      "inputs": [],
      "name": "uniswapPair",
      "outputs": [
        {
          "internalType": "contract IMinimalUniswapV2Pair",
          "name": "",
          "type": "address"
        }
      ],
      "stateMutability": "view",
      "type": "function"
    },
    {
      "inputs": [],
      "name": "up",
      "outputs": [
        {
          "internalType": "contract RebaseableToken",
          "name": "",
          "type": "address"
        }
      ],
      "stateMutability": "view",
      "type": "function"
    },
    {
      "inputs": [],
      "name": "upsLiquidated",
      "outputs": [
        {
          "internalType": "uint256",
          "name": "",
          "type": "uint256"
        }
      ],
      "stateMutability": "view",
      "type": "function"
    }
  ],
  "address": "0x996C134E7551e3ff25056fe63Ae1C4A5a55860c1",
  "args": [],
  "solcInputHash": "0xbb18e901ef7857b074d9ee7d39b250b7851ec37cafd2f0b781bb543487ffbdae",
  "bytecode": "0x6080604052600160085534801561001557600080fd5b5033600460006101000a81548173ffffffffffffffffffffffffffffffffffffffff021916908373ffffffffffffffffffffffffffffffffffffffff160217905550615bb1806100666000396000f3fe60806040523480156200001157600080fd5b5060043610620001125760003560e01c806301d24d3e146200011757806311da60b4146200013757806313af4035146200014357806315e5a1e5146200018a5780631b3ed72214620001aa57806328a0702514620001d05780634efa82b614620001dc57806357d775f814620002285780636f307dc31462000248578063713df9e814620002945780637dc0d1d014620002a05780638334109414620002ec57806384be9a8314620003ca57806384f6108714620003ea5780638bdb2afa146200040a578063900cf0cf1462000456578063b6b55f251462000476578063c816841b14620004a7578063d5a49e0114620004f3578063d8337928146200053f575b600080fd5b620001216200058b565b6040518082815260200191505060405180910390f35b6200014162000591565b005b62000188600480360360208110156200015b57600080fd5b81019080803573ffffffffffffffffffffffffffffffffffffffff1690602001909291905050506200077e565b005b620001946200081d565b6040518082815260200191505060405180910390f35b620001b462000823565b604051808260ff1660ff16815260200191505060405180910390f35b620001da62000836565b005b620001e662000e75565b604051808273ffffffffffffffffffffffffffffffffffffffff1673ffffffffffffffffffffffffffffffffffffffff16815260200191505060405180910390f35b6200023262000e9b565b6040518082815260200191505060405180910390f35b6200025262000ea1565b604051808273ffffffffffffffffffffffffffffffffffffffff1673ffffffffffffffffffffffffffffffffffffffff16815260200191505060405180910390f35b6200029e62000ec7565b005b620002aa62000ef4565b604051808273ffffffffffffffffffffffffffffffffffffffff1673ffffffffffffffffffffffffffffffffffffffff16815260200191505060405180910390f35b620003c8600480360360e08110156200030457600080fd5b81019080803573ffffffffffffffffffffffffffffffffffffffff169060200190929190803573ffffffffffffffffffffffffffffffffffffffff16906020019092919080359060200190929190803560ff169060200190929190803573ffffffffffffffffffffffffffffffffffffffff169060200190929190803573ffffffffffffffffffffffffffffffffffffffff169060200190929190803573ffffffffffffffffffffffffffffffffffffffff16906020019092919050505062000f1a565b005b620003d4620011db565b6040518082815260200191505060405180910390f35b620003f4620011e1565b6040518082815260200191505060405180910390f35b62000414620011e7565b604051808273ffffffffffffffffffffffffffffffffffffffff1673ffffffffffffffffffffffffffffffffffffffff16815260200191505060405180910390f35b620004606200120d565b6040518082815260200191505060405180910390f35b620004a5600480360360208110156200048e57600080fd5b810190808035906020019092919050505062001213565b005b620004b162001572565b604051808273ffffffffffffffffffffffffffffffffffffffff1673ffffffffffffffffffffffffffffffffffffffff16815260200191505060405180910390f35b620004fd62001598565b604051808273ffffffffffffffffffffffffffffffffffffffff1673ffffffffffffffffffffffffffffffffffffffff16815260200191505060405180910390f35b62000549620015be565b604051808273ffffffffffffffffffffffffffffffffffffffff1673ffffffffffffffffffffffffffffffffffffffff16815260200191505060405180910390f35b60005481565b620005aa600954600754620015e490919063ffffffff16565b4310620005bc57620005bb6200166d565b5b600260009054906101000a900473ffffffffffffffffffffffffffffffffffffffff1673ffffffffffffffffffffffffffffffffffffffff16636a256b29336040518263ffffffff1660e01b8152600401808273ffffffffffffffffffffffffffffffffffffffff1673ffffffffffffffffffffffffffffffffffffffff168152602001915050602060405180830381600087803b1580156200065e57600080fd5b505af115801562000673573d6000803e3d6000fd5b505050506040513d60208110156200068a57600080fd5b810190808051906020019092919050505050600360009054906101000a900473ffffffffffffffffffffffffffffffffffffffff1673ffffffffffffffffffffffffffffffffffffffff16636a256b29336040518263ffffffff1660e01b8152600401808273ffffffffffffffffffffffffffffffffffffffff1673ffffffffffffffffffffffffffffffffffffffff168152602001915050602060405180830381600087803b1580156200073e57600080fd5b505af115801562000753573d6000803e3d6000fd5b505050506040513d60208110156200076a57600080fd5b810190808051906020019092919050505050565b600460009054906101000a900473ffffffffffffffffffffffffffffffffffffffff1673ffffffffffffffffffffffffffffffffffffffff163373ffffffffffffffffffffffffffffffffffffffff1614620007d957600080fd5b80600460006101000a81548173ffffffffffffffffffffffffffffffffffffffff021916908373ffffffffffffffffffffffffffffffffffffffff16021790555050565b60075481565b600d60149054906101000a900460ff1681565b6200084f600954600754620015e490919063ffffffff16565b43106200086157620008606200166d565b5b60003390506000600260009054906101000a900473ffffffffffffffffffffffffffffffffffffffff1673ffffffffffffffffffffffffffffffffffffffff166370a08231836040518263ffffffff1660e01b8152600401808273ffffffffffffffffffffffffffffffffffffffff1673ffffffffffffffffffffffffffffffffffffffff16815260200191505060206040518083038186803b1580156200090857600080fd5b505afa1580156200091d573d6000803e3d6000fd5b505050506040513d60208110156200093457600080fd5b810190808051906020019092919050505090506000600360009054906101000a900473ffffffffffffffffffffffffffffffffffffffff1673ffffffffffffffffffffffffffffffffffffffff166370a08231846040518263ffffffff1660e01b8152600401808273ffffffffffffffffffffffffffffffffffffffff1673ffffffffffffffffffffffffffffffffffffffff16815260200191505060206040518083038186803b158015620009e957600080fd5b505afa158015620009fe573d6000803e3d6000fd5b505050506040513d602081101562000a1557600080fd5b81019080805190602001909291905050509050600260009054906101000a900473ffffffffffffffffffffffffffffffffffffffff1673ffffffffffffffffffffffffffffffffffffffff16632f865568846040518263ffffffff1660e01b8152600401808273ffffffffffffffffffffffffffffffffffffffff1673ffffffffffffffffffffffffffffffffffffffff168152602001915050602060405180830381600087803b15801562000aca57600080fd5b505af115801562000adf573d6000803e3d6000fd5b505050506040513d602081101562000af657600080fd5b810190808051906020019092919050505050600360009054906101000a900473ffffffffffffffffffffffffffffffffffffffff1673ffffffffffffffffffffffffffffffffffffffff16632f865568846040518263ffffffff1660e01b8152600401808273ffffffffffffffffffffffffffffffffffffffff1673ffffffffffffffffffffffffffffffffffffffff168152602001915050602060405180830381600087803b15801562000baa57600080fd5b505af115801562000bbf573d6000803e3d6000fd5b505050506040513d602081101562000bd657600080fd5b81019080805190602001909291905050505081600080828254019250508190555080600160008282540192505081905550600062000c3360c862000c248486620015e490919063ffffffff16565b6200177890919063ffffffff16565b9050600062000c4e6103e8836200177890919063ffffffff16565b9050600062000c678284620017c490919063ffffffff16565b9050600b60009054906101000a900473ffffffffffffffffffffffffffffffffffffffff1673ffffffffffffffffffffffffffffffffffffffff1663a9059cbb87836040518363ffffffff1660e01b8152600401808373ffffffffffffffffffffffffffffffffffffffff1673ffffffffffffffffffffffffffffffffffffffff16815260200182815260200192505050602060405180830381600087803b15801562000d1357600080fd5b505af115801562000d28573d6000803e3d6000fd5b505050506040513d602081101562000d3f57600080fd5b810190808051906020019092919050505062000d5a57600080fd5b600b60009054906101000a900473ffffffffffffffffffffffffffffffffffffffff1673ffffffffffffffffffffffffffffffffffffffff1663a9059cbb600460009054906101000a900473ffffffffffffffffffffffffffffffffffffffff16846040518363ffffffff1660e01b8152600401808373ffffffffffffffffffffffffffffffffffffffff1673ffffffffffffffffffffffffffffffffffffffff16815260200182815260200192505050602060405180830381600087803b15801562000e2657600080fd5b505af115801562000e3b573d6000803e3d6000fd5b505050506040513d602081101562000e5257600080fd5b810190808051906020019092919050505062000e6d57600080fd5b505050505050565b600b60009054906101000a900473ffffffffffffffffffffffffffffffffffffffff1681565b60095481565b600a60009054906101000a900473ffffffffffffffffffffffffffffffffffffffff1681565b62000ee0600954600754620015e490919063ffffffff16565b431062000ef25762000ef16200166d565b5b565b600560009054906101000a900473ffffffffffffffffffffffffffffffffffffffff1681565b600460009054906101000a900473ffffffffffffffffffffffffffffffffffffffff1673ffffffffffffffffffffffffffffffffffffffff163373ffffffffffffffffffffffffffffffffffffffff161462000f7557600080fd5b86600460006101000a81548173ffffffffffffffffffffffffffffffffffffffff021916908373ffffffffffffffffffffffffffffffffffffffff16021790555085600b60006101000a81548173ffffffffffffffffffffffffffffffffffffffff021916908373ffffffffffffffffffffffffffffffffffffffff16021790555082600560006101000a81548173ffffffffffffffffffffffffffffffffffffffff021916908373ffffffffffffffffffffffffffffffffffffffff16021790555081600c60006101000a81548173ffffffffffffffffffffffffffffffffffffffff021916908373ffffffffffffffffffffffffffffffffffffffff160217905550436007819055508460098190555083600d60146101000a81548160ff021916908360ff16021790555080600a60006101000a81548173ffffffffffffffffffffffffffffffffffffffff021916908373ffffffffffffffffffffffffffffffffffffffff160217905550600560009054906101000a900473ffffffffffffffffffffffffffffffffffffffff1673ffffffffffffffffffffffffffffffffffffffff1663b3596f07826040518263ffffffff1660e01b8152600401808273ffffffffffffffffffffffffffffffffffffffff1673ffffffffffffffffffffffffffffffffffffffff16815260200191505060206040518083038186803b1580156200118357600080fd5b505afa15801562001198573d6000803e3d6000fd5b505050506040513d6020811015620011af57600080fd5b8101908080519060200190929190505050600681905550620011d062001810565b505050505050505050565b60065481565b60015481565b600c60009054906101000a900473ffffffffffffffffffffffffffffffffffffffff1681565b60085481565b6200122c600954600754620015e490919063ffffffff16565b43106200123e576200123d6200166d565b5b600b60009054906101000a900473ffffffffffffffffffffffffffffffffffffffff1673ffffffffffffffffffffffffffffffffffffffff166323b872dd3330846040518463ffffffff1660e01b8152600401808473ffffffffffffffffffffffffffffffffffffffff1673ffffffffffffffffffffffffffffffffffffffff1681526020018373ffffffffffffffffffffffffffffffffffffffff1673ffffffffffffffffffffffffffffffffffffffff1681526020018281526020019350505050602060405180830381600087803b1580156200131c57600080fd5b505af115801562001331573d6000803e3d6000fd5b505050506040513d60208110156200134857600080fd5b81019080805190602001909291905050506200136357600080fd5b600260009054906101000a900473ffffffffffffffffffffffffffffffffffffffff1673ffffffffffffffffffffffffffffffffffffffff166340c10f1933620013b860648562001b6490919063ffffffff16565b6040518363ffffffff1660e01b8152600401808373ffffffffffffffffffffffffffffffffffffffff1673ffffffffffffffffffffffffffffffffffffffff16815260200182815260200192505050602060405180830381600087803b1580156200142257600080fd5b505af115801562001437573d6000803e3d6000fd5b505050506040513d60208110156200144e57600080fd5b81019080805190602001909291905050506200146957600080fd5b600360009054906101000a900473ffffffffffffffffffffffffffffffffffffffff1673ffffffffffffffffffffffffffffffffffffffff166340c10f1933620014be60648562001b6490919063ffffffff16565b6040518363ffffffff1660e01b8152600401808373ffffffffffffffffffffffffffffffffffffffff1673ffffffffffffffffffffffffffffffffffffffff16815260200182815260200192505050602060405180830381600087803b1580156200152857600080fd5b505af11580156200153d573d6000803e3d6000fd5b505050506040513d60208110156200155457600080fd5b81019080805190602001909291905050506200156f57600080fd5b50565b600d60009054906101000a900473ffffffffffffffffffffffffffffffffffffffff1681565b600260009054906101000a900473ffffffffffffffffffffffffffffffffffffffff1681565b600360009054906101000a900473ffffffffffffffffffffffffffffffffffffffff1681565b60008082840190508381101562001663576040517f08c379a000000000000000000000000000000000000000000000000000000000815260040180806020018281038252601b8152602001807f536166654d6174683a206164646974696f6e206f766572666c6f77000000000081525060200191505060405180910390fd5b8091505092915050565b62001776600560009054906101000a900473ffffffffffffffffffffffffffffffffffffffff1673ffffffffffffffffffffffffffffffffffffffff1663b3596f07600a60009054906101000a900473ffffffffffffffffffffffffffffffffffffffff166040518263ffffffff1660e01b8152600401808273ffffffffffffffffffffffffffffffffffffffff1673ffffffffffffffffffffffffffffffffffffffff16815260200191505060206040518083038186803b1580156200173357600080fd5b505afa15801562001748573d6000803e3d6000fd5b505050506040513d60208110156200175f57600080fd5b810190808051906020019092919050505062001bef565b565b6000620017bc83836040518060400160405280601a81526020017f536166654d6174683a206469766973696f6e206279207a65726f0000000000008152506200261e565b905092915050565b60006200180883836040518060400160405280601e81526020017f536166654d6174683a207375627472616374696f6e206f766572666c6f770000815250620026e9565b905092915050565b600080606060405180602001620018279062002d06565b6020820181038252601f19601f8201166040525090506000306000604051602001808373ffffffffffffffffffffffffffffffffffffffff1673ffffffffffffffffffffffffffffffffffffffff1660601b81526014018260000b60000b60f81b8152600101925050506040516020818303038152906040528051906020012090506000306001604051602001808373ffffffffffffffffffffffffffffffffffffffff1673ffffffffffffffffffffffffffffffffffffffff1660601b81526014018260000b60000b60f81b8152600101925050506040516020818303038152906040528051906020012090506200192360008385620027ad565b94506200193360008285620027ad565b93508473ffffffffffffffffffffffffffffffffffffffff1663077f224a306040518263ffffffff1660e01b81526004018080602001806020018473ffffffffffffffffffffffffffffffffffffffff1673ffffffffffffffffffffffffffffffffffffffff168152602001838103835260088152602001807f5570446f776e5570000000000000000000000000000000000000000000000000815250602001838103825260048152602001807f75645570000000000000000000000000000000000000000000000000000000008152506020019350505050600060405180830381600087803b15801562001a2757600080fd5b505af115801562001a3c573d6000803e3d6000fd5b505050508373ffffffffffffffffffffffffffffffffffffffff1663077f224a306040518263ffffffff1660e01b81526004018080602001806020018473ffffffffffffffffffffffffffffffffffffffff1673ffffffffffffffffffffffffffffffffffffffff1681526020018381038352600a8152602001807f5570446f776e446f776e00000000000000000000000000000000000000000000815250602001838103825260048152602001807f7564446e000000000000000000000000000000000000000000000000000000008152506020019350505050600060405180830381600087803b15801562001b3257600080fd5b505af115801562001b47573d6000803e3d6000fd5b5050505062001b5785856200295a565b8484945094505050509091565b60008083141562001b79576000905062001be9565b600082840290508284828162001b8b57fe5b041462001be4576040517f08c379a000000000000000000000000000000000000000000000000000000000815260040180806020018281038252602181526020018062005b5b6021913960400191505060405180910390fd5b809150505b92915050565b6000600b60009054906101000a900473ffffffffffffffffffffffffffffffffffffffff1673ffffffffffffffffffffffffffffffffffffffff166370a08231306040518263ffffffff1660e01b8152600401808273ffffffffffffffffffffffffffffffffffffffff1673ffffffffffffffffffffffffffffffffffffffff16815260200191505060206040518083038186803b15801562001c9157600080fd5b505afa15801562001ca6573d6000803e3d6000fd5b505050506040513d602081101562001cbd57600080fd5b8101908080519060200190929190505050905060008114156200202057600260009054906101000a900473ffffffffffffffffffffffffffffffffffffffff1673ffffffffffffffffffffffffffffffffffffffff16637a43e23f6001600854017fffffffffffffffffffffffffffffffffffffffffffffffffffffffffffffffff600260009054906101000a900473ffffffffffffffffffffffffffffffffffffffff1673ffffffffffffffffffffffffffffffffffffffff166318160ddd6040518163ffffffff1660e01b815260040160206040518083038186803b15801562001da857600080fd5b505afa15801562001dbd573d6000803e3d6000fd5b505050506040513d602081101562001dd457600080fd5b8101908080519060200190929190505050026040518363ffffffff1660e01b81526004018083815260200182815260200192505050602060405180830381600087803b15801562001e2457600080fd5b505af115801562001e39573d6000803e3d6000fd5b505050506040513d602081101562001e5057600080fd5b810190808051906020019092919050505050600360009054906101000a900473ffffffffffffffffffffffffffffffffffffffff1673ffffffffffffffffffffffffffffffffffffffff16637a43e23f6001600854017fffffffffffffffffffffffffffffffffffffffffffffffffffffffffffffffff600360009054906101000a900473ffffffffffffffffffffffffffffffffffffffff1673ffffffffffffffffffffffffffffffffffffffff166318160ddd6040518163ffffffff1660e01b815260040160206040518083038186803b15801562001f3057600080fd5b505afa15801562001f45573d6000803e3d6000fd5b505050506040513d602081101562001f5c57600080fd5b8101908080519060200190929190505050026040518363ffffffff1660e01b81526004018083815260200182815260200192505050602060405180830381600087803b15801562001fac57600080fd5b505af115801562001fc1573d6000803e3d6000fd5b505050506040513d602081101562001fd857600080fd5b8101908080519060200190929190505050508160068190555060086000815480929190600101919050555043600781905550600080819055506000600181905550506200261b565b6000600260009054906101000a900473ffffffffffffffffffffffffffffffffffffffff1673ffffffffffffffffffffffffffffffffffffffff166318160ddd6040518163ffffffff1660e01b815260040160206040518083038186803b1580156200208b57600080fd5b505afa158015620020a0573d6000803e3d6000fd5b505050506040513d6020811015620020b757600080fd5b810190808051906020019092919050505090506000600360009054906101000a900473ffffffffffffffffffffffffffffffffffffffff1673ffffffffffffffffffffffffffffffffffffffff166318160ddd6040518163ffffffff1660e01b815260040160206040518083038186803b1580156200213557600080fd5b505afa1580156200214a573d6000803e3d6000fd5b505050506040513d60208110156200216157600080fd5b810190808051906020019092919050505090506000806200218485858562002a3b565b9150915060008081905550600060018190555060006006549050600081881115620021c657620021be8289620017c490919063ffffffff16565b9050620021de565b620021db8883620017c490919063ffffffff16565b90505b6000620021ec828462002bb0565b9050600062002205888762002c7a90919063ffffffff16565b905060006200221e888762002c7a90919063ffffffff16565b9050848b11156200240f5760006200225c670de0b6b3a76400006200224d868a62001b6490919063ffffffff16565b6200177890919063ffffffff16565b9050600260009054906101000a900473ffffffffffffffffffffffffffffffffffffffff1673ffffffffffffffffffffffffffffffffffffffff16637a43e23f600160085401620022b7848762002cc090919063ffffffff16565b6040518363ffffffff1660e01b81526004018083815260200182815260200192505050602060405180830381600087803b158015620022f557600080fd5b505af11580156200230a573d6000803e3d6000fd5b505050506040513d60208110156200232157600080fd5b810190808051906020019092919050505050600360009054906101000a900473ffffffffffffffffffffffffffffffffffffffff1673ffffffffffffffffffffffffffffffffffffffff16637a43e23f6001600854016200238c848662002c7a90919063ffffffff16565b6040518363ffffffff1660e01b81526004018083815260200182815260200192505050602060405180830381600087803b158015620023ca57600080fd5b505af1158015620023df573d6000803e3d6000fd5b505050506040513d6020811015620023f657600080fd5b81019080805190602001909291905050505050620025f0565b600062002442670de0b6b3a764000062002433868b62001b6490919063ffffffff16565b6200177890919063ffffffff16565b9050600360009054906101000a900473ffffffffffffffffffffffffffffffffffffffff1673ffffffffffffffffffffffffffffffffffffffff16637a43e23f6001600854016200249d848662002cc090919063ffffffff16565b6040518363ffffffff1660e01b81526004018083815260200182815260200192505050602060405180830381600087803b158015620024db57600080fd5b505af1158015620024f0573d6000803e3d6000fd5b505050506040513d60208110156200250757600080fd5b810190808051906020019092919050505050600260009054906101000a900473ffffffffffffffffffffffffffffffffffffffff1673ffffffffffffffffffffffffffffffffffffffff16637a43e23f60016008540162002572848762002c7a90919063ffffffff16565b6040518363ffffffff1660e01b81526004018083815260200182815260200192505050602060405180830381600087803b158015620025b057600080fd5b505af1158015620025c5573d6000803e3d6000fd5b505050506040513d6020811015620025dc57600080fd5b810190808051906020019092919050505050505b8a60068190555060086000815480929190600101919050555043600781905550505050505050505050505b50565b60008083118290620026ce576040517f08c379a00000000000000000000000000000000000000000000000000000000081526004018080602001828103825283818151815260200191508051906020019080838360005b838110156200269257808201518184015260208101905062002675565b50505050905090810190601f168015620026c05780820380516001836020036101000a031916815260200191505b509250505060405180910390fd5b506000838581620026db57fe5b049050809150509392505050565b60008383111582906200279a576040517f08c379a00000000000000000000000000000000000000000000000000000000081526004018080602001828103825283818151815260200191508051906020019080838360005b838110156200275e57808201518184015260208101905062002741565b50505050905090810190601f1680156200278c5780820380516001836020036101000a031916815260200191505b509250505060405180910390fd5b5060008385039050809150509392505050565b6000808447101562002827576040517f08c379a000000000000000000000000000000000000000000000000000000000815260040180806020018281038252601d8152602001807f437265617465323a20696e73756666696369656e742062616c616e636500000081525060200191505060405180910390fd5b600083511415620028a0576040517f08c379a00000000000000000000000000000000000000000000000000000000081526004018080602001828103825260208152602001807f437265617465323a2062797465636f6465206c656e677468206973207a65726f81525060200191505060405180910390fd5b8383516020850187f59050600073ffffffffffffffffffffffffffffffffffffffff168173ffffffffffffffffffffffffffffffffffffffff1614156200294f576040517f08c379a00000000000000000000000000000000000000000000000000000000081526004018080602001828103825260198152602001807f437265617465323a204661696c6564206f6e206465706c6f790000000000000081525060200191505060405180910390fd5b809150509392505050565b600460009054906101000a900473ffffffffffffffffffffffffffffffffffffffff1673ffffffffffffffffffffffffffffffffffffffff163373ffffffffffffffffffffffffffffffffffffffff1614620029b557600080fd5b81600260006101000a81548173ffffffffffffffffffffffffffffffffffffffff021916908373ffffffffffffffffffffffffffffffffffffffff16021790555080600360006101000a81548173ffffffffffffffffffffffffffffffffffffffff021916908373ffffffffffffffffffffffffffffffffffffffff1602179055505050565b6000806000805414801562002a5257506000600154145b1562002a645783839150915062002ba8565b60008414801562002a755750600083145b1562002a8e576000808191508090509150915062002ba8565b6000548401915060015483019050600062002adc62002ab860c88862001b6490919063ffffffff16565b62002acd8486620015e490919063ffffffff16565b620017c490919063ffffffff16565b9050600062002af66002836200177890919063ffffffff16565b90506000819050600062002b148385620017c490919063ffffffff16565b90508582111562002b3c5762002b348683620017c490919063ffffffff16565b810190508591505b8481111562002b625762002b5a8582620017c490919063ffffffff16565b820191508490505b8582111562002b6f578591505b62002b848287620017c490919063ffffffff16565b955062002b9b8186620017c490919063ffffffff16565b9450858595509550505050505b935093915050565b60008082141562002bc5576000905062002c74565b600062002c3c600d60149054906101000a900460ff1660ff1662002c2d62002bff670de0b6b3a76400008762001b6490919063ffffffff16565b62002c1e670de0b6b3a7640000808a0262001b6490919063ffffffff16565b6200177890919063ffffffff16565b62001b6490919063ffffffff16565b9050670de0b6b3a7640000811062002c6f5762002c6c6001670de0b6b3a7640000620017c490919063ffffffff16565b90505b809150505b92915050565b60008082840390506000831215801562002c945750838113155b8062002cac575060008312801562002cab57508381135b5b62002cb657600080fd5b8091505092915050565b60008082840190506000831215801562002cda5750838112155b8062002cf2575060008312801562002cf157508381125b5b62002cfc57600080fd5b8091505092915050565b612e468062002d158339019056fe60806040526012600360006101000a81548160ff021916908360ff16021790555069d3c21bcecceda10000006006556000600855600160095534801561004457600080fd5b50600061005561010060201b60201c565b9050806000806101000a81548173ffffffffffffffffffffffffffffffffffffffff021916908373ffffffffffffffffffffffffffffffffffffffff1602179055508073ffffffffffffffffffffffffffffffffffffffff16600073ffffffffffffffffffffffffffffffffffffffff167f8be0079c531659141344cd1fd0a4f28419497f9722a3daafe3b4186f6b6457e060405160405180910390a3506000600481905550610108565b600033905090565b612d2e80620001186000396000f3fe608060405234801561001057600080fd5b50600436106101285760003560e01c806306fdde031461012d578063077f224a146101b0578063095ea7b31461032257806318160ddd1461038857806323b872dd146103a65780632f8655681461042c578063313ce5671461048857806339509351146104ac57806340c10f19146105125780636a256b291461057857806370a08231146105d4578063715018a61461062c5780637a43e23f146106365780638da5cb5b14610682578063900cf0cf146106cc57806395d89b41146106ea578063a457c2d71461076d578063a9059cbb146107d3578063b84c824614610839578063c47f0027146108f4578063c4996f51146109af578063dd62ed3e146109cd578063e95e885e14610a45578063f2fde38b14610a9d575b600080fd5b610135610ae1565b6040518080602001828103825283818151815260200191508051906020019080838360005b8381101561017557808201518184015260208101905061015a565b50505050905090810190601f1680156101a25780820380516001836020036101000a031916815260200191505b509250505060405180910390f35b610320600480360360608110156101c657600080fd5b81019080803590602001906401000000008111156101e357600080fd5b8201836020820111156101f557600080fd5b8035906020019184600183028401116401000000008311171561021757600080fd5b91908080601f016020809104026020016040519081016040528093929190818152602001838380828437600081840152601f19601f8201169050808301925050505050505091929192908035906020019064010000000081111561027a57600080fd5b82018360208201111561028c57600080fd5b803590602001918460018302840111640100000000831117156102ae57600080fd5b91908080601f016020809104026020016040519081016040528093929190818152602001838380828437600081840152601f19601f820116905080830192505050505050509192919290803573ffffffffffffffffffffffffffffffffffffffff169060200190929190505050610b83565b005b61036e6004803603604081101561033857600080fd5b81019080803573ffffffffffffffffffffffffffffffffffffffff16906020019092919080359060200190929190505050610de5565b604051808215151515815260200191505060405180910390f35b610390610ed7565b6040518082815260200191505060405180910390f35b610412600480360360608110156103bc57600080fd5b81019080803573ffffffffffffffffffffffffffffffffffffffff169060200190929190803573ffffffffffffffffffffffffffffffffffffffff16906020019092919080359060200190929190505050610ee1565b604051808215151515815260200191505060405180910390f35b61046e6004803603602081101561044257600080fd5b81019080803573ffffffffffffffffffffffffffffffffffffffff169060200190929190505050611115565b604051808215151515815260200191505060405180910390f35b610490611391565b604051808260ff1660ff16815260200191505060405180910390f35b6104f8600480360360408110156104c257600080fd5b81019080803573ffffffffffffffffffffffffffffffffffffffff169060200190929190803590602001909291905050506113a8565b604051808215151515815260200191505060405180910390f35b61055e6004803603604081101561052857600080fd5b81019080803573ffffffffffffffffffffffffffffffffffffffff169060200190929190803590602001909291905050506115a4565b604051808215151515815260200191505060405180910390f35b6105ba6004803603602081101561058e57600080fd5b81019080803573ffffffffffffffffffffffffffffffffffffffff1690602001909291905050506117d2565b604051808215151515815260200191505060405180910390f35b610616600480360360208110156105ea57600080fd5b81019080803573ffffffffffffffffffffffffffffffffffffffff16906020019092919050505061193a565b6040518082815260200191505060405180910390f35b6106346119aa565b005b61066c6004803603604081101561064c57600080fd5b810190808035906020019092919080359060200190929190505050611b32565b6040518082815260200191505060405180910390f35b61068a611da4565b604051808273ffffffffffffffffffffffffffffffffffffffff1673ffffffffffffffffffffffffffffffffffffffff16815260200191505060405180910390f35b6106d4611dcd565b6040518082815260200191505060405180910390f35b6106f2611dd3565b6040518080602001828103825283818151815260200191508051906020019080838360005b83811015610732578082015181840152602081019050610717565b50505050905090810190601f16801561075f5780820380516001836020036101000a031916815260200191505b509250505060405180910390f35b6107b96004803603604081101561078357600080fd5b81019080803573ffffffffffffffffffffffffffffffffffffffff16906020019092919080359060200190929190505050611e75565b604051808215151515815260200191505060405180910390f35b61081f600480360360408110156107e957600080fd5b81019080803573ffffffffffffffffffffffffffffffffffffffff16906020019092919080359060200190929190505050612105565b604051808215151515815260200191505060405180910390f35b6108f26004803603602081101561084f57600080fd5b810190808035906020019064010000000081111561086c57600080fd5b82018360208201111561087e57600080fd5b803590602001918460018302840111640100000000831117156108a057600080fd5b91908080601f016020809104026020016040519081016040528093929190818152602001838380828437600081840152601f19601f8201169050808301925050505050505091929192905050506123c7565b005b6109ad6004803603602081101561090a57600080fd5b810190808035906020019064010000000081111561092757600080fd5b82018360208201111561093957600080fd5b8035906020019184600183028401116401000000008311171561095b57600080fd5b91908080601f016020809104026020016040519081016040528093929190818152602001838380828437600081840152601f19601f8201169050808301925050505050505091929192905050506123e1565b005b6109b76123fb565b6040518082815260200191505060405180910390f35b610a2f600480360360408110156109e357600080fd5b81019080803573ffffffffffffffffffffffffffffffffffffffff169060200190929190803573ffffffffffffffffffffffffffffffffffffffff169060200190929190505050612401565b6040518082815260200191505060405180910390f35b610a8760048036036020811015610a5b57600080fd5b81019080803573ffffffffffffffffffffffffffffffffffffffff169060200190929190505050612488565b6040518082815260200191505060405180910390f35b610adf60048036036020811015610ab357600080fd5b81019080803573ffffffffffffffffffffffffffffffffffffffff1690602001909291905050506124a0565b005b606060018054600181600116156101000203166002900480601f016020809104026020016040519081016040528092919081815260200182805460018160011615610100020316600290048015610b795780601f10610b4e57610100808354040283529160200191610b79565b820191906000526020600020905b815481529060010190602001808311610b5c57829003601f168201915b5050505050905090565b610b8b6126ad565b73ffffffffffffffffffffffffffffffffffffffff166000809054906101000a900473ffffffffffffffffffffffffffffffffffffffff1673ffffffffffffffffffffffffffffffffffffffff1614610c4c576040517f08c379a00000000000000000000000000000000000000000000000000000000081526004018080602001828103825260208152602001807f4f776e61626c653a2063616c6c6572206973206e6f7420746865206f776e657281525060200191505060405180910390fd5b610c55836123e1565b610c5e826123c7565b60006007600060085481526020019081526020016000206000610c7f611da4565b73ffffffffffffffffffffffffffffffffffffffff1673ffffffffffffffffffffffffffffffffffffffff16815260200190815260200160002054905060006007600060085481526020019081526020016000206000610cdd611da4565b73ffffffffffffffffffffffffffffffffffffffff1673ffffffffffffffffffffffffffffffffffffffff16815260200190815260200160002081905550610d808160076000600854815260200190815260200160002060008573ffffffffffffffffffffffffffffffffffffffff1673ffffffffffffffffffffffffffffffffffffffff168152602001908152602001600020546126b590919063ffffffff16565b60076000600854815260200190815260200160002060008473ffffffffffffffffffffffffffffffffffffffff1673ffffffffffffffffffffffffffffffffffffffff16815260200190815260200160002081905550610ddf826124a0565b50505050565b600081600a60003373ffffffffffffffffffffffffffffffffffffffff1673ffffffffffffffffffffffffffffffffffffffff16815260200190815260200160002060008573ffffffffffffffffffffffffffffffffffffffff1673ffffffffffffffffffffffffffffffffffffffff168152602001908152602001600020819055508273ffffffffffffffffffffffffffffffffffffffff163373ffffffffffffffffffffffffffffffffffffffff167f8c5be1e5ebec7d5bd14f71427d1e84f3dd0314c0f7b2291e5b200ac8c7c3b925846040518082815260200191505060405180910390a36001905092915050565b6000600454905090565b600082600073ffffffffffffffffffffffffffffffffffffffff168173ffffffffffffffffffffffffffffffffffffffff161415610f1e57600080fd5b3073ffffffffffffffffffffffffffffffffffffffff168173ffffffffffffffffffffffffffffffffffffffff161415610f5757600080fd5b6000600b60008373ffffffffffffffffffffffffffffffffffffffff1673ffffffffffffffffffffffffffffffffffffffff1681526020019081526020016000205414610fa357600080fd5b846000600b60008373ffffffffffffffffffffffffffffffffffffffff1673ffffffffffffffffffffffffffffffffffffffff1681526020019081526020016000205414610ff057600080fd5b61107f84600a60008973ffffffffffffffffffffffffffffffffffffffff1673ffffffffffffffffffffffffffffffffffffffff16815260200190815260200160002060003373ffffffffffffffffffffffffffffffffffffffff1673ffffffffffffffffffffffffffffffffffffffff1681526020019081526020016000205461273d90919063ffffffff16565b600a60008873ffffffffffffffffffffffffffffffffffffffff1673ffffffffffffffffffffffffffffffffffffffff16815260200190815260200160002060003373ffffffffffffffffffffffffffffffffffffffff1673ffffffffffffffffffffffffffffffffffffffff1681526020019081526020016000208190555061110a868686612787565b925050509392505050565b600061111f6126ad565b73ffffffffffffffffffffffffffffffffffffffff166000809054906101000a900473ffffffffffffffffffffffffffffffffffffffff1673ffffffffffffffffffffffffffffffffffffffff16146111e0576040517f08c379a00000000000000000000000000000000000000000000000000000000081526004018080602001828103825260208152602001807f4f776e61626c653a2063616c6c6572206973206e6f7420746865206f776e657281525060200191505060405180910390fd5b600b60008373ffffffffffffffffffffffffffffffffffffffff1673ffffffffffffffffffffffffffffffffffffffff168152602001908152602001600020546009541161122d57600080fd5b600060076000600854815260200190815260200160002060008473ffffffffffffffffffffffffffffffffffffffff1673ffffffffffffffffffffffffffffffffffffffff168152602001908152602001600020549050600060076000600854815260200190815260200160002060008573ffffffffffffffffffffffffffffffffffffffff1673ffffffffffffffffffffffffffffffffffffffff1681526020019081526020016000208190555060006112f36006548361298890919063ffffffff16565b905061130a8260055461273d90919063ffffffff16565b60058190555080600454111561133a5761132f8160045461273d90919063ffffffff16565b600481905550611343565b60006004819055505b600b60008573ffffffffffffffffffffffffffffffffffffffff1673ffffffffffffffffffffffffffffffffffffffff16815260200190815260200160002060009055600192505050919050565b6000600360009054906101000a900460ff16905090565b600061143982600a60003373ffffffffffffffffffffffffffffffffffffffff1673ffffffffffffffffffffffffffffffffffffffff16815260200190815260200160002060008673ffffffffffffffffffffffffffffffffffffffff1673ffffffffffffffffffffffffffffffffffffffff168152602001908152602001600020546126b590919063ffffffff16565b600a60003373ffffffffffffffffffffffffffffffffffffffff1673ffffffffffffffffffffffffffffffffffffffff16815260200190815260200160002060008573ffffffffffffffffffffffffffffffffffffffff1673ffffffffffffffffffffffffffffffffffffffff168152602001908152602001600020819055508273ffffffffffffffffffffffffffffffffffffffff163373ffffffffffffffffffffffffffffffffffffffff167f8c5be1e5ebec7d5bd14f71427d1e84f3dd0314c0f7b2291e5b200ac8c7c3b925600a60003373ffffffffffffffffffffffffffffffffffffffff1673ffffffffffffffffffffffffffffffffffffffff16815260200190815260200160002060008773ffffffffffffffffffffffffffffffffffffffff1673ffffffffffffffffffffffffffffffffffffffff168152602001908152602001600020546040518082815260200191505060405180910390a36001905092915050565b60006115ae6126ad565b73ffffffffffffffffffffffffffffffffffffffff166000809054906101000a900473ffffffffffffffffffffffffffffffffffffffff1673ffffffffffffffffffffffffffffffffffffffff161461166f576040517f08c379a00000000000000000000000000000000000000000000000000000000081526004018080602001828103825260208152602001807f4f776e61626c653a2063616c6c6572206973206e6f7420746865206f776e657281525060200191505060405180910390fd5b826000600b60008373ffffffffffffffffffffffffffffffffffffffff1673ffffffffffffffffffffffffffffffffffffffff16815260200190815260200160002054146116bc57600080fd5b6116d1836004546126b590919063ffffffff16565b60048190555060006116ee600654856129d290919063ffffffff16565b90506117558160076000600854815260200190815260200160002060008873ffffffffffffffffffffffffffffffffffffffff1673ffffffffffffffffffffffffffffffffffffffff168152602001908152602001600020546126b590919063ffffffff16565b60076000600854815260200190815260200160002060008773ffffffffffffffffffffffffffffffffffffffff1673ffffffffffffffffffffffffffffffffffffffff168152602001908152602001600020819055506117c0816005546126b590919063ffffffff16565b60058190555060019250505092915050565b60006117dc6126ad565b73ffffffffffffffffffffffffffffffffffffffff166000809054906101000a900473ffffffffffffffffffffffffffffffffffffffff1673ffffffffffffffffffffffffffffffffffffffff161461189d576040517f08c379a00000000000000000000000000000000000000000000000000000000081526004018080602001828103825260208152602001807f4f776e61626c653a2063616c6c6572206973206e6f7420746865206f776e657281525060200191505060405180910390fd5b816000600b60008373ffffffffffffffffffffffffffffffffffffffff1673ffffffffffffffffffffffffffffffffffffffff16815260200190815260200160002054146118ea57600080fd5b600954600b60008573ffffffffffffffffffffffffffffffffffffffff1673ffffffffffffffffffffffffffffffffffffffff168152602001908152602001600020819055506001915050919050565b60006119a360065460076000600854815260200190815260200160002060008573ffffffffffffffffffffffffffffffffffffffff1673ffffffffffffffffffffffffffffffffffffffff1681526020019081526020016000205461298890919063ffffffff16565b9050919050565b6119b26126ad565b73ffffffffffffffffffffffffffffffffffffffff166000809054906101000a900473ffffffffffffffffffffffffffffffffffffffff1673ffffffffffffffffffffffffffffffffffffffff1614611a73576040517f08c379a00000000000000000000000000000000000000000000000000000000081526004018080602001828103825260208152602001807f4f776e61626c653a2063616c6c6572206973206e6f7420746865206f776e657281525060200191505060405180910390fd5b600073ffffffffffffffffffffffffffffffffffffffff166000809054906101000a900473ffffffffffffffffffffffffffffffffffffffff1673ffffffffffffffffffffffffffffffffffffffff167f8be0079c531659141344cd1fd0a4f28419497f9722a3daafe3b4186f6b6457e060405160405180910390a360008060006101000a81548173ffffffffffffffffffffffffffffffffffffffff021916908373ffffffffffffffffffffffffffffffffffffffff160217905550565b6000611b3c6126ad565b73ffffffffffffffffffffffffffffffffffffffff166000809054906101000a900473ffffffffffffffffffffffffffffffffffffffff1673ffffffffffffffffffffffffffffffffffffffff1614611bfd576040517f08c379a00000000000000000000000000000000000000000000000000000000081526004018080602001828103825260208152602001807f4f776e61626c653a2063616c6c6572206973206e6f7420746865206f776e657281525060200191505060405180910390fd5b826009819055506000821415611c53576009547f72725a3b1e5bd622d6bcd1339bb31279c351abe8f541ac7fd320f24e1b1641f26004546040518082815260200191505060405180910390a26004549050611d9e565b6000821215611c8457611c79611c6883612a58565b60045461273d90919063ffffffff16565b600481905550611ca0565b611c99826004546126b590919063ffffffff16565b6004819055505b6000196fffffffffffffffffffffffffffffffff166004541115611cda576000196fffffffffffffffffffffffffffffffff166004819055505b60006004541115611d2457611cfc60045460055461298890919063ffffffff16565b60068190555060006006541415611d1f5769d3c21bcecceda10000006006819055505b611d5c565b60006005541115611d5b5760086000815480929190600101919050555069d3c21bcecceda100000060068190555060006005819055505b5b6009547f72725a3b1e5bd622d6bcd1339bb31279c351abe8f541ac7fd320f24e1b1641f26004546040518082815260200191505060405180910390a260045490505b92915050565b60008060009054906101000a900473ffffffffffffffffffffffffffffffffffffffff16905090565b60095481565b606060028054600181600116156101000203166002900480601f016020809104026020016040519081016040528092919081815260200182805460018160011615610100020316600290048015611e6b5780601f10611e4057610100808354040283529160200191611e6b565b820191906000526020600020905b815481529060010190602001808311611e4e57829003601f168201915b5050505050905090565b600080600a60003373ffffffffffffffffffffffffffffffffffffffff1673ffffffffffffffffffffffffffffffffffffffff16815260200190815260200160002060008573ffffffffffffffffffffffffffffffffffffffff1673ffffffffffffffffffffffffffffffffffffffff168152602001908152602001600020549050808310611f85576000600a60003373ffffffffffffffffffffffffffffffffffffffff1673ffffffffffffffffffffffffffffffffffffffff16815260200190815260200160002060008673ffffffffffffffffffffffffffffffffffffffff1673ffffffffffffffffffffffffffffffffffffffff16815260200190815260200160002081905550612019565b611f98838261273d90919063ffffffff16565b600a60003373ffffffffffffffffffffffffffffffffffffffff1673ffffffffffffffffffffffffffffffffffffffff16815260200190815260200160002060008673ffffffffffffffffffffffffffffffffffffffff1673ffffffffffffffffffffffffffffffffffffffff168152602001908152602001600020819055505b8373ffffffffffffffffffffffffffffffffffffffff163373ffffffffffffffffffffffffffffffffffffffff167f8c5be1e5ebec7d5bd14f71427d1e84f3dd0314c0f7b2291e5b200ac8c7c3b925600a60003373ffffffffffffffffffffffffffffffffffffffff1673ffffffffffffffffffffffffffffffffffffffff16815260200190815260200160002060008873ffffffffffffffffffffffffffffffffffffffff1673ffffffffffffffffffffffffffffffffffffffff168152602001908152602001600020546040518082815260200191505060405180910390a3600191505092915050565b600082600073ffffffffffffffffffffffffffffffffffffffff168173ffffffffffffffffffffffffffffffffffffffff16141561214257600080fd5b3073ffffffffffffffffffffffffffffffffffffffff168173ffffffffffffffffffffffffffffffffffffffff16141561217b57600080fd5b6000600b60008373ffffffffffffffffffffffffffffffffffffffff1673ffffffffffffffffffffffffffffffffffffffff16815260200190815260200160002054146121c757600080fd5b60006121de600654856129d290919063ffffffff16565b90506122458160076000600854815260200190815260200160002060003373ffffffffffffffffffffffffffffffffffffffff1673ffffffffffffffffffffffffffffffffffffffff1681526020019081526020016000205461273d90919063ffffffff16565b60076000600854815260200190815260200160002060003373ffffffffffffffffffffffffffffffffffffffff1673ffffffffffffffffffffffffffffffffffffffff168152602001908152602001600020819055506123008160076000600854815260200190815260200160002060008873ffffffffffffffffffffffffffffffffffffffff1673ffffffffffffffffffffffffffffffffffffffff168152602001908152602001600020546126b590919063ffffffff16565b60076000600854815260200190815260200160002060008773ffffffffffffffffffffffffffffffffffffffff1673ffffffffffffffffffffffffffffffffffffffff168152602001908152602001600020819055508473ffffffffffffffffffffffffffffffffffffffff163373ffffffffffffffffffffffffffffffffffffffff167fddf252ad1be2c89b69c2b068fc378daa952ba7f163c4a11628f55a4df523b3ef866040518082815260200191505060405180910390a360019250505092915050565b80600290805190602001906123dd929190612c0c565b5050565b80600190805190602001906123f7929190612c0c565b5050565b60065481565b6000600a60008473ffffffffffffffffffffffffffffffffffffffff1673ffffffffffffffffffffffffffffffffffffffff16815260200190815260200160002060008373ffffffffffffffffffffffffffffffffffffffff1673ffffffffffffffffffffffffffffffffffffffff16815260200190815260200160002054905092915050565b600b6020528060005260406000206000915090505481565b6124a86126ad565b73ffffffffffffffffffffffffffffffffffffffff166000809054906101000a900473ffffffffffffffffffffffffffffffffffffffff1673ffffffffffffffffffffffffffffffffffffffff1614612569576040517f08c379a00000000000000000000000000000000000000000000000000000000081526004018080602001828103825260208152602001807f4f776e61626c653a2063616c6c6572206973206e6f7420746865206f776e657281525060200191505060405180910390fd5b600073ffffffffffffffffffffffffffffffffffffffff168173ffffffffffffffffffffffffffffffffffffffff1614156125ef576040517f08c379a0000000000000000000000000000000000000000000000000000000008152600401808060200182810382526026815260200180612cb26026913960400191505060405180910390fd5b8073ffffffffffffffffffffffffffffffffffffffff166000809054906101000a900473ffffffffffffffffffffffffffffffffffffffff1673ffffffffffffffffffffffffffffffffffffffff167f8be0079c531659141344cd1fd0a4f28419497f9722a3daafe3b4186f6b6457e060405160405180910390a3806000806101000a81548173ffffffffffffffffffffffffffffffffffffffff021916908373ffffffffffffffffffffffffffffffffffffffff16021790555050565b600033905090565b600080828401905083811015612733576040517f08c379a000000000000000000000000000000000000000000000000000000000815260040180806020018281038252601b8152602001807f536166654d6174683a206164646974696f6e206f766572666c6f77000000000081525060200191505060405180910390fd5b8091505092915050565b600061277f83836040518060400160405280601e81526020017f536166654d6174683a207375627472616374696f6e206f766572666c6f770000815250612a86565b905092915050565b60008061279f600654846129d290919063ffffffff16565b90506128068160076000600854815260200190815260200160002060008873ffffffffffffffffffffffffffffffffffffffff1673ffffffffffffffffffffffffffffffffffffffff1681526020019081526020016000205461273d90919063ffffffff16565b60076000600854815260200190815260200160002060008773ffffffffffffffffffffffffffffffffffffffff1673ffffffffffffffffffffffffffffffffffffffff168152602001908152602001600020819055506128c18160076000600854815260200190815260200160002060008773ffffffffffffffffffffffffffffffffffffffff1673ffffffffffffffffffffffffffffffffffffffff168152602001908152602001600020546126b590919063ffffffff16565b60076000600854815260200190815260200160002060008673ffffffffffffffffffffffffffffffffffffffff1673ffffffffffffffffffffffffffffffffffffffff168152602001908152602001600020819055508373ffffffffffffffffffffffffffffffffffffffff168573ffffffffffffffffffffffffffffffffffffffff167fddf252ad1be2c89b69c2b068fc378daa952ba7f163c4a11628f55a4df523b3ef856040518082815260200191505060405180910390a360019150509392505050565b60006129ca83836040518060400160405280601a81526020017f536166654d6174683a206469766973696f6e206279207a65726f000000000000815250612b46565b905092915050565b6000808314156129e55760009050612a52565b60008284029050828482816129f657fe5b0414612a4d576040517f08c379a0000000000000000000000000000000000000000000000000000000008152600401808060200182810382526021815260200180612cd86021913960400191505060405180910390fd5b809150505b92915050565b600060ff6001901b821415612a6c57600080fd5b60008212612a7a5781612a7f565b816000035b9050919050565b6000838311158290612b33576040517f08c379a00000000000000000000000000000000000000000000000000000000081526004018080602001828103825283818151815260200191508051906020019080838360005b83811015612af8578082015181840152602081019050612add565b50505050905090810190601f168015612b255780820380516001836020036101000a031916815260200191505b509250505060405180910390fd5b5060008385039050809150509392505050565b60008083118290612bf2576040517f08c379a00000000000000000000000000000000000000000000000000000000081526004018080602001828103825283818151815260200191508051906020019080838360005b83811015612bb7578082015181840152602081019050612b9c565b50505050905090810190601f168015612be45780820380516001836020036101000a031916815260200191505b509250505060405180910390fd5b506000838581612bfe57fe5b049050809150509392505050565b828054600181600116156101000203166002900490600052602060002090601f016020900481019282601f10612c4d57805160ff1916838001178555612c7b565b82800160010185558215612c7b579182015b82811115612c7a578251825591602001919060010190612c5f565b5b509050612c889190612c8c565b5090565b612cae91905b80821115612caa576000816000905550600101612c92565b5090565b9056fe4f776e61626c653a206e6577206f776e657220697320746865207a65726f2061646472657373536166654d6174683a206d756c7469706c69636174696f6e206f766572666c6f77a2646970667358221220a0581a8dd6ad928d95a5dd50f9045a70f11142184a10a99931fbe2138ccd2f6964736f6c63430006060033536166654d6174683a206d756c7469706c69636174696f6e206f766572666c6f77a26469706673582212204084e49d95383a9e37afb1fb6d7812f49795bd3f15da75ce3d59fac3b2cf66e764736f6c63430006060033"
}