{
  "abi": [
    {
      "inputs": [],
      "stateMutability": "nonpayable",
      "type": "constructor"
    },
    {
      "inputs": [
        {
          "internalType": "uint256",
          "name": "amount",
          "type": "uint256"
        }
      ],
      "name": "deposit",
      "outputs": [],
      "stateMutability": "nonpayable",
      "type": "function"
    },
    {
      "inputs": [],
      "name": "down",
      "outputs": [
        {
          "internalType": "contract RebaseableToken",
          "name": "",
          "type": "address"
        }
      ],
      "stateMutability": "view",
      "type": "function"
    },
    {
      "inputs": [],
      "name": "epoch",
      "outputs": [
        {
          "internalType": "uint256",
          "name": "",
          "type": "uint256"
        }
      ],
      "stateMutability": "view",
      "type": "function"
    },
    {
      "inputs": [],
      "name": "epochLength",
      "outputs": [
        {
          "internalType": "uint256",
          "name": "",
          "type": "uint256"
        }
      ],
      "stateMutability": "view",
      "type": "function"
    },
    {
      "inputs": [],
      "name": "epochStart",
      "outputs": [
        {
          "internalType": "uint256",
          "name": "",
          "type": "uint256"
        }
      ],
      "stateMutability": "view",
      "type": "function"
    },
    {
      "inputs": [],
      "name": "epochStartPrice",
      "outputs": [
        {
          "internalType": "uint256",
          "name": "",
          "type": "uint256"
        }
      ],
      "stateMutability": "view",
      "type": "function"
    },
    {
      "inputs": [
        {
          "internalType": "uint256",
          "name": "",
          "type": "uint256"
        }
      ],
      "name": "epochToPrice",
      "outputs": [
        {
          "internalType": "uint256",
          "name": "",
          "type": "uint256"
        }
      ],
      "stateMutability": "view",
      "type": "function"
    },
    {
      "inputs": [
        {
          "internalType": "address",
          "name": "owner_",
          "type": "address"
        },
        {
          "internalType": "address",
          "name": "payoutToken_",
          "type": "address"
        },
        {
          "internalType": "uint256",
          "name": "epochLength_",
          "type": "uint256"
        },
        {
          "internalType": "uint8",
          "name": "multiplier_",
          "type": "uint8"
        },
        {
          "internalType": "address",
          "name": "oracle_",
          "type": "address"
        },
        {
          "internalType": "address",
          "name": "factory_",
          "type": "address"
        },
        {
          "internalType": "address",
          "name": "underlying_",
          "type": "address"
        }
      ],
      "name": "initialize",
      "outputs": [],
      "stateMutability": "nonpayable",
      "type": "function"
    },
    {
      "inputs": [],
      "name": "liquidate",
      "outputs": [],
      "stateMutability": "nonpayable",
      "type": "function"
    },
    {
      "inputs": [],
      "name": "multiplier",
      "outputs": [
        {
          "internalType": "uint8",
          "name": "",
          "type": "uint8"
        }
      ],
      "stateMutability": "view",
      "type": "function"
    },
    {
      "inputs": [],
      "name": "oracle",
      "outputs": [
        {
          "internalType": "contract IPriceOracleGetter",
          "name": "",
          "type": "address"
        }
      ],
      "stateMutability": "view",
      "type": "function"
    },
    {
      "inputs": [],
      "name": "payoutToken",
      "outputs": [
        {
          "internalType": "contract IERC20",
          "name": "",
          "type": "address"
        }
      ],
      "stateMutability": "view",
      "type": "function"
    },
    {
      "inputs": [
        {
          "internalType": "address",
          "name": "newOwner",
          "type": "address"
        }
      ],
      "name": "setOwner",
      "outputs": [],
      "stateMutability": "nonpayable",
      "type": "function"
    },
    {
      "inputs": [],
      "name": "settle",
      "outputs": [],
      "stateMutability": "nonpayable",
      "type": "function"
    },
    {
      "inputs": [
        {
          "internalType": "address",
          "name": "",
          "type": "address"
        }
      ],
      "name": "settlements",
      "outputs": [
        {
          "internalType": "uint256",
          "name": "ups",
          "type": "uint256"
        },
        {
          "internalType": "uint256",
          "name": "downs",
          "type": "uint256"
        },
        {
          "internalType": "uint256",
          "name": "epoch",
          "type": "uint256"
        }
      ],
      "stateMutability": "view",
      "type": "function"
    },
    {
      "inputs": [],
      "name": "testForEnd",
      "outputs": [],
      "stateMutability": "nonpayable",
      "type": "function"
    },
    {
      "inputs": [],
      "name": "underlying",
      "outputs": [
        {
          "internalType": "contract IERC20",
          "name": "",
          "type": "address"
        }
      ],
      "stateMutability": "view",
      "type": "function"
    },
    {
      "inputs": [],
      "name": "uniswapFactory",
      "outputs": [
        {
          "internalType": "contract IMinimalUniswapV2Factory",
          "name": "",
          "type": "address"
        }
      ],
      "stateMutability": "view",
      "type": "function"
    },
    {
      "inputs": [],
      "name": "uniswapPair",
      "outputs": [
        {
          "internalType": "contract IMinimalUniswapV2Pair",
          "name": "",
          "type": "address"
        }
      ],
      "stateMutability": "view",
      "type": "function"
    },
    {
      "inputs": [],
      "name": "up",
      "outputs": [
        {
          "internalType": "contract RebaseableToken",
          "name": "",
          "type": "address"
        }
      ],
      "stateMutability": "view",
      "type": "function"
    }
  ],
  "address": "0xa4FE39AdfEda0673e665F39452372C671a8054Ad",
  "args": [],
  "solcInputHash": "0xf164f9c2a9f409556bf3d43ed2ad404fab832a47e2e2d6a68206b5df1a1230f6",
  "bytecode": "0x6080604052600060085534801561001557600080fd5b5033600460006101000a81548173ffffffffffffffffffffffffffffffffffffffff021916908373ffffffffffffffffffffffffffffffffffffffff160217905550615e6e806100666000396000f3fe60806040523480156200001157600080fd5b5060043610620001125760003560e01c806311da60b4146200011757806313af4035146200012357806315e5a1e5146200016a5780631b3ed722146200018a57806328a0702514620001b05780634efa82b614620001bc57806357d775f814620002085780636f307dc31462000228578063713df9e814620002745780637dc0d1d014620002805780638334109414620002cc5780638471de9214620003aa57806384be9a8314620003ef5780638bdb2afa146200040f578063900cf0cf146200045b578063b6b55f25146200047b578063ba25b1b314620004ac578063c816841b1462000515578063d5a49e011462000561578063d833792814620005ad575b600080fd5b62000121620005f9565b005b62000168600480360360208110156200013b57600080fd5b81019080803573ffffffffffffffffffffffffffffffffffffffff16906020019092919050505062000906565b005b6200017462000a0e565b6040518082815260200191505060405180910390f35b6200019462000a14565b604051808260ff1660ff16815260200191505060405180910390f35b620001ba62000a27565b005b620001c662001001565b604051808273ffffffffffffffffffffffffffffffffffffffff1673ffffffffffffffffffffffffffffffffffffffff16815260200191505060405180910390f35b6200021262001027565b6040518082815260200191505060405180910390f35b620002326200102d565b604051808273ffffffffffffffffffffffffffffffffffffffff1673ffffffffffffffffffffffffffffffffffffffff16815260200191505060405180910390f35b6200027e62001053565b005b6200028a62001080565b604051808273ffffffffffffffffffffffffffffffffffffffff1673ffffffffffffffffffffffffffffffffffffffff16815260200191505060405180910390f35b620003a8600480360360e0811015620002e457600080fd5b81019080803573ffffffffffffffffffffffffffffffffffffffff169060200190929190803573ffffffffffffffffffffffffffffffffffffffff16906020019092919080359060200190929190803560ff169060200190929190803573ffffffffffffffffffffffffffffffffffffffff169060200190929190803573ffffffffffffffffffffffffffffffffffffffff169060200190929190803573ffffffffffffffffffffffffffffffffffffffff169060200190929190505050620010a6565b005b620003d960048036036020811015620003c257600080fd5b8101908080359060200190929190505050620013d0565b6040518082815260200191505060405180910390f35b620003f9620013e8565b6040518082815260200191505060405180910390f35b62000419620013ee565b604051808273ffffffffffffffffffffffffffffffffffffffff1673ffffffffffffffffffffffffffffffffffffffff16815260200191505060405180910390f35b6200046562001414565b6040518082815260200191505060405180910390f35b620004aa600480360360208110156200049357600080fd5b81019080803590602001909291905050506200141a565b005b620004f160048036036020811015620004c457600080fd5b81019080803573ffffffffffffffffffffffffffffffffffffffff16906020019092919050505062001903565b60405180848152602001838152602001828152602001935050505060405180910390f35b6200051f6200192d565b604051808273ffffffffffffffffffffffffffffffffffffffff1673ffffffffffffffffffffffffffffffffffffffff16815260200191505060405180910390f35b6200056b62001953565b604051808273ffffffffffffffffffffffffffffffffffffffff1673ffffffffffffffffffffffffffffffffffffffff16815260200191505060405180910390f35b620005b762001979565b604051808273ffffffffffffffffffffffffffffffffffffffff1673ffffffffffffffffffffffffffffffffffffffff16815260200191505060405180910390f35b60008060003373ffffffffffffffffffffffffffffffffffffffff1673ffffffffffffffffffffffffffffffffffffffff1681526020019081526020016000206002015414620006b1576040517f08c379a00000000000000000000000000000000000000000000000000000000081526004018080602001828103825260158152602001807f5570446f776e3a68617320736574746c656d656e74000000000000000000000081525060200191505060405180910390fd5b620006ca6009546007546200199f90919063ffffffff16565b4310620006dc57620006db62001a28565b5b6000600260009054906101000a900473ffffffffffffffffffffffffffffffffffffffff1673ffffffffffffffffffffffffffffffffffffffff16632f865568336040518263ffffffff1660e01b8152600401808273ffffffffffffffffffffffffffffffffffffffff1673ffffffffffffffffffffffffffffffffffffffff168152602001915050602060405180830381600087803b1580156200078057600080fd5b505af115801562000795573d6000803e3d6000fd5b505050506040513d6020811015620007ac57600080fd5b810190808051906020019092919050505090506000600360009054906101000a900473ffffffffffffffffffffffffffffffffffffffff1673ffffffffffffffffffffffffffffffffffffffff16632f865568336040518263ffffffff1660e01b8152600401808273ffffffffffffffffffffffffffffffffffffffff1673ffffffffffffffffffffffffffffffffffffffff168152602001915050602060405180830381600087803b1580156200086357600080fd5b505af115801562000878573d6000803e3d6000fd5b505050506040513d60208110156200088f57600080fd5b8101908080519060200190929190505050905060008060003373ffffffffffffffffffffffffffffffffffffffff1673ffffffffffffffffffffffffffffffffffffffff16815260200190815260200160002090506008548160020181905550828160000181905550818160010181905550505050565b600460009054906101000a900473ffffffffffffffffffffffffffffffffffffffff1673ffffffffffffffffffffffffffffffffffffffff163373ffffffffffffffffffffffffffffffffffffffff1614620009ca576040517f08c379a00000000000000000000000000000000000000000000000000000000081526004018080602001828103825260118152602001807f5570446f776e3a4f6e6c79206f776e657200000000000000000000000000000081525060200191505060405180910390fd5b80600460006101000a81548173ffffffffffffffffffffffffffffffffffffffff021916908373ffffffffffffffffffffffffffffffffffffffff16021790555050565b60075481565b600d60149054906101000a900460ff1681565b62000a406009546007546200199f90919063ffffffff16565b431062000a525762000a5162001a28565b5b60008060003373ffffffffffffffffffffffffffffffffffffffff1673ffffffffffffffffffffffffffffffffffffffff168152602001908152602001600020905060085481600201541062000b10576040517f08c379a00000000000000000000000000000000000000000000000000000000081526004018080602001828103825260168152602001807f746f6f206561726c7920746f206c69717569646174650000000000000000000081525060200191505060405180910390fd5b6000600260009054906101000a900473ffffffffffffffffffffffffffffffffffffffff1673ffffffffffffffffffffffffffffffffffffffff1663dff4e22083600201546040518263ffffffff1660e01b81526004018082815260200191505060206040518083038186803b15801562000b8a57600080fd5b505afa15801562000b9f573d6000803e3d6000fd5b505050506040513d602081101562000bb657600080fd5b810190808051906020019092919050505090506000600360009054906101000a900473ffffffffffffffffffffffffffffffffffffffff1673ffffffffffffffffffffffffffffffffffffffff1663dff4e22084600201546040518263ffffffff1660e01b81526004018082815260200191505060206040518083038186803b15801562000c4357600080fd5b505afa15801562000c58573d6000803e3d6000fd5b505050506040513d602081101562000c6f57600080fd5b8101908080519060200190929190505050905060008083111562000ca95762000ca683856000015462001b3390919063ffffffff16565b90505b600082111562000cd15762000ccc82856001015462001b3390919063ffffffff16565b810190505b60008060003373ffffffffffffffffffffffffffffffffffffffff1673ffffffffffffffffffffffffffffffffffffffff1681526020019081526020016000206000018190555060008060003373ffffffffffffffffffffffffffffffffffffffff1673ffffffffffffffffffffffffffffffffffffffff1681526020019081526020016000206001018190555060008060003373ffffffffffffffffffffffffffffffffffffffff1673ffffffffffffffffffffffffffffffffffffffff16815260200190815260200160002060020181905550600062000dbe60c88362001b3390919063ffffffff16565b9050600062000dd96103e88362001b3390919063ffffffff16565b9050600062000df2828462001b7f90919063ffffffff16565b9050600b60009054906101000a900473ffffffffffffffffffffffffffffffffffffffff1673ffffffffffffffffffffffffffffffffffffffff1663a9059cbb33836040518363ffffffff1660e01b8152600401808373ffffffffffffffffffffffffffffffffffffffff1673ffffffffffffffffffffffffffffffffffffffff16815260200182815260200192505050602060405180830381600087803b15801562000e9e57600080fd5b505af115801562000eb3573d6000803e3d6000fd5b505050506040513d602081101562000eca57600080fd5b810190808051906020019092919050505062000ee557600080fd5b600b60009054906101000a900473ffffffffffffffffffffffffffffffffffffffff1673ffffffffffffffffffffffffffffffffffffffff1663a9059cbb600460009054906101000a900473ffffffffffffffffffffffffffffffffffffffff16846040518363ffffffff1660e01b8152600401808373ffffffffffffffffffffffffffffffffffffffff1673ffffffffffffffffffffffffffffffffffffffff16815260200182815260200192505050602060405180830381600087803b15801562000fb157600080fd5b505af115801562000fc6573d6000803e3d6000fd5b505050506040513d602081101562000fdd57600080fd5b810190808051906020019092919050505062000ff857600080fd5b50505050505050565b600b60009054906101000a900473ffffffffffffffffffffffffffffffffffffffff1681565b60095481565b600a60009054906101000a900473ffffffffffffffffffffffffffffffffffffffff1681565b6200106c6009546007546200199f90919063ffffffff16565b43106200107e576200107d62001a28565b5b565b600560009054906101000a900473ffffffffffffffffffffffffffffffffffffffff1681565b600460009054906101000a900473ffffffffffffffffffffffffffffffffffffffff1673ffffffffffffffffffffffffffffffffffffffff163373ffffffffffffffffffffffffffffffffffffffff16146200116a576040517f08c379a00000000000000000000000000000000000000000000000000000000081526004018080602001828103825260118152602001807f5570446f776e3a4f6e6c79206f776e657200000000000000000000000000000081525060200191505060405180910390fd5b86600460006101000a81548173ffffffffffffffffffffffffffffffffffffffff021916908373ffffffffffffffffffffffffffffffffffffffff16021790555085600b60006101000a81548173ffffffffffffffffffffffffffffffffffffffff021916908373ffffffffffffffffffffffffffffffffffffffff16021790555082600560006101000a81548173ffffffffffffffffffffffffffffffffffffffff021916908373ffffffffffffffffffffffffffffffffffffffff16021790555081600c60006101000a81548173ffffffffffffffffffffffffffffffffffffffff021916908373ffffffffffffffffffffffffffffffffffffffff160217905550436007819055508460098190555083600d60146101000a81548160ff021916908360ff16021790555080600a60006101000a81548173ffffffffffffffffffffffffffffffffffffffff021916908373ffffffffffffffffffffffffffffffffffffffff160217905550600560009054906101000a900473ffffffffffffffffffffffffffffffffffffffff1673ffffffffffffffffffffffffffffffffffffffff1663b3596f07826040518263ffffffff1660e01b8152600401808273ffffffffffffffffffffffffffffffffffffffff1673ffffffffffffffffffffffffffffffffffffffff16815260200191505060206040518083038186803b1580156200137857600080fd5b505afa1580156200138d573d6000803e3d6000fd5b505050506040513d6020811015620013a457600080fd5b8101908080519060200190929190505050600681905550620013c562001bcb565b505050505050505050565b60016020528060005260406000206000915090505481565b60065481565b600c60009054906101000a900473ffffffffffffffffffffffffffffffffffffffff1681565b60085481565b60008060003373ffffffffffffffffffffffffffffffffffffffff1673ffffffffffffffffffffffffffffffffffffffff1681526020019081526020016000206002015414620014d2576040517f08c379a00000000000000000000000000000000000000000000000000000000081526004018080602001828103825260158152602001807f5570446f776e3a68617320736574746c656d656e74000000000000000000000081525060200191505060405180910390fd5b620014eb6009546007546200199f90919063ffffffff16565b4310620014fd57620014fc62001a28565b5b600b60009054906101000a900473ffffffffffffffffffffffffffffffffffffffff1673ffffffffffffffffffffffffffffffffffffffff166323b872dd3330846040518463ffffffff1660e01b8152600401808473ffffffffffffffffffffffffffffffffffffffff1673ffffffffffffffffffffffffffffffffffffffff1681526020018373ffffffffffffffffffffffffffffffffffffffff1673ffffffffffffffffffffffffffffffffffffffff1681526020018281526020019350505050602060405180830381600087803b158015620015db57600080fd5b505af1158015620015f0573d6000803e3d6000fd5b505050506040513d60208110156200160757600080fd5b81019080805190602001909291905050506200162257600080fd5b600260009054906101000a900473ffffffffffffffffffffffffffffffffffffffff1673ffffffffffffffffffffffffffffffffffffffff166340c10f19336200167760648562001f1f90919063ffffffff16565b6040518363ffffffff1660e01b8152600401808373ffffffffffffffffffffffffffffffffffffffff1673ffffffffffffffffffffffffffffffffffffffff16815260200182815260200192505050602060405180830381600087803b158015620016e157600080fd5b505af1158015620016f6573d6000803e3d6000fd5b505050506040513d60208110156200170d57600080fd5b810190808051906020019092919050505062001791576040517f08c379a00000000000000000000000000000000000000000000000000000000081526004018080602001828103825260158152602001807f4f7074696f6e73506f6f6c3a6661696c6564207570000000000000000000000081525060200191505060405180910390fd5b600360009054906101000a900473ffffffffffffffffffffffffffffffffffffffff1673ffffffffffffffffffffffffffffffffffffffff166340c10f1933620017e660648562001f1f90919063ffffffff16565b6040518363ffffffff1660e01b8152600401808373ffffffffffffffffffffffffffffffffffffffff1673ffffffffffffffffffffffffffffffffffffffff16815260200182815260200192505050602060405180830381600087803b1580156200185057600080fd5b505af115801562001865573d6000803e3d6000fd5b505050506040513d60208110156200187c57600080fd5b810190808051906020019092919050505062001900576040517f08c379a00000000000000000000000000000000000000000000000000000000081526004018080602001828103825260178152602001807f4f7074696f6e73506f6f6c3a6661696c656420646f776e00000000000000000081525060200191505060405180910390fd5b50565b60006020528060005260406000206000915090508060000154908060010154908060020154905083565b600d60009054906101000a900473ffffffffffffffffffffffffffffffffffffffff1681565b600260009054906101000a900473ffffffffffffffffffffffffffffffffffffffff1681565b600360009054906101000a900473ffffffffffffffffffffffffffffffffffffffff1681565b60008082840190508381101562001a1e576040517f08c379a000000000000000000000000000000000000000000000000000000000815260040180806020018281038252601b8152602001807f536166654d6174683a206164646974696f6e206f766572666c6f77000000000081525060200191505060405180910390fd5b8091505092915050565b62001b31600560009054906101000a900473ffffffffffffffffffffffffffffffffffffffff1673ffffffffffffffffffffffffffffffffffffffff1663b3596f07600a60009054906101000a900473ffffffffffffffffffffffffffffffffffffffff166040518263ffffffff1660e01b8152600401808273ffffffffffffffffffffffffffffffffffffffff1673ffffffffffffffffffffffffffffffffffffffff16815260200191505060206040518083038186803b15801562001aee57600080fd5b505afa15801562001b03573d6000803e3d6000fd5b505050506040513d602081101562001b1a57600080fd5b810190808051906020019092919050505062001faa565b565b600062001b7783836040518060400160405280601a81526020017f536166654d6174683a206469766973696f6e206279207a65726f00000000000081525062002a6b565b905092915050565b600062001bc383836040518060400160405280601e81526020017f536166654d6174683a207375627472616374696f6e206f766572666c6f77000081525062002b36565b905092915050565b60008060606040518060200162001be290620032fa565b6020820181038252601f19601f8201166040525090506000306000604051602001808373ffffffffffffffffffffffffffffffffffffffff1673ffffffffffffffffffffffffffffffffffffffff1660601b81526014018260000b60000b60f81b8152600101925050506040516020818303038152906040528051906020012090506000306001604051602001808373ffffffffffffffffffffffffffffffffffffffff1673ffffffffffffffffffffffffffffffffffffffff1660601b81526014018260000b60000b60f81b81526001019250505060405160208183030381529060405280519060200120905062001cde6000838562002bfa565b945062001cee6000828562002bfa565b93508473ffffffffffffffffffffffffffffffffffffffff1663077f224a306040518263ffffffff1660e01b81526004018080602001806020018473ffffffffffffffffffffffffffffffffffffffff1673ffffffffffffffffffffffffffffffffffffffff168152602001838103835260088152602001807f5570446f776e5570000000000000000000000000000000000000000000000000815250602001838103825260048152602001807f75645570000000000000000000000000000000000000000000000000000000008152506020019350505050600060405180830381600087803b15801562001de257600080fd5b505af115801562001df7573d6000803e3d6000fd5b505050508373ffffffffffffffffffffffffffffffffffffffff1663077f224a306040518263ffffffff1660e01b81526004018080602001806020018473ffffffffffffffffffffffffffffffffffffffff1673ffffffffffffffffffffffffffffffffffffffff1681526020018381038352600a8152602001807f5570446f776e446f776e00000000000000000000000000000000000000000000815250602001838103825260048152602001807f7564446e000000000000000000000000000000000000000000000000000000008152506020019350505050600060405180830381600087803b15801562001eed57600080fd5b505af115801562001f02573d6000803e3d6000fd5b5050505062001f12858562002da7565b8484945094505050509091565b60008083141562001f34576000905062001fa4565b600082840290508284828162001f4657fe5b041462001f9f576040517f08c379a000000000000000000000000000000000000000000000000000000000815260040180806020018281038252602181526020018062005e186021913960400191505060405180910390fd5b809150505b92915050565b600060065490506000600260009054906101000a900473ffffffffffffffffffffffffffffffffffffffff1673ffffffffffffffffffffffffffffffffffffffff166318160ddd6040518163ffffffff1660e01b815260040160206040518083038186803b1580156200201c57600080fd5b505afa15801562002031573d6000803e3d6000fd5b505050506040513d60208110156200204857600080fd5b810190808051906020019092919050505090506000600360009054906101000a900473ffffffffffffffffffffffffffffffffffffffff1673ffffffffffffffffffffffffffffffffffffffff166318160ddd6040518163ffffffff1660e01b815260040160206040518083038186803b158015620020c657600080fd5b505afa158015620020db573d6000803e3d6000fd5b505050506040513d6020811015620020f257600080fd5b8101908080519060200190929190505050905060006200211c82846200199f90919063ffffffff16565b905060008486111562002146576200213e858762001b7f90919063ffffffff16565b90506200215e565b6200215b868662001b7f90919063ffffffff16565b90505b60006200216c828762002ef1565b90506002851015801562002181575060028410155b1562002703578587111562002382576000620021d1620021c7670de0b6b3a7640000620021b8858862001f1f90919063ffffffff16565b62001b3390919063ffffffff16565b6001870362002fbb565b9050600260009054906101000a900473ffffffffffffffffffffffffffffffffffffffff1673ffffffffffffffffffffffffffffffffffffffff16637a43e23f600854836040518363ffffffff1660e01b81526004018083815260200182815260200192505050602060405180830381600087803b1580156200225357600080fd5b505af115801562002268573d6000803e3d6000fd5b505050506040513d60208110156200227f57600080fd5b810190808051906020019092919050505050600360009054906101000a900473ffffffffffffffffffffffffffffffffffffffff1673ffffffffffffffffffffffffffffffffffffffff16637a43e23f6008547fffffffffffffffffffffffffffffffffffffffffffffffffffffffffffffffff84026040518363ffffffff1660e01b81526004018083815260200182815260200192505050602060405180830381600087803b1580156200233357600080fd5b505af115801562002348573d6000803e3d6000fd5b505050506040513d60208110156200235f57600080fd5b8101908080519060200190929190505050506200237b62002fd6565b50620026fd565b858710156200257d576000620023cc620023c2670de0b6b3a7640000620023b3858862001f1f90919063ffffffff16565b62001b3390919063ffffffff16565b6001880362002fbb565b9050600360009054906101000a900473ffffffffffffffffffffffffffffffffffffffff1673ffffffffffffffffffffffffffffffffffffffff16637a43e23f600854836040518363ffffffff1660e01b81526004018083815260200182815260200192505050602060405180830381600087803b1580156200244e57600080fd5b505af115801562002463573d6000803e3d6000fd5b505050506040513d60208110156200247a57600080fd5b810190808051906020019092919050505050600260009054906101000a900473ffffffffffffffffffffffffffffffffffffffff1673ffffffffffffffffffffffffffffffffffffffff16637a43e23f6008547fffffffffffffffffffffffffffffffffffffffffffffffffffffffffffffffff84026040518363ffffffff1660e01b81526004018083815260200182815260200192505050602060405180830381600087803b1580156200252e57600080fd5b505af115801562002543573d6000803e3d6000fd5b505050506040513d60208110156200255a57600080fd5b8101908080519060200190929190505050506200257662002fd6565b50620026fc565b600360009054906101000a900473ffffffffffffffffffffffffffffffffffffffff1673ffffffffffffffffffffffffffffffffffffffff16637a43e23f60085460006040518363ffffffff1660e01b81526004018083815260200182815260200192505050602060405180830381600087803b158015620025fe57600080fd5b505af115801562002613573d6000803e3d6000fd5b505050506040513d60208110156200262a57600080fd5b810190808051906020019092919050505050600260009054906101000a900473ffffffffffffffffffffffffffffffffffffffff1673ffffffffffffffffffffffffffffffffffffffff16637a43e23f60085460006040518363ffffffff1660e01b81526004018083815260200182815260200192505050602060405180830381600087803b158015620026bd57600080fd5b505af1158015620026d2573d6000803e3d6000fd5b505050506040513d6020811015620026e957600080fd5b8101908080519060200190929190505050505b5b62002882565b600360009054906101000a900473ffffffffffffffffffffffffffffffffffffffff1673ffffffffffffffffffffffffffffffffffffffff16637a43e23f60085460006040518363ffffffff1660e01b81526004018083815260200182815260200192505050602060405180830381600087803b1580156200278457600080fd5b505af115801562002799573d6000803e3d6000fd5b505050506040513d6020811015620027b057600080fd5b810190808051906020019092919050505050600260009054906101000a900473ffffffffffffffffffffffffffffffffffffffff1673ffffffffffffffffffffffffffffffffffffffff16637a43e23f60085460006040518363ffffffff1660e01b81526004018083815260200182815260200192505050602060405180830381600087803b1580156200284357600080fd5b505af115801562002858573d6000803e3d6000fd5b505050506040513d60208110156200286f57600080fd5b8101908080519060200190929190505050505b600260009054906101000a900473ffffffffffffffffffffffffffffffffffffffff1673ffffffffffffffffffffffffffffffffffffffff166389afcb44306040518263ffffffff1660e01b8152600401808273ffffffffffffffffffffffffffffffffffffffff1673ffffffffffffffffffffffffffffffffffffffff168152602001915050602060405180830381600087803b1580156200292457600080fd5b505af115801562002939573d6000803e3d6000fd5b505050506040513d60208110156200295057600080fd5b810190808051906020019092919050505050600360009054906101000a900473ffffffffffffffffffffffffffffffffffffffff1673ffffffffffffffffffffffffffffffffffffffff166389afcb44306040518263ffffffff1660e01b8152600401808273ffffffffffffffffffffffffffffffffffffffff1673ffffffffffffffffffffffffffffffffffffffff168152602001915050602060405180830381600087803b15801562002a0457600080fd5b505af115801562002a19573d6000803e3d6000fd5b505050506040513d602081101562002a3057600080fd5b810190808051906020019092919050505050866006819055506008600081548092919060010191905055504360078190555050505050505050565b6000808311829062002b1b576040517f08c379a00000000000000000000000000000000000000000000000000000000081526004018080602001828103825283818151815260200191508051906020019080838360005b8381101562002adf57808201518184015260208101905062002ac2565b50505050905090810190601f16801562002b0d5780820380516001836020036101000a031916815260200191505b509250505060405180910390fd5b50600083858162002b2857fe5b049050809150509392505050565b600083831115829062002be7576040517f08c379a00000000000000000000000000000000000000000000000000000000081526004018080602001828103825283818151815260200191508051906020019080838360005b8381101562002bab57808201518184015260208101905062002b8e565b50505050905090810190601f16801562002bd95780820380516001836020036101000a031916815260200191505b509250505060405180910390fd5b5060008385039050809150509392505050565b6000808447101562002c74576040517f08c379a000000000000000000000000000000000000000000000000000000000815260040180806020018281038252601d8152602001807f437265617465323a20696e73756666696369656e742062616c616e636500000081525060200191505060405180910390fd5b60008351141562002ced576040517f08c379a00000000000000000000000000000000000000000000000000000000081526004018080602001828103825260208152602001807f437265617465323a2062797465636f6465206c656e677468206973207a65726f81525060200191505060405180910390fd5b8383516020850187f59050600073ffffffffffffffffffffffffffffffffffffffff168173ffffffffffffffffffffffffffffffffffffffff16141562002d9c576040517f08c379a00000000000000000000000000000000000000000000000000000000081526004018080602001828103825260198152602001807f437265617465323a204661696c6564206f6e206465706c6f790000000000000081525060200191505060405180910390fd5b809150509392505050565b600460009054906101000a900473ffffffffffffffffffffffffffffffffffffffff1673ffffffffffffffffffffffffffffffffffffffff163373ffffffffffffffffffffffffffffffffffffffff161462002e6b576040517f08c379a00000000000000000000000000000000000000000000000000000000081526004018080602001828103825260118152602001807f5570446f776e3a4f6e6c79206f776e657200000000000000000000000000000081525060200191505060405180910390fd5b81600260006101000a81548173ffffffffffffffffffffffffffffffffffffffff021916908373ffffffffffffffffffffffffffffffffffffffff16021790555080600360006101000a81548173ffffffffffffffffffffffffffffffffffffffff021916908373ffffffffffffffffffffffffffffffffffffffff1602179055505050565b60008082141562002f06576000905062002fb5565b600062002f7d600d60149054906101000a900460ff1660ff1662002f6e62002f40670de0b6b3a76400008762001f1f90919063ffffffff16565b62002f5f670de0b6b3a7640000808a0262001f1f90919063ffffffff16565b62001b3390919063ffffffff16565b62001f1f90919063ffffffff16565b9050670de0b6b3a7640000811062002fb05762002fad6001670de0b6b3a764000062001b7f90919063ffffffff16565b90505b809150505b92915050565b600081831062002fcc578162002fce565b825b905092915050565b600073ffffffffffffffffffffffffffffffffffffffff16600c60009054906101000a900473ffffffffffffffffffffffffffffffffffffffff1673ffffffffffffffffffffffffffffffffffffffff1614620032f857600073ffffffffffffffffffffffffffffffffffffffff16600d60009054906101000a900473ffffffffffffffffffffffffffffffffffffffff1673ffffffffffffffffffffffffffffffffffffffff1614156200321b57600c60009054906101000a900473ffffffffffffffffffffffffffffffffffffffff1673ffffffffffffffffffffffffffffffffffffffff1663e6a43905600260009054906101000a900473ffffffffffffffffffffffffffffffffffffffff16600360009054906101000a900473ffffffffffffffffffffffffffffffffffffffff166040518363ffffffff1660e01b8152600401808373ffffffffffffffffffffffffffffffffffffffff1673ffffffffffffffffffffffffffffffffffffffff1681526020018273ffffffffffffffffffffffffffffffffffffffff1673ffffffffffffffffffffffffffffffffffffffff1681526020019250505060206040518083038186803b1580156200319d57600080fd5b505afa158015620031b2573d6000803e3d6000fd5b505050506040513d6020811015620031c957600080fd5b8101908080519060200190929190505050600d60006101000a81548173ffffffffffffffffffffffffffffffffffffffff021916908373ffffffffffffffffffffffffffffffffffffffff1602179055505b600073ffffffffffffffffffffffffffffffffffffffff16600d60009054906101000a900473ffffffffffffffffffffffffffffffffffffffff1673ffffffffffffffffffffffffffffffffffffffff1614620032f757600d60009054906101000a900473ffffffffffffffffffffffffffffffffffffffff1673ffffffffffffffffffffffffffffffffffffffff1663fff6cae96040518163ffffffff1660e01b8152600401600060405180830381600087803b158015620032dd57600080fd5b505af1158015620032f2573d6000803e3d6000fd5b505050505b5b565b612b0f80620033098339019056fe60806040526012600360006101000a81548160ff021916908360ff16021790555034801561002c57600080fd5b50600061003d61014360201b60201c565b9050806000806101000a81548173ffffffffffffffffffffffffffffffffffffffff021916908373ffffffffffffffffffffffffffffffffffffffff1602179055508073ffffffffffffffffffffffffffffffffffffffff16600073ffffffffffffffffffffffffffffffffffffffff167f8be0079c531659141344cd1fd0a4f28419497f9722a3daafe3b4186f6b6457e060405160405180910390a35060006004819055506000600760003373ffffffffffffffffffffffffffffffffffffffff1673ffffffffffffffffffffffffffffffffffffffff168152602001908152602001600020819055506ec097ce7bc90715b34b9f100000000060068190555061014b565b600033905090565b6129b58061015a6000396000f3fe608060405234801561001057600080fd5b506004361061011d5760003560e01c806306fdde0314610122578063077f224a146101a5578063095ea7b31461031757806318160ddd1461037d57806323b872dd1461039b5780632f86556814610421578063313ce56714610479578063395093511461049d57806340c10f191461050357806370a0823114610569578063715018a6146105c15780637a43e23f146105cb57806389afcb44146106175780638da5cb5b1461067357806395d89b41146106bd578063a457c2d714610740578063a9059cbb146107a6578063b84c82461461080c578063c47f0027146108c7578063c4996f5114610982578063dd62ed3e146109a0578063dff4e22014610a18578063f2fde38b14610a5a575b600080fd5b61012a610a9e565b6040518080602001828103825283818151815260200191508051906020019080838360005b8381101561016a57808201518184015260208101905061014f565b50505050905090810190601f1680156101975780820380516001836020036101000a031916815260200191505b509250505060405180910390f35b610315600480360360608110156101bb57600080fd5b81019080803590602001906401000000008111156101d857600080fd5b8201836020820111156101ea57600080fd5b8035906020019184600183028401116401000000008311171561020c57600080fd5b91908080601f016020809104026020016040519081016040528093929190818152602001838380828437600081840152601f19601f8201169050808301925050505050505091929192908035906020019064010000000081111561026f57600080fd5b82018360208201111561028157600080fd5b803590602001918460018302840111640100000000831117156102a357600080fd5b91908080601f016020809104026020016040519081016040528093929190818152602001838380828437600081840152601f19601f820116905080830192505050505050509192919290803573ffffffffffffffffffffffffffffffffffffffff169060200190929190505050610b40565b005b6103636004803603604081101561032d57600080fd5b81019080803573ffffffffffffffffffffffffffffffffffffffff16906020019092919080359060200190929190505050610d70565b604051808215151515815260200191505060405180910390f35b610385610e62565b6040518082815260200191505060405180910390f35b610407600480360360608110156103b157600080fd5b81019080803573ffffffffffffffffffffffffffffffffffffffff169060200190929190803573ffffffffffffffffffffffffffffffffffffffff16906020019092919080359060200190929190505050610e6c565b604051808215151515815260200191505060405180910390f35b6104636004803603602081101561043757600080fd5b81019080803573ffffffffffffffffffffffffffffffffffffffff169060200190929190505050611006565b6040518082815260200191505060405180910390f35b61048161117f565b604051808260ff1660ff16815260200191505060405180910390f35b6104e9600480360360408110156104b357600080fd5b81019080803573ffffffffffffffffffffffffffffffffffffffff16906020019092919080359060200190929190505050611196565b604051808215151515815260200191505060405180910390f35b61054f6004803603604081101561051957600080fd5b81019080803573ffffffffffffffffffffffffffffffffffffffff16906020019092919080359060200190929190505050611392565b604051808215151515815260200191505060405180910390f35b6105ab6004803603602081101561057f57600080fd5b81019080803573ffffffffffffffffffffffffffffffffffffffff16906020019092919050505061154c565b6040518082815260200191505060405180910390f35b6105c96115a9565b005b610601600480360360408110156105e157600080fd5b810190808035906020019092919080359060200190929190505050611731565b6040518082815260200191505060405180910390f35b6106596004803603602081101561062d57600080fd5b81019080803573ffffffffffffffffffffffffffffffffffffffff169060200190929190505050611967565b604051808215151515815260200191505060405180910390f35b61067b611b15565b604051808273ffffffffffffffffffffffffffffffffffffffff1673ffffffffffffffffffffffffffffffffffffffff16815260200191505060405180910390f35b6106c5611b3e565b6040518080602001828103825283818151815260200191508051906020019080838360005b838110156107055780820151818401526020810190506106ea565b50505050905090810190601f1680156107325780820380516001836020036101000a031916815260200191505b509250505060405180910390f35b61078c6004803603604081101561075657600080fd5b81019080803573ffffffffffffffffffffffffffffffffffffffff16906020019092919080359060200190929190505050611be0565b604051808215151515815260200191505060405180910390f35b6107f2600480360360408110156107bc57600080fd5b81019080803573ffffffffffffffffffffffffffffffffffffffff16906020019092919080359060200190929190505050611e70565b604051808215151515815260200191505060405180910390f35b6108c56004803603602081101561082257600080fd5b810190808035906020019064010000000081111561083f57600080fd5b82018360208201111561085157600080fd5b8035906020019184600183028401116401000000008311171561087357600080fd5b91908080601f016020809104026020016040519081016040528093929190818152602001838380828437600081840152601f19601f82011690508083019250505050505050919291929050505061209a565b005b610980600480360360208110156108dd57600080fd5b81019080803590602001906401000000008111156108fa57600080fd5b82018360208201111561090c57600080fd5b8035906020019184600183028401116401000000008311171561092e57600080fd5b91908080601f016020809104026020016040519081016040528093929190818152602001838380828437600081840152601f19601f8201169050808301925050505050505091929192905050506120b4565b005b61098a6120ce565b6040518082815260200191505060405180910390f35b610a02600480360360408110156109b657600080fd5b81019080803573ffffffffffffffffffffffffffffffffffffffff169060200190929190803573ffffffffffffffffffffffffffffffffffffffff1690602001909291905050506120d4565b6040518082815260200191505060405180910390f35b610a4460048036036020811015610a2e57600080fd5b810190808035906020019092919050505061215b565b6040518082815260200191505060405180910390f35b610a9c60048036036020811015610a7057600080fd5b81019080803573ffffffffffffffffffffffffffffffffffffffff169060200190929190505050612173565b005b606060018054600181600116156101000203166002900480601f016020809104026020016040519081016040528092919081815260200182805460018160011615610100020316600290048015610b365780601f10610b0b57610100808354040283529160200191610b36565b820191906000526020600020905b815481529060010190602001808311610b1957829003601f168201915b5050505050905090565b610b48612380565b73ffffffffffffffffffffffffffffffffffffffff166000809054906101000a900473ffffffffffffffffffffffffffffffffffffffff1673ffffffffffffffffffffffffffffffffffffffff1614610c09576040517f08c379a00000000000000000000000000000000000000000000000000000000081526004018080602001828103825260208152602001807f4f776e61626c653a2063616c6c6572206973206e6f7420746865206f776e657281525060200191505060405180910390fd5b610c12836120b4565b610c1b8261209a565b600060076000610c29611b15565b73ffffffffffffffffffffffffffffffffffffffff1673ffffffffffffffffffffffffffffffffffffffff168152602001908152602001600020549050600060076000610c74611b15565b73ffffffffffffffffffffffffffffffffffffffff1673ffffffffffffffffffffffffffffffffffffffff16815260200190815260200160002081905550610d0481600760008573ffffffffffffffffffffffffffffffffffffffff1673ffffffffffffffffffffffffffffffffffffffff1681526020019081526020016000205461238890919063ffffffff16565b600760008473ffffffffffffffffffffffffffffffffffffffff1673ffffffffffffffffffffffffffffffffffffffff168152602001908152602001600020819055506006546008600080815260200190815260200160002081905550610d6a82612173565b50505050565b600081600960003373ffffffffffffffffffffffffffffffffffffffff1673ffffffffffffffffffffffffffffffffffffffff16815260200190815260200160002060008573ffffffffffffffffffffffffffffffffffffffff1673ffffffffffffffffffffffffffffffffffffffff168152602001908152602001600020819055508273ffffffffffffffffffffffffffffffffffffffff163373ffffffffffffffffffffffffffffffffffffffff167f8c5be1e5ebec7d5bd14f71427d1e84f3dd0314c0f7b2291e5b200ac8c7c3b925846040518082815260200191505060405180910390a36001905092915050565b6000600454905090565b600082600073ffffffffffffffffffffffffffffffffffffffff168173ffffffffffffffffffffffffffffffffffffffff161415610ea957600080fd5b3073ffffffffffffffffffffffffffffffffffffffff168173ffffffffffffffffffffffffffffffffffffffff161415610ee257600080fd5b610f7183600960008873ffffffffffffffffffffffffffffffffffffffff1673ffffffffffffffffffffffffffffffffffffffff16815260200190815260200160002060003373ffffffffffffffffffffffffffffffffffffffff1673ffffffffffffffffffffffffffffffffffffffff1681526020019081526020016000205461241090919063ffffffff16565b600960008773ffffffffffffffffffffffffffffffffffffffff1673ffffffffffffffffffffffffffffffffffffffff16815260200190815260200160002060003373ffffffffffffffffffffffffffffffffffffffff1673ffffffffffffffffffffffffffffffffffffffff16815260200190815260200160002081905550610ffc85858561245a565b9150509392505050565b6000611010612380565b73ffffffffffffffffffffffffffffffffffffffff166000809054906101000a900473ffffffffffffffffffffffffffffffffffffffff1673ffffffffffffffffffffffffffffffffffffffff16146110d1576040517f08c379a00000000000000000000000000000000000000000000000000000000081526004018080602001828103825260208152602001807f4f776e61626c653a2063616c6c6572206973206e6f7420746865206f776e657281525060200191505060405180910390fd5b60006110dc8361154c565b905060006110f56006548361260f90919063ffffffff16565b905061110984611103611b15565b8461245a565b507f05aeea22582abbfdbc7681fd1d04fa2fe248c0f77e3734a766e0e431f5f92c2a8483604051808373ffffffffffffffffffffffffffffffffffffffff1673ffffffffffffffffffffffffffffffffffffffff1681526020018281526020019250505060405180910390a18092505050919050565b6000600360009054906101000a900460ff16905090565b600061122782600960003373ffffffffffffffffffffffffffffffffffffffff1673ffffffffffffffffffffffffffffffffffffffff16815260200190815260200160002060008673ffffffffffffffffffffffffffffffffffffffff1673ffffffffffffffffffffffffffffffffffffffff1681526020019081526020016000205461238890919063ffffffff16565b600960003373ffffffffffffffffffffffffffffffffffffffff1673ffffffffffffffffffffffffffffffffffffffff16815260200190815260200160002060008573ffffffffffffffffffffffffffffffffffffffff1673ffffffffffffffffffffffffffffffffffffffff168152602001908152602001600020819055508273ffffffffffffffffffffffffffffffffffffffff163373ffffffffffffffffffffffffffffffffffffffff167f8c5be1e5ebec7d5bd14f71427d1e84f3dd0314c0f7b2291e5b200ac8c7c3b925600960003373ffffffffffffffffffffffffffffffffffffffff1673ffffffffffffffffffffffffffffffffffffffff16815260200190815260200160002060008773ffffffffffffffffffffffffffffffffffffffff1673ffffffffffffffffffffffffffffffffffffffff168152602001908152602001600020546040518082815260200191505060405180910390a36001905092915050565b600061139c612380565b73ffffffffffffffffffffffffffffffffffffffff166000809054906101000a900473ffffffffffffffffffffffffffffffffffffffff1673ffffffffffffffffffffffffffffffffffffffff161461145d576040517f08c379a00000000000000000000000000000000000000000000000000000000081526004018080602001828103825260208152602001807f4f776e61626c653a2063616c6c6572206973206e6f7420746865206f776e657281525060200191505060405180910390fd5b6114728260045461238890919063ffffffff16565b600481905550600061148f6006548461260f90919063ffffffff16565b90506114e381600760008773ffffffffffffffffffffffffffffffffffffffff1673ffffffffffffffffffffffffffffffffffffffff1681526020019081526020016000205461238890919063ffffffff16565b600760008673ffffffffffffffffffffffffffffffffffffffff1673ffffffffffffffffffffffffffffffffffffffff1681526020019081526020016000208190555061153b8160055461238890919063ffffffff16565b600581905550600191505092915050565b60006115a2600654600760008573ffffffffffffffffffffffffffffffffffffffff1673ffffffffffffffffffffffffffffffffffffffff1681526020019081526020016000205461269590919063ffffffff16565b9050919050565b6115b1612380565b73ffffffffffffffffffffffffffffffffffffffff166000809054906101000a900473ffffffffffffffffffffffffffffffffffffffff1673ffffffffffffffffffffffffffffffffffffffff1614611672576040517f08c379a00000000000000000000000000000000000000000000000000000000081526004018080602001828103825260208152602001807f4f776e61626c653a2063616c6c6572206973206e6f7420746865206f776e657281525060200191505060405180910390fd5b600073ffffffffffffffffffffffffffffffffffffffff166000809054906101000a900473ffffffffffffffffffffffffffffffffffffffff1673ffffffffffffffffffffffffffffffffffffffff167f8be0079c531659141344cd1fd0a4f28419497f9722a3daafe3b4186f6b6457e060405160405180910390a360008060006101000a81548173ffffffffffffffffffffffffffffffffffffffff021916908373ffffffffffffffffffffffffffffffffffffffff160217905550565b600061173b612380565b73ffffffffffffffffffffffffffffffffffffffff166000809054906101000a900473ffffffffffffffffffffffffffffffffffffffff1673ffffffffffffffffffffffffffffffffffffffff16146117fc576040517f08c379a00000000000000000000000000000000000000000000000000000000081526004018080602001828103825260208152602001807f4f776e61626c653a2063616c6c6572206973206e6f7420746865206f776e657281525060200191505060405180910390fd5b600082141561186357827f72725a3b1e5bd622d6bcd1339bb31279c351abe8f541ac7fd320f24e1b1641f26004546040518082815260200191505060405180910390a260065460086000858152602001908152602001600020819055506004549050611961565b600082121561189457611889611878836126df565b60045461241090919063ffffffff16565b6004819055506118b0565b6118a98260045461238890919063ffffffff16565b6004819055505b6000196fffffffffffffffffffffffffffffffff1660045411156118ea576000196fffffffffffffffffffffffffffffffff166004819055505b61190160045460055461269590919063ffffffff16565b6006819055506006546008600085815260200190815260200160002081905550827f72725a3b1e5bd622d6bcd1339bb31279c351abe8f541ac7fd320f24e1b1641f26004546040518082815260200191505060405180910390a260045490505b92915050565b6000611971612380565b73ffffffffffffffffffffffffffffffffffffffff166000809054906101000a900473ffffffffffffffffffffffffffffffffffffffff1673ffffffffffffffffffffffffffffffffffffffff1614611a32576040517f08c379a00000000000000000000000000000000000000000000000000000000081526004018080602001828103825260208152602001807f4f776e61626c653a2063616c6c6572206973206e6f7420746865206f776e657281525060200191505060405180910390fd5b6000600760008473ffffffffffffffffffffffffffffffffffffffff1673ffffffffffffffffffffffffffffffffffffffff1681526020019081526020016000205490506000600760008573ffffffffffffffffffffffffffffffffffffffff1673ffffffffffffffffffffffffffffffffffffffff168152602001908152602001600020819055506000611ad26006548361269590919063ffffffff16565b9050611ae98260055461241090919063ffffffff16565b600581905550611b048160045461241090919063ffffffff16565b600481905550600192505050919050565b60008060009054906101000a900473ffffffffffffffffffffffffffffffffffffffff16905090565b606060028054600181600116156101000203166002900480601f016020809104026020016040519081016040528092919081815260200182805460018160011615610100020316600290048015611bd65780601f10611bab57610100808354040283529160200191611bd6565b820191906000526020600020905b815481529060010190602001808311611bb957829003601f168201915b5050505050905090565b600080600960003373ffffffffffffffffffffffffffffffffffffffff1673ffffffffffffffffffffffffffffffffffffffff16815260200190815260200160002060008573ffffffffffffffffffffffffffffffffffffffff1673ffffffffffffffffffffffffffffffffffffffff168152602001908152602001600020549050808310611cf0576000600960003373ffffffffffffffffffffffffffffffffffffffff1673ffffffffffffffffffffffffffffffffffffffff16815260200190815260200160002060008673ffffffffffffffffffffffffffffffffffffffff1673ffffffffffffffffffffffffffffffffffffffff16815260200190815260200160002081905550611d84565b611d03838261241090919063ffffffff16565b600960003373ffffffffffffffffffffffffffffffffffffffff1673ffffffffffffffffffffffffffffffffffffffff16815260200190815260200160002060008673ffffffffffffffffffffffffffffffffffffffff1673ffffffffffffffffffffffffffffffffffffffff168152602001908152602001600020819055505b8373ffffffffffffffffffffffffffffffffffffffff163373ffffffffffffffffffffffffffffffffffffffff167f8c5be1e5ebec7d5bd14f71427d1e84f3dd0314c0f7b2291e5b200ac8c7c3b925600960003373ffffffffffffffffffffffffffffffffffffffff1673ffffffffffffffffffffffffffffffffffffffff16815260200190815260200160002060008873ffffffffffffffffffffffffffffffffffffffff1673ffffffffffffffffffffffffffffffffffffffff168152602001908152602001600020546040518082815260200191505060405180910390a3600191505092915050565b600082600073ffffffffffffffffffffffffffffffffffffffff168173ffffffffffffffffffffffffffffffffffffffff161415611ead57600080fd5b3073ffffffffffffffffffffffffffffffffffffffff168173ffffffffffffffffffffffffffffffffffffffff161415611ee657600080fd5b6000611efd6006548561260f90919063ffffffff16565b9050611f5181600760003373ffffffffffffffffffffffffffffffffffffffff1673ffffffffffffffffffffffffffffffffffffffff1681526020019081526020016000205461241090919063ffffffff16565b600760003373ffffffffffffffffffffffffffffffffffffffff1673ffffffffffffffffffffffffffffffffffffffff16815260200190815260200160002081905550611fe681600760008873ffffffffffffffffffffffffffffffffffffffff1673ffffffffffffffffffffffffffffffffffffffff1681526020019081526020016000205461238890919063ffffffff16565b600760008773ffffffffffffffffffffffffffffffffffffffff1673ffffffffffffffffffffffffffffffffffffffff168152602001908152602001600020819055508473ffffffffffffffffffffffffffffffffffffffff163373ffffffffffffffffffffffffffffffffffffffff167fddf252ad1be2c89b69c2b068fc378daa952ba7f163c4a11628f55a4df523b3ef866040518082815260200191505060405180910390a360019250505092915050565b80600290805190602001906120b0929190612893565b5050565b80600190805190602001906120ca929190612893565b5050565b60065481565b6000600960008473ffffffffffffffffffffffffffffffffffffffff1673ffffffffffffffffffffffffffffffffffffffff16815260200190815260200160002060008373ffffffffffffffffffffffffffffffffffffffff1673ffffffffffffffffffffffffffffffffffffffff16815260200190815260200160002054905092915050565b60086020528060005260406000206000915090505481565b61217b612380565b73ffffffffffffffffffffffffffffffffffffffff166000809054906101000a900473ffffffffffffffffffffffffffffffffffffffff1673ffffffffffffffffffffffffffffffffffffffff161461223c576040517f08c379a00000000000000000000000000000000000000000000000000000000081526004018080602001828103825260208152602001807f4f776e61626c653a2063616c6c6572206973206e6f7420746865206f776e657281525060200191505060405180910390fd5b600073ffffffffffffffffffffffffffffffffffffffff168173ffffffffffffffffffffffffffffffffffffffff1614156122c2576040517f08c379a00000000000000000000000000000000000000000000000000000000081526004018080602001828103825260268152602001806129396026913960400191505060405180910390fd5b8073ffffffffffffffffffffffffffffffffffffffff166000809054906101000a900473ffffffffffffffffffffffffffffffffffffffff1673ffffffffffffffffffffffffffffffffffffffff167f8be0079c531659141344cd1fd0a4f28419497f9722a3daafe3b4186f6b6457e060405160405180910390a3806000806101000a81548173ffffffffffffffffffffffffffffffffffffffff021916908373ffffffffffffffffffffffffffffffffffffffff16021790555050565b600033905090565b600080828401905083811015612406576040517f08c379a000000000000000000000000000000000000000000000000000000000815260040180806020018281038252601b8152602001807f536166654d6174683a206164646974696f6e206f766572666c6f77000000000081525060200191505060405180910390fd5b8091505092915050565b600061245283836040518060400160405280601e81526020017f536166654d6174683a207375627472616374696f6e206f766572666c6f77000081525061270d565b905092915050565b6000806124726006548461260f90919063ffffffff16565b90506124c681600760008873ffffffffffffffffffffffffffffffffffffffff1673ffffffffffffffffffffffffffffffffffffffff1681526020019081526020016000205461241090919063ffffffff16565b600760008773ffffffffffffffffffffffffffffffffffffffff1673ffffffffffffffffffffffffffffffffffffffff1681526020019081526020016000208190555061255b81600760008773ffffffffffffffffffffffffffffffffffffffff1673ffffffffffffffffffffffffffffffffffffffff1681526020019081526020016000205461238890919063ffffffff16565b600760008673ffffffffffffffffffffffffffffffffffffffff1673ffffffffffffffffffffffffffffffffffffffff168152602001908152602001600020819055508373ffffffffffffffffffffffffffffffffffffffff168573ffffffffffffffffffffffffffffffffffffffff167fddf252ad1be2c89b69c2b068fc378daa952ba7f163c4a11628f55a4df523b3ef856040518082815260200191505060405180910390a360019150509392505050565b600080831415612622576000905061268f565b600082840290508284828161263357fe5b041461268a576040517f08c379a000000000000000000000000000000000000000000000000000000000815260040180806020018281038252602181526020018061295f6021913960400191505060405180910390fd5b809150505b92915050565b60006126d783836040518060400160405280601a81526020017f536166654d6174683a206469766973696f6e206279207a65726f0000000000008152506127cd565b905092915050565b600060ff6001901b8214156126f357600080fd5b600082126127015781612706565b816000035b9050919050565b60008383111582906127ba576040517f08c379a00000000000000000000000000000000000000000000000000000000081526004018080602001828103825283818151815260200191508051906020019080838360005b8381101561277f578082015181840152602081019050612764565b50505050905090810190601f1680156127ac5780820380516001836020036101000a031916815260200191505b509250505060405180910390fd5b5060008385039050809150509392505050565b60008083118290612879576040517f08c379a00000000000000000000000000000000000000000000000000000000081526004018080602001828103825283818151815260200191508051906020019080838360005b8381101561283e578082015181840152602081019050612823565b50505050905090810190601f16801561286b5780820380516001836020036101000a031916815260200191505b509250505060405180910390fd5b50600083858161288557fe5b049050809150509392505050565b828054600181600116156101000203166002900490600052602060002090601f016020900481019282601f106128d457805160ff1916838001178555612902565b82800160010185558215612902579182015b828111156129015782518255916020019190600101906128e6565b5b50905061290f9190612913565b5090565b61293591905b80821115612931576000816000905550600101612919565b5090565b9056fe4f776e61626c653a206e6577206f776e657220697320746865207a65726f2061646472657373536166654d6174683a206d756c7469706c69636174696f6e206f766572666c6f77a26469706673582212204ecaf2f482ef8d31bd8a9fbda68212b24c9a9ba6313b54821a4a84b15cfcb76064736f6c63430006060033536166654d6174683a206d756c7469706c69636174696f6e206f766572666c6f77a2646970667358221220dbce4e0a826e53b70b73642856e770ea0c5ebfe88fd400f6e995f39c7b66081664736f6c63430006060033"
}