{
  "abi": [
    {
      "inputs": [
        {
          "internalType": "address",
          "name": "_chk",
          "type": "address"
        },
        {
          "internalType": "uint256",
          "name": "_chkPerBlock",
          "type": "uint256"
        },
        {
          "internalType": "uint256",
          "name": "_startBlock",
          "type": "uint256"
        },
        {
          "internalType": "uint256",
          "name": "_endBlock",
          "type": "uint256"
        }
      ],
      "stateMutability": "nonpayable",
      "type": "constructor"
    },
    {
      "anonymous": false,
      "inputs": [
        {
          "indexed": true,
          "internalType": "address",
          "name": "user",
          "type": "address"
        },
        {
          "indexed": true,
          "internalType": "uint256",
          "name": "pid",
          "type": "uint256"
        },
        {
          "indexed": false,
          "internalType": "uint256",
          "name": "amount",
          "type": "uint256"
        }
      ],
      "name": "Deposit",
      "type": "event"
    },
    {
      "anonymous": false,
      "inputs": [
        {
          "indexed": true,
          "internalType": "address",
          "name": "user",
          "type": "address"
        },
        {
          "indexed": true,
          "internalType": "uint256",
          "name": "pid",
          "type": "uint256"
        },
        {
          "indexed": false,
          "internalType": "uint256",
          "name": "amount",
          "type": "uint256"
        }
      ],
      "name": "EmergencyWithdraw",
      "type": "event"
    },
    {
      "anonymous": false,
      "inputs": [
        {
          "indexed": true,
          "internalType": "address",
          "name": "previousOwner",
          "type": "address"
        },
        {
          "indexed": true,
          "internalType": "address",
          "name": "newOwner",
          "type": "address"
        }
      ],
      "name": "OwnershipTransferred",
      "type": "event"
    },
    {
      "anonymous": false,
      "inputs": [
        {
          "indexed": true,
          "internalType": "address",
          "name": "user",
          "type": "address"
        },
        {
          "indexed": true,
          "internalType": "uint256",
          "name": "pid",
          "type": "uint256"
        },
        {
          "indexed": false,
          "internalType": "uint256",
          "name": "amount",
          "type": "uint256"
        }
      ],
      "name": "Withdraw",
      "type": "event"
    },
    {
      "inputs": [
        {
          "internalType": "uint256",
          "name": "_allocPoint",
          "type": "uint256"
        },
        {
          "internalType": "contract IERC20",
          "name": "_lpToken",
          "type": "address"
        },
        {
          "internalType": "bool",
          "name": "_withUpdate",
          "type": "bool"
        }
      ],
      "name": "add",
      "outputs": [],
      "stateMutability": "nonpayable",
      "type": "function"
    },
    {
      "inputs": [],
      "name": "chk",
      "outputs": [
        {
          "internalType": "contract CheckToken",
          "name": "",
          "type": "address"
        }
      ],
      "stateMutability": "view",
      "type": "function"
    },
    {
      "inputs": [],
      "name": "chkPerBlock",
      "outputs": [
        {
          "internalType": "uint256",
          "name": "",
          "type": "uint256"
        }
      ],
      "stateMutability": "view",
      "type": "function"
    },
    {
      "inputs": [
        {
          "internalType": "uint256",
          "name": "_pid",
          "type": "uint256"
        },
        {
          "internalType": "uint256",
          "name": "_amount",
          "type": "uint256"
        }
      ],
      "name": "deposit",
      "outputs": [],
      "stateMutability": "nonpayable",
      "type": "function"
    },
    {
      "inputs": [
        {
          "internalType": "uint256",
          "name": "_pid",
          "type": "uint256"
        }
      ],
      "name": "emergencyWithdraw",
      "outputs": [],
      "stateMutability": "nonpayable",
      "type": "function"
    },
    {
      "inputs": [],
      "name": "endBlock",
      "outputs": [
        {
          "internalType": "uint256",
          "name": "",
          "type": "uint256"
        }
      ],
      "stateMutability": "view",
      "type": "function"
    },
    {
      "inputs": [
        {
          "internalType": "uint256",
          "name": "_from",
          "type": "uint256"
        },
        {
          "internalType": "uint256",
          "name": "_to",
          "type": "uint256"
        }
      ],
      "name": "getMultiplier",
      "outputs": [
        {
          "internalType": "uint256",
          "name": "",
          "type": "uint256"
        }
      ],
      "stateMutability": "view",
      "type": "function"
    },
    {
      "inputs": [],
      "name": "massUpdatePools",
      "outputs": [],
      "stateMutability": "nonpayable",
      "type": "function"
    },
    {
      "inputs": [],
      "name": "owner",
      "outputs": [
        {
          "internalType": "address",
          "name": "",
          "type": "address"
        }
      ],
      "stateMutability": "view",
      "type": "function"
    },
    {
      "inputs": [
        {
          "internalType": "uint256",
          "name": "_pid",
          "type": "uint256"
        },
        {
          "internalType": "address",
          "name": "_user",
          "type": "address"
        }
      ],
      "name": "pendingChk",
      "outputs": [
        {
          "internalType": "uint256",
          "name": "",
          "type": "uint256"
        }
      ],
      "stateMutability": "view",
      "type": "function"
    },
    {
      "inputs": [
        {
          "internalType": "uint256",
          "name": "",
          "type": "uint256"
        }
      ],
      "name": "poolInfo",
      "outputs": [
        {
          "internalType": "contract IERC20",
          "name": "lpToken",
          "type": "address"
        },
        {
          "internalType": "uint256",
          "name": "allocPoint",
          "type": "uint256"
        },
        {
          "internalType": "uint256",
          "name": "lastRewardBlock",
          "type": "uint256"
        },
        {
          "internalType": "uint256",
          "name": "accChkPerShare",
          "type": "uint256"
        }
      ],
      "stateMutability": "view",
      "type": "function"
    },
    {
      "inputs": [],
      "name": "poolLength",
      "outputs": [
        {
          "internalType": "uint256",
          "name": "",
          "type": "uint256"
        }
      ],
      "stateMutability": "view",
      "type": "function"
    },
    {
      "inputs": [],
      "name": "renounceOwnership",
      "outputs": [],
      "stateMutability": "nonpayable",
      "type": "function"
    },
    {
      "inputs": [
        {
          "internalType": "uint256",
          "name": "_pid",
          "type": "uint256"
        },
        {
          "internalType": "uint256",
          "name": "_allocPoint",
          "type": "uint256"
        },
        {
          "internalType": "bool",
          "name": "_withUpdate",
          "type": "bool"
        }
      ],
      "name": "set",
      "outputs": [],
      "stateMutability": "nonpayable",
      "type": "function"
    },
    {
      "inputs": [],
      "name": "startBlock",
      "outputs": [
        {
          "internalType": "uint256",
          "name": "",
          "type": "uint256"
        }
      ],
      "stateMutability": "view",
      "type": "function"
    },
    {
      "inputs": [],
      "name": "totalAllocPoint",
      "outputs": [
        {
          "internalType": "uint256",
          "name": "",
          "type": "uint256"
        }
      ],
      "stateMutability": "view",
      "type": "function"
    },
    {
      "inputs": [
        {
          "internalType": "address",
          "name": "newOwner",
          "type": "address"
        }
      ],
      "name": "transferOwnership",
      "outputs": [],
      "stateMutability": "nonpayable",
      "type": "function"
    },
    {
      "inputs": [
        {
          "internalType": "uint256",
          "name": "_pid",
          "type": "uint256"
        }
      ],
      "name": "updatePool",
      "outputs": [],
      "stateMutability": "nonpayable",
      "type": "function"
    },
    {
      "inputs": [
        {
          "internalType": "uint256",
          "name": "",
          "type": "uint256"
        },
        {
          "internalType": "address",
          "name": "",
          "type": "address"
        }
      ],
      "name": "userInfo",
      "outputs": [
        {
          "internalType": "uint256",
          "name": "amount",
          "type": "uint256"
        },
        {
          "internalType": "uint256",
          "name": "rewardDebt",
          "type": "uint256"
        }
      ],
      "stateMutability": "view",
      "type": "function"
    },
    {
      "inputs": [
        {
          "internalType": "uint256",
          "name": "_pid",
          "type": "uint256"
        },
        {
          "internalType": "uint256",
          "name": "_amount",
          "type": "uint256"
        }
      ],
      "name": "withdraw",
      "outputs": [],
      "stateMutability": "nonpayable",
      "type": "function"
    }
  ],
  "address": "0xdaF05cd1e3a9Cc9613cb466E9D7eb556a6f31Ef5",
  "args": [
    "0x141D0c7d6A728B4aE475bf2A52C72Cd5e06A3056",
    1000,
    3601581,
    4208042
  ],
  "solcInputHash": "0x81cc5039050a35bc16dbf351be34ef40522d9eb94c7c74ac0462f6b86288ffde",
  "bytecode": "0x6080604052600060075534801561001557600080fd5b506040516125233803806125238339818101604052608081101561003857600080fd5b8101908080519060200190929190805190602001909291908051906020019092919080519060200190929190505050600061007761017460201b60201c565b9050806000806101000a81548173ffffffffffffffffffffffffffffffffffffffff021916908373ffffffffffffffffffffffffffffffffffffffff1602179055508073ffffffffffffffffffffffffffffffffffffffff16600073ffffffffffffffffffffffffffffffffffffffff167f8be0079c531659141344cd1fd0a4f28419497f9722a3daafe3b4186f6b6457e060405160405180910390a35083600160006101000a81548173ffffffffffffffffffffffffffffffffffffffff021916908373ffffffffffffffffffffffffffffffffffffffff1602179055508260048190555081600281905550806003819055505050505061017c565b600033905090565b6123988061018b6000396000f3fe608060405234801561001057600080fd5b50600436106100fc5760003560e01c8063081e3eda14610101578063083c63231461011f5780631526fe271461013d57806317caf6f1146101c05780631eaaa045146101de578063441a3e701461023857806348cd4cb11461027057806351eb05a61461028e5780635312ea8e146102bc5780635a1a745c146102ea578063630b5ba11461030857806364482f7914610312578063715018a6146103565780638758e151146103605780638da5cb5b146103c25780638dbb1e3a1461040c578063936af0d11461045857806393f1a40b146104a2578063e2bbb1581461050b578063f2fde38b14610543575b600080fd5b610109610587565b6040518082815260200191505060405180910390f35b610127610594565b6040518082815260200191505060405180910390f35b6101696004803603602081101561015357600080fd5b810190808035906020019092919050505061059a565b604051808573ffffffffffffffffffffffffffffffffffffffff1673ffffffffffffffffffffffffffffffffffffffff16815260200184815260200183815260200182815260200194505050505060405180910390f35b6101c86105f7565b6040518082815260200191505060405180910390f35b610236600480360360608110156101f457600080fd5b8101908080359060200190929190803573ffffffffffffffffffffffffffffffffffffffff1690602001909291908035151590602001909291905050506105fd565b005b61026e6004803603604081101561024e57600080fd5b8101908080359060200190929190803590602001909291905050506107d7565b005b610278610a3b565b6040518082815260200191505060405180910390f35b6102ba600480360360208110156102a457600080fd5b8101908080359060200190929190505050610a41565b005b6102e8600480360360208110156102d257600080fd5b8101908080359060200190929190505050610cdc565b005b6102f2610e0e565b6040518082815260200191505060405180910390f35b610310610e14565b005b6103546004803603606081101561032857600080fd5b810190808035906020019092919080359060200190929190803515159060200190929190505050610e44565b005b61035e610f8f565b005b6103ac6004803603604081101561037657600080fd5b8101908080359060200190929190803573ffffffffffffffffffffffffffffffffffffffff169060200190929190505050611117565b6040518082815260200191505060405180910390f35b6103ca611379565b604051808273ffffffffffffffffffffffffffffffffffffffff1673ffffffffffffffffffffffffffffffffffffffff16815260200191505060405180910390f35b6104426004803603604081101561042257600080fd5b8101908080359060200190929190803590602001909291905050506113a2565b6040518082815260200191505060405180910390f35b6104606113ca565b604051808273ffffffffffffffffffffffffffffffffffffffff1673ffffffffffffffffffffffffffffffffffffffff16815260200191505060405180910390f35b6104ee600480360360408110156104b857600080fd5b8101908080359060200190929190803573ffffffffffffffffffffffffffffffffffffffff1690602001909291905050506113f0565b604051808381526020018281526020019250505060405180910390f35b6105416004803603604081101561052157600080fd5b810190808035906020019092919080359060200190929190505050611421565b005b6105856004803603602081101561055957600080fd5b81019080803573ffffffffffffffffffffffffffffffffffffffff16906020019092919050505061161b565b005b6000600580549050905090565b60035481565b600581815481106105a757fe5b90600052602060002090600402016000915090508060000160009054906101000a900473ffffffffffffffffffffffffffffffffffffffff16908060010154908060020154908060030154905084565b60075481565b610605611828565b73ffffffffffffffffffffffffffffffffffffffff166000809054906101000a900473ffffffffffffffffffffffffffffffffffffffff1673ffffffffffffffffffffffffffffffffffffffff16146106c6576040517f08c379a00000000000000000000000000000000000000000000000000000000081526004018080602001828103825260208152602001807f4f776e61626c653a2063616c6c6572206973206e6f7420746865206f776e657281525060200191505060405180910390fd5b80156106d5576106d4610e14565b5b600060025443116106e8576002546106ea565b435b90506107018460075461183090919063ffffffff16565b600781905550600560405180608001604052808573ffffffffffffffffffffffffffffffffffffffff1681526020018681526020018381526020016000815250908060018154018082558091505060019003906000526020600020906004020160009091909190915060008201518160000160006101000a81548173ffffffffffffffffffffffffffffffffffffffff021916908373ffffffffffffffffffffffffffffffffffffffff160217905550602082015181600101556040820151816002015560608201518160030155505050505050565b6000600583815481106107e657fe5b9060005260206000209060040201905060006006600085815260200190815260200160002060003373ffffffffffffffffffffffffffffffffffffffff1673ffffffffffffffffffffffffffffffffffffffff168152602001908152602001600020905082816000015410156108c4576040517f08c379a00000000000000000000000000000000000000000000000000000000081526004018080602001828103825260128152602001807f77697468647261773a206e6f7420676f6f64000000000000000000000000000081525060200191505060405180910390fd5b6108cd84610a41565b600061091a826001015461090c670de0b6b3a76400006108fe876003015487600001546118b890919063ffffffff16565b61193e90919063ffffffff16565b61198890919063ffffffff16565b905060008111156109305761092f33826119d2565b5b60008411156109a85761095084836000015461198890919063ffffffff16565b82600001819055506109a733858560000160009054906101000a900473ffffffffffffffffffffffffffffffffffffffff1673ffffffffffffffffffffffffffffffffffffffff16611c8d9092919063ffffffff16565b5b6109dd670de0b6b3a76400006109cf856003015485600001546118b890919063ffffffff16565b61193e90919063ffffffff16565b8260010181905550843373ffffffffffffffffffffffffffffffffffffffff167ff279e6a1f5e320cca91135676d9cb6e44ca8a08c0b88342bcdb1144f6511b568866040518082815260200191505060405180910390a35050505050565b60025481565b600060058281548110610a5057fe5b9060005260206000209060040201905080600201544311610a715750610cd9565b60008160000160009054906101000a900473ffffffffffffffffffffffffffffffffffffffff1673ffffffffffffffffffffffffffffffffffffffff166370a08231306040518263ffffffff1660e01b8152600401808273ffffffffffffffffffffffffffffffffffffffff1673ffffffffffffffffffffffffffffffffffffffff16815260200191505060206040518083038186803b158015610b1457600080fd5b505afa158015610b28573d6000803e3d6000fd5b505050506040513d6020811015610b3e57600080fd5b810190808051906020019092919050505090506000811415610b6a574382600201819055505050610cd9565b6000610b7a8360020154436113a2565b90506000610bbd610bae600754610ba087600101546004546118b890919063ffffffff16565b61193e90919063ffffffff16565b836118b890919063ffffffff16565b9050600160009054906101000a900473ffffffffffffffffffffffffffffffffffffffff1673ffffffffffffffffffffffffffffffffffffffff166340c10f1930836040518363ffffffff1660e01b8152600401808373ffffffffffffffffffffffffffffffffffffffff1673ffffffffffffffffffffffffffffffffffffffff16815260200182815260200192505050600060405180830381600087803b158015610c6857600080fd5b505af1158015610c7c573d6000803e3d6000fd5b50505050610cc3610cb084610ca2670de0b6b3a7640000856118b890919063ffffffff16565b61193e90919063ffffffff16565b856003015461183090919063ffffffff16565b8460030181905550438460020181905550505050505b50565b600060058281548110610ceb57fe5b9060005260206000209060040201905060006006600084815260200190815260200160002060003373ffffffffffffffffffffffffffffffffffffffff1673ffffffffffffffffffffffffffffffffffffffff1681526020019081526020016000209050610da23382600001548460000160009054906101000a900473ffffffffffffffffffffffffffffffffffffffff1673ffffffffffffffffffffffffffffffffffffffff16611c8d9092919063ffffffff16565b823373ffffffffffffffffffffffffffffffffffffffff167fbb757047c2b5f3974fe26b7c10f732e7bce710b0952a71082702781e62ae059583600001546040518082815260200191505060405180910390a36000816000018190555060008160010181905550505050565b60045481565b6000600580549050905060008090505b81811015610e4057610e3581610a41565b806001019050610e24565b5050565b610e4c611828565b73ffffffffffffffffffffffffffffffffffffffff166000809054906101000a900473ffffffffffffffffffffffffffffffffffffffff1673ffffffffffffffffffffffffffffffffffffffff1614610f0d576040517f08c379a00000000000000000000000000000000000000000000000000000000081526004018080602001828103825260208152602001807f4f776e61626c653a2063616c6c6572206973206e6f7420746865206f776e657281525060200191505060405180910390fd5b8015610f1c57610f1b610e14565b5b610f6182610f5360058681548110610f3057fe5b90600052602060002090600402016001015460075461198890919063ffffffff16565b61183090919063ffffffff16565b6007819055508160058481548110610f7557fe5b906000526020600020906004020160010181905550505050565b610f97611828565b73ffffffffffffffffffffffffffffffffffffffff166000809054906101000a900473ffffffffffffffffffffffffffffffffffffffff1673ffffffffffffffffffffffffffffffffffffffff1614611058576040517f08c379a00000000000000000000000000000000000000000000000000000000081526004018080602001828103825260208152602001807f4f776e61626c653a2063616c6c6572206973206e6f7420746865206f776e657281525060200191505060405180910390fd5b600073ffffffffffffffffffffffffffffffffffffffff166000809054906101000a900473ffffffffffffffffffffffffffffffffffffffff1673ffffffffffffffffffffffffffffffffffffffff167f8be0079c531659141344cd1fd0a4f28419497f9722a3daafe3b4186f6b6457e060405160405180910390a360008060006101000a81548173ffffffffffffffffffffffffffffffffffffffff021916908373ffffffffffffffffffffffffffffffffffffffff160217905550565b6000806005848154811061112757fe5b9060005260206000209060040201905060006006600086815260200190815260200160002060008573ffffffffffffffffffffffffffffffffffffffff1673ffffffffffffffffffffffffffffffffffffffff168152602001908152602001600020905060008260030154905060008360000160009054906101000a900473ffffffffffffffffffffffffffffffffffffffff1673ffffffffffffffffffffffffffffffffffffffff166370a08231306040518263ffffffff1660e01b8152600401808273ffffffffffffffffffffffffffffffffffffffff1673ffffffffffffffffffffffffffffffffffffffff16815260200191505060206040518083038186803b15801561123757600080fd5b505afa15801561124b573d6000803e3d6000fd5b505050506040513d602081101561126157600080fd5b81019080805190602001909291905050509050836002015443118015611288575060008114155b1561132657600061129d8560020154436113a2565b905060006112e06112d16007546112c389600101546004546118b890919063ffffffff16565b61193e90919063ffffffff16565b836118b890919063ffffffff16565b905061132161131284611304670de0b6b3a7640000856118b890919063ffffffff16565b61193e90919063ffffffff16565b8561183090919063ffffffff16565b935050505b61136d836001015461135f670de0b6b3a76400006113518688600001546118b890919063ffffffff16565b61193e90919063ffffffff16565b61198890919063ffffffff16565b94505050505092915050565b60008060009054906101000a900473ffffffffffffffffffffffffffffffffffffffff16905090565b60006113c2836113b484600354611d45565b61198890919063ffffffff16565b905092915050565b600160009054906101000a900473ffffffffffffffffffffffffffffffffffffffff1681565b6006602052816000526040600020602052806000526040600020600091509150508060000154908060010154905082565b60006005838154811061143057fe5b9060005260206000209060040201905060006006600085815260200190815260200160002060003373ffffffffffffffffffffffffffffffffffffffff1673ffffffffffffffffffffffffffffffffffffffff168152602001908152602001600020905061149d84610a41565b60008160000154111561150f5760006114f782600101546114e9670de0b6b3a76400006114db876003015487600001546118b890919063ffffffff16565b61193e90919063ffffffff16565b61198890919063ffffffff16565b9050600081111561150d5761150c33826119d2565b5b505b6000831115611589576115693330858560000160009054906101000a900473ffffffffffffffffffffffffffffffffffffffff1673ffffffffffffffffffffffffffffffffffffffff16611d5e909392919063ffffffff16565b61158083826000015461183090919063ffffffff16565b81600001819055505b6115be670de0b6b3a76400006115b0846003015484600001546118b890919063ffffffff16565b61193e90919063ffffffff16565b8160010181905550833373ffffffffffffffffffffffffffffffffffffffff167f90890809c654f11d6e72a28fa60149770a0d11ec6c92319d6ceb2bb0a4ea1a15856040518082815260200191505060405180910390a350505050565b611623611828565b73ffffffffffffffffffffffffffffffffffffffff166000809054906101000a900473ffffffffffffffffffffffffffffffffffffffff1673ffffffffffffffffffffffffffffffffffffffff16146116e4576040517f08c379a00000000000000000000000000000000000000000000000000000000081526004018080602001828103825260208152602001807f4f776e61626c653a2063616c6c6572206973206e6f7420746865206f776e657281525060200191505060405180910390fd5b600073ffffffffffffffffffffffffffffffffffffffff168173ffffffffffffffffffffffffffffffffffffffff16141561176a576040517f08c379a00000000000000000000000000000000000000000000000000000000081526004018080602001828103825260268152602001806122f26026913960400191505060405180910390fd5b8073ffffffffffffffffffffffffffffffffffffffff166000809054906101000a900473ffffffffffffffffffffffffffffffffffffffff1673ffffffffffffffffffffffffffffffffffffffff167f8be0079c531659141344cd1fd0a4f28419497f9722a3daafe3b4186f6b6457e060405160405180910390a3806000806101000a81548173ffffffffffffffffffffffffffffffffffffffff021916908373ffffffffffffffffffffffffffffffffffffffff16021790555050565b600033905090565b6000808284019050838110156118ae576040517f08c379a000000000000000000000000000000000000000000000000000000000815260040180806020018281038252601b8152602001807f536166654d6174683a206164646974696f6e206f766572666c6f77000000000081525060200191505060405180910390fd5b8091505092915050565b6000808314156118cb5760009050611938565b60008284029050828482816118dc57fe5b0414611933576040517f08c379a00000000000000000000000000000000000000000000000000000000081526004018080602001828103825260218152602001806123186021913960400191505060405180910390fd5b809150505b92915050565b600061198083836040518060400160405280601a81526020017f536166654d6174683a206469766973696f6e206279207a65726f000000000000815250611e4b565b905092915050565b60006119ca83836040518060400160405280601e81526020017f536166654d6174683a207375627472616374696f6e206f766572666c6f770000815250611f11565b905092915050565b6000600160009054906101000a900473ffffffffffffffffffffffffffffffffffffffff1673ffffffffffffffffffffffffffffffffffffffff166370a08231306040518263ffffffff1660e01b8152600401808273ffffffffffffffffffffffffffffffffffffffff1673ffffffffffffffffffffffffffffffffffffffff16815260200191505060206040518083038186803b158015611a7357600080fd5b505afa158015611a87573d6000803e3d6000fd5b505050506040513d6020811015611a9d57600080fd5b8101908080519060200190929190505050905080821115611ba257600160009054906101000a900473ffffffffffffffffffffffffffffffffffffffff1673ffffffffffffffffffffffffffffffffffffffff1663a9059cbb84836040518363ffffffff1660e01b8152600401808373ffffffffffffffffffffffffffffffffffffffff1673ffffffffffffffffffffffffffffffffffffffff16815260200182815260200192505050602060405180830381600087803b158015611b6157600080fd5b505af1158015611b75573d6000803e3d6000fd5b505050506040513d6020811015611b8b57600080fd5b810190808051906020019092919050505050611c88565b600160009054906101000a900473ffffffffffffffffffffffffffffffffffffffff1673ffffffffffffffffffffffffffffffffffffffff1663a9059cbb84846040518363ffffffff1660e01b8152600401808373ffffffffffffffffffffffffffffffffffffffff1673ffffffffffffffffffffffffffffffffffffffff16815260200182815260200192505050602060405180830381600087803b158015611c4b57600080fd5b505af1158015611c5f573d6000803e3d6000fd5b505050506040513d6020811015611c7557600080fd5b8101908080519060200190929190505050505b505050565b611d408363a9059cbb60e01b8484604051602401808373ffffffffffffffffffffffffffffffffffffffff1673ffffffffffffffffffffffffffffffffffffffff16815260200182815260200192505050604051602081830303815290604052907bffffffffffffffffffffffffffffffffffffffffffffffffffffffff19166020820180517bffffffffffffffffffffffffffffffffffffffffffffffffffffffff8381831617835250505050611fd1565b505050565b6000818310611d545781611d56565b825b905092915050565b611e45846323b872dd60e01b858585604051602401808473ffffffffffffffffffffffffffffffffffffffff1673ffffffffffffffffffffffffffffffffffffffff1681526020018373ffffffffffffffffffffffffffffffffffffffff1673ffffffffffffffffffffffffffffffffffffffff1681526020018281526020019350505050604051602081830303815290604052907bffffffffffffffffffffffffffffffffffffffffffffffffffffffff19166020820180517bffffffffffffffffffffffffffffffffffffffffffffffffffffffff8381831617835250505050611fd1565b50505050565b60008083118290611ef7576040517f08c379a00000000000000000000000000000000000000000000000000000000081526004018080602001828103825283818151815260200191508051906020019080838360005b83811015611ebc578082015181840152602081019050611ea1565b50505050905090810190601f168015611ee95780820380516001836020036101000a031916815260200191505b509250505060405180910390fd5b506000838581611f0357fe5b049050809150509392505050565b6000838311158290611fbe576040517f08c379a00000000000000000000000000000000000000000000000000000000081526004018080602001828103825283818151815260200191508051906020019080838360005b83811015611f83578082015181840152602081019050611f68565b50505050905090810190601f168015611fb05780820380516001836020036101000a031916815260200191505b509250505060405180910390fd5b5060008385039050809150509392505050565b6060612033826040518060400160405280602081526020017f5361666545524332303a206c6f772d6c6576656c2063616c6c206661696c65648152508573ffffffffffffffffffffffffffffffffffffffff166120c09092919063ffffffff16565b90506000815111156120bb5780806020019051602081101561205457600080fd5b81019080805190602001909291905050506120ba576040517f08c379a000000000000000000000000000000000000000000000000000000000815260040180806020018281038252602a815260200180612339602a913960400191505060405180910390fd5b5b505050565b60606120cf84846000856120d8565b90509392505050565b60606120e3856122de565b612155576040517f08c379a000000000000000000000000000000000000000000000000000000000815260040180806020018281038252601d8152602001807f416464726573733a2063616c6c20746f206e6f6e2d636f6e747261637400000081525060200191505060405180910390fd5b600060608673ffffffffffffffffffffffffffffffffffffffff1685876040518082805190602001908083835b602083106121a55780518252602082019150602081019050602083039250612182565b6001836020036101000a03801982511681845116808217855250505050505090500191505060006040518083038185875af1925050503d8060008114612207576040519150601f19603f3d011682016040523d82523d6000602084013e61220c565b606091505b509150915081156122215780925050506122d6565b6000815111156122345780518082602001fd5b836040517f08c379a00000000000000000000000000000000000000000000000000000000081526004018080602001828103825283818151815260200191508051906020019080838360005b8381101561229b578082015181840152602081019050612280565b50505050905090810190601f1680156122c85780820380516001836020036101000a031916815260200191505b509250505060405180910390fd5b949350505050565b600080823b90506000811191505091905056fe4f776e61626c653a206e6577206f776e657220697320746865207a65726f2061646472657373536166654d6174683a206d756c7469706c69636174696f6e206f766572666c6f775361666545524332303a204552433230206f7065726174696f6e20646964206e6f742073756363656564a264697066735822122076b4c1df696444a07f09861f96d0e4f1a5a01f423435fc0c934c8678dfd0460664736f6c63430006060033",
  "devdoc": {
    "methods": {
      "owner()": {
        "details": "Returns the address of the current owner."
      },
      "renounceOwnership()": {
        "details": "Leaves the contract without owner. It will not be possible to call `onlyOwner` functions anymore. Can only be called by the current owner.     * NOTE: Renouncing ownership will leave the contract without an owner, thereby removing any functionality that is only available to the owner."
      },
      "transferOwnership(address)": {
        "details": "Transfers ownership of the contract to a new account (`newOwner`). Can only be called by the current owner."
      }
    }
  },
  "userdoc": {
    "methods": {},
    "notice": "Queen is Masterchef but without the migrate, without the dev addr without the multiplier. But adds in an end block. to minting."
  },
  "storageLayout": {
    "storage": [
      {
        "astId": 30,
        "contract": "contracts/rewards/Queen.sol:Queen",
        "label": "_owner",
        "offset": 0,
        "slot": "0",
        "type": "t_address"
      },
      {
        "astId": 6067,
        "contract": "contracts/rewards/Queen.sol:Queen",
        "label": "chk",
        "offset": 0,
        "slot": "1",
        "type": "t_contract(CheckToken)6034"
      },
      {
        "astId": 6069,
        "contract": "contracts/rewards/Queen.sol:Queen",
        "label": "startBlock",
        "offset": 0,
        "slot": "2",
        "type": "t_uint256"
      },
      {
        "astId": 6071,
        "contract": "contracts/rewards/Queen.sol:Queen",
        "label": "endBlock",
        "offset": 0,
        "slot": "3",
        "type": "t_uint256"
      },
      {
        "astId": 6073,
        "contract": "contracts/rewards/Queen.sol:Queen",
        "label": "chkPerBlock",
        "offset": 0,
        "slot": "4",
        "type": "t_uint256"
      },
      {
        "astId": 6076,
        "contract": "contracts/rewards/Queen.sol:Queen",
        "label": "poolInfo",
        "offset": 0,
        "slot": "5",
        "type": "t_array(t_struct(PoolInfo)6065_storage)dyn_storage"
      },
      {
        "astId": 6082,
        "contract": "contracts/rewards/Queen.sol:Queen",
        "label": "userInfo",
        "offset": 0,
        "slot": "6",
        "type": "t_mapping(t_uint256,t_mapping(t_address,t_struct(UserInfo)6056_storage))"
      },
      {
        "astId": 6085,
        "contract": "contracts/rewards/Queen.sol:Queen",
        "label": "totalAllocPoint",
        "offset": 0,
        "slot": "7",
        "type": "t_uint256"
      }
    ],
    "types": {
      "t_address": {
        "encoding": "inplace",
        "label": "address",
        "numberOfBytes": "20"
      },
      "t_array(t_struct(PoolInfo)6065_storage)dyn_storage": {
        "base": "t_struct(PoolInfo)6065_storage",
        "encoding": "dynamic_array",
        "label": "struct Queen.PoolInfo[]",
        "numberOfBytes": "32"
      },
      "t_contract(CheckToken)6034": {
        "encoding": "inplace",
        "label": "contract CheckToken",
        "numberOfBytes": "20"
      },
      "t_contract(IERC20)985": {
        "encoding": "inplace",
        "label": "contract IERC20",
        "numberOfBytes": "20"
      },
      "t_mapping(t_address,t_struct(UserInfo)6056_storage)": {
        "encoding": "mapping",
        "key": "t_address",
        "label": "mapping(address => struct Queen.UserInfo)",
        "numberOfBytes": "32",
        "value": "t_struct(UserInfo)6056_storage"
      },
      "t_mapping(t_uint256,t_mapping(t_address,t_struct(UserInfo)6056_storage))": {
        "encoding": "mapping",
        "key": "t_uint256",
        "label": "mapping(uint256 => mapping(address => struct Queen.UserInfo))",
        "numberOfBytes": "32",
        "value": "t_mapping(t_address,t_struct(UserInfo)6056_storage)"
      },
      "t_struct(PoolInfo)6065_storage": {
        "encoding": "inplace",
        "label": "struct Queen.PoolInfo",
        "members": [
          {
            "astId": 6058,
            "contract": "contracts/rewards/Queen.sol:Queen",
            "label": "lpToken",
            "offset": 0,
            "slot": "0",
            "type": "t_contract(IERC20)985"
          },
          {
            "astId": 6060,
            "contract": "contracts/rewards/Queen.sol:Queen",
            "label": "allocPoint",
            "offset": 0,
            "slot": "1",
            "type": "t_uint256"
          },
          {
            "astId": 6062,
            "contract": "contracts/rewards/Queen.sol:Queen",
            "label": "lastRewardBlock",
            "offset": 0,
            "slot": "2",
            "type": "t_uint256"
          },
          {
            "astId": 6064,
            "contract": "contracts/rewards/Queen.sol:Queen",
            "label": "accChkPerShare",
            "offset": 0,
            "slot": "3",
            "type": "t_uint256"
          }
        ],
        "numberOfBytes": "128"
      },
      "t_struct(UserInfo)6056_storage": {
        "encoding": "inplace",
        "label": "struct Queen.UserInfo",
        "members": [
          {
            "astId": 6053,
            "contract": "contracts/rewards/Queen.sol:Queen",
            "label": "amount",
            "offset": 0,
            "slot": "0",
            "type": "t_uint256"
          },
          {
            "astId": 6055,
            "contract": "contracts/rewards/Queen.sol:Queen",
            "label": "rewardDebt",
            "offset": 0,
            "slot": "1",
            "type": "t_uint256"
          }
        ],
        "numberOfBytes": "64"
      },
      "t_uint256": {
        "encoding": "inplace",
        "label": "uint256",
        "numberOfBytes": "32"
      }
    }
  },
  "gasEstimates": {
    "creation": {
      "codeDepositCost": "1822400",
      "executionCost": "infinite",
      "totalCost": "infinite"
    },
    "external": {
      "add(uint256,address,bool)": "infinite",
      "chk()": "1383",
      "chkPerBlock()": "1181",
      "deposit(uint256,uint256)": "infinite",
      "emergencyWithdraw(uint256)": "infinite",
      "endBlock()": "1005",
      "getMultiplier(uint256,uint256)": "infinite",
      "massUpdatePools()": "infinite",
      "owner()": "1347",
      "pendingChk(uint256,address)": "infinite",
      "poolInfo(uint256)": "4571",
      "poolLength()": "999",
      "renounceOwnership()": "24539",
      "set(uint256,uint256,bool)": "infinite",
      "startBlock()": "1115",
      "totalAllocPoint()": "1049",
      "transferOwnership(address)": "infinite",
      "updatePool(uint256)": "infinite",
      "userInfo(uint256,address)": "2459",
      "withdraw(uint256,uint256)": "infinite"
    },
    "internal": {
      "chkSafeTransfer(address,uint256)": "infinite"
    }
  }
}