{
  "abi": [
    {
      "inputs": [
        {
          "internalType": "address",
          "name": "oracleProxy",
          "type": "address"
        }
      ],
      "stateMutability": "nonpayable",
      "type": "constructor"
    },
    {
      "inputs": [
        {
          "internalType": "string",
          "name": "symbol",
          "type": "string"
        }
      ],
      "name": "price",
      "outputs": [
        {
          "internalType": "uint256",
          "name": "",
          "type": "uint256"
        }
      ],
      "stateMutability": "view",
      "type": "function"
    }
  ],
  "address": "0x424688528cAA9576FE7323724DDeC7A68206a5bB",
  "args": [
    "0xd0c84453b3945cd7e84BF7fc53BfFd6718913B71"
  ],
  "solcInputHash": "0xa82c443ef43462ce824d0809d6b3ac96b5062d8fe41e3d3fa9d48d011d88e837",
  "bytecode": "0x60806040526040516020018080602001828103825260038152602001807f65746800000000000000000000000000000000000000000000000000000000008152506020019150506040516020818303038152906040528051906020012060015534801561006b57600080fd5b506040516106273803806106278339818101604052602081101561008e57600080fd5b8101908080519060200190929190505050806000806101000a81548173ffffffffffffffffffffffffffffffffffffffff021916908373ffffffffffffffffffffffffffffffffffffffff16021790555050610538806100ef6000396000f3fe608060405234801561001057600080fd5b506004361061002b5760003560e01c8063fe2c619814610030575b600080fd5b6100a76004803603602081101561004657600080fd5b810190808035906020019064010000000081111561006357600080fd5b82018360208201111561007557600080fd5b8035906020019184600183028401116401000000008311171561009757600080fd5b90919293919293905050506100bd565b6040518082815260200191505060405180910390f35b6000600154838360405160200180806020018281038252848482818152602001925080828437600081840152601f19601f8201169050808301925050509350505050604051602081830303815290604052805190602001201461016b576040517f08c379a00000000000000000000000000000000000000000000000000000000081526004018080602001828103825260248152602001806104be6024913960400191505060405180910390fd5b6000670de0b6b3a7640000905061031e6000809054906101000a900473ffffffffffffffffffffffffffffffffffffffff1673ffffffffffffffffffffffffffffffffffffffff1663fc57d4df6000809054906101000a900473ffffffffffffffffffffffffffffffffffffffff1673ffffffffffffffffffffffffffffffffffffffff1663f2c65bf96040518163ffffffff1660e01b815260040160206040518083038186803b15801561021f57600080fd5b505afa158015610233573d6000803e3d6000fd5b505050506040513d602081101561024957600080fd5b81019080805190602001909291905050506040518263ffffffff1660e01b8152600401808273ffffffffffffffffffffffffffffffffffffffff1673ffffffffffffffffffffffffffffffffffffffff16815260200191505060206040518083038186803b1580156102ba57600080fd5b505afa1580156102ce573d6000803e3d6000fd5b505050506040513d60208110156102e457600080fd5b8101908080519060200190929190505050610310670de0b6b3a76400008461032790919063ffffffff16565b6103ad90919063ffffffff16565b91505092915050565b60008083141561033a57600090506103a7565b600082840290508284828161034b57fe5b04146103a2576040517f08c379a00000000000000000000000000000000000000000000000000000000081526004018080602001828103825260218152602001806104e26021913960400191505060405180910390fd5b809150505b92915050565b60006103ef83836040518060400160405280601a81526020017f536166654d6174683a206469766973696f6e206279207a65726f0000000000008152506103f7565b905092915050565b600080831182906104a3576040517f08c379a00000000000000000000000000000000000000000000000000000000081526004018080602001828103825283818151815260200191508051906020019080838360005b8381101561046857808201518184015260208101905061044d565b50505050905090810190601f1680156104955780820380516001836020036101000a031916815260200191505b509250505060405180910390fd5b5060008385816104af57fe5b04905080915050939250505056fe546573746e65744f7261636c653a206f6e6c792065746820697320737570706f72746564536166654d6174683a206d756c7469706c69636174696f6e206f766572666c6f77a264697066735822122003207d3ceb8da2bbb284ec76a2ee61cda4e0977734c033420bbe063164d5656d64736f6c63430006060033",
  "devdoc": {
    "methods": {}
  },
  "userdoc": {
    "methods": {}
  },
  "storageLayout": {
    "storage": [
      {
        "astId": 3459,
        "contract": "contracts/TestnetOracle.sol:TestnetOracle",
        "label": "proxy",
        "offset": 0,
        "slot": "0",
        "type": "t_contract(ICompoundPriceOracleProxy)4192"
      },
      {
        "astId": 3467,
        "contract": "contracts/TestnetOracle.sol:TestnetOracle",
        "label": "ethHash",
        "offset": 0,
        "slot": "1",
        "type": "t_bytes32"
      }
    ],
    "types": {
      "t_bytes32": {
        "encoding": "inplace",
        "label": "bytes32",
        "numberOfBytes": "32"
      },
      "t_contract(ICompoundPriceOracleProxy)4192": {
        "encoding": "inplace",
        "label": "contract ICompoundPriceOracleProxy",
        "numberOfBytes": "20"
      }
    }
  },
  "gasEstimates": {
    "creation": {
      "codeDepositCost": "267200",
      "executionCost": "infinite",
      "totalCost": "infinite"
    },
    "external": {
      "price(string)": "infinite"
    }
  }
}