{
  "address": "0x851356ae760d987E095750cCeb3bC6014560891C",
  "abi": [
    {
      "inputs": [
        {
          "internalType": "address",
          "name": "_chk",
          "type": "address"
        },
        {
          "internalType": "uint256",
          "name": "_chkPerBlock",
          "type": "uint256"
        },
        {
          "internalType": "uint256",
          "name": "_startBlock",
          "type": "uint256"
        },
        {
          "internalType": "uint256",
          "name": "_endBlock",
          "type": "uint256"
        }
      ],
      "stateMutability": "nonpayable",
      "type": "constructor"
    },
    {
      "anonymous": false,
      "inputs": [
        {
          "indexed": true,
          "internalType": "address",
          "name": "user",
          "type": "address"
        },
        {
          "indexed": true,
          "internalType": "uint256",
          "name": "pid",
          "type": "uint256"
        },
        {
          "indexed": false,
          "internalType": "uint256",
          "name": "amount",
          "type": "uint256"
        }
      ],
      "name": "Deposit",
      "type": "event"
    },
    {
      "anonymous": false,
      "inputs": [
        {
          "indexed": true,
          "internalType": "address",
          "name": "user",
          "type": "address"
        },
        {
          "indexed": true,
          "internalType": "uint256",
          "name": "pid",
          "type": "uint256"
        },
        {
          "indexed": false,
          "internalType": "uint256",
          "name": "amount",
          "type": "uint256"
        }
      ],
      "name": "EmergencyWithdraw",
      "type": "event"
    },
    {
      "anonymous": false,
      "inputs": [
        {
          "indexed": true,
          "internalType": "address",
          "name": "previousOwner",
          "type": "address"
        },
        {
          "indexed": true,
          "internalType": "address",
          "name": "newOwner",
          "type": "address"
        }
      ],
      "name": "OwnershipTransferred",
      "type": "event"
    },
    {
      "anonymous": false,
      "inputs": [
        {
          "indexed": true,
          "internalType": "address",
          "name": "user",
          "type": "address"
        },
        {
          "indexed": true,
          "internalType": "uint256",
          "name": "pid",
          "type": "uint256"
        },
        {
          "indexed": false,
          "internalType": "uint256",
          "name": "amount",
          "type": "uint256"
        }
      ],
      "name": "Withdraw",
      "type": "event"
    },
    {
      "inputs": [
        {
          "internalType": "uint256",
          "name": "_allocPoint",
          "type": "uint256"
        },
        {
          "internalType": "contract IERC20",
          "name": "_lpToken",
          "type": "address"
        },
        {
          "internalType": "bool",
          "name": "_withUpdate",
          "type": "bool"
        }
      ],
      "name": "add",
      "outputs": [],
      "stateMutability": "nonpayable",
      "type": "function"
    },
    {
      "inputs": [],
      "name": "chk",
      "outputs": [
        {
          "internalType": "contract CheckToken",
          "name": "",
          "type": "address"
        }
      ],
      "stateMutability": "view",
      "type": "function"
    },
    {
      "inputs": [],
      "name": "chkPerBlock",
      "outputs": [
        {
          "internalType": "uint256",
          "name": "",
          "type": "uint256"
        }
      ],
      "stateMutability": "view",
      "type": "function"
    },
    {
      "inputs": [
        {
          "internalType": "uint256",
          "name": "_pid",
          "type": "uint256"
        },
        {
          "internalType": "uint256",
          "name": "_amount",
          "type": "uint256"
        }
      ],
      "name": "deposit",
      "outputs": [],
      "stateMutability": "nonpayable",
      "type": "function"
    },
    {
      "inputs": [
        {
          "internalType": "uint256",
          "name": "_pid",
          "type": "uint256"
        }
      ],
      "name": "emergencyWithdraw",
      "outputs": [],
      "stateMutability": "nonpayable",
      "type": "function"
    },
    {
      "inputs": [],
      "name": "endBlock",
      "outputs": [
        {
          "internalType": "uint256",
          "name": "",
          "type": "uint256"
        }
      ],
      "stateMutability": "view",
      "type": "function"
    },
    {
      "inputs": [
        {
          "internalType": "uint256",
          "name": "_from",
          "type": "uint256"
        },
        {
          "internalType": "uint256",
          "name": "_to",
          "type": "uint256"
        }
      ],
      "name": "getMultiplier",
      "outputs": [
        {
          "internalType": "uint256",
          "name": "",
          "type": "uint256"
        }
      ],
      "stateMutability": "view",
      "type": "function"
    },
    {
      "inputs": [],
      "name": "massUpdatePools",
      "outputs": [],
      "stateMutability": "nonpayable",
      "type": "function"
    },
    {
      "inputs": [],
      "name": "owner",
      "outputs": [
        {
          "internalType": "address",
          "name": "",
          "type": "address"
        }
      ],
      "stateMutability": "view",
      "type": "function"
    },
    {
      "inputs": [
        {
          "internalType": "uint256",
          "name": "_pid",
          "type": "uint256"
        },
        {
          "internalType": "address",
          "name": "_user",
          "type": "address"
        }
      ],
      "name": "pendingChk",
      "outputs": [
        {
          "internalType": "uint256",
          "name": "",
          "type": "uint256"
        }
      ],
      "stateMutability": "view",
      "type": "function"
    },
    {
      "inputs": [
        {
          "internalType": "uint256",
          "name": "",
          "type": "uint256"
        }
      ],
      "name": "poolInfo",
      "outputs": [
        {
          "internalType": "contract IERC20",
          "name": "lpToken",
          "type": "address"
        },
        {
          "internalType": "uint256",
          "name": "allocPoint",
          "type": "uint256"
        },
        {
          "internalType": "uint256",
          "name": "lastRewardBlock",
          "type": "uint256"
        },
        {
          "internalType": "uint256",
          "name": "accChkPerShare",
          "type": "uint256"
        }
      ],
      "stateMutability": "view",
      "type": "function"
    },
    {
      "inputs": [],
      "name": "poolLength",
      "outputs": [
        {
          "internalType": "uint256",
          "name": "",
          "type": "uint256"
        }
      ],
      "stateMutability": "view",
      "type": "function"
    },
    {
      "inputs": [],
      "name": "renounceOwnership",
      "outputs": [],
      "stateMutability": "nonpayable",
      "type": "function"
    },
    {
      "inputs": [
        {
          "internalType": "uint256",
          "name": "_pid",
          "type": "uint256"
        },
        {
          "internalType": "uint256",
          "name": "_allocPoint",
          "type": "uint256"
        },
        {
          "internalType": "bool",
          "name": "_withUpdate",
          "type": "bool"
        }
      ],
      "name": "set",
      "outputs": [],
      "stateMutability": "nonpayable",
      "type": "function"
    },
    {
      "inputs": [],
      "name": "startBlock",
      "outputs": [
        {
          "internalType": "uint256",
          "name": "",
          "type": "uint256"
        }
      ],
      "stateMutability": "view",
      "type": "function"
    },
    {
      "inputs": [],
      "name": "totalAllocPoint",
      "outputs": [
        {
          "internalType": "uint256",
          "name": "",
          "type": "uint256"
        }
      ],
      "stateMutability": "view",
      "type": "function"
    },
    {
      "inputs": [
        {
          "internalType": "address",
          "name": "newOwner",
          "type": "address"
        }
      ],
      "name": "transferOwnership",
      "outputs": [],
      "stateMutability": "nonpayable",
      "type": "function"
    },
    {
      "inputs": [
        {
          "internalType": "uint256",
          "name": "_pid",
          "type": "uint256"
        }
      ],
      "name": "updatePool",
      "outputs": [],
      "stateMutability": "nonpayable",
      "type": "function"
    },
    {
      "inputs": [
        {
          "internalType": "uint256",
          "name": "",
          "type": "uint256"
        },
        {
          "internalType": "address",
          "name": "",
          "type": "address"
        }
      ],
      "name": "userInfo",
      "outputs": [
        {
          "internalType": "uint256",
          "name": "amount",
          "type": "uint256"
        },
        {
          "internalType": "uint256",
          "name": "rewardDebt",
          "type": "uint256"
        }
      ],
      "stateMutability": "view",
      "type": "function"
    },
    {
      "inputs": [
        {
          "internalType": "uint256",
          "name": "_pid",
          "type": "uint256"
        },
        {
          "internalType": "uint256",
          "name": "_amount",
          "type": "uint256"
        }
      ],
      "name": "withdraw",
      "outputs": [],
      "stateMutability": "nonpayable",
      "type": "function"
    }
  ],
  "transactionHash": "0x567d126c7114b2b22e4bd6ffce10c47d02ba52757b3c0c0f64389121797f2e25",
  "args": [
    "0xa82fF9aFd8f496c3d6ac40E2a0F282E47488CFc9",
    1000,
    11151344,
    22302688
  ],
  "solcInputHash": "e4e2768f5c53a04b13cc4c9e08b5e284",
  "bytecode": "0x6080604052600060075534801561001557600080fd5b506040516116bc3803806116bc8339818101604052608081101561003857600080fd5b508051602082015160408301516060909301519192909160006100596100d5565b600080546001600160a01b0319166001600160a01b0383169081178255604051929350917f8be0079c531659141344cd1fd0a4f28419497f9722a3daafe3b4186f6b6457e0908290a350600180546001600160a01b0319166001600160a01b0395909516949094179093556004919091556002556003556100d9565b3390565b6115d4806100e86000396000f3fe608060405234801561001057600080fd5b50600436106100fc5760003560e01c8063081e3eda14610101578063083c63231461011b5780631526fe271461012357806317caf6f1146101705780631eaaa04514610178578063441a3e70146101ae57806348cd4cb1146101d157806351eb05a6146101d95780635312ea8e146101f65780635a1a745c14610213578063630b5ba11461021b57806364482f7914610223578063715018a61461024e5780638758e151146102565780638da5cb5b146102825780638dbb1e3a146102a6578063936af0d1146102c957806393f1a40b146102d1578063e2bbb15814610316578063f2fde38b14610339575b600080fd5b61010961035f565b60408051918252519081900360200190f35b610109610365565b6101406004803603602081101561013957600080fd5b503561036b565b604080516001600160a01b0390951685526020850193909352838301919091526060830152519081900360800190f35b6101096103ac565b6101ac6004803603606081101561018e57600080fd5b508035906001600160a01b03602082013516906040013515156103b2565b005b6101ac600480360360408110156101c457600080fd5b508035906020013561052d565b610109610692565b6101ac600480360360208110156101ef57600080fd5b5035610698565b6101ac6004803603602081101561020c57600080fd5b5035610840565b6101096108db565b6101ac6108e1565b6101ac6004803603606081101561023957600080fd5b50803590602081013590604001351515610904565b6101ac6109d5565b6101096004803603604081101561026c57600080fd5b50803590602001356001600160a01b0316610a65565b61028a610bce565b604080516001600160a01b039092168252519081900360200190f35b610109600480360360408110156102bc57600080fd5b5080359060200135610bdd565b61028a610bf6565b6102fd600480360360408110156102e757600080fd5b50803590602001356001600160a01b0316610c05565b6040805192835260208301919091528051918290030190f35b6101ac6004803603604081101561032c57600080fd5b5080359060200135610c29565b6101ac6004803603602081101561034f57600080fd5b50356001600160a01b0316610d41565b60055490565b60035481565b6005818154811061037857fe5b600091825260209091206004909102018054600182015460028301546003909301546001600160a01b039092169350919084565b60075481565b6103ba610e27565b6000546001600160a01b0390811691161461040a576040805162461bcd60e51b81526020600482018190526024820152600080516020611535833981519152604482015290519081900360640190fd5b8015610418576104186108e1565b6000600254431161042b5760025461042d565b435b60075490915061043d9085610e2b565b600755604080516080810182526001600160a01b0394851681526020810195865290810191825260006060820181815260058054600181018255925291517f036b6384b5eca791c62761152d0c79bb0604c104a5fb6f4eb0703f3154bb3db0600490920291820180546001600160a01b031916919096161790945593517f036b6384b5eca791c62761152d0c79bb0604c104a5fb6f4eb0703f3154bb3db1840155517f036b6384b5eca791c62761152d0c79bb0604c104a5fb6f4eb0703f3154bb3db28301555090517f036b6384b5eca791c62761152d0c79bb0604c104a5fb6f4eb0703f3154bb3db390910155565b60006005838154811061053c57fe5b6000918252602080832086845260068252604080852033865290925292208054600490920290920192508311156105af576040805162461bcd60e51b81526020600482015260126024820152711dda5d1a191c985dce881b9bdd0819dbdbd960721b604482015290519081900360640190fd5b6105b884610698565b60006105f582600101546105ef670de0b6b3a76400006105e987600301548760000154610e8390919063ffffffff16565b90610edc565b90610f1b565b90508015610607576106073382610f5d565b83156106315781546106199085610f1b565b82558254610631906001600160a01b031633866110ee565b6003830154825461064f91670de0b6b3a7640000916105e991610e83565b6001830155604080518581529051869133917ff279e6a1f5e320cca91135676d9cb6e44ca8a08c0b88342bcdb1144f6511b5689181900360200190a35050505050565b60025481565b6000600582815481106106a757fe5b90600052602060002090600402019050806002015443116106c8575061083d565b8054604080516370a0823160e01b815230600482015290516000926001600160a01b0316916370a08231916024808301926020929190829003018186803b15801561071257600080fd5b505afa158015610726573d6000803e3d6000fd5b505050506040513d602081101561073c57600080fd5b505190508061075257504360029091015561083d565b6000610762836002015443610bdd565b9050600061078f6107886007546105e98760010154600454610e8390919063ffffffff16565b8390610e83565b600154604080516340c10f1960e01b81523060048201526024810184905290519293506001600160a01b03909116916340c10f199160448082019260009290919082900301818387803b1580156107e557600080fd5b505af11580156107f9573d6000803e3d6000fd5b5050505061082a61081f846105e9670de0b6b3a764000085610e8390919063ffffffff16565b600386015490610e2b565b6003850155505043600290920191909155505b50565b60006005828154811061084f57fe5b60009182526020808320858452600682526040808520338087529352909320805460049093029093018054909450610894926001600160a01b039190911691906110ee565b80546040805191825251849133917fbb757047c2b5f3974fe26b7c10f732e7bce710b0952a71082702781e62ae05959181900360200190a360008082556001909101555050565b60045481565b60055460005b81811015610900576108f881610698565b6001016108e7565b5050565b61090c610e27565b6000546001600160a01b0390811691161461095c576040805162461bcd60e51b81526020600482018190526024820152600080516020611535833981519152604482015290519081900360640190fd5b801561096a5761096a6108e1565b6109a7826109a16005868154811061097e57fe5b906000526020600020906004020160010154600754610f1b90919063ffffffff16565b90610e2b565b60078190555081600584815481106109bb57fe5b906000526020600020906004020160010181905550505050565b6109dd610e27565b6000546001600160a01b03908116911614610a2d576040805162461bcd60e51b81526020600482018190526024820152600080516020611535833981519152604482015290519081900360640190fd5b600080546040516001600160a01b0390911690600080516020611555833981519152908390a3600080546001600160a01b0319169055565b60008060058481548110610a7557fe5b600091825260208083208784526006825260408085206001600160a01b03898116875290845281862060049586029093016003810154815484516370a0823160e01b81523098810198909852935191985093969395939492909116926370a08231926024808301939192829003018186803b158015610af357600080fd5b505afa158015610b07573d6000803e3d6000fd5b505050506040513d6020811015610b1d57600080fd5b5051600285015490915043118015610b3457508015155b15610b96576000610b49856002015443610bdd565b90506000610b6f6107886007546105e98960010154600454610e8390919063ffffffff16565b9050610b91610b8a846105e984670de0b6b3a7640000610e83565b8590610e2b565b935050505b610bc183600101546105ef670de0b6b3a76400006105e9868860000154610e8390919063ffffffff16565b9450505050505b92915050565b6000546001600160a01b031690565b6000610bef836105ef84600354611140565b9392505050565b6001546001600160a01b031681565b60066020908152600092835260408084209091529082529020805460019091015482565b600060058381548110610c3857fe5b60009182526020808320868452600682526040808520338652909252922060049091029091019150610c6984610698565b805415610cb5576000610ca182600101546105ef670de0b6b3a76400006105e987600301548760000154610e8390919063ffffffff16565b90508015610cb357610cb33382610f5d565b505b8215610ce1578154610cd2906001600160a01b0316333086611156565b8054610cde9084610e2b565b81555b60038201548154610cff91670de0b6b3a7640000916105e991610e83565b6001820155604080518481529051859133917f90890809c654f11d6e72a28fa60149770a0d11ec6c92319d6ceb2bb0a4ea1a159181900360200190a350505050565b610d49610e27565b6000546001600160a01b03908116911614610d99576040805162461bcd60e51b81526020600482018190526024820152600080516020611535833981519152604482015290519081900360640190fd5b6001600160a01b038116610dde5760405162461bcd60e51b81526004018080602001828103825260268152602001806114ee6026913960400191505060405180910390fd5b600080546040516001600160a01b038085169392169160008051602061155583398151915291a3600080546001600160a01b0319166001600160a01b0392909216919091179055565b3390565b600082820183811015610bef576040805162461bcd60e51b815260206004820152601b60248201527a536166654d6174683a206164646974696f6e206f766572666c6f7760281b604482015290519081900360640190fd5b600082610e9257506000610bc8565b82820282848281610e9f57fe5b0414610bef5760405162461bcd60e51b81526004018080602001828103825260218152602001806115146021913960400191505060405180910390fd5b6000610bef83836040518060400160405280601a815260200179536166654d6174683a206469766973696f6e206279207a65726f60301b8152506111b6565b6000610bef83836040518060400160405280601e81526020017f536166654d6174683a207375627472616374696f6e206f766572666c6f770000815250611258565b600154604080516370a0823160e01b815230600482015290516000926001600160a01b0316916370a08231916024808301926020929190829003018186803b158015610fa857600080fd5b505afa158015610fbc573d6000803e3d6000fd5b505050506040513d6020811015610fd257600080fd5b5051905080821115611066576001546040805163a9059cbb60e01b81526001600160a01b038681166004830152602482018590529151919092169163a9059cbb9160448083019260209291908290030181600087803b15801561103457600080fd5b505af1158015611048573d6000803e3d6000fd5b505050506040513d602081101561105e57600080fd5b506110e99050565b6001546040805163a9059cbb60e01b81526001600160a01b038681166004830152602482018690529151919092169163a9059cbb9160448083019260209291908290030181600087803b1580156110bc57600080fd5b505af11580156110d0573d6000803e3d6000fd5b505050506040513d60208110156110e657600080fd5b50505b505050565b604080516001600160a01b038416602482015260448082018490528251808303909101815260649091019091526020810180516001600160e01b031663a9059cbb60e01b1790526110e99084906112b2565b600081831061114f5781610bef565b5090919050565b604080516001600160a01b0380861660248301528416604482015260648082018490528251808303909101815260849091019091526020810180516001600160e01b03166323b872dd60e01b1790526111b09085906112b2565b50505050565b600081836112425760405162461bcd60e51b81526004018080602001828103825283818151815260200191508051906020019080838360005b838110156112075781810151838201526020016111ef565b50505050905090810190601f1680156112345780820380516001836020036101000a031916815260200191505b509250505060405180910390fd5b50600083858161124e57fe5b0495945050505050565b600081848411156112aa5760405162461bcd60e51b81526020600482018181528351602484015283519092839260449091019190850190808383600083156112075781810151838201526020016111ef565b505050900390565b6060611307826040518060400160405280602081526020017f5361666545524332303a206c6f772d6c6576656c2063616c6c206661696c6564815250856001600160a01b03166113639092919063ffffffff16565b8051909150156110e95780806020019051602081101561132657600080fd5b50516110e95760405162461bcd60e51b815260040180806020018281038252602a815260200180611575602a913960400191505060405180910390fd5b6060611372848460008561137a565b949350505050565b6060611385856114e7565b6113d6576040805162461bcd60e51b815260206004820152601d60248201527f416464726573733a2063616c6c20746f206e6f6e2d636f6e7472616374000000604482015290519081900360640190fd5b60006060866001600160a01b031685876040518082805190602001908083835b602083106114155780518252601f1990920191602091820191016113f6565b6001836020036101000a03801982511681845116808217855250505050505090500191505060006040518083038185875af1925050503d8060008114611477576040519150601f19603f3d011682016040523d82523d6000602084013e61147c565b606091505b509150915081156114905791506113729050565b8051156114a05780518082602001fd5b60405162461bcd60e51b81526020600482018181528651602484015286518793919283926044019190850190808383600083156112075781810151838201526020016111ef565b3b15159056fe4f776e61626c653a206e6577206f776e657220697320746865207a65726f2061646472657373536166654d6174683a206d756c7469706c69636174696f6e206f766572666c6f774f776e61626c653a2063616c6c6572206973206e6f7420746865206f776e65728be0079c531659141344cd1fd0a4f28419497f9722a3daafe3b4186f6b6457e05361666545524332303a204552433230206f7065726174696f6e20646964206e6f742073756363656564a2646970667358221220f84ea221a0bcdc4f69615cf10e00e912e234710c51c3dd94e31e82f86deb394664736f6c634300060c0033",
  "devdoc": {
    "kind": "dev",
    "methods": {
      "owner()": {
        "details": "Returns the address of the current owner."
      },
      "renounceOwnership()": {
        "details": "Leaves the contract without owner. It will not be possible to call `onlyOwner` functions anymore. Can only be called by the current owner. NOTE: Renouncing ownership will leave the contract without an owner, thereby removing any functionality that is only available to the owner."
      },
      "transferOwnership(address)": {
        "details": "Transfers ownership of the contract to a new account (`newOwner`). Can only be called by the current owner."
      }
    },
    "version": 1
  },
  "userdoc": {
    "kind": "user",
    "methods": {},
    "notice": "Queen is Masterchef but without the migrate, without the dev addr without the multiplier. But adds in an end block. to minting.",
    "version": 1
  },
  "storageLayout": {
    "storage": [
      {
        "astId": 30,
        "contract": "contracts/rewards/Queen.sol:Queen",
        "label": "_owner",
        "offset": 0,
        "slot": "0",
        "type": "t_address"
      },
      {
        "astId": 5865,
        "contract": "contracts/rewards/Queen.sol:Queen",
        "label": "chk",
        "offset": 0,
        "slot": "1",
        "type": "t_contract(CheckToken)5832"
      },
      {
        "astId": 5867,
        "contract": "contracts/rewards/Queen.sol:Queen",
        "label": "startBlock",
        "offset": 0,
        "slot": "2",
        "type": "t_uint256"
      },
      {
        "astId": 5869,
        "contract": "contracts/rewards/Queen.sol:Queen",
        "label": "endBlock",
        "offset": 0,
        "slot": "3",
        "type": "t_uint256"
      },
      {
        "astId": 5871,
        "contract": "contracts/rewards/Queen.sol:Queen",
        "label": "chkPerBlock",
        "offset": 0,
        "slot": "4",
        "type": "t_uint256"
      },
      {
        "astId": 5874,
        "contract": "contracts/rewards/Queen.sol:Queen",
        "label": "poolInfo",
        "offset": 0,
        "slot": "5",
        "type": "t_array(t_struct(PoolInfo)5863_storage)dyn_storage"
      },
      {
        "astId": 5880,
        "contract": "contracts/rewards/Queen.sol:Queen",
        "label": "userInfo",
        "offset": 0,
        "slot": "6",
        "type": "t_mapping(t_uint256,t_mapping(t_address,t_struct(UserInfo)5854_storage))"
      },
      {
        "astId": 5883,
        "contract": "contracts/rewards/Queen.sol:Queen",
        "label": "totalAllocPoint",
        "offset": 0,
        "slot": "7",
        "type": "t_uint256"
      }
    ],
    "types": {
      "t_address": {
        "encoding": "inplace",
        "label": "address",
        "numberOfBytes": "20"
      },
      "t_array(t_struct(PoolInfo)5863_storage)dyn_storage": {
        "base": "t_struct(PoolInfo)5863_storage",
        "encoding": "dynamic_array",
        "label": "struct Queen.PoolInfo[]",
        "numberOfBytes": "32"
      },
      "t_contract(CheckToken)5832": {
        "encoding": "inplace",
        "label": "contract CheckToken",
        "numberOfBytes": "20"
      },
      "t_contract(IERC20)985": {
        "encoding": "inplace",
        "label": "contract IERC20",
        "numberOfBytes": "20"
      },
      "t_mapping(t_address,t_struct(UserInfo)5854_storage)": {
        "encoding": "mapping",
        "key": "t_address",
        "label": "mapping(address => struct Queen.UserInfo)",
        "numberOfBytes": "32",
        "value": "t_struct(UserInfo)5854_storage"
      },
      "t_mapping(t_uint256,t_mapping(t_address,t_struct(UserInfo)5854_storage))": {
        "encoding": "mapping",
        "key": "t_uint256",
        "label": "mapping(uint256 => mapping(address => struct Queen.UserInfo))",
        "numberOfBytes": "32",
        "value": "t_mapping(t_address,t_struct(UserInfo)5854_storage)"
      },
      "t_struct(PoolInfo)5863_storage": {
        "encoding": "inplace",
        "label": "struct Queen.PoolInfo",
        "members": [
          {
            "astId": 5856,
            "contract": "contracts/rewards/Queen.sol:Queen",
            "label": "lpToken",
            "offset": 0,
            "slot": "0",
            "type": "t_contract(IERC20)985"
          },
          {
            "astId": 5858,
            "contract": "contracts/rewards/Queen.sol:Queen",
            "label": "allocPoint",
            "offset": 0,
            "slot": "1",
            "type": "t_uint256"
          },
          {
            "astId": 5860,
            "contract": "contracts/rewards/Queen.sol:Queen",
            "label": "lastRewardBlock",
            "offset": 0,
            "slot": "2",
            "type": "t_uint256"
          },
          {
            "astId": 5862,
            "contract": "contracts/rewards/Queen.sol:Queen",
            "label": "accChkPerShare",
            "offset": 0,
            "slot": "3",
            "type": "t_uint256"
          }
        ],
        "numberOfBytes": "128"
      },
      "t_struct(UserInfo)5854_storage": {
        "encoding": "inplace",
        "label": "struct Queen.UserInfo",
        "members": [
          {
            "astId": 5851,
            "contract": "contracts/rewards/Queen.sol:Queen",
            "label": "amount",
            "offset": 0,
            "slot": "0",
            "type": "t_uint256"
          },
          {
            "astId": 5853,
            "contract": "contracts/rewards/Queen.sol:Queen",
            "label": "rewardDebt",
            "offset": 0,
            "slot": "1",
            "type": "t_uint256"
          }
        ],
        "numberOfBytes": "64"
      },
      "t_uint256": {
        "encoding": "inplace",
        "label": "uint256",
        "numberOfBytes": "32"
      }
    }
  }
}