{
  "address": "0x1613beB3B2C4f22Ee086B2b38C1476A3cE7f78E8",
  "abi": [
    {
      "inputs": [
        {
          "internalType": "address",
          "name": "admin_",
          "type": "address"
        },
        {
          "internalType": "uint256",
          "name": "delay_",
          "type": "uint256"
        },
        {
          "internalType": "address",
          "name": "chk_",
          "type": "address"
        }
      ],
      "stateMutability": "nonpayable",
      "type": "constructor"
    },
    {
      "anonymous": false,
      "inputs": [
        {
          "indexed": true,
          "internalType": "bytes32",
          "name": "txHash",
          "type": "bytes32"
        },
        {
          "indexed": true,
          "internalType": "address",
          "name": "target",
          "type": "address"
        },
        {
          "indexed": false,
          "internalType": "uint256",
          "name": "value",
          "type": "uint256"
        },
        {
          "indexed": false,
          "internalType": "string",
          "name": "signature",
          "type": "string"
        },
        {
          "indexed": false,
          "internalType": "bytes",
          "name": "data",
          "type": "bytes"
        },
        {
          "indexed": false,
          "internalType": "uint256",
          "name": "eta",
          "type": "uint256"
        }
      ],
      "name": "CancelTransaction",
      "type": "event"
    },
    {
      "anonymous": false,
      "inputs": [
        {
          "indexed": true,
          "internalType": "bytes32",
          "name": "txHash",
          "type": "bytes32"
        },
        {
          "indexed": true,
          "internalType": "address",
          "name": "target",
          "type": "address"
        },
        {
          "indexed": false,
          "internalType": "uint256",
          "name": "value",
          "type": "uint256"
        },
        {
          "indexed": false,
          "internalType": "string",
          "name": "signature",
          "type": "string"
        },
        {
          "indexed": false,
          "internalType": "bytes",
          "name": "data",
          "type": "bytes"
        },
        {
          "indexed": false,
          "internalType": "uint256",
          "name": "eta",
          "type": "uint256"
        }
      ],
      "name": "ExecuteTransaction",
      "type": "event"
    },
    {
      "anonymous": false,
      "inputs": [
        {
          "indexed": true,
          "internalType": "address",
          "name": "newAdmin",
          "type": "address"
        }
      ],
      "name": "NewAdmin",
      "type": "event"
    },
    {
      "anonymous": false,
      "inputs": [
        {
          "indexed": true,
          "internalType": "uint256",
          "name": "newDelay",
          "type": "uint256"
        }
      ],
      "name": "NewDelay",
      "type": "event"
    },
    {
      "anonymous": false,
      "inputs": [
        {
          "indexed": true,
          "internalType": "address",
          "name": "newPendingAdmin",
          "type": "address"
        }
      ],
      "name": "NewPendingAdmin",
      "type": "event"
    },
    {
      "anonymous": false,
      "inputs": [
        {
          "indexed": true,
          "internalType": "bytes32",
          "name": "txHash",
          "type": "bytes32"
        },
        {
          "indexed": true,
          "internalType": "address",
          "name": "target",
          "type": "address"
        },
        {
          "indexed": false,
          "internalType": "uint256",
          "name": "value",
          "type": "uint256"
        },
        {
          "indexed": false,
          "internalType": "string",
          "name": "signature",
          "type": "string"
        },
        {
          "indexed": false,
          "internalType": "bytes",
          "name": "data",
          "type": "bytes"
        },
        {
          "indexed": false,
          "internalType": "uint256",
          "name": "eta",
          "type": "uint256"
        }
      ],
      "name": "QueueTransaction",
      "type": "event"
    },
    {
      "anonymous": false,
      "inputs": [
        {
          "indexed": true,
          "internalType": "address",
          "name": "voter",
          "type": "address"
        },
        {
          "indexed": true,
          "internalType": "bytes32",
          "name": "txHash",
          "type": "bytes32"
        },
        {
          "indexed": false,
          "internalType": "bool",
          "name": "support",
          "type": "bool"
        },
        {
          "indexed": false,
          "internalType": "uint256",
          "name": "votes",
          "type": "uint256"
        }
      ],
      "name": "VoteCast",
      "type": "event"
    },
    {
      "inputs": [],
      "name": "GRACE_PERIOD",
      "outputs": [
        {
          "internalType": "uint256",
          "name": "",
          "type": "uint256"
        }
      ],
      "stateMutability": "view",
      "type": "function"
    },
    {
      "inputs": [],
      "name": "MAXIMUM_DELAY",
      "outputs": [
        {
          "internalType": "uint256",
          "name": "",
          "type": "uint256"
        }
      ],
      "stateMutability": "view",
      "type": "function"
    },
    {
      "inputs": [],
      "name": "MINIMUM_DELAY",
      "outputs": [
        {
          "internalType": "uint256",
          "name": "",
          "type": "uint256"
        }
      ],
      "stateMutability": "view",
      "type": "function"
    },
    {
      "inputs": [],
      "name": "acceptAdmin",
      "outputs": [],
      "stateMutability": "nonpayable",
      "type": "function"
    },
    {
      "inputs": [],
      "name": "admin",
      "outputs": [
        {
          "internalType": "address",
          "name": "",
          "type": "address"
        }
      ],
      "stateMutability": "view",
      "type": "function"
    },
    {
      "inputs": [],
      "name": "admin_initialized",
      "outputs": [
        {
          "internalType": "bool",
          "name": "",
          "type": "bool"
        }
      ],
      "stateMutability": "view",
      "type": "function"
    },
    {
      "inputs": [
        {
          "internalType": "address",
          "name": "target",
          "type": "address"
        },
        {
          "internalType": "uint256",
          "name": "value",
          "type": "uint256"
        },
        {
          "internalType": "string",
          "name": "signature",
          "type": "string"
        },
        {
          "internalType": "bytes",
          "name": "data",
          "type": "bytes"
        },
        {
          "internalType": "uint256",
          "name": "eta",
          "type": "uint256"
        }
      ],
      "name": "cancelTransaction",
      "outputs": [],
      "stateMutability": "nonpayable",
      "type": "function"
    },
    {
      "inputs": [],
      "name": "delay",
      "outputs": [
        {
          "internalType": "uint256",
          "name": "",
          "type": "uint256"
        }
      ],
      "stateMutability": "view",
      "type": "function"
    },
    {
      "inputs": [
        {
          "internalType": "address",
          "name": "target",
          "type": "address"
        },
        {
          "internalType": "uint256",
          "name": "value",
          "type": "uint256"
        },
        {
          "internalType": "string",
          "name": "signature",
          "type": "string"
        },
        {
          "internalType": "bytes",
          "name": "data",
          "type": "bytes"
        },
        {
          "internalType": "uint256",
          "name": "eta",
          "type": "uint256"
        }
      ],
      "name": "executeTransaction",
      "outputs": [
        {
          "internalType": "bytes",
          "name": "",
          "type": "bytes"
        }
      ],
      "stateMutability": "payable",
      "type": "function"
    },
    {
      "inputs": [],
      "name": "pendingAdmin",
      "outputs": [
        {
          "internalType": "address",
          "name": "",
          "type": "address"
        }
      ],
      "stateMutability": "view",
      "type": "function"
    },
    {
      "inputs": [
        {
          "internalType": "address",
          "name": "target",
          "type": "address"
        },
        {
          "internalType": "uint256",
          "name": "value",
          "type": "uint256"
        },
        {
          "internalType": "string",
          "name": "signature",
          "type": "string"
        },
        {
          "internalType": "bytes",
          "name": "data",
          "type": "bytes"
        },
        {
          "internalType": "uint256",
          "name": "eta",
          "type": "uint256"
        }
      ],
      "name": "queueTransaction",
      "outputs": [
        {
          "internalType": "bytes32",
          "name": "",
          "type": "bytes32"
        }
      ],
      "stateMutability": "nonpayable",
      "type": "function"
    },
    {
      "inputs": [
        {
          "internalType": "bytes32",
          "name": "",
          "type": "bytes32"
        }
      ],
      "name": "queuedTransactions",
      "outputs": [
        {
          "internalType": "uint256",
          "name": "queuedBlock",
          "type": "uint256"
        },
        {
          "internalType": "uint256",
          "name": "againstVotes",
          "type": "uint256"
        },
        {
          "internalType": "uint256",
          "name": "totalSupply",
          "type": "uint256"
        },
        {
          "internalType": "bool",
          "name": "queued",
          "type": "bool"
        }
      ],
      "stateMutability": "view",
      "type": "function"
    },
    {
      "inputs": [
        {
          "internalType": "uint256",
          "name": "delay_",
          "type": "uint256"
        }
      ],
      "name": "setDelay",
      "outputs": [],
      "stateMutability": "nonpayable",
      "type": "function"
    },
    {
      "inputs": [
        {
          "internalType": "address",
          "name": "pendingAdmin_",
          "type": "address"
        }
      ],
      "name": "setPendingAdmin",
      "outputs": [],
      "stateMutability": "nonpayable",
      "type": "function"
    },
    {
      "inputs": [
        {
          "internalType": "bytes32",
          "name": "txHash",
          "type": "bytes32"
        }
      ],
      "name": "veto",
      "outputs": [],
      "stateMutability": "nonpayable",
      "type": "function"
    },
    {
      "stateMutability": "payable",
      "type": "receive"
    }
  ],
  "transactionHash": "0x5bf93c77752e9127b29ce4a3d9350987c056a4e58b39ec6e757398c7b280f4f3",
  "args": [
    "0xf39Fd6e51aad88F6F4ce6aB8827279cffFb92266",
    "172800",
    "0xa82fF9aFd8f496c3d6ac40E2a0F282E47488CFc9"
  ],
  "solcInputHash": "e4e2768f5c53a04b13cc4c9e08b5e284",
  "bytecode": "0x608060405234801561001057600080fd5b50604051611e4d380380611e4d8339818101604052606081101561003357600080fd5b50805160208201516040909201519091906202a3008210156100865760405162461bcd60e51b8152600401808060200182810382526037815260200180611e166037913960400191505060405180910390fd5b62278d008211156100c85760405162461bcd60e51b815260040180806020018281038252603b815260200180611ddb603b913960400191505060405180910390fd5b600080546001600160a01b039485166001600160a01b03199091161790556002919091556003805491909216610100026001600160a81b0319909116179055611cc5806101166000396000f3fe6080604052600436106100bc5760003560e01c80630825f38f146100c85780630e18b6811461027d57806326782247146102945780633a66f901146102c55780634dd18bf514610424578063591fcdfe146104575780636a42b8f8146105a45780636fc1f57e146105b95780637d645fab146105e2578063b1b43ae5146105f7578063c1a287e21461060c578063e177246e14610621578063f2b065371461064b578063f851a4401461069d578063fb6f93f9146106b2576100c3565b366100c357005b600080fd5b610208600480360360a08110156100de57600080fd5b6001600160a01b0382351691602081013591810190606081016040820135600160201b81111561010d57600080fd5b82018360208201111561011f57600080fd5b803590602001918460018302840111600160201b8311171561014057600080fd5b91908080601f0160208091040260200160405190810160405280939291908181526020018383808284376000920191909152509295949360208101935035915050600160201b81111561019257600080fd5b8201836020820111156101a457600080fd5b803590602001918460018302840111600160201b831117156101c557600080fd5b91908080601f01602080910402602001604051908101604052809392919081815260200183838082843760009201919091525092955050913592506106dc915050565b6040805160208082528351818301528351919283929083019185019080838360005b8381101561024257818101518382015260200161022a565b50505050905090810190601f16801561026f5780820380516001836020036101000a031916815260200191505b509250505060405180910390f35b34801561028957600080fd5b50610292610c5c565b005b3480156102a057600080fd5b506102a9610cf8565b604080516001600160a01b039092168252519081900360200190f35b3480156102d157600080fd5b50610412600480360360a08110156102e857600080fd5b6001600160a01b0382351691602081013591810190606081016040820135600160201b81111561031757600080fd5b82018360208201111561032957600080fd5b803590602001918460018302840111600160201b8311171561034a57600080fd5b91908080601f0160208091040260200160405190810160405280939291908181526020018383808284376000920191909152509295949360208101935035915050600160201b81111561039c57600080fd5b8201836020820111156103ae57600080fd5b803590602001918460018302840111600160201b831117156103cf57600080fd5b91908080601f0160208091040260200160405190810160405280939291908181526020018383808284376000920191909152509295505091359250610d07915050565b60408051918252519081900360200190f35b34801561043057600080fd5b506102926004803603602081101561044757600080fd5b50356001600160a01b0316611083565b34801561046357600080fd5b50610292600480360360a081101561047a57600080fd5b6001600160a01b0382351691602081013591810190606081016040820135600160201b8111156104a957600080fd5b8201836020820111156104bb57600080fd5b803590602001918460018302840111600160201b831117156104dc57600080fd5b91908080601f0160208091040260200160405190810160405280939291908181526020018383808284376000920191909152509295949360208101935035915050600160201b81111561052e57600080fd5b82018360208201111561054057600080fd5b803590602001918460018302840111600160201b8311171561056157600080fd5b91908080601f0160208091040260200160405190810160405280939291908181526020018383808284376000920191909152509295505091359250611178915050565b3480156105b057600080fd5b50610412611428565b3480156105c557600080fd5b506105ce61142e565b604080519115158252519081900360200190f35b3480156105ee57600080fd5b50610412611437565b34801561060357600080fd5b5061041261143e565b34801561061857600080fd5b50610412611445565b34801561062d57600080fd5b506102926004803603602081101561064457600080fd5b503561144c565b34801561065757600080fd5b506106756004803603602081101561066e57600080fd5b5035611541565b6040805194855260208501939093528383019190915215156060830152519081900360800190f35b3480156106a957600080fd5b506102a9611570565b3480156106be57600080fd5b50610292600480360360208110156106d557600080fd5b503561157f565b6000546060906001600160a01b031633146107285760405162461bcd60e51b81526004018080602001828103825260388152602001806118f46038913960400191505060405180910390fd5b6000868686868660405160200180866001600160a01b031681526020018581526020018060200180602001848152602001838103835286818151815260200191508051906020019080838360005b8381101561078e578181015183820152602001610776565b50505050905090810190601f1680156107bb5780820380516001836020036101000a031916815260200191505b50838103825285518152855160209182019187019080838360005b838110156107ee5781810151838201526020016107d6565b50505050905090810190601f16801561081b5780820380516001836020036101000a031916815260200191505b5060408051601f1981840301815291815281516020928301206000818152600493849052919091209091015490995060ff16975061089296505050505050505760405162461bcd60e51b815260040180806020018281038252603d815260200180611ab2603d913960400191505060405180910390fd5b8261089b611759565b10156108d85760405162461bcd60e51b81526004018080602001828103825260458152602001806119c66045913960600191505060405180910390fd5b6108e5836212750061175d565b6108ed611759565b111561092a5760405162461bcd60e51b81526004018080602001828103825260338152602001806119936033913960400191505060405180910390fd5b60008181526004602052604090206002810154156109a657603361096a8260030154610964606485600201546117be90919063ffffffff16565b90611817565b106109a65760405162461bcd60e51b81526004018080602001828103825260308152602001806119636030913960400191505060405180910390fd5b60048101805460ff191690556000600182015585516060906109c9575084610a4c565b86805190602001208660405160200180836001600160e01b031916815260040182805190602001908083835b60208310610a145780518252601f1990920191602091820191016109f5565b6001836020036101000a0380198251168184511680821785525050505050509050019250505060405160208183030381529060405290505b600060608a6001600160a01b03168a846040518082805190602001908083835b60208310610a8b5780518252601f199092019160209182019101610a6c565b6001836020036101000a03801982511681845116808217855250505050505090500191505060006040518083038185875af1925050503d8060008114610aed576040519150601f19603f3d011682016040523d82523d6000602084013e610af2565b606091505b509150915081610b335760405162461bcd60e51b815260040180806020018281038252603d815260200180611bd9603d913960400191505060405180910390fd5b8a6001600160a01b0316857fa560e3198060a2f10670c1ec5b403077ea6ae93ca8de1c32b451dc1a943cd6e78c8c8c8c604051808581526020018060200180602001848152602001838103835286818151815260200191508051906020019080838360005b83811015610bb0578181015183820152602001610b98565b50505050905090810190601f168015610bdd5780820380516001836020036101000a031916815260200191505b50838103825285518152855160209182019187019080838360005b83811015610c10578181015183820152602001610bf8565b50505050905090810190601f168015610c3d5780820380516001836020036101000a031916815260200191505b50965050505050505060405180910390a39a9950505050505050505050565b6001546001600160a01b03163314610ca55760405162461bcd60e51b8152600401808060200182810382526038815260200180611b106038913960400191505060405180910390fd5b60008054336001600160a01b031991821617808355600180549092169091556040516001600160a01b03909116917f71614071b88dee5e0b2ae578a9dd7b2ebbe9ae832ba419dc0242cd065a290b6c91a2565b6001546001600160a01b031681565b600080546001600160a01b03163314610d515760405162461bcd60e51b8152600401808060200182810382526036815260200180611ba36036913960400191505060405180910390fd5b610d65600254610d5f611759565b9061175d565b821015610da35760405162461bcd60e51b8152600401808060200182810382526049815260200180611c166049913960600191505060405180910390fd5b6000868686868660405160200180866001600160a01b031681526020018581526020018060200180602001848152602001838103835286818151815260200191508051906020019080838360005b83811015610e09578181015183820152602001610df1565b50505050905090810190601f168015610e365780820380516001836020036101000a031916815260200191505b50838103825285518152855160209182019187019080838360005b83811015610e69578181015183820152602001610e51565b50505050905090810190601f168015610e965780820380516001836020036101000a031916815260200191505b5060408051808303601f19018152828252805160209182012060008181526004808452908490208082018054600160ff19909116811790915543908201556003546318160ddd60e01b87529451929e509c506101009093046001600160a01b03169a506318160ddd9950828401985090965094509084900301915082905086803b158015610f2357600080fd5b505afa158015610f37573d6000803e3d6000fd5b505050506040513d6020811015610f4d57600080fd5b505160038201556040805188815260608101869052608060208281018281528a519284019290925289516001600160a01b038d169487947f76e2796dc3a81d57b0e8504b647febcbeeb5f4af818e164f11eef8131a6a763f948e948e948e948e9493929084019160a085019188019080838360005b83811015610fda578181015183820152602001610fc2565b50505050905090810190601f1680156110075780820380516001836020036101000a031916815260200191505b50838103825285518152855160209182019187019080838360005b8381101561103a578181015183820152602001611022565b50505050905090810190601f1680156110675780820380516001836020036101000a031916815260200191505b50965050505050505060405180910390a3509695505050505050565b60035460ff16156110d1573330146110cc5760405162461bcd60e51b8152600401808060200182810382526038815260200180611b6b6038913960400191505060405180910390fd5b611128565b6000546001600160a01b0316331461111a5760405162461bcd60e51b815260040180806020018281038252603b815260200180611a3f603b913960400191505060405180910390fd5b6003805460ff191660011790555b600180546001600160a01b0319166001600160a01b0383811691909117918290556040519116907f69d78e38a01985fbb1462961809b4b2d65531bc93b2b94037f3334b82ca4a75690600090a250565b6000546001600160a01b031633146111c15760405162461bcd60e51b815260040180806020018281038252603781526020018061192c6037913960400191505060405180910390fd5b6000858585858560405160200180866001600160a01b031681526020018581526020018060200180602001848152602001838103835286818151815260200191508051906020019080838360005b8381101561122757818101518382015260200161120f565b50505050905090810190601f1680156112545780820380516001836020036101000a031916815260200191505b50838103825285518152855160209182019187019080838360005b8381101561128757818101518382015260200161126f565b50505050905090810190601f1680156112b45780820380516001836020036101000a031916815260200191505b5097505050505050505060405160208183030381529060405280519060200120905060006004600083815260200190815260200160002060040160006101000a81548160ff021916908315150217905550856001600160a01b0316817f2fffc091a501fd91bfbff27141450d3acb40fb8e6d8382b243ec7a812a3aaf8787878787604051808581526020018060200180602001848152602001838103835286818151815260200191508051906020019080838360005b8381101561138257818101518382015260200161136a565b50505050905090810190601f1680156113af5780820380516001836020036101000a031916815260200191505b50838103825285518152855160209182019187019080838360005b838110156113e25781810151838201526020016113ca565b50505050905090810190601f16801561140f5780820380516001836020036101000a031916815260200191505b50965050505050505060405180910390a3505050505050565b60025481565b60035460ff1681565b62278d0081565b6202a30081565b6212750081565b33301461148a5760405162461bcd60e51b8152600401808060200182810382526031815260200180611c5f6031913960400191505060405180910390fd5b6202a3008110156114cc5760405162461bcd60e51b8152600401808060200182810382526034815260200180611a0b6034913960400191505060405180910390fd5b62278d0081111561150e5760405162461bcd60e51b8152600401808060200182810382526038815260200180611a7a6038913960400191505060405180910390fd5b600281905560405181907f948b1f6a42ee138b7e34058ba85a37f716d55ff25ff05a763f15bed6a04c8d2c90600090a250565b600460208190526000918252604090912060018101546002820154600383015492909301549092919060ff1684565b6000546001600160a01b031681565b60008181526004602081905260409091209081015433919060ff166115eb576040805162461bcd60e51b815260206004820181905260248201527f54696d654c6f636b3a3a7665746f3a207478206973206e6f7420717565756564604482015290519081900360640190fd5b6001600160a01b0382166000908152602082905260409020805460ff16156116445760405162461bcd60e51b8152600401808060200182810382526023815260200180611b486023913960400191505060405180910390fd5b6000600360019054906101000a90046001600160a01b03166001600160a01b031663782d6fe18585600101546040518363ffffffff1660e01b815260040180836001600160a01b031681526020018281526020019250505060206040518083038186803b1580156116b457600080fd5b505afa1580156116c8573d6000803e3d6000fd5b505050506040513d60208110156116de57600080fd5b505160028401549091506116f2908261175d565b6002840155815460ff1916600190811783558201819055604080516000815260208101839052815187926001600160a01b038816927f62ce13214c9fbe98f71fa2a4e06c456b20fa5af381d079f6aeff2503ee5b3e1a929081900390910190a35050505050565b4290565b6000828201838110156117b5576040805162461bcd60e51b815260206004820152601b60248201527a536166654d6174683a206164646974696f6e206f766572666c6f7760281b604482015290519081900360640190fd5b90505b92915050565b6000826117cd575060006117b8565b828202828482816117da57fe5b04146117b55760405162461bcd60e51b8152600401808060200182810382526021815260200180611aef6021913960400191505060405180910390fd5b60006117b583836040518060400160405280601a815260200179536166654d6174683a206469766973696f6e206279207a65726f60301b815250600081836118dd5760405162461bcd60e51b81526004018080602001828103825283818151815260200191508051906020019080838360005b838110156118a257818101518382015260200161188a565b50505050905090810190601f1680156118cf5780820380516001836020036101000a031916815260200191505b509250505060405180910390fd5b5060008385816118e957fe5b049594505050505056fe54696d656c6f636b3a3a657865637574655472616e73616374696f6e3a2043616c6c206d75737420636f6d652066726f6d2061646d696e2e54696d656c6f636b3a3a63616e63656c5472616e73616374696f6e3a2043616c6c206d75737420636f6d652066726f6d2061646d696e2e54696d654c6f636b3a3a657865637574655472616e73616374696f6e3a20436f6d6d756e6974792072656a656374656454696d656c6f636b3a3a657865637574655472616e73616374696f6e3a205472616e73616374696f6e206973207374616c652e54696d656c6f636b3a3a657865637574655472616e73616374696f6e3a205472616e73616374696f6e206861736e2774207375727061737365642074696d65206c6f636b2e54696d656c6f636b3a3a73657444656c61793a2044656c6179206d75737420657863656564206d696e696d756d2064656c61792e54696d656c6f636b3a3a73657450656e64696e6741646d696e3a2046697273742063616c6c206d75737420636f6d652066726f6d2061646d696e2e54696d656c6f636b3a3a73657444656c61793a2044656c6179206d757374206e6f7420657863656564206d6178696d756d2064656c61792e54696d656c6f636b3a3a657865637574655472616e73616374696f6e3a205472616e73616374696f6e206861736e2774206265656e207175657565642e536166654d6174683a206d756c7469706c69636174696f6e206f766572666c6f7754696d656c6f636b3a3a61636365707441646d696e3a2043616c6c206d75737420636f6d652066726f6d2070656e64696e6741646d696e2e54696d654c6f636b3a3a7665746f3a20766f74657220616c726561647920766f74656454696d656c6f636b3a3a73657450656e64696e6741646d696e3a2043616c6c206d75737420636f6d652066726f6d2054696d656c6f636b2e54696d656c6f636b3a3a71756575655472616e73616374696f6e3a2043616c6c206d75737420636f6d652066726f6d2061646d696e2e54696d656c6f636b3a3a657865637574655472616e73616374696f6e3a205472616e73616374696f6e20657865637574696f6e2072657665727465642e54696d656c6f636b3a3a71756575655472616e73616374696f6e3a20457374696d6174656420657865637574696f6e20626c6f636b206d75737420736174697366792064656c61792e54696d656c6f636b3a3a73657444656c61793a2043616c6c206d75737420636f6d652066726f6d2054696d656c6f636b2ea2646970667358221220ec627ee61934c64173ba636595ea2f919921a8d84b89ca871aed8b2c2ab6a2f764736f6c634300060c003354696d656c6f636b3a3a636f6e7374727563746f723a2044656c6179206d757374206e6f7420657863656564206d6178696d756d2064656c61792e54696d656c6f636b3a3a636f6e7374727563746f723a2044656c6179206d75737420657863656564206d696e696d756d2064656c61792e",
  "devdoc": {
    "kind": "dev",
    "methods": {},
    "version": 1
  },
  "userdoc": {
    "kind": "user",
    "methods": {},
    "version": 1
  },
  "storageLayout": {
    "storage": [
      {
        "astId": 4198,
        "contract": "contracts/TimeLock.sol:Timelock",
        "label": "admin",
        "offset": 0,
        "slot": "0",
        "type": "t_address"
      },
      {
        "astId": 4200,
        "contract": "contracts/TimeLock.sol:Timelock",
        "label": "pendingAdmin",
        "offset": 0,
        "slot": "1",
        "type": "t_address"
      },
      {
        "astId": 4202,
        "contract": "contracts/TimeLock.sol:Timelock",
        "label": "delay",
        "offset": 0,
        "slot": "2",
        "type": "t_uint256"
      },
      {
        "astId": 4204,
        "contract": "contracts/TimeLock.sol:Timelock",
        "label": "admin_initialized",
        "offset": 0,
        "slot": "3",
        "type": "t_bool"
      },
      {
        "astId": 4206,
        "contract": "contracts/TimeLock.sol:Timelock",
        "label": "chk",
        "offset": 1,
        "slot": "3",
        "type": "t_contract(CheckToken)5832"
      },
      {
        "astId": 4233,
        "contract": "contracts/TimeLock.sol:Timelock",
        "label": "queuedTransactions",
        "offset": 0,
        "slot": "4",
        "type": "t_mapping(t_bytes32,t_struct(QueuedTransaction)4229_storage)"
      }
    ],
    "types": {
      "t_address": {
        "encoding": "inplace",
        "label": "address",
        "numberOfBytes": "20"
      },
      "t_bool": {
        "encoding": "inplace",
        "label": "bool",
        "numberOfBytes": "1"
      },
      "t_bytes32": {
        "encoding": "inplace",
        "label": "bytes32",
        "numberOfBytes": "32"
      },
      "t_contract(CheckToken)5832": {
        "encoding": "inplace",
        "label": "contract CheckToken",
        "numberOfBytes": "20"
      },
      "t_mapping(t_address,t_struct(Receipt)4216_storage)": {
        "encoding": "mapping",
        "key": "t_address",
        "label": "mapping(address => struct Timelock.Receipt)",
        "numberOfBytes": "32",
        "value": "t_struct(Receipt)4216_storage"
      },
      "t_mapping(t_bytes32,t_struct(QueuedTransaction)4229_storage)": {
        "encoding": "mapping",
        "key": "t_bytes32",
        "label": "mapping(bytes32 => struct Timelock.QueuedTransaction)",
        "numberOfBytes": "32",
        "value": "t_struct(QueuedTransaction)4229_storage"
      },
      "t_struct(QueuedTransaction)4229_storage": {
        "encoding": "inplace",
        "label": "struct Timelock.QueuedTransaction",
        "members": [
          {
            "astId": 4220,
            "contract": "contracts/TimeLock.sol:Timelock",
            "label": "receipts",
            "offset": 0,
            "slot": "0",
            "type": "t_mapping(t_address,t_struct(Receipt)4216_storage)"
          },
          {
            "astId": 4222,
            "contract": "contracts/TimeLock.sol:Timelock",
            "label": "queuedBlock",
            "offset": 0,
            "slot": "1",
            "type": "t_uint256"
          },
          {
            "astId": 4224,
            "contract": "contracts/TimeLock.sol:Timelock",
            "label": "againstVotes",
            "offset": 0,
            "slot": "2",
            "type": "t_uint256"
          },
          {
            "astId": 4226,
            "contract": "contracts/TimeLock.sol:Timelock",
            "label": "totalSupply",
            "offset": 0,
            "slot": "3",
            "type": "t_uint256"
          },
          {
            "astId": 4228,
            "contract": "contracts/TimeLock.sol:Timelock",
            "label": "queued",
            "offset": 0,
            "slot": "4",
            "type": "t_bool"
          }
        ],
        "numberOfBytes": "160"
      },
      "t_struct(Receipt)4216_storage": {
        "encoding": "inplace",
        "label": "struct Timelock.Receipt",
        "members": [
          {
            "astId": 4209,
            "contract": "contracts/TimeLock.sol:Timelock",
            "label": "hasVoted",
            "offset": 0,
            "slot": "0",
            "type": "t_bool"
          },
          {
            "astId": 4212,
            "contract": "contracts/TimeLock.sol:Timelock",
            "label": "support",
            "offset": 1,
            "slot": "0",
            "type": "t_bool"
          },
          {
            "astId": 4215,
            "contract": "contracts/TimeLock.sol:Timelock",
            "label": "votes",
            "offset": 0,
            "slot": "1",
            "type": "t_uint256"
          }
        ],
        "numberOfBytes": "64"
      },
      "t_uint256": {
        "encoding": "inplace",
        "label": "uint256",
        "numberOfBytes": "32"
      }
    }
  }
}