{
  "address": "0x0b48aF34f4c854F5ae1A3D587da471FeA45bAD52",
  "abi": [
    {
      "inputs": [
        {
          "internalType": "address",
          "name": "factoryAddress",
          "type": "address"
        },
        {
          "components": [
            {
              "internalType": "string",
              "name": "poolTokenSymbol",
              "type": "string"
            },
            {
              "internalType": "string",
              "name": "poolTokenName",
              "type": "string"
            },
            {
              "internalType": "address[]",
              "name": "constituentTokens",
              "type": "address[]"
            },
            {
              "internalType": "uint256[]",
              "name": "tokenBalances",
              "type": "uint256[]"
            },
            {
              "internalType": "uint256[]",
              "name": "tokenWeights",
              "type": "uint256[]"
            },
            {
              "internalType": "uint256",
              "name": "swapFee",
              "type": "uint256"
            }
          ],
          "internalType": "struct ConfigurableRightsPool.PoolParams",
          "name": "poolParams",
          "type": "tuple"
        },
        {
          "components": [
            {
              "internalType": "bool",
              "name": "canPauseSwapping",
              "type": "bool"
            },
            {
              "internalType": "bool",
              "name": "canChangeSwapFee",
              "type": "bool"
            },
            {
              "internalType": "bool",
              "name": "canChangeWeights",
              "type": "bool"
            },
            {
              "internalType": "bool",
              "name": "canAddRemoveTokens",
              "type": "bool"
            },
            {
              "internalType": "bool",
              "name": "canWhitelistLPs",
              "type": "bool"
            },
            {
              "internalType": "bool",
              "name": "canChangeCap",
              "type": "bool"
            }
          ],
          "internalType": "struct RightsManager.Rights",
          "name": "rightsStruct",
          "type": "tuple"
        }
      ],
      "stateMutability": "nonpayable",
      "type": "constructor"
    },
    {
      "anonymous": false,
      "inputs": [
        {
          "indexed": true,
          "internalType": "address",
          "name": "owner",
          "type": "address"
        },
        {
          "indexed": true,
          "internalType": "address",
          "name": "spender",
          "type": "address"
        },
        {
          "indexed": false,
          "internalType": "uint256",
          "name": "value",
          "type": "uint256"
        }
      ],
      "name": "Approval",
      "type": "event"
    },
    {
      "anonymous": false,
      "inputs": [
        {
          "indexed": true,
          "internalType": "address",
          "name": "caller",
          "type": "address"
        },
        {
          "indexed": false,
          "internalType": "uint256",
          "name": "oldCap",
          "type": "uint256"
        },
        {
          "indexed": false,
          "internalType": "uint256",
          "name": "newCap",
          "type": "uint256"
        }
      ],
      "name": "CapChanged",
      "type": "event"
    },
    {
      "anonymous": true,
      "inputs": [
        {
          "indexed": true,
          "internalType": "bytes4",
          "name": "sig",
          "type": "bytes4"
        },
        {
          "indexed": true,
          "internalType": "address",
          "name": "caller",
          "type": "address"
        },
        {
          "indexed": false,
          "internalType": "bytes",
          "name": "data",
          "type": "bytes"
        }
      ],
      "name": "LogCall",
      "type": "event"
    },
    {
      "anonymous": false,
      "inputs": [
        {
          "indexed": true,
          "internalType": "address",
          "name": "caller",
          "type": "address"
        },
        {
          "indexed": true,
          "internalType": "address",
          "name": "tokenOut",
          "type": "address"
        },
        {
          "indexed": false,
          "internalType": "uint256",
          "name": "tokenAmountOut",
          "type": "uint256"
        }
      ],
      "name": "LogExit",
      "type": "event"
    },
    {
      "anonymous": false,
      "inputs": [
        {
          "indexed": true,
          "internalType": "address",
          "name": "caller",
          "type": "address"
        },
        {
          "indexed": true,
          "internalType": "address",
          "name": "tokenIn",
          "type": "address"
        },
        {
          "indexed": false,
          "internalType": "uint256",
          "name": "tokenAmountIn",
          "type": "uint256"
        }
      ],
      "name": "LogJoin",
      "type": "event"
    },
    {
      "anonymous": false,
      "inputs": [
        {
          "indexed": true,
          "internalType": "address",
          "name": "token",
          "type": "address"
        },
        {
          "indexed": true,
          "internalType": "address",
          "name": "pool",
          "type": "address"
        },
        {
          "indexed": true,
          "internalType": "address",
          "name": "caller",
          "type": "address"
        }
      ],
      "name": "NewTokenCommitted",
      "type": "event"
    },
    {
      "anonymous": false,
      "inputs": [
        {
          "indexed": true,
          "internalType": "address",
          "name": "previousOwner",
          "type": "address"
        },
        {
          "indexed": true,
          "internalType": "address",
          "name": "newOwner",
          "type": "address"
        }
      ],
      "name": "OwnershipTransferred",
      "type": "event"
    },
    {
      "anonymous": false,
      "inputs": [
        {
          "indexed": true,
          "internalType": "address",
          "name": "from",
          "type": "address"
        },
        {
          "indexed": true,
          "internalType": "address",
          "name": "to",
          "type": "address"
        },
        {
          "indexed": false,
          "internalType": "uint256",
          "name": "value",
          "type": "uint256"
        }
      ],
      "name": "Transfer",
      "type": "event"
    },
    {
      "inputs": [],
      "name": "DECIMALS",
      "outputs": [
        {
          "internalType": "uint8",
          "name": "",
          "type": "uint8"
        }
      ],
      "stateMutability": "view",
      "type": "function"
    },
    {
      "inputs": [],
      "name": "DEFAULT_ADD_TOKEN_TIME_LOCK_IN_BLOCKS",
      "outputs": [
        {
          "internalType": "uint256",
          "name": "",
          "type": "uint256"
        }
      ],
      "stateMutability": "view",
      "type": "function"
    },
    {
      "inputs": [],
      "name": "DEFAULT_MIN_WEIGHT_CHANGE_BLOCK_PERIOD",
      "outputs": [
        {
          "internalType": "uint256",
          "name": "",
          "type": "uint256"
        }
      ],
      "stateMutability": "view",
      "type": "function"
    },
    {
      "inputs": [],
      "name": "NAME",
      "outputs": [
        {
          "internalType": "string",
          "name": "",
          "type": "string"
        }
      ],
      "stateMutability": "view",
      "type": "function"
    },
    {
      "inputs": [],
      "name": "addTokenTimeLockInBlocks",
      "outputs": [
        {
          "internalType": "uint256",
          "name": "",
          "type": "uint256"
        }
      ],
      "stateMutability": "view",
      "type": "function"
    },
    {
      "inputs": [
        {
          "internalType": "address",
          "name": "owner",
          "type": "address"
        },
        {
          "internalType": "address",
          "name": "spender",
          "type": "address"
        }
      ],
      "name": "allowance",
      "outputs": [
        {
          "internalType": "uint256",
          "name": "",
          "type": "uint256"
        }
      ],
      "stateMutability": "view",
      "type": "function"
    },
    {
      "inputs": [],
      "name": "applyAddToken",
      "outputs": [],
      "stateMutability": "nonpayable",
      "type": "function"
    },
    {
      "inputs": [
        {
          "internalType": "address",
          "name": "spender",
          "type": "address"
        },
        {
          "internalType": "uint256",
          "name": "amount",
          "type": "uint256"
        }
      ],
      "name": "approve",
      "outputs": [
        {
          "internalType": "bool",
          "name": "",
          "type": "bool"
        }
      ],
      "stateMutability": "nonpayable",
      "type": "function"
    },
    {
      "inputs": [],
      "name": "bFactory",
      "outputs": [
        {
          "internalType": "contract IBFactory",
          "name": "",
          "type": "address"
        }
      ],
      "stateMutability": "view",
      "type": "function"
    },
    {
      "inputs": [],
      "name": "bPool",
      "outputs": [
        {
          "internalType": "contract IBPool",
          "name": "",
          "type": "address"
        }
      ],
      "stateMutability": "view",
      "type": "function"
    },
    {
      "inputs": [
        {
          "internalType": "address",
          "name": "account",
          "type": "address"
        }
      ],
      "name": "balanceOf",
      "outputs": [
        {
          "internalType": "uint256",
          "name": "",
          "type": "uint256"
        }
      ],
      "stateMutability": "view",
      "type": "function"
    },
    {
      "inputs": [],
      "name": "bspCap",
      "outputs": [
        {
          "internalType": "uint256",
          "name": "",
          "type": "uint256"
        }
      ],
      "stateMutability": "view",
      "type": "function"
    },
    {
      "inputs": [
        {
          "internalType": "uint256",
          "name": "amount",
          "type": "uint256"
        }
      ],
      "name": "burnPoolShareFromLib",
      "outputs": [],
      "stateMutability": "nonpayable",
      "type": "function"
    },
    {
      "inputs": [
        {
          "internalType": "address",
          "name": "provider",
          "type": "address"
        }
      ],
      "name": "canProvideLiquidity",
      "outputs": [
        {
          "internalType": "bool",
          "name": "",
          "type": "bool"
        }
      ],
      "stateMutability": "view",
      "type": "function"
    },
    {
      "inputs": [
        {
          "internalType": "address",
          "name": "token",
          "type": "address"
        },
        {
          "internalType": "uint256",
          "name": "balance",
          "type": "uint256"
        },
        {
          "internalType": "uint256",
          "name": "denormalizedWeight",
          "type": "uint256"
        }
      ],
      "name": "commitAddToken",
      "outputs": [],
      "stateMutability": "nonpayable",
      "type": "function"
    },
    {
      "inputs": [
        {
          "internalType": "uint256",
          "name": "initialSupply",
          "type": "uint256"
        }
      ],
      "name": "createPool",
      "outputs": [],
      "stateMutability": "nonpayable",
      "type": "function"
    },
    {
      "inputs": [
        {
          "internalType": "uint256",
          "name": "initialSupply",
          "type": "uint256"
        },
        {
          "internalType": "uint256",
          "name": "minimumWeightChangeBlockPeriodParam",
          "type": "uint256"
        },
        {
          "internalType": "uint256",
          "name": "addTokenTimeLockInBlocksParam",
          "type": "uint256"
        }
      ],
      "name": "createPool",
      "outputs": [],
      "stateMutability": "nonpayable",
      "type": "function"
    },
    {
      "inputs": [],
      "name": "decimals",
      "outputs": [
        {
          "internalType": "uint8",
          "name": "",
          "type": "uint8"
        }
      ],
      "stateMutability": "pure",
      "type": "function"
    },
    {
      "inputs": [
        {
          "internalType": "address",
          "name": "spender",
          "type": "address"
        },
        {
          "internalType": "uint256",
          "name": "amount",
          "type": "uint256"
        }
      ],
      "name": "decreaseApproval",
      "outputs": [
        {
          "internalType": "bool",
          "name": "",
          "type": "bool"
        }
      ],
      "stateMutability": "nonpayable",
      "type": "function"
    },
    {
      "inputs": [
        {
          "internalType": "uint256",
          "name": "poolAmountIn",
          "type": "uint256"
        },
        {
          "internalType": "uint256[]",
          "name": "minAmountsOut",
          "type": "uint256[]"
        }
      ],
      "name": "exitPool",
      "outputs": [],
      "stateMutability": "nonpayable",
      "type": "function"
    },
    {
      "inputs": [
        {
          "internalType": "address",
          "name": "tokenOut",
          "type": "address"
        },
        {
          "internalType": "uint256",
          "name": "tokenAmountOut",
          "type": "uint256"
        },
        {
          "internalType": "uint256",
          "name": "maxPoolAmountIn",
          "type": "uint256"
        }
      ],
      "name": "exitswapExternAmountOut",
      "outputs": [
        {
          "internalType": "uint256",
          "name": "poolAmountIn",
          "type": "uint256"
        }
      ],
      "stateMutability": "nonpayable",
      "type": "function"
    },
    {
      "inputs": [
        {
          "internalType": "address",
          "name": "tokenOut",
          "type": "address"
        },
        {
          "internalType": "uint256",
          "name": "poolAmountIn",
          "type": "uint256"
        },
        {
          "internalType": "uint256",
          "name": "minAmountOut",
          "type": "uint256"
        }
      ],
      "name": "exitswapPoolAmountIn",
      "outputs": [
        {
          "internalType": "uint256",
          "name": "tokenAmountOut",
          "type": "uint256"
        }
      ],
      "stateMutability": "nonpayable",
      "type": "function"
    },
    {
      "inputs": [],
      "name": "getBalancerSafeMathVersion",
      "outputs": [
        {
          "internalType": "address",
          "name": "",
          "type": "address"
        }
      ],
      "stateMutability": "pure",
      "type": "function"
    },
    {
      "inputs": [],
      "name": "getController",
      "outputs": [
        {
          "internalType": "address",
          "name": "",
          "type": "address"
        }
      ],
      "stateMutability": "view",
      "type": "function"
    },
    {
      "inputs": [
        {
          "internalType": "address",
          "name": "token",
          "type": "address"
        }
      ],
      "name": "getDenormalizedWeight",
      "outputs": [
        {
          "internalType": "uint256",
          "name": "",
          "type": "uint256"
        }
      ],
      "stateMutability": "view",
      "type": "function"
    },
    {
      "inputs": [],
      "name": "getRightsManagerVersion",
      "outputs": [
        {
          "internalType": "address",
          "name": "",
          "type": "address"
        }
      ],
      "stateMutability": "pure",
      "type": "function"
    },
    {
      "inputs": [],
      "name": "getSmartPoolManagerVersion",
      "outputs": [
        {
          "internalType": "address",
          "name": "",
          "type": "address"
        }
      ],
      "stateMutability": "pure",
      "type": "function"
    },
    {
      "inputs": [],
      "name": "gradualUpdate",
      "outputs": [
        {
          "internalType": "uint256",
          "name": "startBlock",
          "type": "uint256"
        },
        {
          "internalType": "uint256",
          "name": "endBlock",
          "type": "uint256"
        }
      ],
      "stateMutability": "view",
      "type": "function"
    },
    {
      "inputs": [
        {
          "internalType": "enum RightsManager.Permissions",
          "name": "permission",
          "type": "uint8"
        }
      ],
      "name": "hasPermission",
      "outputs": [
        {
          "internalType": "bool",
          "name": "",
          "type": "bool"
        }
      ],
      "stateMutability": "view",
      "type": "function"
    },
    {
      "inputs": [
        {
          "internalType": "address",
          "name": "spender",
          "type": "address"
        },
        {
          "internalType": "uint256",
          "name": "amount",
          "type": "uint256"
        }
      ],
      "name": "increaseApproval",
      "outputs": [
        {
          "internalType": "bool",
          "name": "",
          "type": "bool"
        }
      ],
      "stateMutability": "nonpayable",
      "type": "function"
    },
    {
      "inputs": [],
      "name": "isPublicSwap",
      "outputs": [
        {
          "internalType": "bool",
          "name": "",
          "type": "bool"
        }
      ],
      "stateMutability": "view",
      "type": "function"
    },
    {
      "inputs": [
        {
          "internalType": "uint256",
          "name": "poolAmountOut",
          "type": "uint256"
        },
        {
          "internalType": "uint256[]",
          "name": "maxAmountsIn",
          "type": "uint256[]"
        }
      ],
      "name": "joinPool",
      "outputs": [],
      "stateMutability": "nonpayable",
      "type": "function"
    },
    {
      "inputs": [
        {
          "internalType": "address",
          "name": "tokenIn",
          "type": "address"
        },
        {
          "internalType": "uint256",
          "name": "tokenAmountIn",
          "type": "uint256"
        },
        {
          "internalType": "uint256",
          "name": "minPoolAmountOut",
          "type": "uint256"
        }
      ],
      "name": "joinswapExternAmountIn",
      "outputs": [
        {
          "internalType": "uint256",
          "name": "poolAmountOut",
          "type": "uint256"
        }
      ],
      "stateMutability": "nonpayable",
      "type": "function"
    },
    {
      "inputs": [
        {
          "internalType": "address",
          "name": "tokenIn",
          "type": "address"
        },
        {
          "internalType": "uint256",
          "name": "poolAmountOut",
          "type": "uint256"
        },
        {
          "internalType": "uint256",
          "name": "maxAmountIn",
          "type": "uint256"
        }
      ],
      "name": "joinswapPoolAmountOut",
      "outputs": [
        {
          "internalType": "uint256",
          "name": "tokenAmountIn",
          "type": "uint256"
        }
      ],
      "stateMutability": "nonpayable",
      "type": "function"
    },
    {
      "inputs": [],
      "name": "minimumWeightChangeBlockPeriod",
      "outputs": [
        {
          "internalType": "uint256",
          "name": "",
          "type": "uint256"
        }
      ],
      "stateMutability": "view",
      "type": "function"
    },
    {
      "inputs": [
        {
          "internalType": "uint256",
          "name": "amount",
          "type": "uint256"
        }
      ],
      "name": "mintPoolShareFromLib",
      "outputs": [],
      "stateMutability": "nonpayable",
      "type": "function"
    },
    {
      "inputs": [],
      "name": "name",
      "outputs": [
        {
          "internalType": "string",
          "name": "",
          "type": "string"
        }
      ],
      "stateMutability": "view",
      "type": "function"
    },
    {
      "inputs": [],
      "name": "newToken",
      "outputs": [
        {
          "internalType": "address",
          "name": "addr",
          "type": "address"
        },
        {
          "internalType": "bool",
          "name": "isCommitted",
          "type": "bool"
        },
        {
          "internalType": "uint256",
          "name": "commitBlock",
          "type": "uint256"
        },
        {
          "internalType": "uint256",
          "name": "denorm",
          "type": "uint256"
        },
        {
          "internalType": "uint256",
          "name": "balance",
          "type": "uint256"
        }
      ],
      "stateMutability": "view",
      "type": "function"
    },
    {
      "inputs": [],
      "name": "pokeWeights",
      "outputs": [],
      "stateMutability": "nonpayable",
      "type": "function"
    },
    {
      "inputs": [
        {
          "internalType": "address",
          "name": "from",
          "type": "address"
        },
        {
          "internalType": "uint256",
          "name": "amount",
          "type": "uint256"
        }
      ],
      "name": "pullPoolShareFromLib",
      "outputs": [],
      "stateMutability": "nonpayable",
      "type": "function"
    },
    {
      "inputs": [
        {
          "internalType": "address",
          "name": "to",
          "type": "address"
        },
        {
          "internalType": "uint256",
          "name": "amount",
          "type": "uint256"
        }
      ],
      "name": "pushPoolShareFromLib",
      "outputs": [],
      "stateMutability": "nonpayable",
      "type": "function"
    },
    {
      "inputs": [
        {
          "internalType": "address",
          "name": "token",
          "type": "address"
        }
      ],
      "name": "removeToken",
      "outputs": [],
      "stateMutability": "nonpayable",
      "type": "function"
    },
    {
      "inputs": [
        {
          "internalType": "address",
          "name": "provider",
          "type": "address"
        }
      ],
      "name": "removeWhitelistedLiquidityProvider",
      "outputs": [],
      "stateMutability": "nonpayable",
      "type": "function"
    },
    {
      "inputs": [
        {
          "internalType": "address",
          "name": "token",
          "type": "address"
        }
      ],
      "name": "resyncWeight",
      "outputs": [],
      "stateMutability": "nonpayable",
      "type": "function"
    },
    {
      "inputs": [],
      "name": "rights",
      "outputs": [
        {
          "internalType": "bool",
          "name": "canPauseSwapping",
          "type": "bool"
        },
        {
          "internalType": "bool",
          "name": "canChangeSwapFee",
          "type": "bool"
        },
        {
          "internalType": "bool",
          "name": "canChangeWeights",
          "type": "bool"
        },
        {
          "internalType": "bool",
          "name": "canAddRemoveTokens",
          "type": "bool"
        },
        {
          "internalType": "bool",
          "name": "canWhitelistLPs",
          "type": "bool"
        },
        {
          "internalType": "bool",
          "name": "canChangeCap",
          "type": "bool"
        }
      ],
      "stateMutability": "view",
      "type": "function"
    },
    {
      "inputs": [
        {
          "internalType": "uint256",
          "name": "newCap",
          "type": "uint256"
        }
      ],
      "name": "setCap",
      "outputs": [],
      "stateMutability": "nonpayable",
      "type": "function"
    },
    {
      "inputs": [
        {
          "internalType": "address",
          "name": "newOwner",
          "type": "address"
        }
      ],
      "name": "setController",
      "outputs": [],
      "stateMutability": "nonpayable",
      "type": "function"
    },
    {
      "inputs": [
        {
          "internalType": "bool",
          "name": "publicSwap",
          "type": "bool"
        }
      ],
      "name": "setPublicSwap",
      "outputs": [],
      "stateMutability": "nonpayable",
      "type": "function"
    },
    {
      "inputs": [
        {
          "internalType": "uint256",
          "name": "swapFee",
          "type": "uint256"
        }
      ],
      "name": "setSwapFee",
      "outputs": [],
      "stateMutability": "nonpayable",
      "type": "function"
    },
    {
      "inputs": [],
      "name": "symbol",
      "outputs": [
        {
          "internalType": "string",
          "name": "",
          "type": "string"
        }
      ],
      "stateMutability": "view",
      "type": "function"
    },
    {
      "inputs": [],
      "name": "totalSupply",
      "outputs": [
        {
          "internalType": "uint256",
          "name": "",
          "type": "uint256"
        }
      ],
      "stateMutability": "view",
      "type": "function"
    },
    {
      "inputs": [
        {
          "internalType": "address",
          "name": "recipient",
          "type": "address"
        },
        {
          "internalType": "uint256",
          "name": "amount",
          "type": "uint256"
        }
      ],
      "name": "transfer",
      "outputs": [
        {
          "internalType": "bool",
          "name": "",
          "type": "bool"
        }
      ],
      "stateMutability": "nonpayable",
      "type": "function"
    },
    {
      "inputs": [
        {
          "internalType": "address",
          "name": "sender",
          "type": "address"
        },
        {
          "internalType": "address",
          "name": "recipient",
          "type": "address"
        },
        {
          "internalType": "uint256",
          "name": "amount",
          "type": "uint256"
        }
      ],
      "name": "transferFrom",
      "outputs": [
        {
          "internalType": "bool",
          "name": "",
          "type": "bool"
        }
      ],
      "stateMutability": "nonpayable",
      "type": "function"
    },
    {
      "inputs": [
        {
          "internalType": "address",
          "name": "token",
          "type": "address"
        },
        {
          "internalType": "uint256",
          "name": "newWeight",
          "type": "uint256"
        }
      ],
      "name": "updateWeight",
      "outputs": [],
      "stateMutability": "nonpayable",
      "type": "function"
    },
    {
      "inputs": [
        {
          "internalType": "uint256[]",
          "name": "newWeights",
          "type": "uint256[]"
        },
        {
          "internalType": "uint256",
          "name": "startBlock",
          "type": "uint256"
        },
        {
          "internalType": "uint256",
          "name": "endBlock",
          "type": "uint256"
        }
      ],
      "name": "updateWeightsGradually",
      "outputs": [],
      "stateMutability": "nonpayable",
      "type": "function"
    },
    {
      "inputs": [
        {
          "internalType": "address",
          "name": "provider",
          "type": "address"
        }
      ],
      "name": "whitelistLiquidityProvider",
      "outputs": [],
      "stateMutability": "nonpayable",
      "type": "function"
    }
  ],
  "transactionHash": "0xefeb8641989466ca7634e0f32e25bef4767a8519fc5e2d8f0b8e7aedc9b1bb77",
  "args": [
    "0x9424B1412450D0f8Fc2255FAf6046b98213B76Bd",
    {
      "poolTokenSymbol": "UpDnYFI1Wk",
      "poolTokenName": "Up Down Test up/down pairs",
      "constituentTokens": [
        "0xd25dCDb5B2042fD373C3bde27967A0b139dd7F7f",
        "0xd6C422CB6F6fB2EF3E98590372129255D5b982F0"
      ],
      "tokenBalances": [
        "100000000000000000000000",
        "100000000000000000000000"
      ],
      "tokenWeights": [
        "20000000000000000000",
        "20000000000000000000"
      ],
      "swapFee": 1000000000000000
    },
    {
      "canPauseSwapping": false,
      "canChangeSwapFee": false,
      "canChangeWeights": true,
      "canAddRemoveTokens": false,
      "canWhitelistLPs": false,
      "canChangeCap": false
    }
  ],
  "bytecode": "0x60806040523480156200001157600080fd5b50604051620057c6380380620057c6833981016040819052620000349162000708565b828282816000015182602001518160039080519060200190620000599291906200036d565b5080516200006f9060049060208401906200036d565b5050600580546001600160a01b03191633179055506001600655620f4240670de0b6b3a7640000048260a001511015620000c65760405162461bcd60e51b8152600401620000bd9062000967565b60405180910390fd5b60a082015167016345785d8a00001015620000f55760405162461bcd60e51b8152600401620000bd9062000967565b81604001515182606001515114620001215760405162461bcd60e51b8152600401620000bd9062000904565b816040015151826080015151146200014d5760405162461bcd60e51b8152600401620000bd9062000896565b60028260400151511015620001765760405162461bcd60e51b8152600401620000bd906200093b565b600882604001515111156200019f5760405162461bcd60e51b8152600401620000bd906200099e565b60408083015190516377d4434960e01b815273A3F9145CB0B50D907930840BB2dcfF4146df8Ab4916377d4434991620001dc919060040162000847565b60006040518083038186803b158015620001f557600080fd5b505af41580156200020a573d6000803e3d6000fd5b5050600780546001600160a01b0319166001600160a01b03871617905550508051600980546020808501516040808701516060880151608089015160a08a015160ff199097169815159890981761ff001916610100941515949094029390931762ff0000191662010000911515919091021763ff00000019166301000000921515929092029190911760ff60201b1916640100000000951515959095029490941760ff60281b1916650100000000009215159290920291909117909155908301518051620002dd926013920190620003f2565b5060608201518051620002f99160149160209091019062000458565b5060a082015160125562015f906015556101f4601655608082015180516200032a91600c9160209091019062000458565b50506000600a55505060001960185560095462010000900460ff16620003645760405162461bcd60e51b8152600401620000bd90620008cd565b50505062000a1c565b828054600181600116156101000203166002900490600052602060002090601f016020900481019282601f10620003b057805160ff1916838001178555620003e0565b82800160010185558215620003e0579182015b82811115620003e0578251825591602001919060010190620003c3565b50620003ee92915062000495565b5090565b8280548282559060005260206000209081019282156200044a579160200282015b828111156200044a57825182546001600160a01b0319166001600160a01b0390911617825560209092019160019091019062000413565b50620003ee929150620004ac565b828054828255906000526020600020908101928215620003e05791602002820182811115620003e0578251825591602001919060010190620003c3565b5b80821115620003ee576000815560010162000496565b5b80821115620003ee5780546001600160a01b0319168155600101620004ad565b80516001600160a01b0381168114620004e557600080fd5b92915050565b600082601f830112620004fc578081fd5b8151620005136200050d82620009fc565b620009d5565b8181529150602080830190848101818402860182018710156200053557600080fd5b60005b8481101562000560576200054d8883620004cd565b8452928201929082019060010162000538565b505050505092915050565b600082601f8301126200057c578081fd5b81516200058d6200050d82620009fc565b818152915060208083019084810181840286018201871015620005af57600080fd5b60005b848110156200056057815184529282019290820190600101620005b2565b80518015158114620004e557600080fd5b600082601f830112620005f2578081fd5b81516001600160401b0381111562000608578182fd5b60206200061e601f8301601f19168201620009d5565b925081835284818386010111156200063557600080fd5b60005b828110156200065557848101820151848201830152810162000638565b82811115620006675760008284860101525b50505092915050565b600060c0828403121562000682578081fd5b6200068e60c0620009d5565b90506200069c8383620005d0565b8152620006ad8360208401620005d0565b6020820152620006c18360408401620005d0565b6040820152620006d58360608401620005d0565b6060820152620006e98360808401620005d0565b6080820152620006fd8360a08401620005d0565b60a082015292915050565b600080600061010084860312156200071e578283fd5b6200072a8585620004cd565b60208501519093506001600160401b038082111562000747578384fd5b9085019060c082880312156200075b578384fd5b6200076760c0620009d5565b82518281111562000776578586fd5b6200078489828601620005e1565b82525060208301518281111562000799578586fd5b620007a789828601620005e1565b602083015250604083015182811115620007bf578586fd5b620007cd89828601620004eb565b604083015250606083015182811115620007e5578586fd5b620007f3898286016200056b565b6060830152506080830151828111156200080b578586fd5b62000819898286016200056b565b60808301525060a083015160a08201528094505050506200083e856040860162000670565b90509250925092565b6020808252825182820181905260009190848201906040850190845b818110156200088a5783516001600160a01b03168352928401929184019160010162000863565b50909695505050505050565b6020808252601a908201527f4552525f53544152545f574549474854535f4d49534d41544348000000000000604082015260600190565b6020808252601c908201527f4552525f4e4f545f434f4e464947555241424c455f5745494748545300000000604082015260600190565b6020808252601b908201527f4552525f53544152545f42414c414e4345535f4d49534d415443480000000000604082015260600190565b6020808252601290820152714552525f544f4f5f4645575f544f4b454e5360701b604082015260600190565b60208082526014908201527f4552525f494e56414c49445f535741505f464545000000000000000000000000604082015260600190565b60208082526013908201527f4552525f544f4f5f4d414e595f544f4b454e5300000000000000000000000000604082015260600190565b6040518181016001600160401b0381118282101715620009f457600080fd5b604052919050565b60006001600160401b0382111562000a12578081fd5b5060209081020190565b614d9a8062000a2c6000396000f3fe608060405234801561001057600080fd5b50600436106102885760003560e01c806302c967481461028d57806306fdde03146102b6578063095dcccc146102cb578063095ea7b3146102e05780630a165940146103005780630ce27925146103155780630f93ab471461031d57806318160ddd14610330578063220eb7601461033857806323b872dd1461034b578063246bc19b1461035e5780632e0f2625146103715780633018205f14610386578063313ce5671461038e57806334e199071461039657806337c6f4d9146103a957806346ab38f1146103bc57806347786d37146103cf57806349b59552146103e25780634ba57882146103f55780634c20d209146104085780634f69c0d41461041b57806355c32a231461042e5780635a8342d8146104415780635db34277146104575780635fa7b5841461046a578063661884631461047d5780636d06dfa01461049057806370a08231146104a357806374983a0d146104b6578063806c6f87146104be5780638259e6a0146104d157806392eefe9b146104e4578063948d8ce6146104f757806395d89b411461050a5780639776e94b14610512578063980e8db6146105205780639a82417e1461053a5780639d829c2b14610542578063a3f4df7e1461054a578063a835a0de14610552578063a9059cbb1461055a578063b02f0b731461056d578063b64ef17b14610580578063c275d81b14610588578063c3391d2714610590578063c42bd05a146105a3578063c83a1c2d146105bc578063d73dd623146105cf578063dd62ed3e146105e2578063e211b875146105f5578063e2762d4b146105fd578063e7f1a55414610610578063e854f53d14610618578063f226b52814610620578063fde924f714610628575b600080fd5b6102a061029b36600461411a565b610630565b6040516102ad9190614c4c565b60405180910390f35b6102be6107e5565b6040516102ad919061462d565b6102de6102d93660046140ef565b61087b565b005b6102f36102ee3660046140ef565b6108a8565b6040516102ad91906144b6565b610308610901565b6040516102ad91906143fc565b6102a0610910565b6102de61032b36600461405b565b610916565b6102a0610f86565b6102de6103463660046142e1565b610f8c565b6102f36103593660046140af565b610fb7565b6102de61036c3660046141e6565b6110e5565b610379611189565b6040516102ad9190614c63565b61030861118e565b61037961119d565b6102de6103a43660046142e1565b6111a2565b6102f36103b73660046142c2565b6112e7565b6102a06103ca36600461411a565b61137c565b6102de6103dd3660046142e1565b611518565b6102de6103f036600461426e565b611644565b6102de6104033660046142e1565b61174a565b6102de61041636600461411a565b611772565b6102de610429366004614311565b611993565b6102de61043c3660046140ef565b611d82565b610449611dab565b6040516102ad929190614c55565b6102a061046536600461411a565b611db4565b6102de61047836600461405b565b611f67565b6102f361048b3660046140ef565b612102565b6102a061049e36600461411a565b6121dc565b6102a06104b136600461405b565b61238f565b6103086123aa565b6102f36104cc36600461405b565b6123c2565b6102de6104df3660046142e1565b61240b565b6102de6104f236600461405b565b6124a0565b6102a061050536600461405b565b61254c565b6102be612619565b6102de61036c3660046140ef565b61052861267a565b6040516102ad969594939291906144c1565b6103086126b3565b6103086126cb565b6102be6126e3565b6102a0612712565b6102f36105683660046140ef565b612718565b6102de61057b366004614311565b612754565b610308612ad6565b6102de612ae5565b6102de61059e3660046143cb565b612c44565b6105ab612d0d565b6040516102ad95949392919061444e565b6102de6105ca36600461405b565b612d34565b6102f36105dd3660046140ef565b612e27565b6102a06105f0366004614077565b612e9b565b6102de612ec6565b6102de61060b36600461405b565b612f28565b6102a061304f565b6102a0613055565b6102a061305b565b6102f3613062565b60405160009033906001600160e01b03198335169061065290849036906144f1565b60405180910390a2600260065414156106865760405162461bcd60e51b815260040161067d906148d9565b60405180910390fd5b60026006556008546001600160a01b03166106b35760405162461bcd60e51b815260040161067d90614831565b60085460405163724a2d5360e01b8152600091829173A3F9145CB0B50D907930840BB2dcfF4146df8Ab49163724a2d53916107049130916001600160a01b03909116908b908b908b90600401614574565b604080518083038186803b15801561071b57600080fd5b505af415801561072f573d6000803e3d6000fd5b505050506040513d601f19601f82011682018060405250810190610753919061435a565b915091508092506000610766848461313a565b9050866001600160a01b0316336001600160a01b0316600080516020614ce5833981519152886040516107999190614c4c565b60405180910390a36107ab3385611da1565b6107b481610fab565b6007546107ca906001600160a01b03168461089a565b6107d5873388613173565b5050505b60016006559392505050565b60048054604080516020601f60026000196101006001881615020190951694909404938401819004810282018101909252828152606093909290918301828280156108715780601f1061084657610100808354040283529160200191610871565b820191906000526020600020905b81548152906001019060200180831161085457829003601f168201915b5050505050905090565b33301461089a5760405162461bcd60e51b815260040161067d90614680565b6108a482826133bc565b5050565b3360008181526002602090815260408083206001600160a01b03871680855292528083208590555191929091600080516020614d25833981519152906108ef908690614c4c565b60405180910390a35060015b92915050565b6007546001600160a01b031681565b60185481565b336001600160a01b03166000356001600160e01b0319166001600160e01b0319166000366040516109489291906144f1565b60405180910390a2600260065414156109735760405162461bcd60e51b815260040161067d906148d9565b60026006556008546001600160a01b03166109a05760405162461bcd60e51b815260040161067d90614831565b600854604051630bcded8960e21b81526001600160a01b0390911690632f37b624906109d09084906004016143fc565b60206040518083038186803b1580156109e857600080fd5b505afa1580156109fc573d6000803e3d6000fd5b505050506040513d601f19601f82011682018060405250810190610a20919061428a565b610a3c5760405162461bcd60e51b815260040161067d906148fe565b60085460405163f8b2cb4f60e01b81526000916001600160a01b03169063f8b2cb4f90610a6d9085906004016143fc565b60206040518083038186803b158015610a8557600080fd5b505afa158015610a99573d6000803e3d6000fd5b505050506040513d601f19601f82011682018060405250810190610abd91906142f9565b600854604051631185197d60e31b81529192506001600160a01b031690638c28cbe890610aee9085906004016143fc565b600060405180830381600087803b158015610b0857600080fd5b505af1158015610b1c573d6000803e3d6000fd5b505060085460405163f8b2cb4f60e01b8152600093506001600160a01b03909116915063f8b2cb4f90610b539086906004016143fc565b60206040518083038186803b158015610b6b57600080fd5b505afa158015610b7f573d6000803e3d6000fd5b505050506040513d601f19601f82011682018060405250810190610ba391906142f9565b905080821415610bb4575050610f7e565b600854604051634a46c67360e11b81526000916001600160a01b03169063948d8ce690610be59087906004016143fc565b60206040518083038186803b158015610bfd57600080fd5b505afa158015610c11573d6000803e3d6000fd5b505050506040513d601f19601f82011682018060405250810190610c3591906142f9565b90506000610c4c610c4683856133c7565b85613444565b90506000610c6c610c67610c6085856133c7565b6001613444565b6134d5565b90506060600860009054906101000a90046001600160a01b03166001600160a01b031663cc77828d6040518163ffffffff1660e01b815260040160006040518083038186803b158015610cbe57600080fd5b505afa158015610cd2573d6000803e3d6000fd5b505050506040513d6000823e601f3d908101601f19168201604052610cfa919081019061414e565b905060005b8151811015610f7657876001600160a01b0316828281518110610d1e57fe5b60200260200101516001600160a01b03161415610da057600854604051631feeed5160e11b81526001600160a01b0390911690633fdddaa290610d69908b908a908890600401614495565b600060405180830381600087803b158015610d8357600080fd5b505af1158015610d97573d6000803e3d6000fd5b50505050610f6e565b60085482516000916001600160a01b03169063948d8ce690859085908110610dc457fe5b60200260200101516040518263ffffffff1660e01b8152600401610de891906143fc565b60206040518083038186803b158015610e0057600080fd5b505afa158015610e14573d6000803e3d6000fd5b505050506040513d601f19601f82011682018060405250810190610e3891906142f9565b60085484519192506000916001600160a01b039091169063f8b2cb4f90869086908110610e6157fe5b60200260200101516040518263ffffffff1660e01b8152600401610e8591906143fc565b60206040518083038186803b158015610e9d57600080fd5b505afa158015610eb1573d6000803e3d6000fd5b505050506040513d601f19601f82011682018060405250810190610ed591906142f9565b90506000610eec610ee687856133c7565b88613444565b60085486519192506001600160a01b031690633fdddaa290879087908110610f1057fe5b602002602001015184846040518463ffffffff1660e01b8152600401610f3893929190614495565b600060405180830381600087803b158015610f5257600080fd5b505af1158015610f66573d6000803e3d6000fd5b505050505050505b600101610cff565b505050505050505b506001600655565b60005490565b333014610fab5760405162461bcd60e51b815260040161067d90614680565b610fb481613526565b50565b60006001600160a01b038316610fdf5760405162461bcd60e51b815260040161067d906147a5565b336001600160a01b038516148061101957506001600160a01b03841660009081526002602090815260408083203384529091529020548211155b6110355760405162461bcd60e51b815260040161067d90614a58565b61104084848461358e565b6001600160a01b038416600081815260026020908152604080832033808552925290912054911480159061107657506000198114155b156110d857611085818461313a565b6001600160a01b038681166000908152600260209081526040808320338085529252918290208490559051918716929091600080516020614d25833981519152916110cf91614c4c565b60405180910390a35b60019150505b9392505050565b336001600160a01b03166000356001600160e01b0319166001600160e01b0319166000366040516111179291906144f1565b60405180910390a26005546001600160a01b031633146111495760405162461bcd60e51b815260040161067d90614680565b6008546001600160a01b03166111715760405162461bcd60e51b815260040161067d90614831565b60405162461bcd60e51b815260040161067d90614717565b601281565b6005546001600160a01b031690565b601290565b336001600160a01b03166000356001600160e01b0319166001600160e01b0319166000366040516111d49291906144f1565b60405180910390a2600260065414156111ff5760405162461bcd60e51b815260040161067d906148d9565b60026006556005546001600160a01b0316331461122e5760405162461bcd60e51b815260040161067d90614680565b6008546001600160a01b03166112565760405162461bcd60e51b815260040161067d90614831565b600954610100900460ff1661127d5760405162461bcd60e51b815260040161067d90614b6a565b6008546040516334e1990760e01b81526001600160a01b03909116906334e19907906112ad908490600401614c4c565b600060405180830381600087803b1580156112c757600080fd5b505af11580156112db573d6000803e3d6000fd5b50506001600655505050565b6040516322c1aa2560e11b8152600090730F811b1AF2B6B447B008eFF31eCceeE5A0b1d84290634583544a90611324906009908690600401614bd7565b60206040518083038186803b15801561133c57600080fd5b505af4158015611350573d6000803e3d6000fd5b505050506040513d601f19601f82011682018060405250810190611374919061428a565b90505b919050565b60405160009033906001600160e01b03198335169061139e90849036906144f1565b60405180910390a2600260065414156113c95760405162461bcd60e51b815260040161067d906148d9565b60026006556008546001600160a01b03166113f65760405162461bcd60e51b815260040161067d90614831565b600854604051636a82d4a760e11b8152600091829173A3F9145CB0B50D907930840BB2dcfF4146df8Ab49163d505a94e916114479130916001600160a01b03909116908b908b908b90600401614574565b604080518083038186803b15801561145e57600080fd5b505af4158015611472573d6000803e3d6000fd5b505050506040513d601f19601f82011682018060405250810190611496919061435a565b9150915080925060006114a9868461313a565b9050866001600160a01b0316336001600160a01b0316600080516020614ce5833981519152866040516114dc9190614c4c565b60405180910390a36114ee3387611da1565b6114f781610fab565b60075461150d906001600160a01b03168461089a565b6107d5873386613173565b336001600160a01b03166000356001600160e01b0319166001600160e01b03191660003660405161154a9291906144f1565b60405180910390a2600260065414156115755760405162461bcd60e51b815260040161067d906148d9565b60026006556008546001600160a01b03166115a25760405162461bcd60e51b815260040161067d90614831565b6005546001600160a01b031633146115cc5760405162461bcd60e51b815260040161067d90614680565b600954600160281b900460ff166115f55760405162461bcd60e51b815260040161067d906149a6565b336001600160a01b03167f6bc200110c7794738d401810b22ef824a2044a8ccb022d4ad8769840370331f560185483604051611632929190614c55565b60405180910390a26018556001600655565b336001600160a01b03166000356001600160e01b0319166001600160e01b0319166000366040516116769291906144f1565b60405180910390a2600260065414156116a15760405162461bcd60e51b815260040161067d906148d9565b60026006556005546001600160a01b031633146116d05760405162461bcd60e51b815260040161067d90614680565b6008546001600160a01b03166116f85760405162461bcd60e51b815260040161067d90614831565b60095460ff1661171a5760405162461bcd60e51b815260040161067d90614ae6565b6008546040516324dacaa960e11b81526001600160a01b03909116906349b59552906112ad9084906004016144b6565b3330146117695760405162461bcd60e51b815260040161067d90614680565b610fb48161362d565b336001600160a01b03166000356001600160e01b0319166001600160e01b0319166000366040516117a49291906144f1565b60405180910390a2600260065414156117cf5760405162461bcd60e51b815260040161067d906148d9565b60026006556005546001600160a01b031633146117fe5760405162461bcd60e51b815260040161067d90614680565b6008546001600160a01b03166118265760405162461bcd60e51b815260040161067d90614831565b6009546301000000900460ff1661184f5760405162461bcd60e51b815260040161067d906146ac565b600a541561186f5760405162461bcd60e51b815260040161067d90614ba1565b604051630e0d789b60e11b815273A3F9145CB0B50D907930840BB2dcfF4146df8Ab490631c1af136906118a69086906004016143fc565b60006040518083038186803b1580156118be57600080fd5b505af41580156118d2573d6000803e3d6000fd5b50506040513392503091506001600160a01b038616907f33b043686b9408a355896fe90b2f8ecc86a41d87d1554ef65a739948b4f23e2790600090a460085460405163b489ec1960e01b815273A3F9145CB0B50D907930840BB2dcfF4146df8Ab49163b489ec1991611959916001600160a01b031690879087908790600e90600401614520565b60006040518083038186803b15801561197157600080fd5b505af4158015611985573d6000803e3d6000fd5b505060016006555050505050565b336001600160a01b03166000356001600160e01b0319166001600160e01b0319166000366040516119c59291906144f1565b60405180910390a2600260065414156119f05760405162461bcd60e51b815260040161067d906148d9565b60026006556008546001600160a01b0316611a1d5760405162461bcd60e51b815260040161067d90614831565b6008546040805163fde924f760e01b815290516000926001600160a01b03169163fde924f7916004808301926020929190829003018186803b158015611a6257600080fd5b505afa158015611a76573d6000803e3d6000fd5b505050506040513d601f19601f82011682018060405250810190611a9a919061428a565b6008546040516324dacaa960e11b81529192506001600160a01b0316906349b5955290611acc906000906004016144b6565b600060405180830381600087803b158015611ae657600080fd5b505af1158015611afa573d6000803e3d6000fd5b5050600954600160201b900460ff16159150819050611b2857503360009081526017602052604090205460ff165b611b445760405162461bcd60e51b815260040161067d9061474a565b60085460405163a1925f1d60e01b815260609173A3F9145CB0B50D907930840BB2dcfF4146df8Ab49163a1925f1d91611b919130916001600160a01b0316908a908a908a906004016145a8565b60006040518083038186803b158015611ba957600080fd5b505af4158015611bbd573d6000803e3d6000fd5b505050506040513d6000823e601f3d908101601f19168201604052611be59190810190614234565b90506060600860009054906101000a90046001600160a01b03166001600160a01b031663cc77828d6040518163ffffffff1660e01b815260040160006040518083038186803b158015611c3757600080fd5b505afa158015611c4b573d6000803e3d6000fd5b505050506040513d6000823e601f3d908101601f19168201604052611c73919081019061414e565b905060005b8151811015611cff576000828281518110611c8f57fe5b602002602001015190506000848381518110611ca757fe5b60200260200101519050816001600160a01b0316336001600160a01b0316600080516020614d4583398151915283604051611ce29190614c4c565b60405180910390a3611cf582338361365a565b5050600101611c78565b50611d0986611769565b611d13338761089a565b50506008546040516324dacaa960e11b81526001600160a01b03909116906349b5955290611d459084906004016144b6565b600060405180830381600087803b158015611d5f57600080fd5b505af1158015611d73573d6000803e3d6000fd5b50506001600655505050505050565b333014611da15760405162461bcd60e51b815260040161067d90614680565b6108a482826138a3565b600a54600b5482565b60405160009033906001600160e01b031983351690611dd690849036906144f1565b60405180910390a260026006541415611e015760405162461bcd60e51b815260040161067d906148d9565b60026006556008546001600160a01b0316611e2e5760405162461bcd60e51b815260040161067d90614831565b600954600160201b900460ff161580611e5657503360009081526017602052604090205460ff165b611e725760405162461bcd60e51b815260040161067d9061474a565b60085460405163df90de0b60e01b815273A3F9145CB0B50D907930840BB2dcfF4146df8Ab49163df90de0b91611ebe9130916001600160a01b0390911690899089908990600401614574565b60206040518083038186803b158015611ed657600080fd5b505af4158015611eea573d6000803e3d6000fd5b505050506040513d601f19601f82011682018060405250810190611f0e91906142f9565b9050836001600160a01b0316336001600160a01b0316600080516020614d4583398151915285604051611f419190614c4c565b60405180910390a3611f5281611769565b611f5c338261089a565b6107d984338561365a565b336001600160a01b03166000356001600160e01b0319166001600160e01b031916600036604051611f999291906144f1565b60405180910390a260026006541415611fc45760405162461bcd60e51b815260040161067d906148d9565b60026006556005546001600160a01b03163314611ff35760405162461bcd60e51b815260040161067d90614680565b6008546001600160a01b031661201b5760405162461bcd60e51b815260040161067d90614831565b6009546301000000900460ff166120445760405162461bcd60e51b815260040161067d906146ac565b600e54600160a01b900460ff161561206e5760405162461bcd60e51b815260040161067d90614a88565b600a541561208e5760405162461bcd60e51b815260040161067d90614ba1565b600854604051630970e47f60e01b815273A3F9145CB0B50D907930840BB2dcfF4146df8Ab491630970e47f916120d69130916001600160a01b03909116908690600401614551565b60006040518083038186803b1580156120ee57600080fd5b505af41580156112db573d6000803e3d6000fd5b3360009081526002602090815260408083206001600160a01b0386168452909152812054808310612156573360009081526002602090815260408083206001600160a01b0388168452909152812055612185565b612160818461313a565b3360009081526002602090815260408083206001600160a01b03891684529091529020555b3360008181526002602090815260408083206001600160a01b038916808552925291829020549151909291600080516020614d25833981519152916121ca9190614c4c565b60405180910390a35060019392505050565b60405160009033906001600160e01b0319833516906121fe90849036906144f1565b60405180910390a2600260065414156122295760405162461bcd60e51b815260040161067d906148d9565b60026006556008546001600160a01b03166122565760405162461bcd60e51b815260040161067d90614831565b600954600160201b900460ff16158061227e57503360009081526017602052604090205460ff165b61229a5760405162461bcd60e51b815260040161067d9061474a565b600854604051636a6dc6e760e01b815273A3F9145CB0B50D907930840BB2dcfF4146df8Ab491636a6dc6e7916122e69130916001600160a01b0390911690899089908990600401614574565b60206040518083038186803b1580156122fe57600080fd5b505af4158015612312573d6000803e3d6000fd5b505050506040513d601f19601f8201168201806040525081019061233691906142f9565b9050836001600160a01b0316336001600160a01b0316600080516020614d45833981519152836040516123699190614c4c565b60405180910390a361237a83611769565b612384338461089a565b6107d984338361365a565b6001600160a01b031660009081526001602052604090205490565b730F811b1AF2B6B447B008eFF31eCceeE5A0b1d84290565b600954600090600160201b900460ff16156123f957506001600160a01b03811660009081526017602052604090205460ff16611377565b506001600160a01b0381161515611377565b6005546001600160a01b031633146124355760405162461bcd60e51b815260040161067d90614680565b336001600160a01b03166000356001600160e01b0319166001600160e01b0319166000366040516124679291906144f1565b60405180910390a2600260065414156124925760405162461bcd60e51b815260040161067d906148d9565b6002600655610f7e816138ae565b6005546001600160a01b031633146124ca5760405162461bcd60e51b815260040161067d90614680565b6001600160a01b0381166124f05760405162461bcd60e51b815260040161067d906147a5565b6005546040516001600160a01b038084169216907f8be0079c531659141344cd1fd0a4f28419497f9722a3daafe3b4186f6b6457e090600090a3600580546001600160a01b0319166001600160a01b0392909216919091179055565b6000600260065414156125715760405162461bcd60e51b815260040161067d90614925565b6008546001600160a01b03166125995760405162461bcd60e51b815260040161067d90614831565b600854604051634a46c67360e11b81526001600160a01b039091169063948d8ce6906125c99085906004016143fc565b60206040518083038186803b1580156125e157600080fd5b505afa1580156125f5573d6000803e3d6000fd5b505050506040513d601f19601f8201168201806040525081019061137491906142f9565b60038054604080516020601f60026000196101006001881615020190951694909404938401819004810282018101909252828152606093909290918301828280156108715780601f1061084657610100808354040283529160200191610871565b60095460ff80821691610100810482169162010000820481169163010000008104821691600160201b8204811691600160281b90041686565b73CfE28868F6E0A24b7333D22D8943279e76aC2cdc90565b73A3F9145CB0B50D907930840BB2dcfF4146df8Ab490565b6040518060400160405280601381526020017210985b185b98d95c8814db585c9d08141bdbdb606a1b81525081565b6101f481565b60006001600160a01b0383166127405760405162461bcd60e51b815260040161067d906147a5565b61274b33848461358e565b50600192915050565b336001600160a01b03166000356001600160e01b0319166001600160e01b0319166000366040516127869291906144f1565b60405180910390a2600260065414156127b15760405162461bcd60e51b815260040161067d906148d9565b60026006556008546001600160a01b03166127de5760405162461bcd60e51b815260040161067d90614831565b6008546040805163fde924f760e01b815290516000926001600160a01b03169163fde924f7916004808301926020929190829003018186803b15801561282357600080fd5b505afa158015612837573d6000803e3d6000fd5b505050506040513d601f19601f8201168201806040525081019061285b919061428a565b6008546040516324dacaa960e11b81529192506001600160a01b0316906349b595529061288d906000906004016144b6565b600060405180830381600087803b1580156128a757600080fd5b505af11580156128bb573d6000803e3d6000fd5b505060085460405163151c70f960e21b81526000935083925060609173A3F9145CB0B50D907930840BB2dcfF4146df8Ab491635471c3e4916129119130916001600160a01b0316908c908c908c906004016145a8565b60006040518083038186803b15801561292957600080fd5b505af415801561293d573d6000803e3d6000fd5b505050506040513d6000823e601f3d908101601f19168201604052612965919081019061437d565b9250925092506129753388611da1565b60075461298b906001600160a01b03168461089a565b61299482610fab565b6008546040805163cc77828d60e01b815290516060926001600160a01b03169163cc77828d916004808301926000929190829003018186803b1580156129d957600080fd5b505afa1580156129ed573d6000803e3d6000fd5b505050506040513d6000823e601f3d908101601f19168201604052612a15919081019061414e565b905060005b8151811015612aa1576000828281518110612a3157fe5b602002602001015190506000848381518110612a4957fe5b60200260200101519050816001600160a01b0316336001600160a01b0316600080516020614ce583398151915283604051612a849190614c4c565b60405180910390a3612a97823383613173565b5050600101612a1a565b50506008546040516324dacaa960e11b81526001600160a01b0390911693506349b595529250611d45915084906004016144b6565b6008546001600160a01b031681565b336001600160a01b03166000356001600160e01b0319166001600160e01b031916600036604051612b179291906144f1565b60405180910390a260026006541415612b425760405162461bcd60e51b815260040161067d906148d9565b60026006556005546001600160a01b03163314612b715760405162461bcd60e51b815260040161067d90614680565b6008546001600160a01b0316612b995760405162461bcd60e51b815260040161067d90614831565b6009546301000000900460ff16612bc25760405162461bcd60e51b815260040161067d906146ac565b600854601654604051633be961dd60e21b815273A3F9145CB0B50D907930840BB2dcfF4146df8Ab49263efa5877492612c0d9230926001600160a01b03169190600e90600401614604565b60006040518083038186803b158015612c2557600080fd5b505af4158015612c39573d6000803e3d6000fd5b505060016006555050565b6005546001600160a01b03163314612c6e5760405162461bcd60e51b815260040161067d90614680565b336001600160a01b03166000356001600160e01b0319166001600160e01b031916600036604051612ca09291906144f1565b60405180910390a260026006541415612ccb5760405162461bcd60e51b815260040161067d906148d9565b600260065580821015612cf05760405162461bcd60e51b815260040161067d906146e2565b60158290556016819055612d03836138ae565b5050600160065550565b600e54600f546010546011546001600160a01b03841693600160a01b900460ff1692919085565b6005546001600160a01b03163314612d5e5760405162461bcd60e51b815260040161067d90614680565b60026006541415612d815760405162461bcd60e51b815260040161067d906148d9565b60026006556040513390600080356001600160e01b03191691612da6919036906144f1565b60405180910390a2600954600160201b900460ff16612dd75760405162461bcd60e51b815260040161067d906147cf565b6001600160a01b038116612dfd5760405162461bcd60e51b815260040161067d9061494f565b6001600160a01b03166000908152601760205260409020805460ff19166001908117909155600655565b3360009081526002602090815260408083206001600160a01b0386168452909152812054612e559083613d57565b3360008181526002602090815260408083206001600160a01b03891680855292529182902084905590519092600080516020614d25833981519152916108ef9190614c4c565b6001600160a01b03918216600090815260026020908152604080832093909416825291909152205490565b336001600160a01b03166000356001600160e01b0319166001600160e01b031916600036604051612ef89291906144f1565b60405180910390a26008546001600160a01b03166111715760405162461bcd60e51b815260040161067d90614831565b6005546001600160a01b03163314612f525760405162461bcd60e51b815260040161067d90614680565b60026006541415612f755760405162461bcd60e51b815260040161067d906148d9565b60026006556040513390600080356001600160e01b03191691612f9a919036906144f1565b60405180910390a2600954600160201b900460ff16612fcb5760405162461bcd60e51b815260040161067d906147cf565b6001600160a01b03811660009081526017602052604090205460ff166130035760405162461bcd60e51b815260040161067d90614801565b6001600160a01b0381166130295760405162461bcd60e51b815260040161067d9061494f565b6001600160a01b03166000908152601760205260409020805460ff191690556001600655565b60165481565b60155481565b62015f9081565b6000600260065414156130875760405162461bcd60e51b815260040161067d90614925565b6008546001600160a01b03166130af5760405162461bcd60e51b815260040161067d90614831565b600860009054906101000a90046001600160a01b03166001600160a01b031663fde924f76040518163ffffffff1660e01b815260040160206040518083038186803b1580156130fd57600080fd5b505afa158015613111573d6000803e3d6000fd5b505050506040513d601f19601f82011682018060405250810190613135919061428a565b905090565b60008060006131498585613d7c565b91509150801561316b5760405162461bcd60e51b815260040161067d90614b15565b509392505050565b6008546001600160a01b031661319b5760405162461bcd60e51b815260040161067d90614831565b60085460405163f8b2cb4f60e01b81526000916001600160a01b03169063f8b2cb4f906131cc9087906004016143fc565b60206040518083038186803b1580156131e457600080fd5b505afa1580156131f8573d6000803e3d6000fd5b505050506040513d601f19601f8201168201806040525081019061321c91906142f9565b600854604051634a46c67360e11b81529192506000916001600160a01b039091169063948d8ce6906132529088906004016143fc565b60206040518083038186803b15801561326a57600080fd5b505afa15801561327e573d6000803e3d6000fd5b505050506040513d601f19601f820116820180604052508101906132a291906142f9565b6008549091506001600160a01b0316633fdddaa2866132c1858761313a565b846040518463ffffffff1660e01b81526004016132e093929190614495565b600060405180830381600087803b1580156132fa57600080fd5b505af115801561330e573d6000803e3d6000fd5b505060405163a9059cbb60e01b8152600092506001600160a01b038816915063a9059cbb90613343908890889060040161447c565b602060405180830381600087803b15801561335d57600080fd5b505af1158015613371573d6000803e3d6000fd5b505050506040513d601f19601f82011682018060405250810190613395919061428a565b9050806133b45760405162461bcd60e51b815260040161067d90614abd565b505050505050565b6108a430838361358e565b6000826133d6575060006108fb565b828202828482816133e357fe5b04146134015760405162461bcd60e51b815260040161067d9061497c565b6706f05b59d3b2000081018181101561342c5760405162461bcd60e51b815260040161067d9061497c565b6000670de0b6b3a7640000825b049695505050505050565b6000816134635760405162461bcd60e51b815260040161067d906149d5565b82613470575060006108fb565b670de0b6b3a76400008381029084828161348657fe5b04146134a45760405162461bcd60e51b815260040161067d906148af565b600283048101818110156134ca5760405162461bcd60e51b815260040161067d906148af565b600084828161343957fe5b60006003821115613518575080600160028204015b818110156135125780915060028182858161350157fe5b04018161350a57fe5b0490506134ea565b50611377565b811561137757506001919050565b30600090815260016020526040902054613540908261313a565b306000908152600160205260408120919091555461355e908261313a565b60009081556040513090600080516020614d0583398151915290613583908590614c4c565b60405180910390a350565b6001600160a01b0383166000908152600160205260409020546135b1908261313a565b6001600160a01b0380851660009081526001602052604080822093909355908416815220546135e09082613d57565b6001600160a01b038084166000818152600160205260409081902093909355915190851690600080516020614d0583398151915290613620908590614c4c565b60405180910390a3505050565b61363681613da1565b6018546000541115610fb45760405162461bcd60e51b815260040161067d90614a29565b6008546001600160a01b03166136825760405162461bcd60e51b815260040161067d90614831565b60085460405163f8b2cb4f60e01b81526000916001600160a01b03169063f8b2cb4f906136b39087906004016143fc565b60206040518083038186803b1580156136cb57600080fd5b505afa1580156136df573d6000803e3d6000fd5b505050506040513d601f19601f8201168201806040525081019061370391906142f9565b600854604051634a46c67360e11b81529192506000916001600160a01b039091169063948d8ce6906137399088906004016143fc565b60206040518083038186803b15801561375157600080fd5b505afa158015613765573d6000803e3d6000fd5b505050506040513d601f19601f8201168201806040525081019061378991906142f9565b90506000856001600160a01b03166323b872dd8630876040518463ffffffff1660e01b81526004016137bd93929190614410565b602060405180830381600087803b1580156137d757600080fd5b505af11580156137eb573d6000803e3d6000fd5b505050506040513d601f19601f8201168201806040525081019061380f919061428a565b90508061382e5760405162461bcd60e51b815260040161067d90614abd565b6008546001600160a01b0316633fdddaa28761384a8688613d57565b856040518463ffffffff1660e01b815260040161386993929190614495565b600060405180830381600087803b15801561388357600080fd5b505af1158015613897573d6000803e3d6000fd5b50505050505050505050565b6108a482308361358e565b6008546001600160a01b0316156138d75760405162461bcd60e51b815260040161067d9061485a565b68056bc75e2d631000008110156139005760405162461bcd60e51b815260040161067d90614882565b676765c793fa10079d601b1b81111561392b5760405162461bcd60e51b815260040161067d90614778565b600954600160281b900460ff16156139435760188190555b61394c81611769565b613956338261089a565b600760009054906101000a90046001600160a01b03166001600160a01b031663d556c5dc6040518163ffffffff1660e01b8152600401602060405180830381600087803b1580156139a657600080fd5b505af11580156139ba573d6000803e3d6000fd5b505050506040513d601f19601f820116820180604052508101906139de91906142a6565b600880546001600160a01b0319166001600160a01b0392831617908190556040805163632c068960e11b81529051919092169163c6580d12916004808301926020929190829003018186803b158015613a3657600080fd5b505afa158015613a4a573d6000803e3d6000fd5b505050506040513d601f19601f82011682018060405250810190613a6e91906142f9565b15613a8b5760405162461bcd60e51b815260040161067d906149fb565b60005b601354811015613c4d57600060138281548110613aa757fe5b6000918252602082200154601480546001600160a01b0390921693509084908110613ace57fe5b906000526020600020015490506000600a6002018481548110613aed57fe5b60009182526020822001546040516323b872dd60e01b81529092506001600160a01b038516906323b872dd90613b2b90339030908890600401614410565b602060405180830381600087803b158015613b4557600080fd5b505af1158015613b59573d6000803e3d6000fd5b505050506040513d601f19601f82011682018060405250810190613b7d919061428a565b905080613b9c5760405162461bcd60e51b815260040161067d90614abd565b600854613bb8906001600160a01b038681169116600019613dff565b905080613bd75760405162461bcd60e51b815260040161067d90614abd565b600854604051631c9c3ca760e31b81526001600160a01b039091169063e4e1e53890613c0b90879087908790600401614495565b600060405180830381600087803b158015613c2557600080fd5b505af1158015613c39573d6000803e3d6000fd5b505060019096019550613a8e945050505050565b505b60135415613c89576013805480613c6257fe5b600082815260209020810160001990810180546001600160a01b0319169055019055613c4f565b6008546012546040516334e1990760e01b81526001600160a01b03909216916334e1990791613cba91600401614c4c565b600060405180830381600087803b158015613cd457600080fd5b505af1158015613ce8573d6000803e3d6000fd5b50506008546040516324dacaa960e11b81526001600160a01b0390911692506349b595529150613d1d906001906004016144b6565b600060405180830381600087803b158015613d3757600080fd5b505af1158015613d4b573d6000803e3d6000fd5b50506000601255505050565b6000828201838110156110de5760405162461bcd60e51b815260040161067d90614b40565b600080838311613d925750508082036000613d9a565b505081810360015b9250929050565b30600090815260016020526040902054613dbb9082613d57565b3060009081526001602052604081209190915554613dd99082613d57565b6000908155604051309190600080516020614d0583398151915290613583908590614c4c565b600080846001600160a01b031663dd62ed3e30866040518363ffffffff1660e01b8152600401613e30929190614434565b60206040518083038186803b158015613e4857600080fd5b505afa158015613e5c573d6000803e3d6000fd5b505050506040513d601f19601f82011682018060405250810190613e8091906142f9565b905082811415613e945760019150506110de565b8015613f235760405163095ea7b360e01b81526001600160a01b0386169063095ea7b390613ec990879060009060040161447c565b602060405180830381600087803b158015613ee357600080fd5b505af1158015613ef7573d6000803e3d6000fd5b505050506040513d601f19601f82011682018060405250810190613f1b919061428a565b9150506110de565b60405163095ea7b360e01b81526001600160a01b0386169063095ea7b390613f51908790879060040161447c565b602060405180830381600087803b158015613f6b57600080fd5b505af1158015613f7f573d6000803e3d6000fd5b505050506040513d601f19601f82011682018060405250810190613fa3919061428a565b95945050505050565b60008083601f840112613fbd578081fd5b5081356001600160401b03811115613fd3578182fd5b6020830191508360208083028501011115613d9a57600080fd5b600082601f830112613ffd578081fd5b815161401061400b82614c97565b614c71565b81815291506020808301908481018184028601820187101561403157600080fd5b60005b8481101561405057815184529282019290820190600101614034565b505050505092915050565b60006020828403121561406c578081fd5b81356110de81614cc1565b60008060408385031215614089578081fd5b823561409481614cc1565b915060208301356140a481614cc1565b809150509250929050565b6000806000606084860312156140c3578081fd5b83356140ce81614cc1565b925060208401356140de81614cc1565b929592945050506040919091013590565b60008060408385031215614101578182fd5b823561410c81614cc1565b946020939093013593505050565b60008060006060848603121561412e578283fd5b833561413981614cc1565b95602085013595506040909401359392505050565b60006020808385031215614160578182fd5b82516001600160401b03811115614175578283fd5b8301601f81018513614185578283fd5b805161419361400b82614c97565b81815283810190838501858402850186018910156141af578687fd5b8694505b838510156141da5780516141c681614cc1565b8352600194909401939185019185016141b3565b50979650505050505050565b600080600080606085870312156141fb578081fd5b84356001600160401b03811115614210578182fd5b61421c87828801613fac565b90989097506020870135966040013595509350505050565b600060208284031215614245578081fd5b81516001600160401b0381111561425a578182fd5b61426684828501613fed565b949350505050565b60006020828403121561427f578081fd5b81356110de81614cd6565b60006020828403121561429b578081fd5b81516110de81614cd6565b6000602082840312156142b7578081fd5b81516110de81614cc1565b6000602082840312156142d3578081fd5b8135600681106110de578182fd5b6000602082840312156142f2578081fd5b5035919050565b60006020828403121561430a578081fd5b5051919050565b600080600060408486031215614325578081fd5b8335925060208401356001600160401b03811115614341578182fd5b61434d86828701613fac565b9497909650939450505050565b6000806040838503121561436c578182fd5b505080516020909101519092909150565b600080600060608486031215614391578081fd5b83516020850151604086015191945092506001600160401b038111156143b5578182fd5b6143c186828701613fed565b9150509250925092565b6000806000606084860312156143df578081fd5b505081359360208301359350604090920135919050565b15159052565b6001600160a01b0391909116815260200190565b6001600160a01b039384168152919092166020820152604081019190915260600190565b6001600160a01b0392831681529116602082015260400190565b6001600160a01b03959095168552921515602085015260408401919091526060830152608082015260a00190565b6001600160a01b03929092168252602082015260400190565b6001600160a01b039390931683526020830191909152604082015260600190565b901515815260200190565b9515158652931515602086015291151560408501521515606084015215156080830152151560a082015260c00190565b60006020825282602083015282846040840137818301604090810191909152601f909201601f19160101919050565b6001600160a01b03958616815293909416602084015260408301919091526060820152608081019190915260a00190565b6001600160a01b0393841681529183166020830152909116604082015260600190565b6001600160a01b03958616815293851660208501529190931660408301526060820192909252608081019190915260a00190565b6001600160a01b0386811682528516602082015260408101849052608060608201819052810182905260006001600160fb1b038311156145e6578081fd5b60208302808560a08501379190910160a00190815295945050505050565b6001600160a01b0394851681529290931660208301526040820152606081019190915260800190565b6000602080835283518082850152825b818110156146595785810183015185820160400152820161463d565b8181111561466a5783604083870101525b50601f01601f1916929092016040019392505050565b60208082526012908201527122a9292fa727aa2fa1a7a72a2927a62622a960711b604082015260600190565b6020808252601c908201527b4552525f43414e4e4f545f4144445f52454d4f56455f544f4b454e5360201b604082015260600190565b6020808252818101527f4552525f494e434f4e53495354454e545f544f4b454e5f54494d455f4c4f434b604082015260600190565b60208082526019908201527822a9292faaa729aaa82827a92a22a22fa7a822a920aa24a7a760391b604082015260600190565b60208082526014908201527311549497d393d517d3d397d5d2125511531254d560621b604082015260600190565b60208082526013908201527208aa4a4be929c92a8bea6aaa0a098b2be9a82b606b1b604082015260600190565b60208082526010908201526f4552525f5a45524f5f4144445245535360801b604082015260600190565b6020808252601890820152774552525f43414e4e4f545f57484954454c4953545f4c505360401b604082015260600190565b60208082526016908201527511549497d31417d393d517d5d2125511531254d5115160521b604082015260600190565b6020808252600f908201526e11549497d393d517d0d49150551151608a1b604082015260600190565b6020808252600e908201526d11549497d254d7d0d4915055115160921b604082015260600190565b60208082526013908201527222a9292fa4a724aa2fa9aaa828262cafa6a4a760691b604082015260600190565b60208082526010908201526f11549497d1125597d25395115493905360821b604082015260600190565b6020808252600b908201526a4552525f5245454e54525960a81b604082015260600190565b6020808252600d908201526c11549497d393d517d093d55391609a1b604082015260600190565b60208082526010908201526f4552525f5245454e5452595f5649455760801b604082015260600190565b6020808252601390820152724552525f494e56414c49445f4144445245535360681b604082015260600190565b60208082526010908201526f4552525f4d554c5f4f564552464c4f5760801b604082015260600190565b60208082526015908201527404552525f43414e4e4f545f4348414e47455f43415605c1b604082015260600190565b6020808252600c908201526b4552525f4449565f5a45524f60a01b604082015260600190565b6020808252601490820152734552525f4e4f4e5a45524f5f455849545f46454560601b604082015260600190565b60208082526015908201527411549497d0d05417d31253525517d4915050d21151605a1b604082015260600190565b60208082526016908201527522a9292fa821aa27a5a2a72fa120a22fa1a0a62622a960511b604082015260600190565b6020808252601b908201527a4552525f52454d4f56455f574954485f4144445f50454e44494e4760281b604082015260600190565b6020808252600f908201526e4552525f45524332305f46414c534560881b604082015260600190565b60208082526015908201527404552525f4e4f545f5041555341424c455f5357415605c1b604082015260600190565b6020808252601190820152704552525f5355425f554e444552464c4f5760781b604082015260600190565b60208082526010908201526f4552525f4144445f4f564552464c4f5760801b604082015260600190565b6020808252601d908201527f4552525f4e4f545f434f4e464947555241424c455f535741505f464545000000604082015260600190565b6020808252601c908201527b11549497d393d7d5541110551157d11554925391d7d1d4905115505360221b604082015260600190565b600060e082019050835460ff80821615158452808260081c1615156020850152808260101c1615156040850152808260181c1615156060850152614c2360808501828460201c166143f6565b614c3560a08501828460281c166143f6565b5050614c4083614cb6565b60c08301529392505050565b90815260200190565b918252602082015260400190565b60ff91909116815260200190565b6040518181016001600160401b0381118282101715614c8f57600080fd5b604052919050565b60006001600160401b03821115614cac578081fd5b5060209081020190565b806006811061137757fe5b6001600160a01b0381168114610fb457600080fd5b8015158114610fb457600080fdfec62fc35ac75e3bff532648e2859a3e1694002cfa357614ae8e034df7f83db5e9ddf252ad1be2c89b69c2b068fc378daa952ba7f163c4a11628f55a4df523b3ef8c5be1e5ebec7d5bd14f71427d1e84f3dd0314c0f7b2291e5b200ac8c7c3b925ea39e3b35c5cd8937999ed5f7fbab30acd562a931fc4a887fed2a47c3074aa72a26469706673582212201f01a975bc0a533982efcc1d0353d20d3fd094ca56689c39bd4bcafc4dc640d164736f6c634300060c0033",
  "deployedBytecode": "0x608060405234801561001057600080fd5b50600436106102885760003560e01c806302c967481461028d57806306fdde03146102b6578063095dcccc146102cb578063095ea7b3146102e05780630a165940146103005780630ce27925146103155780630f93ab471461031d57806318160ddd14610330578063220eb7601461033857806323b872dd1461034b578063246bc19b1461035e5780632e0f2625146103715780633018205f14610386578063313ce5671461038e57806334e199071461039657806337c6f4d9146103a957806346ab38f1146103bc57806347786d37146103cf57806349b59552146103e25780634ba57882146103f55780634c20d209146104085780634f69c0d41461041b57806355c32a231461042e5780635a8342d8146104415780635db34277146104575780635fa7b5841461046a578063661884631461047d5780636d06dfa01461049057806370a08231146104a357806374983a0d146104b6578063806c6f87146104be5780638259e6a0146104d157806392eefe9b146104e4578063948d8ce6146104f757806395d89b411461050a5780639776e94b14610512578063980e8db6146105205780639a82417e1461053a5780639d829c2b14610542578063a3f4df7e1461054a578063a835a0de14610552578063a9059cbb1461055a578063b02f0b731461056d578063b64ef17b14610580578063c275d81b14610588578063c3391d2714610590578063c42bd05a146105a3578063c83a1c2d146105bc578063d73dd623146105cf578063dd62ed3e146105e2578063e211b875146105f5578063e2762d4b146105fd578063e7f1a55414610610578063e854f53d14610618578063f226b52814610620578063fde924f714610628575b600080fd5b6102a061029b36600461411a565b610630565b6040516102ad9190614c4c565b60405180910390f35b6102be6107e5565b6040516102ad919061462d565b6102de6102d93660046140ef565b61087b565b005b6102f36102ee3660046140ef565b6108a8565b6040516102ad91906144b6565b610308610901565b6040516102ad91906143fc565b6102a0610910565b6102de61032b36600461405b565b610916565b6102a0610f86565b6102de6103463660046142e1565b610f8c565b6102f36103593660046140af565b610fb7565b6102de61036c3660046141e6565b6110e5565b610379611189565b6040516102ad9190614c63565b61030861118e565b61037961119d565b6102de6103a43660046142e1565b6111a2565b6102f36103b73660046142c2565b6112e7565b6102a06103ca36600461411a565b61137c565b6102de6103dd3660046142e1565b611518565b6102de6103f036600461426e565b611644565b6102de6104033660046142e1565b61174a565b6102de61041636600461411a565b611772565b6102de610429366004614311565b611993565b6102de61043c3660046140ef565b611d82565b610449611dab565b6040516102ad929190614c55565b6102a061046536600461411a565b611db4565b6102de61047836600461405b565b611f67565b6102f361048b3660046140ef565b612102565b6102a061049e36600461411a565b6121dc565b6102a06104b136600461405b565b61238f565b6103086123aa565b6102f36104cc36600461405b565b6123c2565b6102de6104df3660046142e1565b61240b565b6102de6104f236600461405b565b6124a0565b6102a061050536600461405b565b61254c565b6102be612619565b6102de61036c3660046140ef565b61052861267a565b6040516102ad969594939291906144c1565b6103086126b3565b6103086126cb565b6102be6126e3565b6102a0612712565b6102f36105683660046140ef565b612718565b6102de61057b366004614311565b612754565b610308612ad6565b6102de612ae5565b6102de61059e3660046143cb565b612c44565b6105ab612d0d565b6040516102ad95949392919061444e565b6102de6105ca36600461405b565b612d34565b6102f36105dd3660046140ef565b612e27565b6102a06105f0366004614077565b612e9b565b6102de612ec6565b6102de61060b36600461405b565b612f28565b6102a061304f565b6102a0613055565b6102a061305b565b6102f3613062565b60405160009033906001600160e01b03198335169061065290849036906144f1565b60405180910390a2600260065414156106865760405162461bcd60e51b815260040161067d906148d9565b60405180910390fd5b60026006556008546001600160a01b03166106b35760405162461bcd60e51b815260040161067d90614831565b60085460405163724a2d5360e01b8152600091829173__$fefb028005f68e7633c8c9bb2db5a02da7$__9163724a2d53916107049130916001600160a01b03909116908b908b908b90600401614574565b604080518083038186803b15801561071b57600080fd5b505af415801561072f573d6000803e3d6000fd5b505050506040513d601f19601f82011682018060405250810190610753919061435a565b915091508092506000610766848461313a565b9050866001600160a01b0316336001600160a01b0316600080516020614ce5833981519152886040516107999190614c4c565b60405180910390a36107ab3385611da1565b6107b481610fab565b6007546107ca906001600160a01b03168461089a565b6107d5873388613173565b5050505b60016006559392505050565b60048054604080516020601f60026000196101006001881615020190951694909404938401819004810282018101909252828152606093909290918301828280156108715780601f1061084657610100808354040283529160200191610871565b820191906000526020600020905b81548152906001019060200180831161085457829003601f168201915b5050505050905090565b33301461089a5760405162461bcd60e51b815260040161067d90614680565b6108a482826133bc565b5050565b3360008181526002602090815260408083206001600160a01b03871680855292528083208590555191929091600080516020614d25833981519152906108ef908690614c4c565b60405180910390a35060015b92915050565b6007546001600160a01b031681565b60185481565b336001600160a01b03166000356001600160e01b0319166001600160e01b0319166000366040516109489291906144f1565b60405180910390a2600260065414156109735760405162461bcd60e51b815260040161067d906148d9565b60026006556008546001600160a01b03166109a05760405162461bcd60e51b815260040161067d90614831565b600854604051630bcded8960e21b81526001600160a01b0390911690632f37b624906109d09084906004016143fc565b60206040518083038186803b1580156109e857600080fd5b505afa1580156109fc573d6000803e3d6000fd5b505050506040513d601f19601f82011682018060405250810190610a20919061428a565b610a3c5760405162461bcd60e51b815260040161067d906148fe565b60085460405163f8b2cb4f60e01b81526000916001600160a01b03169063f8b2cb4f90610a6d9085906004016143fc565b60206040518083038186803b158015610a8557600080fd5b505afa158015610a99573d6000803e3d6000fd5b505050506040513d601f19601f82011682018060405250810190610abd91906142f9565b600854604051631185197d60e31b81529192506001600160a01b031690638c28cbe890610aee9085906004016143fc565b600060405180830381600087803b158015610b0857600080fd5b505af1158015610b1c573d6000803e3d6000fd5b505060085460405163f8b2cb4f60e01b8152600093506001600160a01b03909116915063f8b2cb4f90610b539086906004016143fc565b60206040518083038186803b158015610b6b57600080fd5b505afa158015610b7f573d6000803e3d6000fd5b505050506040513d601f19601f82011682018060405250810190610ba391906142f9565b905080821415610bb4575050610f7e565b600854604051634a46c67360e11b81526000916001600160a01b03169063948d8ce690610be59087906004016143fc565b60206040518083038186803b158015610bfd57600080fd5b505afa158015610c11573d6000803e3d6000fd5b505050506040513d601f19601f82011682018060405250810190610c3591906142f9565b90506000610c4c610c4683856133c7565b85613444565b90506000610c6c610c67610c6085856133c7565b6001613444565b6134d5565b90506060600860009054906101000a90046001600160a01b03166001600160a01b031663cc77828d6040518163ffffffff1660e01b815260040160006040518083038186803b158015610cbe57600080fd5b505afa158015610cd2573d6000803e3d6000fd5b505050506040513d6000823e601f3d908101601f19168201604052610cfa919081019061414e565b905060005b8151811015610f7657876001600160a01b0316828281518110610d1e57fe5b60200260200101516001600160a01b03161415610da057600854604051631feeed5160e11b81526001600160a01b0390911690633fdddaa290610d69908b908a908890600401614495565b600060405180830381600087803b158015610d8357600080fd5b505af1158015610d97573d6000803e3d6000fd5b50505050610f6e565b60085482516000916001600160a01b03169063948d8ce690859085908110610dc457fe5b60200260200101516040518263ffffffff1660e01b8152600401610de891906143fc565b60206040518083038186803b158015610e0057600080fd5b505afa158015610e14573d6000803e3d6000fd5b505050506040513d601f19601f82011682018060405250810190610e3891906142f9565b60085484519192506000916001600160a01b039091169063f8b2cb4f90869086908110610e6157fe5b60200260200101516040518263ffffffff1660e01b8152600401610e8591906143fc565b60206040518083038186803b158015610e9d57600080fd5b505afa158015610eb1573d6000803e3d6000fd5b505050506040513d601f19601f82011682018060405250810190610ed591906142f9565b90506000610eec610ee687856133c7565b88613444565b60085486519192506001600160a01b031690633fdddaa290879087908110610f1057fe5b602002602001015184846040518463ffffffff1660e01b8152600401610f3893929190614495565b600060405180830381600087803b158015610f5257600080fd5b505af1158015610f66573d6000803e3d6000fd5b505050505050505b600101610cff565b505050505050505b506001600655565b60005490565b333014610fab5760405162461bcd60e51b815260040161067d90614680565b610fb481613526565b50565b60006001600160a01b038316610fdf5760405162461bcd60e51b815260040161067d906147a5565b336001600160a01b038516148061101957506001600160a01b03841660009081526002602090815260408083203384529091529020548211155b6110355760405162461bcd60e51b815260040161067d90614a58565b61104084848461358e565b6001600160a01b038416600081815260026020908152604080832033808552925290912054911480159061107657506000198114155b156110d857611085818461313a565b6001600160a01b038681166000908152600260209081526040808320338085529252918290208490559051918716929091600080516020614d25833981519152916110cf91614c4c565b60405180910390a35b60019150505b9392505050565b336001600160a01b03166000356001600160e01b0319166001600160e01b0319166000366040516111179291906144f1565b60405180910390a26005546001600160a01b031633146111495760405162461bcd60e51b815260040161067d90614680565b6008546001600160a01b03166111715760405162461bcd60e51b815260040161067d90614831565b60405162461bcd60e51b815260040161067d90614717565b601281565b6005546001600160a01b031690565b601290565b336001600160a01b03166000356001600160e01b0319166001600160e01b0319166000366040516111d49291906144f1565b60405180910390a2600260065414156111ff5760405162461bcd60e51b815260040161067d906148d9565b60026006556005546001600160a01b0316331461122e5760405162461bcd60e51b815260040161067d90614680565b6008546001600160a01b03166112565760405162461bcd60e51b815260040161067d90614831565b600954610100900460ff1661127d5760405162461bcd60e51b815260040161067d90614b6a565b6008546040516334e1990760e01b81526001600160a01b03909116906334e19907906112ad908490600401614c4c565b600060405180830381600087803b1580156112c757600080fd5b505af11580156112db573d6000803e3d6000fd5b50506001600655505050565b6040516322c1aa2560e11b815260009073__$4c39dc22c986e51e284e93a9c02f15a804$__90634583544a90611324906009908690600401614bd7565b60206040518083038186803b15801561133c57600080fd5b505af4158015611350573d6000803e3d6000fd5b505050506040513d601f19601f82011682018060405250810190611374919061428a565b90505b919050565b60405160009033906001600160e01b03198335169061139e90849036906144f1565b60405180910390a2600260065414156113c95760405162461bcd60e51b815260040161067d906148d9565b60026006556008546001600160a01b03166113f65760405162461bcd60e51b815260040161067d90614831565b600854604051636a82d4a760e11b8152600091829173__$fefb028005f68e7633c8c9bb2db5a02da7$__9163d505a94e916114479130916001600160a01b03909116908b908b908b90600401614574565b604080518083038186803b15801561145e57600080fd5b505af4158015611472573d6000803e3d6000fd5b505050506040513d601f19601f82011682018060405250810190611496919061435a565b9150915080925060006114a9868461313a565b9050866001600160a01b0316336001600160a01b0316600080516020614ce5833981519152866040516114dc9190614c4c565b60405180910390a36114ee3387611da1565b6114f781610fab565b60075461150d906001600160a01b03168461089a565b6107d5873386613173565b336001600160a01b03166000356001600160e01b0319166001600160e01b03191660003660405161154a9291906144f1565b60405180910390a2600260065414156115755760405162461bcd60e51b815260040161067d906148d9565b60026006556008546001600160a01b03166115a25760405162461bcd60e51b815260040161067d90614831565b6005546001600160a01b031633146115cc5760405162461bcd60e51b815260040161067d90614680565b600954600160281b900460ff166115f55760405162461bcd60e51b815260040161067d906149a6565b336001600160a01b03167f6bc200110c7794738d401810b22ef824a2044a8ccb022d4ad8769840370331f560185483604051611632929190614c55565b60405180910390a26018556001600655565b336001600160a01b03166000356001600160e01b0319166001600160e01b0319166000366040516116769291906144f1565b60405180910390a2600260065414156116a15760405162461bcd60e51b815260040161067d906148d9565b60026006556005546001600160a01b031633146116d05760405162461bcd60e51b815260040161067d90614680565b6008546001600160a01b03166116f85760405162461bcd60e51b815260040161067d90614831565b60095460ff1661171a5760405162461bcd60e51b815260040161067d90614ae6565b6008546040516324dacaa960e11b81526001600160a01b03909116906349b59552906112ad9084906004016144b6565b3330146117695760405162461bcd60e51b815260040161067d90614680565b610fb48161362d565b336001600160a01b03166000356001600160e01b0319166001600160e01b0319166000366040516117a49291906144f1565b60405180910390a2600260065414156117cf5760405162461bcd60e51b815260040161067d906148d9565b60026006556005546001600160a01b031633146117fe5760405162461bcd60e51b815260040161067d90614680565b6008546001600160a01b03166118265760405162461bcd60e51b815260040161067d90614831565b6009546301000000900460ff1661184f5760405162461bcd60e51b815260040161067d906146ac565b600a541561186f5760405162461bcd60e51b815260040161067d90614ba1565b604051630e0d789b60e11b815273__$fefb028005f68e7633c8c9bb2db5a02da7$__90631c1af136906118a69086906004016143fc565b60006040518083038186803b1580156118be57600080fd5b505af41580156118d2573d6000803e3d6000fd5b50506040513392503091506001600160a01b038616907f33b043686b9408a355896fe90b2f8ecc86a41d87d1554ef65a739948b4f23e2790600090a460085460405163b489ec1960e01b815273__$fefb028005f68e7633c8c9bb2db5a02da7$__9163b489ec1991611959916001600160a01b031690879087908790600e90600401614520565b60006040518083038186803b15801561197157600080fd5b505af4158015611985573d6000803e3d6000fd5b505060016006555050505050565b336001600160a01b03166000356001600160e01b0319166001600160e01b0319166000366040516119c59291906144f1565b60405180910390a2600260065414156119f05760405162461bcd60e51b815260040161067d906148d9565b60026006556008546001600160a01b0316611a1d5760405162461bcd60e51b815260040161067d90614831565b6008546040805163fde924f760e01b815290516000926001600160a01b03169163fde924f7916004808301926020929190829003018186803b158015611a6257600080fd5b505afa158015611a76573d6000803e3d6000fd5b505050506040513d601f19601f82011682018060405250810190611a9a919061428a565b6008546040516324dacaa960e11b81529192506001600160a01b0316906349b5955290611acc906000906004016144b6565b600060405180830381600087803b158015611ae657600080fd5b505af1158015611afa573d6000803e3d6000fd5b5050600954600160201b900460ff16159150819050611b2857503360009081526017602052604090205460ff165b611b445760405162461bcd60e51b815260040161067d9061474a565b60085460405163a1925f1d60e01b815260609173__$fefb028005f68e7633c8c9bb2db5a02da7$__9163a1925f1d91611b919130916001600160a01b0316908a908a908a906004016145a8565b60006040518083038186803b158015611ba957600080fd5b505af4158015611bbd573d6000803e3d6000fd5b505050506040513d6000823e601f3d908101601f19168201604052611be59190810190614234565b90506060600860009054906101000a90046001600160a01b03166001600160a01b031663cc77828d6040518163ffffffff1660e01b815260040160006040518083038186803b158015611c3757600080fd5b505afa158015611c4b573d6000803e3d6000fd5b505050506040513d6000823e601f3d908101601f19168201604052611c73919081019061414e565b905060005b8151811015611cff576000828281518110611c8f57fe5b602002602001015190506000848381518110611ca757fe5b60200260200101519050816001600160a01b0316336001600160a01b0316600080516020614d4583398151915283604051611ce29190614c4c565b60405180910390a3611cf582338361365a565b5050600101611c78565b50611d0986611769565b611d13338761089a565b50506008546040516324dacaa960e11b81526001600160a01b03909116906349b5955290611d459084906004016144b6565b600060405180830381600087803b158015611d5f57600080fd5b505af1158015611d73573d6000803e3d6000fd5b50506001600655505050505050565b333014611da15760405162461bcd60e51b815260040161067d90614680565b6108a482826138a3565b600a54600b5482565b60405160009033906001600160e01b031983351690611dd690849036906144f1565b60405180910390a260026006541415611e015760405162461bcd60e51b815260040161067d906148d9565b60026006556008546001600160a01b0316611e2e5760405162461bcd60e51b815260040161067d90614831565b600954600160201b900460ff161580611e5657503360009081526017602052604090205460ff165b611e725760405162461bcd60e51b815260040161067d9061474a565b60085460405163df90de0b60e01b815273__$fefb028005f68e7633c8c9bb2db5a02da7$__9163df90de0b91611ebe9130916001600160a01b0390911690899089908990600401614574565b60206040518083038186803b158015611ed657600080fd5b505af4158015611eea573d6000803e3d6000fd5b505050506040513d601f19601f82011682018060405250810190611f0e91906142f9565b9050836001600160a01b0316336001600160a01b0316600080516020614d4583398151915285604051611f419190614c4c565b60405180910390a3611f5281611769565b611f5c338261089a565b6107d984338561365a565b336001600160a01b03166000356001600160e01b0319166001600160e01b031916600036604051611f999291906144f1565b60405180910390a260026006541415611fc45760405162461bcd60e51b815260040161067d906148d9565b60026006556005546001600160a01b03163314611ff35760405162461bcd60e51b815260040161067d90614680565b6008546001600160a01b031661201b5760405162461bcd60e51b815260040161067d90614831565b6009546301000000900460ff166120445760405162461bcd60e51b815260040161067d906146ac565b600e54600160a01b900460ff161561206e5760405162461bcd60e51b815260040161067d90614a88565b600a541561208e5760405162461bcd60e51b815260040161067d90614ba1565b600854604051630970e47f60e01b815273__$fefb028005f68e7633c8c9bb2db5a02da7$__91630970e47f916120d69130916001600160a01b03909116908690600401614551565b60006040518083038186803b1580156120ee57600080fd5b505af41580156112db573d6000803e3d6000fd5b3360009081526002602090815260408083206001600160a01b0386168452909152812054808310612156573360009081526002602090815260408083206001600160a01b0388168452909152812055612185565b612160818461313a565b3360009081526002602090815260408083206001600160a01b03891684529091529020555b3360008181526002602090815260408083206001600160a01b038916808552925291829020549151909291600080516020614d25833981519152916121ca9190614c4c565b60405180910390a35060019392505050565b60405160009033906001600160e01b0319833516906121fe90849036906144f1565b60405180910390a2600260065414156122295760405162461bcd60e51b815260040161067d906148d9565b60026006556008546001600160a01b03166122565760405162461bcd60e51b815260040161067d90614831565b600954600160201b900460ff16158061227e57503360009081526017602052604090205460ff165b61229a5760405162461bcd60e51b815260040161067d9061474a565b600854604051636a6dc6e760e01b815273__$fefb028005f68e7633c8c9bb2db5a02da7$__91636a6dc6e7916122e69130916001600160a01b0390911690899089908990600401614574565b60206040518083038186803b1580156122fe57600080fd5b505af4158015612312573d6000803e3d6000fd5b505050506040513d601f19601f8201168201806040525081019061233691906142f9565b9050836001600160a01b0316336001600160a01b0316600080516020614d45833981519152836040516123699190614c4c565b60405180910390a361237a83611769565b612384338461089a565b6107d984338361365a565b6001600160a01b031660009081526001602052604090205490565b73__$4c39dc22c986e51e284e93a9c02f15a804$__90565b600954600090600160201b900460ff16156123f957506001600160a01b03811660009081526017602052604090205460ff16611377565b506001600160a01b0381161515611377565b6005546001600160a01b031633146124355760405162461bcd60e51b815260040161067d90614680565b336001600160a01b03166000356001600160e01b0319166001600160e01b0319166000366040516124679291906144f1565b60405180910390a2600260065414156124925760405162461bcd60e51b815260040161067d906148d9565b6002600655610f7e816138ae565b6005546001600160a01b031633146124ca5760405162461bcd60e51b815260040161067d90614680565b6001600160a01b0381166124f05760405162461bcd60e51b815260040161067d906147a5565b6005546040516001600160a01b038084169216907f8be0079c531659141344cd1fd0a4f28419497f9722a3daafe3b4186f6b6457e090600090a3600580546001600160a01b0319166001600160a01b0392909216919091179055565b6000600260065414156125715760405162461bcd60e51b815260040161067d90614925565b6008546001600160a01b03166125995760405162461bcd60e51b815260040161067d90614831565b600854604051634a46c67360e11b81526001600160a01b039091169063948d8ce6906125c99085906004016143fc565b60206040518083038186803b1580156125e157600080fd5b505afa1580156125f5573d6000803e3d6000fd5b505050506040513d601f19601f8201168201806040525081019061137491906142f9565b60038054604080516020601f60026000196101006001881615020190951694909404938401819004810282018101909252828152606093909290918301828280156108715780601f1061084657610100808354040283529160200191610871565b60095460ff80821691610100810482169162010000820481169163010000008104821691600160201b8204811691600160281b90041686565b73__$9cae36e6b1b60ebd723e3da15a5c2e74b0$__90565b73__$fefb028005f68e7633c8c9bb2db5a02da7$__90565b6040518060400160405280601381526020017210985b185b98d95c8814db585c9d08141bdbdb606a1b81525081565b6101f481565b60006001600160a01b0383166127405760405162461bcd60e51b815260040161067d906147a5565b61274b33848461358e565b50600192915050565b336001600160a01b03166000356001600160e01b0319166001600160e01b0319166000366040516127869291906144f1565b60405180910390a2600260065414156127b15760405162461bcd60e51b815260040161067d906148d9565b60026006556008546001600160a01b03166127de5760405162461bcd60e51b815260040161067d90614831565b6008546040805163fde924f760e01b815290516000926001600160a01b03169163fde924f7916004808301926020929190829003018186803b15801561282357600080fd5b505afa158015612837573d6000803e3d6000fd5b505050506040513d601f19601f8201168201806040525081019061285b919061428a565b6008546040516324dacaa960e11b81529192506001600160a01b0316906349b595529061288d906000906004016144b6565b600060405180830381600087803b1580156128a757600080fd5b505af11580156128bb573d6000803e3d6000fd5b505060085460405163151c70f960e21b81526000935083925060609173__$fefb028005f68e7633c8c9bb2db5a02da7$__91635471c3e4916129119130916001600160a01b0316908c908c908c906004016145a8565b60006040518083038186803b15801561292957600080fd5b505af415801561293d573d6000803e3d6000fd5b505050506040513d6000823e601f3d908101601f19168201604052612965919081019061437d565b9250925092506129753388611da1565b60075461298b906001600160a01b03168461089a565b61299482610fab565b6008546040805163cc77828d60e01b815290516060926001600160a01b03169163cc77828d916004808301926000929190829003018186803b1580156129d957600080fd5b505afa1580156129ed573d6000803e3d6000fd5b505050506040513d6000823e601f3d908101601f19168201604052612a15919081019061414e565b905060005b8151811015612aa1576000828281518110612a3157fe5b602002602001015190506000848381518110612a4957fe5b60200260200101519050816001600160a01b0316336001600160a01b0316600080516020614ce583398151915283604051612a849190614c4c565b60405180910390a3612a97823383613173565b5050600101612a1a565b50506008546040516324dacaa960e11b81526001600160a01b0390911693506349b595529250611d45915084906004016144b6565b6008546001600160a01b031681565b336001600160a01b03166000356001600160e01b0319166001600160e01b031916600036604051612b179291906144f1565b60405180910390a260026006541415612b425760405162461bcd60e51b815260040161067d906148d9565b60026006556005546001600160a01b03163314612b715760405162461bcd60e51b815260040161067d90614680565b6008546001600160a01b0316612b995760405162461bcd60e51b815260040161067d90614831565b6009546301000000900460ff16612bc25760405162461bcd60e51b815260040161067d906146ac565b600854601654604051633be961dd60e21b815273__$fefb028005f68e7633c8c9bb2db5a02da7$__9263efa5877492612c0d9230926001600160a01b03169190600e90600401614604565b60006040518083038186803b158015612c2557600080fd5b505af4158015612c39573d6000803e3d6000fd5b505060016006555050565b6005546001600160a01b03163314612c6e5760405162461bcd60e51b815260040161067d90614680565b336001600160a01b03166000356001600160e01b0319166001600160e01b031916600036604051612ca09291906144f1565b60405180910390a260026006541415612ccb5760405162461bcd60e51b815260040161067d906148d9565b600260065580821015612cf05760405162461bcd60e51b815260040161067d906146e2565b60158290556016819055612d03836138ae565b5050600160065550565b600e54600f546010546011546001600160a01b03841693600160a01b900460ff1692919085565b6005546001600160a01b03163314612d5e5760405162461bcd60e51b815260040161067d90614680565b60026006541415612d815760405162461bcd60e51b815260040161067d906148d9565b60026006556040513390600080356001600160e01b03191691612da6919036906144f1565b60405180910390a2600954600160201b900460ff16612dd75760405162461bcd60e51b815260040161067d906147cf565b6001600160a01b038116612dfd5760405162461bcd60e51b815260040161067d9061494f565b6001600160a01b03166000908152601760205260409020805460ff19166001908117909155600655565b3360009081526002602090815260408083206001600160a01b0386168452909152812054612e559083613d57565b3360008181526002602090815260408083206001600160a01b03891680855292529182902084905590519092600080516020614d25833981519152916108ef9190614c4c565b6001600160a01b03918216600090815260026020908152604080832093909416825291909152205490565b336001600160a01b03166000356001600160e01b0319166001600160e01b031916600036604051612ef89291906144f1565b60405180910390a26008546001600160a01b03166111715760405162461bcd60e51b815260040161067d90614831565b6005546001600160a01b03163314612f525760405162461bcd60e51b815260040161067d90614680565b60026006541415612f755760405162461bcd60e51b815260040161067d906148d9565b60026006556040513390600080356001600160e01b03191691612f9a919036906144f1565b60405180910390a2600954600160201b900460ff16612fcb5760405162461bcd60e51b815260040161067d906147cf565b6001600160a01b03811660009081526017602052604090205460ff166130035760405162461bcd60e51b815260040161067d90614801565b6001600160a01b0381166130295760405162461bcd60e51b815260040161067d9061494f565b6001600160a01b03166000908152601760205260409020805460ff191690556001600655565b60165481565b60155481565b62015f9081565b6000600260065414156130875760405162461bcd60e51b815260040161067d90614925565b6008546001600160a01b03166130af5760405162461bcd60e51b815260040161067d90614831565b600860009054906101000a90046001600160a01b03166001600160a01b031663fde924f76040518163ffffffff1660e01b815260040160206040518083038186803b1580156130fd57600080fd5b505afa158015613111573d6000803e3d6000fd5b505050506040513d601f19601f82011682018060405250810190613135919061428a565b905090565b60008060006131498585613d7c565b91509150801561316b5760405162461bcd60e51b815260040161067d90614b15565b509392505050565b6008546001600160a01b031661319b5760405162461bcd60e51b815260040161067d90614831565b60085460405163f8b2cb4f60e01b81526000916001600160a01b03169063f8b2cb4f906131cc9087906004016143fc565b60206040518083038186803b1580156131e457600080fd5b505afa1580156131f8573d6000803e3d6000fd5b505050506040513d601f19601f8201168201806040525081019061321c91906142f9565b600854604051634a46c67360e11b81529192506000916001600160a01b039091169063948d8ce6906132529088906004016143fc565b60206040518083038186803b15801561326a57600080fd5b505afa15801561327e573d6000803e3d6000fd5b505050506040513d601f19601f820116820180604052508101906132a291906142f9565b6008549091506001600160a01b0316633fdddaa2866132c1858761313a565b846040518463ffffffff1660e01b81526004016132e093929190614495565b600060405180830381600087803b1580156132fa57600080fd5b505af115801561330e573d6000803e3d6000fd5b505060405163a9059cbb60e01b8152600092506001600160a01b038816915063a9059cbb90613343908890889060040161447c565b602060405180830381600087803b15801561335d57600080fd5b505af1158015613371573d6000803e3d6000fd5b505050506040513d601f19601f82011682018060405250810190613395919061428a565b9050806133b45760405162461bcd60e51b815260040161067d90614abd565b505050505050565b6108a430838361358e565b6000826133d6575060006108fb565b828202828482816133e357fe5b04146134015760405162461bcd60e51b815260040161067d9061497c565b6706f05b59d3b2000081018181101561342c5760405162461bcd60e51b815260040161067d9061497c565b6000670de0b6b3a7640000825b049695505050505050565b6000816134635760405162461bcd60e51b815260040161067d906149d5565b82613470575060006108fb565b670de0b6b3a76400008381029084828161348657fe5b04146134a45760405162461bcd60e51b815260040161067d906148af565b600283048101818110156134ca5760405162461bcd60e51b815260040161067d906148af565b600084828161343957fe5b60006003821115613518575080600160028204015b818110156135125780915060028182858161350157fe5b04018161350a57fe5b0490506134ea565b50611377565b811561137757506001919050565b30600090815260016020526040902054613540908261313a565b306000908152600160205260408120919091555461355e908261313a565b60009081556040513090600080516020614d0583398151915290613583908590614c4c565b60405180910390a350565b6001600160a01b0383166000908152600160205260409020546135b1908261313a565b6001600160a01b0380851660009081526001602052604080822093909355908416815220546135e09082613d57565b6001600160a01b038084166000818152600160205260409081902093909355915190851690600080516020614d0583398151915290613620908590614c4c565b60405180910390a3505050565b61363681613da1565b6018546000541115610fb45760405162461bcd60e51b815260040161067d90614a29565b6008546001600160a01b03166136825760405162461bcd60e51b815260040161067d90614831565b60085460405163f8b2cb4f60e01b81526000916001600160a01b03169063f8b2cb4f906136b39087906004016143fc565b60206040518083038186803b1580156136cb57600080fd5b505afa1580156136df573d6000803e3d6000fd5b505050506040513d601f19601f8201168201806040525081019061370391906142f9565b600854604051634a46c67360e11b81529192506000916001600160a01b039091169063948d8ce6906137399088906004016143fc565b60206040518083038186803b15801561375157600080fd5b505afa158015613765573d6000803e3d6000fd5b505050506040513d601f19601f8201168201806040525081019061378991906142f9565b90506000856001600160a01b03166323b872dd8630876040518463ffffffff1660e01b81526004016137bd93929190614410565b602060405180830381600087803b1580156137d757600080fd5b505af11580156137eb573d6000803e3d6000fd5b505050506040513d601f19601f8201168201806040525081019061380f919061428a565b90508061382e5760405162461bcd60e51b815260040161067d90614abd565b6008546001600160a01b0316633fdddaa28761384a8688613d57565b856040518463ffffffff1660e01b815260040161386993929190614495565b600060405180830381600087803b15801561388357600080fd5b505af1158015613897573d6000803e3d6000fd5b50505050505050505050565b6108a482308361358e565b6008546001600160a01b0316156138d75760405162461bcd60e51b815260040161067d9061485a565b68056bc75e2d631000008110156139005760405162461bcd60e51b815260040161067d90614882565b676765c793fa10079d601b1b81111561392b5760405162461bcd60e51b815260040161067d90614778565b600954600160281b900460ff16156139435760188190555b61394c81611769565b613956338261089a565b600760009054906101000a90046001600160a01b03166001600160a01b031663d556c5dc6040518163ffffffff1660e01b8152600401602060405180830381600087803b1580156139a657600080fd5b505af11580156139ba573d6000803e3d6000fd5b505050506040513d601f19601f820116820180604052508101906139de91906142a6565b600880546001600160a01b0319166001600160a01b0392831617908190556040805163632c068960e11b81529051919092169163c6580d12916004808301926020929190829003018186803b158015613a3657600080fd5b505afa158015613a4a573d6000803e3d6000fd5b505050506040513d601f19601f82011682018060405250810190613a6e91906142f9565b15613a8b5760405162461bcd60e51b815260040161067d906149fb565b60005b601354811015613c4d57600060138281548110613aa757fe5b6000918252602082200154601480546001600160a01b0390921693509084908110613ace57fe5b906000526020600020015490506000600a6002018481548110613aed57fe5b60009182526020822001546040516323b872dd60e01b81529092506001600160a01b038516906323b872dd90613b2b90339030908890600401614410565b602060405180830381600087803b158015613b4557600080fd5b505af1158015613b59573d6000803e3d6000fd5b505050506040513d601f19601f82011682018060405250810190613b7d919061428a565b905080613b9c5760405162461bcd60e51b815260040161067d90614abd565b600854613bb8906001600160a01b038681169116600019613dff565b905080613bd75760405162461bcd60e51b815260040161067d90614abd565b600854604051631c9c3ca760e31b81526001600160a01b039091169063e4e1e53890613c0b90879087908790600401614495565b600060405180830381600087803b158015613c2557600080fd5b505af1158015613c39573d6000803e3d6000fd5b505060019096019550613a8e945050505050565b505b60135415613c89576013805480613c6257fe5b600082815260209020810160001990810180546001600160a01b0319169055019055613c4f565b6008546012546040516334e1990760e01b81526001600160a01b03909216916334e1990791613cba91600401614c4c565b600060405180830381600087803b158015613cd457600080fd5b505af1158015613ce8573d6000803e3d6000fd5b50506008546040516324dacaa960e11b81526001600160a01b0390911692506349b595529150613d1d906001906004016144b6565b600060405180830381600087803b158015613d3757600080fd5b505af1158015613d4b573d6000803e3d6000fd5b50506000601255505050565b6000828201838110156110de5760405162461bcd60e51b815260040161067d90614b40565b600080838311613d925750508082036000613d9a565b505081810360015b9250929050565b30600090815260016020526040902054613dbb9082613d57565b3060009081526001602052604081209190915554613dd99082613d57565b6000908155604051309190600080516020614d0583398151915290613583908590614c4c565b600080846001600160a01b031663dd62ed3e30866040518363ffffffff1660e01b8152600401613e30929190614434565b60206040518083038186803b158015613e4857600080fd5b505afa158015613e5c573d6000803e3d6000fd5b505050506040513d601f19601f82011682018060405250810190613e8091906142f9565b905082811415613e945760019150506110de565b8015613f235760405163095ea7b360e01b81526001600160a01b0386169063095ea7b390613ec990879060009060040161447c565b602060405180830381600087803b158015613ee357600080fd5b505af1158015613ef7573d6000803e3d6000fd5b505050506040513d601f19601f82011682018060405250810190613f1b919061428a565b9150506110de565b60405163095ea7b360e01b81526001600160a01b0386169063095ea7b390613f51908790879060040161447c565b602060405180830381600087803b158015613f6b57600080fd5b505af1158015613f7f573d6000803e3d6000fd5b505050506040513d601f19601f82011682018060405250810190613fa3919061428a565b95945050505050565b60008083601f840112613fbd578081fd5b5081356001600160401b03811115613fd3578182fd5b6020830191508360208083028501011115613d9a57600080fd5b600082601f830112613ffd578081fd5b815161401061400b82614c97565b614c71565b81815291506020808301908481018184028601820187101561403157600080fd5b60005b8481101561405057815184529282019290820190600101614034565b505050505092915050565b60006020828403121561406c578081fd5b81356110de81614cc1565b60008060408385031215614089578081fd5b823561409481614cc1565b915060208301356140a481614cc1565b809150509250929050565b6000806000606084860312156140c3578081fd5b83356140ce81614cc1565b925060208401356140de81614cc1565b929592945050506040919091013590565b60008060408385031215614101578182fd5b823561410c81614cc1565b946020939093013593505050565b60008060006060848603121561412e578283fd5b833561413981614cc1565b95602085013595506040909401359392505050565b60006020808385031215614160578182fd5b82516001600160401b03811115614175578283fd5b8301601f81018513614185578283fd5b805161419361400b82614c97565b81815283810190838501858402850186018910156141af578687fd5b8694505b838510156141da5780516141c681614cc1565b8352600194909401939185019185016141b3565b50979650505050505050565b600080600080606085870312156141fb578081fd5b84356001600160401b03811115614210578182fd5b61421c87828801613fac565b90989097506020870135966040013595509350505050565b600060208284031215614245578081fd5b81516001600160401b0381111561425a578182fd5b61426684828501613fed565b949350505050565b60006020828403121561427f578081fd5b81356110de81614cd6565b60006020828403121561429b578081fd5b81516110de81614cd6565b6000602082840312156142b7578081fd5b81516110de81614cc1565b6000602082840312156142d3578081fd5b8135600681106110de578182fd5b6000602082840312156142f2578081fd5b5035919050565b60006020828403121561430a578081fd5b5051919050565b600080600060408486031215614325578081fd5b8335925060208401356001600160401b03811115614341578182fd5b61434d86828701613fac565b9497909650939450505050565b6000806040838503121561436c578182fd5b505080516020909101519092909150565b600080600060608486031215614391578081fd5b83516020850151604086015191945092506001600160401b038111156143b5578182fd5b6143c186828701613fed565b9150509250925092565b6000806000606084860312156143df578081fd5b505081359360208301359350604090920135919050565b15159052565b6001600160a01b0391909116815260200190565b6001600160a01b039384168152919092166020820152604081019190915260600190565b6001600160a01b0392831681529116602082015260400190565b6001600160a01b03959095168552921515602085015260408401919091526060830152608082015260a00190565b6001600160a01b03929092168252602082015260400190565b6001600160a01b039390931683526020830191909152604082015260600190565b901515815260200190565b9515158652931515602086015291151560408501521515606084015215156080830152151560a082015260c00190565b60006020825282602083015282846040840137818301604090810191909152601f909201601f19160101919050565b6001600160a01b03958616815293909416602084015260408301919091526060820152608081019190915260a00190565b6001600160a01b0393841681529183166020830152909116604082015260600190565b6001600160a01b03958616815293851660208501529190931660408301526060820192909252608081019190915260a00190565b6001600160a01b0386811682528516602082015260408101849052608060608201819052810182905260006001600160fb1b038311156145e6578081fd5b60208302808560a08501379190910160a00190815295945050505050565b6001600160a01b0394851681529290931660208301526040820152606081019190915260800190565b6000602080835283518082850152825b818110156146595785810183015185820160400152820161463d565b8181111561466a5783604083870101525b50601f01601f1916929092016040019392505050565b60208082526012908201527122a9292fa727aa2fa1a7a72a2927a62622a960711b604082015260600190565b6020808252601c908201527b4552525f43414e4e4f545f4144445f52454d4f56455f544f4b454e5360201b604082015260600190565b6020808252818101527f4552525f494e434f4e53495354454e545f544f4b454e5f54494d455f4c4f434b604082015260600190565b60208082526019908201527822a9292faaa729aaa82827a92a22a22fa7a822a920aa24a7a760391b604082015260600190565b60208082526014908201527311549497d393d517d3d397d5d2125511531254d560621b604082015260600190565b60208082526013908201527208aa4a4be929c92a8bea6aaa0a098b2be9a82b606b1b604082015260600190565b60208082526010908201526f4552525f5a45524f5f4144445245535360801b604082015260600190565b6020808252601890820152774552525f43414e4e4f545f57484954454c4953545f4c505360401b604082015260600190565b60208082526016908201527511549497d31417d393d517d5d2125511531254d5115160521b604082015260600190565b6020808252600f908201526e11549497d393d517d0d49150551151608a1b604082015260600190565b6020808252600e908201526d11549497d254d7d0d4915055115160921b604082015260600190565b60208082526013908201527222a9292fa4a724aa2fa9aaa828262cafa6a4a760691b604082015260600190565b60208082526010908201526f11549497d1125597d25395115493905360821b604082015260600190565b6020808252600b908201526a4552525f5245454e54525960a81b604082015260600190565b6020808252600d908201526c11549497d393d517d093d55391609a1b604082015260600190565b60208082526010908201526f4552525f5245454e5452595f5649455760801b604082015260600190565b6020808252601390820152724552525f494e56414c49445f4144445245535360681b604082015260600190565b60208082526010908201526f4552525f4d554c5f4f564552464c4f5760801b604082015260600190565b60208082526015908201527404552525f43414e4e4f545f4348414e47455f43415605c1b604082015260600190565b6020808252600c908201526b4552525f4449565f5a45524f60a01b604082015260600190565b6020808252601490820152734552525f4e4f4e5a45524f5f455849545f46454560601b604082015260600190565b60208082526015908201527411549497d0d05417d31253525517d4915050d21151605a1b604082015260600190565b60208082526016908201527522a9292fa821aa27a5a2a72fa120a22fa1a0a62622a960511b604082015260600190565b6020808252601b908201527a4552525f52454d4f56455f574954485f4144445f50454e44494e4760281b604082015260600190565b6020808252600f908201526e4552525f45524332305f46414c534560881b604082015260600190565b60208082526015908201527404552525f4e4f545f5041555341424c455f5357415605c1b604082015260600190565b6020808252601190820152704552525f5355425f554e444552464c4f5760781b604082015260600190565b60208082526010908201526f4552525f4144445f4f564552464c4f5760801b604082015260600190565b6020808252601d908201527f4552525f4e4f545f434f4e464947555241424c455f535741505f464545000000604082015260600190565b6020808252601c908201527b11549497d393d7d5541110551157d11554925391d7d1d4905115505360221b604082015260600190565b600060e082019050835460ff80821615158452808260081c1615156020850152808260101c1615156040850152808260181c1615156060850152614c2360808501828460201c166143f6565b614c3560a08501828460281c166143f6565b5050614c4083614cb6565b60c08301529392505050565b90815260200190565b918252602082015260400190565b60ff91909116815260200190565b6040518181016001600160401b0381118282101715614c8f57600080fd5b604052919050565b60006001600160401b03821115614cac578081fd5b5060209081020190565b806006811061137757fe5b6001600160a01b0381168114610fb457600080fd5b8015158114610fb457600080fdfec62fc35ac75e3bff532648e2859a3e1694002cfa357614ae8e034df7f83db5e9ddf252ad1be2c89b69c2b068fc378daa952ba7f163c4a11628f55a4df523b3ef8c5be1e5ebec7d5bd14f71427d1e84f3dd0314c0f7b2291e5b200ac8c7c3b925ea39e3b35c5cd8937999ed5f7fbab30acd562a931fc4a887fed2a47c3074aa72a26469706673582212201f01a975bc0a533982efcc1d0353d20d3fd094ca56689c39bd4bcafc4dc640d164736f6c634300060c0033"
}