{
  "abi": [
    {
      "inputs": [],
      "stateMutability": "nonpayable",
      "type": "constructor"
    },
    {
      "inputs": [
        {
          "internalType": "uint256",
          "name": "amount",
          "type": "uint256"
        }
      ],
      "name": "deposit",
      "outputs": [],
      "stateMutability": "nonpayable",
      "type": "function"
    },
    {
      "inputs": [],
      "name": "down",
      "outputs": [
        {
          "internalType": "contract RebaseableToken",
          "name": "",
          "type": "address"
        }
      ],
      "stateMutability": "view",
      "type": "function"
    },
    {
      "inputs": [],
      "name": "epoch",
      "outputs": [
        {
          "internalType": "uint256",
          "name": "",
          "type": "uint256"
        }
      ],
      "stateMutability": "view",
      "type": "function"
    },
    {
      "inputs": [],
      "name": "epochLength",
      "outputs": [
        {
          "internalType": "uint256",
          "name": "",
          "type": "uint256"
        }
      ],
      "stateMutability": "view",
      "type": "function"
    },
    {
      "inputs": [],
      "name": "epochStart",
      "outputs": [
        {
          "internalType": "uint256",
          "name": "",
          "type": "uint256"
        }
      ],
      "stateMutability": "view",
      "type": "function"
    },
    {
      "inputs": [],
      "name": "epochStartPrice",
      "outputs": [
        {
          "internalType": "uint256",
          "name": "",
          "type": "uint256"
        }
      ],
      "stateMutability": "view",
      "type": "function"
    },
    {
      "inputs": [
        {
          "internalType": "uint256",
          "name": "",
          "type": "uint256"
        }
      ],
      "name": "epochToPrice",
      "outputs": [
        {
          "internalType": "uint256",
          "name": "",
          "type": "uint256"
        }
      ],
      "stateMutability": "view",
      "type": "function"
    },
    {
      "inputs": [
        {
          "internalType": "address",
          "name": "owner_",
          "type": "address"
        },
        {
          "internalType": "address",
          "name": "payoutToken_",
          "type": "address"
        },
        {
          "internalType": "uint256",
          "name": "epochLength_",
          "type": "uint256"
        },
        {
          "internalType": "uint8",
          "name": "multiplier_",
          "type": "uint8"
        },
        {
          "internalType": "address",
          "name": "oracle_",
          "type": "address"
        },
        {
          "internalType": "address",
          "name": "factory_",
          "type": "address"
        },
        {
          "internalType": "address",
          "name": "underlying_",
          "type": "address"
        }
      ],
      "name": "initialize",
      "outputs": [],
      "stateMutability": "nonpayable",
      "type": "function"
    },
    {
      "inputs": [],
      "name": "liquidate",
      "outputs": [],
      "stateMutability": "nonpayable",
      "type": "function"
    },
    {
      "inputs": [],
      "name": "multiplier",
      "outputs": [
        {
          "internalType": "uint8",
          "name": "",
          "type": "uint8"
        }
      ],
      "stateMutability": "view",
      "type": "function"
    },
    {
      "inputs": [],
      "name": "mySettlement",
      "outputs": [
        {
          "internalType": "uint256",
          "name": "ups",
          "type": "uint256"
        },
        {
          "internalType": "uint256",
          "name": "downs",
          "type": "uint256"
        },
        {
          "internalType": "uint256",
          "name": "epochNumber",
          "type": "uint256"
        }
      ],
      "stateMutability": "view",
      "type": "function"
    },
    {
      "inputs": [],
      "name": "oracle",
      "outputs": [
        {
          "internalType": "contract IPriceOracleGetter",
          "name": "",
          "type": "address"
        }
      ],
      "stateMutability": "view",
      "type": "function"
    },
    {
      "inputs": [],
      "name": "payoutToken",
      "outputs": [
        {
          "internalType": "contract IERC20",
          "name": "",
          "type": "address"
        }
      ],
      "stateMutability": "view",
      "type": "function"
    },
    {
      "inputs": [
        {
          "internalType": "address",
          "name": "newOwner",
          "type": "address"
        }
      ],
      "name": "setOwner",
      "outputs": [],
      "stateMutability": "nonpayable",
      "type": "function"
    },
    {
      "inputs": [],
      "name": "settle",
      "outputs": [],
      "stateMutability": "nonpayable",
      "type": "function"
    },
    {
      "inputs": [],
      "name": "testForEnd",
      "outputs": [],
      "stateMutability": "nonpayable",
      "type": "function"
    },
    {
      "inputs": [],
      "name": "underlying",
      "outputs": [
        {
          "internalType": "contract IERC20",
          "name": "",
          "type": "address"
        }
      ],
      "stateMutability": "view",
      "type": "function"
    },
    {
      "inputs": [],
      "name": "uniswapFactory",
      "outputs": [
        {
          "internalType": "contract IMinimalUniswapV2Factory",
          "name": "",
          "type": "address"
        }
      ],
      "stateMutability": "view",
      "type": "function"
    },
    {
      "inputs": [],
      "name": "uniswapPair",
      "outputs": [
        {
          "internalType": "contract IMinimalUniswapV2Pair",
          "name": "",
          "type": "address"
        }
      ],
      "stateMutability": "view",
      "type": "function"
    },
    {
      "inputs": [],
      "name": "up",
      "outputs": [
        {
          "internalType": "contract RebaseableToken",
          "name": "",
          "type": "address"
        }
      ],
      "stateMutability": "view",
      "type": "function"
    }
  ],
  "address": "0x4a90f777652baD3aEf8B36B810fc39888127e9f7",
  "args": [],
  "solcInputHash": "0x39dc79dea4da8f70268baf6c8cfa7ed870cba029dee3cf1bf97363574805d330",
  "bytecode": "0x6080604052600060085534801561001557600080fd5b5033600460006101000a81548173ffffffffffffffffffffffffffffffffffffffff021916908373ffffffffffffffffffffffffffffffffffffffff160217905550615fc6806100666000396000f3fe60806040523480156200001157600080fd5b5060043610620001125760003560e01c806311da60b4146200011757806313af4035146200012357806315e5a1e5146200016a5780631b3ed722146200018a57806328a0702514620001b05780634efa82b614620001bc57806357d775f814620002085780636f307dc31462000228578063713df9e814620002745780637dc0d1d014620002805780638334109414620002cc5780638471de9214620003aa57806384be9a8314620003ef5780638bdb2afa146200040f578063900cf0cf146200045b578063b6b55f25146200047b578063c1ca4a4a14620004ac578063c816841b14620004da578063d5a49e011462000526578063d83379281462000572575b600080fd5b62000121620005be565b005b62000168600480360360208110156200013b57600080fd5b81019080803573ffffffffffffffffffffffffffffffffffffffff16906020019092919050505062000933565b005b6200017462000a3b565b6040518082815260200191505060405180910390f35b6200019462000a41565b604051808260ff1660ff16815260200191505060405180910390f35b620001ba62000a54565b005b620001c662001028565b604051808273ffffffffffffffffffffffffffffffffffffffff1673ffffffffffffffffffffffffffffffffffffffff16815260200191505060405180910390f35b620002126200104e565b6040518082815260200191505060405180910390f35b6200023262001054565b604051808273ffffffffffffffffffffffffffffffffffffffff1673ffffffffffffffffffffffffffffffffffffffff16815260200191505060405180910390f35b6200027e6200107a565b005b6200028a620010a7565b604051808273ffffffffffffffffffffffffffffffffffffffff1673ffffffffffffffffffffffffffffffffffffffff16815260200191505060405180910390f35b620003a8600480360360e0811015620002e457600080fd5b81019080803573ffffffffffffffffffffffffffffffffffffffff169060200190929190803573ffffffffffffffffffffffffffffffffffffffff16906020019092919080359060200190929190803560ff169060200190929190803573ffffffffffffffffffffffffffffffffffffffff169060200190929190803573ffffffffffffffffffffffffffffffffffffffff169060200190929190803573ffffffffffffffffffffffffffffffffffffffff169060200190929190505050620010cd565b005b620003d960048036036020811015620003c257600080fd5b8101908080359060200190929190505050620013f7565b6040518082815260200191505060405180910390f35b620003f96200140f565b6040518082815260200191505060405180910390f35b6200041962001415565b604051808273ffffffffffffffffffffffffffffffffffffffff1673ffffffffffffffffffffffffffffffffffffffff16815260200191505060405180910390f35b620004656200143b565b6040518082815260200191505060405180910390f35b620004aa600480360360208110156200049357600080fd5b810190808035906020019092919050505062001441565b005b620004b66200192a565b60405180848152602001838152602001828152602001935050505060405180910390f35b620004e462001b5b565b604051808273ffffffffffffffffffffffffffffffffffffffff1673ffffffffffffffffffffffffffffffffffffffff16815260200191505060405180910390f35b6200053062001b81565b604051808273ffffffffffffffffffffffffffffffffffffffff1673ffffffffffffffffffffffffffffffffffffffff16815260200191505060405180910390f35b6200057c62001ba7565b604051808273ffffffffffffffffffffffffffffffffffffffff1673ffffffffffffffffffffffffffffffffffffffff16815260200191505060405180910390f35b60008060003373ffffffffffffffffffffffffffffffffffffffff1673ffffffffffffffffffffffffffffffffffffffff168152602001908152602001600020600201541462000676576040517f08c379a00000000000000000000000000000000000000000000000000000000081526004018080602001828103825260158152602001807f5570446f776e3a68617320736574746c656d656e74000000000000000000000081525060200191505060405180910390fd5b6200068f60095460075462001bcd90919063ffffffff16565b4310620006a157620006a062001c56565b5b6008546000803373ffffffffffffffffffffffffffffffffffffffff1673ffffffffffffffffffffffffffffffffffffffff16815260200190815260200160002060020181905550600260009054906101000a900473ffffffffffffffffffffffffffffffffffffffff1673ffffffffffffffffffffffffffffffffffffffff16632f865568336040518263ffffffff1660e01b8152600401808273ffffffffffffffffffffffffffffffffffffffff1673ffffffffffffffffffffffffffffffffffffffff168152602001915050602060405180830381600087803b1580156200078b57600080fd5b505af1158015620007a0573d6000803e3d6000fd5b505050506040513d6020811015620007b757600080fd5b81019080805190602001909291905050506000803373ffffffffffffffffffffffffffffffffffffffff1673ffffffffffffffffffffffffffffffffffffffff16815260200190815260200160002060000181905550600360009054906101000a900473ffffffffffffffffffffffffffffffffffffffff1673ffffffffffffffffffffffffffffffffffffffff16632f865568336040518263ffffffff1660e01b8152600401808273ffffffffffffffffffffffffffffffffffffffff1673ffffffffffffffffffffffffffffffffffffffff168152602001915050602060405180830381600087803b158015620008af57600080fd5b505af1158015620008c4573d6000803e3d6000fd5b505050506040513d6020811015620008db57600080fd5b81019080805190602001909291905050506000803373ffffffffffffffffffffffffffffffffffffffff1673ffffffffffffffffffffffffffffffffffffffff16815260200190815260200160002060010181905550565b600460009054906101000a900473ffffffffffffffffffffffffffffffffffffffff1673ffffffffffffffffffffffffffffffffffffffff163373ffffffffffffffffffffffffffffffffffffffff1614620009f7576040517f08c379a00000000000000000000000000000000000000000000000000000000081526004018080602001828103825260118152602001807f5570446f776e3a4f6e6c79206f776e657200000000000000000000000000000081525060200191505060405180910390fd5b80600460006101000a81548173ffffffffffffffffffffffffffffffffffffffff021916908373ffffffffffffffffffffffffffffffffffffffff16021790555050565b60075481565b600d60149054906101000a900460ff1681565b62000a6d60095460075462001bcd90919063ffffffff16565b431062000a7f5762000a7e62001c56565b5b60008060003373ffffffffffffffffffffffffffffffffffffffff1673ffffffffffffffffffffffffffffffffffffffff168152602001908152602001600020905060085481600201541062000b3d576040517f08c379a00000000000000000000000000000000000000000000000000000000081526004018080602001828103825260168152602001807f746f6f206561726c7920746f206c69717569646174650000000000000000000081525060200191505060405180910390fd5b600062000c0c600260009054906101000a900473ffffffffffffffffffffffffffffffffffffffff1673ffffffffffffffffffffffffffffffffffffffff1663dff4e22084600201546040518263ffffffff1660e01b81526004018082815260200191505060206040518083038186803b15801562000bbb57600080fd5b505afa15801562000bd0573d6000803e3d6000fd5b505050506040513d602081101562000be757600080fd5b8101908080519060200190929190505050836000015462001d6190919063ffffffff16565b9050600062000cdd600360009054906101000a900473ffffffffffffffffffffffffffffffffffffffff1673ffffffffffffffffffffffffffffffffffffffff1663dff4e22085600201546040518263ffffffff1660e01b81526004018082815260200191505060206040518083038186803b15801562000c8c57600080fd5b505afa15801562000ca1573d6000803e3d6000fd5b505050506040513d602081101562000cb857600080fd5b8101908080519060200190929190505050846001015462001d6190919063ffffffff16565b9050600062000cf6828462001bcd90919063ffffffff16565b905060008060003373ffffffffffffffffffffffffffffffffffffffff1673ffffffffffffffffffffffffffffffffffffffff1681526020019081526020016000206000018190555060008060003373ffffffffffffffffffffffffffffffffffffffff1673ffffffffffffffffffffffffffffffffffffffff1681526020019081526020016000206001018190555060008060003373ffffffffffffffffffffffffffffffffffffffff1673ffffffffffffffffffffffffffffffffffffffff16815260200190815260200160002060020181905550600062000de560c88362001d6190919063ffffffff16565b9050600062000e006103e88362001d6190919063ffffffff16565b9050600062000e19828462001dad90919063ffffffff16565b9050600b60009054906101000a900473ffffffffffffffffffffffffffffffffffffffff1673ffffffffffffffffffffffffffffffffffffffff1663a9059cbb33836040518363ffffffff1660e01b8152600401808373ffffffffffffffffffffffffffffffffffffffff1673ffffffffffffffffffffffffffffffffffffffff16815260200182815260200192505050602060405180830381600087803b15801562000ec557600080fd5b505af115801562000eda573d6000803e3d6000fd5b505050506040513d602081101562000ef157600080fd5b810190808051906020019092919050505062000f0c57600080fd5b600b60009054906101000a900473ffffffffffffffffffffffffffffffffffffffff1673ffffffffffffffffffffffffffffffffffffffff1663a9059cbb600460009054906101000a900473ffffffffffffffffffffffffffffffffffffffff16846040518363ffffffff1660e01b8152600401808373ffffffffffffffffffffffffffffffffffffffff1673ffffffffffffffffffffffffffffffffffffffff16815260200182815260200192505050602060405180830381600087803b15801562000fd857600080fd5b505af115801562000fed573d6000803e3d6000fd5b505050506040513d60208110156200100457600080fd5b81019080805190602001909291905050506200101f57600080fd5b50505050505050565b600b60009054906101000a900473ffffffffffffffffffffffffffffffffffffffff1681565b60095481565b600a60009054906101000a900473ffffffffffffffffffffffffffffffffffffffff1681565b6200109360095460075462001bcd90919063ffffffff16565b4310620010a557620010a462001c56565b5b565b600560009054906101000a900473ffffffffffffffffffffffffffffffffffffffff1681565b600460009054906101000a900473ffffffffffffffffffffffffffffffffffffffff1673ffffffffffffffffffffffffffffffffffffffff163373ffffffffffffffffffffffffffffffffffffffff161462001191576040517f08c379a00000000000000000000000000000000000000000000000000000000081526004018080602001828103825260118152602001807f5570446f776e3a4f6e6c79206f776e657200000000000000000000000000000081525060200191505060405180910390fd5b86600460006101000a81548173ffffffffffffffffffffffffffffffffffffffff021916908373ffffffffffffffffffffffffffffffffffffffff16021790555085600b60006101000a81548173ffffffffffffffffffffffffffffffffffffffff021916908373ffffffffffffffffffffffffffffffffffffffff16021790555082600560006101000a81548173ffffffffffffffffffffffffffffffffffffffff021916908373ffffffffffffffffffffffffffffffffffffffff16021790555081600c60006101000a81548173ffffffffffffffffffffffffffffffffffffffff021916908373ffffffffffffffffffffffffffffffffffffffff160217905550436007819055508460098190555083600d60146101000a81548160ff021916908360ff16021790555080600a60006101000a81548173ffffffffffffffffffffffffffffffffffffffff021916908373ffffffffffffffffffffffffffffffffffffffff160217905550600560009054906101000a900473ffffffffffffffffffffffffffffffffffffffff1673ffffffffffffffffffffffffffffffffffffffff1663b3596f07826040518263ffffffff1660e01b8152600401808273ffffffffffffffffffffffffffffffffffffffff1673ffffffffffffffffffffffffffffffffffffffff16815260200191505060206040518083038186803b1580156200139f57600080fd5b505afa158015620013b4573d6000803e3d6000fd5b505050506040513d6020811015620013cb57600080fd5b8101908080519060200190929190505050600681905550620013ec62001df9565b505050505050505050565b60016020528060005260406000206000915090505481565b60065481565b600c60009054906101000a900473ffffffffffffffffffffffffffffffffffffffff1681565b60085481565b60008060003373ffffffffffffffffffffffffffffffffffffffff1673ffffffffffffffffffffffffffffffffffffffff1681526020019081526020016000206002015414620014f9576040517f08c379a00000000000000000000000000000000000000000000000000000000081526004018080602001828103825260158152602001807f5570446f776e3a68617320736574746c656d656e74000000000000000000000081525060200191505060405180910390fd5b6200151260095460075462001bcd90919063ffffffff16565b431062001524576200152362001c56565b5b600b60009054906101000a900473ffffffffffffffffffffffffffffffffffffffff1673ffffffffffffffffffffffffffffffffffffffff166323b872dd3330846040518463ffffffff1660e01b8152600401808473ffffffffffffffffffffffffffffffffffffffff1673ffffffffffffffffffffffffffffffffffffffff1681526020018373ffffffffffffffffffffffffffffffffffffffff1673ffffffffffffffffffffffffffffffffffffffff1681526020018281526020019350505050602060405180830381600087803b1580156200160257600080fd5b505af115801562001617573d6000803e3d6000fd5b505050506040513d60208110156200162e57600080fd5b81019080805190602001909291905050506200164957600080fd5b600260009054906101000a900473ffffffffffffffffffffffffffffffffffffffff1673ffffffffffffffffffffffffffffffffffffffff1663a9059cbb336200169e6064856200214d90919063ffffffff16565b6040518363ffffffff1660e01b8152600401808373ffffffffffffffffffffffffffffffffffffffff1673ffffffffffffffffffffffffffffffffffffffff16815260200182815260200192505050602060405180830381600087803b1580156200170857600080fd5b505af11580156200171d573d6000803e3d6000fd5b505050506040513d60208110156200173457600080fd5b8101908080519060200190929190505050620017b8576040517f08c379a00000000000000000000000000000000000000000000000000000000081526004018080602001828103825260158152602001807f4f7074696f6e73506f6f6c3a6661696c6564207570000000000000000000000081525060200191505060405180910390fd5b600360009054906101000a900473ffffffffffffffffffffffffffffffffffffffff1673ffffffffffffffffffffffffffffffffffffffff1663a9059cbb336200180d6064856200214d90919063ffffffff16565b6040518363ffffffff1660e01b8152600401808373ffffffffffffffffffffffffffffffffffffffff1673ffffffffffffffffffffffffffffffffffffffff16815260200182815260200192505050602060405180830381600087803b1580156200187757600080fd5b505af11580156200188c573d6000803e3d6000fd5b505050506040513d6020811015620018a357600080fd5b810190808051906020019092919050505062001927576040517f08c379a00000000000000000000000000000000000000000000000000000000081526004018080602001828103825260178152602001807f4f7074696f6e73506f6f6c3a6661696c656420646f776e00000000000000000081525060200191505060405180910390fd5b50565b6000806000806000803373ffffffffffffffffffffffffffffffffffffffff1673ffffffffffffffffffffffffffffffffffffffff1681526020019081526020016000209050600080905081600201546008541115620019915781600201549050620019ab565b600082600201541115620019aa57600182600201540390505b5b6000600260009054906101000a900473ffffffffffffffffffffffffffffffffffffffff1673ffffffffffffffffffffffffffffffffffffffff1663dff4e220836040518263ffffffff1660e01b81526004018082815260200191505060206040518083038186803b15801562001a2157600080fd5b505afa15801562001a36573d6000803e3d6000fd5b505050506040513d602081101562001a4d57600080fd5b810190808051906020019092919050505090506000600360009054906101000a900473ffffffffffffffffffffffffffffffffffffffff1673ffffffffffffffffffffffffffffffffffffffff1663dff4e220846040518263ffffffff1660e01b81526004018082815260200191505060206040518083038186803b15801562001ad657600080fd5b505afa15801562001aeb573d6000803e3d6000fd5b505050506040513d602081101562001b0257600080fd5b8101908080519060200190929190505050905062001b2e82856000015462001d6190919063ffffffff16565b62001b4782866001015462001d6190919063ffffffff16565b856002015496509650965050505050909192565b600d60009054906101000a900473ffffffffffffffffffffffffffffffffffffffff1681565b600260009054906101000a900473ffffffffffffffffffffffffffffffffffffffff1681565b600360009054906101000a900473ffffffffffffffffffffffffffffffffffffffff1681565b60008082840190508381101562001c4c576040517f08c379a000000000000000000000000000000000000000000000000000000000815260040180806020018281038252601b8152602001807f536166654d6174683a206164646974696f6e206f766572666c6f77000000000081525060200191505060405180910390fd5b8091505092915050565b62001d5f600560009054906101000a900473ffffffffffffffffffffffffffffffffffffffff1673ffffffffffffffffffffffffffffffffffffffff1663b3596f07600a60009054906101000a900473ffffffffffffffffffffffffffffffffffffffff166040518263ffffffff1660e01b8152600401808273ffffffffffffffffffffffffffffffffffffffff1673ffffffffffffffffffffffffffffffffffffffff16815260200191505060206040518083038186803b15801562001d1c57600080fd5b505afa15801562001d31573d6000803e3d6000fd5b505050506040513d602081101562001d4857600080fd5b8101908080519060200190929190505050620021d8565b565b600062001da583836040518060400160405280601a81526020017f536166654d6174683a206469766973696f6e206279207a65726f00000000000081525062002d44565b905092915050565b600062001df183836040518060400160405280601e81526020017f536166654d6174683a207375627472616374696f6e206f766572666c6f77000081525062002e0f565b905092915050565b60008060606040518060200162001e1090620035a3565b6020820181038252601f19601f8201166040525090506000306000604051602001808373ffffffffffffffffffffffffffffffffffffffff1673ffffffffffffffffffffffffffffffffffffffff1660601b81526014018260000b60000b60f81b8152600101925050506040516020818303038152906040528051906020012090506000306001604051602001808373ffffffffffffffffffffffffffffffffffffffff1673ffffffffffffffffffffffffffffffffffffffff1660601b81526014018260000b60000b60f81b81526001019250505060405160208183030381529060405280519060200120905062001f0c6000838562002ed3565b945062001f1c6000828562002ed3565b93508473ffffffffffffffffffffffffffffffffffffffff1663077f224a306040518263ffffffff1660e01b81526004018080602001806020018473ffffffffffffffffffffffffffffffffffffffff1673ffffffffffffffffffffffffffffffffffffffff168152602001838103835260088152602001807f5570446f776e5570000000000000000000000000000000000000000000000000815250602001838103825260048152602001807f75645570000000000000000000000000000000000000000000000000000000008152506020019350505050600060405180830381600087803b1580156200201057600080fd5b505af115801562002025573d6000803e3d6000fd5b505050508373ffffffffffffffffffffffffffffffffffffffff1663077f224a306040518263ffffffff1660e01b81526004018080602001806020018473ffffffffffffffffffffffffffffffffffffffff1673ffffffffffffffffffffffffffffffffffffffff1681526020018381038352600a8152602001807f5570446f776e446f776e00000000000000000000000000000000000000000000815250602001838103825260048152602001807f7564446e000000000000000000000000000000000000000000000000000000008152506020019350505050600060405180830381600087803b1580156200211b57600080fd5b505af115801562002130573d6000803e3d6000fd5b5050505062002140858562003080565b8484945094505050509091565b600080831415620021625760009050620021d2565b60008284029050828482816200217457fe5b0414620021cd576040517f08c379a000000000000000000000000000000000000000000000000000000000815260040180806020018281038252602181526020018062005f706021913960400191505060405180910390fd5b809150505b92915050565b600060065490506000600260009054906101000a900473ffffffffffffffffffffffffffffffffffffffff1673ffffffffffffffffffffffffffffffffffffffff166318160ddd6040518163ffffffff1660e01b815260040160206040518083038186803b1580156200224a57600080fd5b505afa1580156200225f573d6000803e3d6000fd5b505050506040513d60208110156200227657600080fd5b810190808051906020019092919050505090506000600360009054906101000a900473ffffffffffffffffffffffffffffffffffffffff1673ffffffffffffffffffffffffffffffffffffffff166318160ddd6040518163ffffffff1660e01b815260040160206040518083038186803b158015620022f457600080fd5b505afa15801562002309573d6000803e3d6000fd5b505050506040513d60208110156200232057600080fd5b81019080805190602001909291905050509050600081831015905083851115620027675760006200235b858762001dad90919063ffffffff16565b905060006200236b8287620031ca565b905082156200256c576000620023a7670de0b6b3a76400006200239884886200214d90919063ffffffff16565b62001d6190919063ffffffff16565b90506000600360009054906101000a900473ffffffffffffffffffffffffffffffffffffffff1673ffffffffffffffffffffffffffffffffffffffff16637a43e23f6008547fffffffffffffffffffffffffffffffffffffffffffffffffffffffffffffffff85026040518363ffffffff1660e01b81526004018083815260200182815260200192505050602060405180830381600087803b1580156200244d57600080fd5b505af115801562002462573d6000803e3d6000fd5b505050506040513d60208110156200247957600080fd5b810190808051906020019092919050505090506000620024a3828862001dad90919063ffffffff16565b9050600260009054906101000a900473ffffffffffffffffffffffffffffffffffffffff1673ffffffffffffffffffffffffffffffffffffffff16637a43e23f600854836040518363ffffffff1660e01b81526004018083815260200182815260200192505050602060405180830381600087803b1580156200252557600080fd5b505af11580156200253a573d6000803e3d6000fd5b505050506040513d60208110156200255157600080fd5b8101908080519060200190929190505050505050506200275f565b60006200259f670de0b6b3a76400006200259084896200214d90919063ffffffff16565b62001d6190919063ffffffff16565b90506000600260009054906101000a900473ffffffffffffffffffffffffffffffffffffffff1673ffffffffffffffffffffffffffffffffffffffff16637a43e23f600854846040518363ffffffff1660e01b81526004018083815260200182815260200192505050602060405180830381600087803b1580156200262357600080fd5b505af115801562002638573d6000803e3d6000fd5b505050506040513d60208110156200264f57600080fd5b81019080805190602001909291905050509050600062002679888362001dad90919063ffffffff16565b9050600360009054906101000a900473ffffffffffffffffffffffffffffffffffffffff1673ffffffffffffffffffffffffffffffffffffffff16637a43e23f6008547fffffffffffffffffffffffffffffffffffffffffffffffffffffffffffffffff84026040518363ffffffff1660e01b81526004018083815260200182815260200192505050602060405180830381600087803b1580156200271d57600080fd5b505af115801562002732573d6000803e3d6000fd5b505050506040513d60208110156200274957600080fd5b8101908080519060200190929190505050505050505b505062002d13565b8385101562002b9357600062002787868662001dad90919063ffffffff16565b90506000620027978287620031ca565b9050821562002998576000620027d3670de0b6b3a7640000620027c484886200214d90919063ffffffff16565b62001d6190919063ffffffff16565b90506000600360009054906101000a900473ffffffffffffffffffffffffffffffffffffffff1673ffffffffffffffffffffffffffffffffffffffff16637a43e23f600854846040518363ffffffff1660e01b81526004018083815260200182815260200192505050602060405180830381600087803b1580156200285757600080fd5b505af11580156200286c573d6000803e3d6000fd5b505050506040513d60208110156200288357600080fd5b810190808051906020019092919050505090506000620028ad878362001dad90919063ffffffff16565b9050600260009054906101000a900473ffffffffffffffffffffffffffffffffffffffff1673ffffffffffffffffffffffffffffffffffffffff16637a43e23f6008547fffffffffffffffffffffffffffffffffffffffffffffffffffffffffffffffff84026040518363ffffffff1660e01b81526004018083815260200182815260200192505050602060405180830381600087803b1580156200295157600080fd5b505af115801562002966573d6000803e3d6000fd5b505050506040513d60208110156200297d57600080fd5b81019080805190602001909291905050505050505062002b8b565b6000620029cb670de0b6b3a7640000620029bc84896200214d90919063ffffffff16565b62001d6190919063ffffffff16565b90506000600260009054906101000a900473ffffffffffffffffffffffffffffffffffffffff1673ffffffffffffffffffffffffffffffffffffffff16637a43e23f6008547fffffffffffffffffffffffffffffffffffffffffffffffffffffffffffffffff85026040518363ffffffff1660e01b81526004018083815260200182815260200192505050602060405180830381600087803b15801562002a7157600080fd5b505af115801562002a86573d6000803e3d6000fd5b505050506040513d602081101562002a9d57600080fd5b81019080805190602001909291905050509050600062002ac7828962001dad90919063ffffffff16565b9050600360009054906101000a900473ffffffffffffffffffffffffffffffffffffffff1673ffffffffffffffffffffffffffffffffffffffff16637a43e23f600854836040518363ffffffff1660e01b81526004018083815260200182815260200192505050602060405180830381600087803b15801562002b4957600080fd5b505af115801562002b5e573d6000803e3d6000fd5b505050506040513d602081101562002b7557600080fd5b8101908080519060200190929190505050505050505b505062002d12565b600260009054906101000a900473ffffffffffffffffffffffffffffffffffffffff1673ffffffffffffffffffffffffffffffffffffffff16637a43e23f60085460006040518363ffffffff1660e01b81526004018083815260200182815260200192505050602060405180830381600087803b15801562002c1457600080fd5b505af115801562002c29573d6000803e3d6000fd5b505050506040513d602081101562002c4057600080fd5b810190808051906020019092919050505050600360009054906101000a900473ffffffffffffffffffffffffffffffffffffffff1673ffffffffffffffffffffffffffffffffffffffff16637a43e23f60085460006040518363ffffffff1660e01b81526004018083815260200182815260200192505050602060405180830381600087803b15801562002cd357600080fd5b505af115801562002ce8573d6000803e3d6000fd5b505050506040513d602081101562002cff57600080fd5b8101908080519060200190929190505050505b5b62002d1d6200327f565b84600681905550600860008154809291906001019190505550436007819055505050505050565b6000808311829062002df4576040517f08c379a00000000000000000000000000000000000000000000000000000000081526004018080602001828103825283818151815260200191508051906020019080838360005b8381101562002db857808201518184015260208101905062002d9b565b50505050905090810190601f16801562002de65780820380516001836020036101000a031916815260200191505b509250505060405180910390fd5b50600083858162002e0157fe5b049050809150509392505050565b600083831115829062002ec0576040517f08c379a00000000000000000000000000000000000000000000000000000000081526004018080602001828103825283818151815260200191508051906020019080838360005b8381101562002e8457808201518184015260208101905062002e67565b50505050905090810190601f16801562002eb25780820380516001836020036101000a031916815260200191505b509250505060405180910390fd5b5060008385039050809150509392505050565b6000808447101562002f4d576040517f08c379a000000000000000000000000000000000000000000000000000000000815260040180806020018281038252601d8152602001807f437265617465323a20696e73756666696369656e742062616c616e636500000081525060200191505060405180910390fd5b60008351141562002fc6576040517f08c379a00000000000000000000000000000000000000000000000000000000081526004018080602001828103825260208152602001807f437265617465323a2062797465636f6465206c656e677468206973207a65726f81525060200191505060405180910390fd5b8383516020850187f59050600073ffffffffffffffffffffffffffffffffffffffff168173ffffffffffffffffffffffffffffffffffffffff16141562003075576040517f08c379a00000000000000000000000000000000000000000000000000000000081526004018080602001828103825260198152602001807f437265617465323a204661696c6564206f6e206465706c6f790000000000000081525060200191505060405180910390fd5b809150509392505050565b600460009054906101000a900473ffffffffffffffffffffffffffffffffffffffff1673ffffffffffffffffffffffffffffffffffffffff163373ffffffffffffffffffffffffffffffffffffffff161462003144576040517f08c379a00000000000000000000000000000000000000000000000000000000081526004018080602001828103825260118152602001807f5570446f776e3a4f6e6c79206f776e657200000000000000000000000000000081525060200191505060405180910390fd5b81600260006101000a81548173ffffffffffffffffffffffffffffffffffffffff021916908373ffffffffffffffffffffffffffffffffffffffff16021790555080600360006101000a81548173ffffffffffffffffffffffffffffffffffffffff021916908373ffffffffffffffffffffffffffffffffffffffff1602179055505050565b60008062003242600d60149054906101000a900460ff1660ff166200323362003205670de0b6b3a7640000876200214d90919063ffffffff16565b62003224670de0b6b3a7640000808a026200214d90919063ffffffff16565b62001d6190919063ffffffff16565b6200214d90919063ffffffff16565b9050670de0b6b3a764000081106200327557620032726001670de0b6b3a764000062001dad90919063ffffffff16565b90505b8091505092915050565b600073ffffffffffffffffffffffffffffffffffffffff16600c60009054906101000a900473ffffffffffffffffffffffffffffffffffffffff1673ffffffffffffffffffffffffffffffffffffffff1614620035a157600073ffffffffffffffffffffffffffffffffffffffff16600d60009054906101000a900473ffffffffffffffffffffffffffffffffffffffff1673ffffffffffffffffffffffffffffffffffffffff161415620034c457600c60009054906101000a900473ffffffffffffffffffffffffffffffffffffffff1673ffffffffffffffffffffffffffffffffffffffff1663e6a43905600260009054906101000a900473ffffffffffffffffffffffffffffffffffffffff16600360009054906101000a900473ffffffffffffffffffffffffffffffffffffffff166040518363ffffffff1660e01b8152600401808373ffffffffffffffffffffffffffffffffffffffff1673ffffffffffffffffffffffffffffffffffffffff1681526020018273ffffffffffffffffffffffffffffffffffffffff1673ffffffffffffffffffffffffffffffffffffffff1681526020019250505060206040518083038186803b1580156200344657600080fd5b505afa1580156200345b573d6000803e3d6000fd5b505050506040513d60208110156200347257600080fd5b8101908080519060200190929190505050600d60006101000a81548173ffffffffffffffffffffffffffffffffffffffff021916908373ffffffffffffffffffffffffffffffffffffffff1602179055505b600073ffffffffffffffffffffffffffffffffffffffff16600d60009054906101000a900473ffffffffffffffffffffffffffffffffffffffff1673ffffffffffffffffffffffffffffffffffffffff1614620035a057600d60009054906101000a900473ffffffffffffffffffffffffffffffffffffffff1673ffffffffffffffffffffffffffffffffffffffff1663fff6cae96040518163ffffffff1660e01b8152600401600060405180830381600087803b1580156200358657600080fd5b505af11580156200359b573d6000803e3d6000fd5b505050505b5b565b6129be80620035b28339019056fe60806040523480156200001157600080fd5b506012600560006101000a81548160ff021916908360ff1602179055506000620000406200020760201b60201c565b905080600560016101000a81548173ffffffffffffffffffffffffffffffffffffffff021916908373ffffffffffffffffffffffffffffffffffffffff1602179055508073ffffffffffffffffffffffffffffffffffffffff16600073ffffffffffffffffffffffffffffffffffffffff167f8be0079c531659141344cd1fd0a4f28419497f9722a3daafe3b4186f6b6457e060405160405180910390a3506ec097ce7bc90715b34b9f10000000006006819055506ec097ce7bc90715b34b9f1000000000600019816200011057fe5b0660001903600860003373ffffffffffffffffffffffffffffffffffffffff1673ffffffffffffffffffffffffffffffffffffffff16815260200190815260200160002081905550620001936006546ec097ce7bc90715b34b9f1000000000600019816200017a57fe5b06600019036200020f60201b620023621790919060201c565b6007819055503373ffffffffffffffffffffffffffffffffffffffff16600073ffffffffffffffffffffffffffffffffffffffff167fddf252ad1be2c89b69c2b068fc378daa952ba7f163c4a11628f55a4df523b3ef6006546040518082815260200191505060405180910390a36200032c565b600033905090565b60006200025983836040518060400160405280601a81526020017f536166654d6174683a206469766973696f6e206279207a65726f0000000000008152506200026160201b60201c565b905092915050565b6000808311829062000311576040517f08c379a00000000000000000000000000000000000000000000000000000000081526004018080602001828103825283818151815260200191508051906020019080838360005b83811015620002d5578082015181840152602081019050620002b8565b50505050905090810190601f168015620003035780820380516001836020036101000a031916815260200191505b509250505060405180910390fd5b5060008385816200031e57fe5b049050809150509392505050565b612682806200033c6000396000f3fe608060405234801561001057600080fd5b50600436106100fc5760003560e01c806306fdde0314610101578063077f224a14610184578063095ea7b3146102f657806318160ddd1461035c57806323b872dd1461037a5780632f86556814610400578063313ce56714610458578063395093511461047c57806370a08231146104e2578063715018a61461053a5780637a43e23f146105445780638da5cb5b1461059057806395d89b41146105da578063a457c2d71461065d578063a9059cbb146106c3578063b84c824614610729578063c47f0027146107e4578063dd62ed3e1461089f578063dff4e22014610917578063f2fde38b14610959575b600080fd5b61010961099d565b6040518080602001828103825283818151815260200191508051906020019080838360005b8381101561014957808201518184015260208101905061012e565b50505050905090810190601f1680156101765780820380516001836020036101000a031916815260200191505b509250505060405180910390f35b6102f46004803603606081101561019a57600080fd5b81019080803590602001906401000000008111156101b757600080fd5b8201836020820111156101c957600080fd5b803590602001918460018302840111640100000000831117156101eb57600080fd5b91908080601f016020809104026020016040519081016040528093929190818152602001838380828437600081840152601f19601f8201169050808301925050505050505091929192908035906020019064010000000081111561024e57600080fd5b82018360208201111561026057600080fd5b8035906020019184600183028401116401000000008311171561028257600080fd5b91908080601f016020809104026020016040519081016040528093929190818152602001838380828437600081840152601f19601f820116905080830192505050505050509192919290803573ffffffffffffffffffffffffffffffffffffffff169060200190929190505050610a3f565b005b6103426004803603604081101561030c57600080fd5b81019080803573ffffffffffffffffffffffffffffffffffffffff16906020019092919080359060200190929190505050610c70565b604051808215151515815260200191505060405180910390f35b610364610d62565b6040518082815260200191505060405180910390f35b6103e66004803603606081101561039057600080fd5b81019080803573ffffffffffffffffffffffffffffffffffffffff169060200190929190803573ffffffffffffffffffffffffffffffffffffffff16906020019092919080359060200190929190505050610d6c565b604051808215151515815260200191505060405180910390f35b6104426004803603602081101561041657600080fd5b81019080803573ffffffffffffffffffffffffffffffffffffffff1690602001909291905050506110a6565b6040518082815260200191505060405180910390f35b610460611312565b604051808260ff1660ff16815260200191505060405180910390f35b6104c86004803603604081101561049257600080fd5b81019080803573ffffffffffffffffffffffffffffffffffffffff16906020019092919080359060200190929190505050611329565b604051808215151515815260200191505060405180910390f35b610524600480360360208110156104f857600080fd5b81019080803573ffffffffffffffffffffffffffffffffffffffff169060200190929190505050611525565b6040518082815260200191505060405180910390f35b610542611582565b005b61057a6004803603604081101561055a57600080fd5b81019080803590602001909291908035906020019092919050505061170d565b6040518082815260200191505060405180910390f35b610598611999565b604051808273ffffffffffffffffffffffffffffffffffffffff1673ffffffffffffffffffffffffffffffffffffffff16815260200191505060405180910390f35b6105e26119c3565b6040518080602001828103825283818151815260200191508051906020019080838360005b83811015610622578082015181840152602081019050610607565b50505050905090810190601f16801561064f5780820380516001836020036101000a031916815260200191505b509250505060405180910390f35b6106a96004803603604081101561067357600080fd5b81019080803573ffffffffffffffffffffffffffffffffffffffff16906020019092919080359060200190929190505050611a65565b604051808215151515815260200191505060405180910390f35b61070f600480360360408110156106d957600080fd5b81019080803573ffffffffffffffffffffffffffffffffffffffff16906020019092919080359060200190929190505050611cf5565b604051808215151515815260200191505060405180910390f35b6107e26004803603602081101561073f57600080fd5b810190808035906020019064010000000081111561075c57600080fd5b82018360208201111561076e57600080fd5b8035906020019184600183028401116401000000008311171561079057600080fd5b91908080601f016020809104026020016040519081016040528093929190818152602001838380828437600081840152601f19601f820116905080830192505050505050509192919290505050611f1f565b005b61089d600480360360208110156107fa57600080fd5b810190808035906020019064010000000081111561081757600080fd5b82018360208201111561082957600080fd5b8035906020019184600183028401116401000000008311171561084b57600080fd5b91908080601f016020809104026020016040519081016040528093929190818152602001838380828437600081840152601f19601f820116905080830192505050505050509192919290505050611f39565b005b610901600480360360408110156108b557600080fd5b81019080803573ffffffffffffffffffffffffffffffffffffffff169060200190929190803573ffffffffffffffffffffffffffffffffffffffff169060200190929190505050611f53565b6040518082815260200191505060405180910390f35b6109436004803603602081101561092d57600080fd5b8101908080359060200190929190505050611fda565b6040518082815260200191505060405180910390f35b61099b6004803603602081101561096f57600080fd5b81019080803573ffffffffffffffffffffffffffffffffffffffff169060200190929190505050611ff2565b005b606060038054600181600116156101000203166002900480601f016020809104026020016040519081016040528092919081815260200182805460018160011615610100020316600290048015610a355780601f10610a0a57610100808354040283529160200191610a35565b820191906000526020600020905b815481529060010190602001808311610a1857829003601f168201915b5050505050905090565b610a47612202565b73ffffffffffffffffffffffffffffffffffffffff16600560019054906101000a900473ffffffffffffffffffffffffffffffffffffffff1673ffffffffffffffffffffffffffffffffffffffff1614610b09576040517f08c379a00000000000000000000000000000000000000000000000000000000081526004018080602001828103825260208152602001807f4f776e61626c653a2063616c6c6572206973206e6f7420746865206f776e657281525060200191505060405180910390fd5b610b1283611f39565b610b1b82611f1f565b600060086000610b29611999565b73ffffffffffffffffffffffffffffffffffffffff1673ffffffffffffffffffffffffffffffffffffffff168152602001908152602001600020549050600060086000610b74611999565b73ffffffffffffffffffffffffffffffffffffffff1673ffffffffffffffffffffffffffffffffffffffff16815260200190815260200160002081905550610c0481600860008573ffffffffffffffffffffffffffffffffffffffff1673ffffffffffffffffffffffffffffffffffffffff1681526020019081526020016000205461220a90919063ffffffff16565b600860008473ffffffffffffffffffffffffffffffffffffffff1673ffffffffffffffffffffffffffffffffffffffff168152602001908152602001600020819055506007546009600080815260200190815260200160002081905550610c6a82611ff2565b50505050565b600081600a60003373ffffffffffffffffffffffffffffffffffffffff1673ffffffffffffffffffffffffffffffffffffffff16815260200190815260200160002060008573ffffffffffffffffffffffffffffffffffffffff1673ffffffffffffffffffffffffffffffffffffffff168152602001908152602001600020819055508273ffffffffffffffffffffffffffffffffffffffff163373ffffffffffffffffffffffffffffffffffffffff167f8c5be1e5ebec7d5bd14f71427d1e84f3dd0314c0f7b2291e5b200ac8c7c3b925846040518082815260200191505060405180910390a36001905092915050565b6000600654905090565b600082600073ffffffffffffffffffffffffffffffffffffffff168173ffffffffffffffffffffffffffffffffffffffff161415610da957600080fd5b3073ffffffffffffffffffffffffffffffffffffffff168173ffffffffffffffffffffffffffffffffffffffff161415610de257600080fd5b610e7183600a60008873ffffffffffffffffffffffffffffffffffffffff1673ffffffffffffffffffffffffffffffffffffffff16815260200190815260200160002060003373ffffffffffffffffffffffffffffffffffffffff1673ffffffffffffffffffffffffffffffffffffffff1681526020019081526020016000205461229290919063ffffffff16565b600a60008773ffffffffffffffffffffffffffffffffffffffff1673ffffffffffffffffffffffffffffffffffffffff16815260200190815260200160002060003373ffffffffffffffffffffffffffffffffffffffff1673ffffffffffffffffffffffffffffffffffffffff168152602001908152602001600020819055506000610f08600754856122dc90919063ffffffff16565b9050610f5c81600860008973ffffffffffffffffffffffffffffffffffffffff1673ffffffffffffffffffffffffffffffffffffffff1681526020019081526020016000205461229290919063ffffffff16565b600860008873ffffffffffffffffffffffffffffffffffffffff1673ffffffffffffffffffffffffffffffffffffffff16815260200190815260200160002081905550610ff181600860008873ffffffffffffffffffffffffffffffffffffffff1673ffffffffffffffffffffffffffffffffffffffff1681526020019081526020016000205461220a90919063ffffffff16565b600860008773ffffffffffffffffffffffffffffffffffffffff1673ffffffffffffffffffffffffffffffffffffffff168152602001908152602001600020819055508473ffffffffffffffffffffffffffffffffffffffff168673ffffffffffffffffffffffffffffffffffffffff167fddf252ad1be2c89b69c2b068fc378daa952ba7f163c4a11628f55a4df523b3ef866040518082815260200191505060405180910390a36001925050509392505050565b60006110b0612202565b73ffffffffffffffffffffffffffffffffffffffff16600560019054906101000a900473ffffffffffffffffffffffffffffffffffffffff1673ffffffffffffffffffffffffffffffffffffffff1614611172576040517f08c379a00000000000000000000000000000000000000000000000000000000081526004018080602001828103825260208152602001807f4f776e61626c653a2063616c6c6572206973206e6f7420746865206f776e657281525060200191505060405180910390fd5b6000600860008473ffffffffffffffffffffffffffffffffffffffff1673ffffffffffffffffffffffffffffffffffffffff1681526020019081526020016000205490506000600860008573ffffffffffffffffffffffffffffffffffffffff1673ffffffffffffffffffffffffffffffffffffffff16815260200190815260200160002081905550611254816008600061120b611999565b73ffffffffffffffffffffffffffffffffffffffff1673ffffffffffffffffffffffffffffffffffffffff1681526020019081526020016000205461220a90919063ffffffff16565b60086000611260611999565b73ffffffffffffffffffffffffffffffffffffffff1673ffffffffffffffffffffffffffffffffffffffff168152602001908152602001600020819055507f05aeea22582abbfdbc7681fd1d04fa2fe248c0f77e3734a766e0e431f5f92c2a8382604051808373ffffffffffffffffffffffffffffffffffffffff1673ffffffffffffffffffffffffffffffffffffffff1681526020018281526020019250505060405180910390a180915050919050565b6000600560009054906101000a900460ff16905090565b60006113ba82600a60003373ffffffffffffffffffffffffffffffffffffffff1673ffffffffffffffffffffffffffffffffffffffff16815260200190815260200160002060008673ffffffffffffffffffffffffffffffffffffffff1673ffffffffffffffffffffffffffffffffffffffff1681526020019081526020016000205461220a90919063ffffffff16565b600a60003373ffffffffffffffffffffffffffffffffffffffff1673ffffffffffffffffffffffffffffffffffffffff16815260200190815260200160002060008573ffffffffffffffffffffffffffffffffffffffff1673ffffffffffffffffffffffffffffffffffffffff168152602001908152602001600020819055508273ffffffffffffffffffffffffffffffffffffffff163373ffffffffffffffffffffffffffffffffffffffff167f8c5be1e5ebec7d5bd14f71427d1e84f3dd0314c0f7b2291e5b200ac8c7c3b925600a60003373ffffffffffffffffffffffffffffffffffffffff1673ffffffffffffffffffffffffffffffffffffffff16815260200190815260200160002060008773ffffffffffffffffffffffffffffffffffffffff1673ffffffffffffffffffffffffffffffffffffffff168152602001908152602001600020546040518082815260200191505060405180910390a36001905092915050565b600061157b600754600860008573ffffffffffffffffffffffffffffffffffffffff1673ffffffffffffffffffffffffffffffffffffffff1681526020019081526020016000205461236290919063ffffffff16565b9050919050565b61158a612202565b73ffffffffffffffffffffffffffffffffffffffff16600560019054906101000a900473ffffffffffffffffffffffffffffffffffffffff1673ffffffffffffffffffffffffffffffffffffffff161461164c576040517f08c379a00000000000000000000000000000000000000000000000000000000081526004018080602001828103825260208152602001807f4f776e61626c653a2063616c6c6572206973206e6f7420746865206f776e657281525060200191505060405180910390fd5b600073ffffffffffffffffffffffffffffffffffffffff16600560019054906101000a900473ffffffffffffffffffffffffffffffffffffffff1673ffffffffffffffffffffffffffffffffffffffff167f8be0079c531659141344cd1fd0a4f28419497f9722a3daafe3b4186f6b6457e060405160405180910390a36000600560016101000a81548173ffffffffffffffffffffffffffffffffffffffff021916908373ffffffffffffffffffffffffffffffffffffffff160217905550565b6000611717612202565b73ffffffffffffffffffffffffffffffffffffffff16600560019054906101000a900473ffffffffffffffffffffffffffffffffffffffff1673ffffffffffffffffffffffffffffffffffffffff16146117d9576040517f08c379a00000000000000000000000000000000000000000000000000000000081526004018080602001828103825260208152602001807f4f776e61626c653a2063616c6c6572206973206e6f7420746865206f776e657281525060200191505060405180910390fd5b600082141561184057827f72725a3b1e5bd622d6bcd1339bb31279c351abe8f541ac7fd320f24e1b1641f26006546040518082815260200191505060405180910390a260075460096000858152602001908152602001600020819055506006549050611993565b600082121561187157611866611855836123ac565b60065461229290919063ffffffff16565b60068190555061188d565b6118868260065461220a90919063ffffffff16565b6006819055505b6000196fffffffffffffffffffffffffffffffff1660065411156118c7576000196fffffffffffffffffffffffffffffffff166006819055505b6118fa6006546ec097ce7bc90715b34b9f1000000000600019816118e757fe5b066000190361236290919063ffffffff16565b600781905550600754600960008581526020019081526020016000208190555061194d6007546ec097ce7bc90715b34b9f10000000006000198161193a57fe5b066000190361236290919063ffffffff16565b600681905550827f72725a3b1e5bd622d6bcd1339bb31279c351abe8f541ac7fd320f24e1b1641f26006546040518082815260200191505060405180910390a260065490505b92915050565b6000600560019054906101000a900473ffffffffffffffffffffffffffffffffffffffff16905090565b606060048054600181600116156101000203166002900480601f016020809104026020016040519081016040528092919081815260200182805460018160011615610100020316600290048015611a5b5780601f10611a3057610100808354040283529160200191611a5b565b820191906000526020600020905b815481529060010190602001808311611a3e57829003601f168201915b5050505050905090565b600080600a60003373ffffffffffffffffffffffffffffffffffffffff1673ffffffffffffffffffffffffffffffffffffffff16815260200190815260200160002060008573ffffffffffffffffffffffffffffffffffffffff1673ffffffffffffffffffffffffffffffffffffffff168152602001908152602001600020549050808310611b75576000600a60003373ffffffffffffffffffffffffffffffffffffffff1673ffffffffffffffffffffffffffffffffffffffff16815260200190815260200160002060008673ffffffffffffffffffffffffffffffffffffffff1673ffffffffffffffffffffffffffffffffffffffff16815260200190815260200160002081905550611c09565b611b88838261229290919063ffffffff16565b600a60003373ffffffffffffffffffffffffffffffffffffffff1673ffffffffffffffffffffffffffffffffffffffff16815260200190815260200160002060008673ffffffffffffffffffffffffffffffffffffffff1673ffffffffffffffffffffffffffffffffffffffff168152602001908152602001600020819055505b8373ffffffffffffffffffffffffffffffffffffffff163373ffffffffffffffffffffffffffffffffffffffff167f8c5be1e5ebec7d5bd14f71427d1e84f3dd0314c0f7b2291e5b200ac8c7c3b925600a60003373ffffffffffffffffffffffffffffffffffffffff1673ffffffffffffffffffffffffffffffffffffffff16815260200190815260200160002060008873ffffffffffffffffffffffffffffffffffffffff1673ffffffffffffffffffffffffffffffffffffffff168152602001908152602001600020546040518082815260200191505060405180910390a3600191505092915050565b600082600073ffffffffffffffffffffffffffffffffffffffff168173ffffffffffffffffffffffffffffffffffffffff161415611d3257600080fd5b3073ffffffffffffffffffffffffffffffffffffffff168173ffffffffffffffffffffffffffffffffffffffff161415611d6b57600080fd5b6000611d82600754856122dc90919063ffffffff16565b9050611dd681600860003373ffffffffffffffffffffffffffffffffffffffff1673ffffffffffffffffffffffffffffffffffffffff1681526020019081526020016000205461229290919063ffffffff16565b600860003373ffffffffffffffffffffffffffffffffffffffff1673ffffffffffffffffffffffffffffffffffffffff16815260200190815260200160002081905550611e6b81600860008873ffffffffffffffffffffffffffffffffffffffff1673ffffffffffffffffffffffffffffffffffffffff1681526020019081526020016000205461220a90919063ffffffff16565b600860008773ffffffffffffffffffffffffffffffffffffffff1673ffffffffffffffffffffffffffffffffffffffff168152602001908152602001600020819055508473ffffffffffffffffffffffffffffffffffffffff163373ffffffffffffffffffffffffffffffffffffffff167fddf252ad1be2c89b69c2b068fc378daa952ba7f163c4a11628f55a4df523b3ef866040518082815260200191505060405180910390a360019250505092915050565b8060049080519060200190611f35929190612560565b5050565b8060039080519060200190611f4f929190612560565b5050565b6000600a60008473ffffffffffffffffffffffffffffffffffffffff1673ffffffffffffffffffffffffffffffffffffffff16815260200190815260200160002060008373ffffffffffffffffffffffffffffffffffffffff1673ffffffffffffffffffffffffffffffffffffffff16815260200190815260200160002054905092915050565b60096020528060005260406000206000915090505481565b611ffa612202565b73ffffffffffffffffffffffffffffffffffffffff16600560019054906101000a900473ffffffffffffffffffffffffffffffffffffffff1673ffffffffffffffffffffffffffffffffffffffff16146120bc576040517f08c379a00000000000000000000000000000000000000000000000000000000081526004018080602001828103825260208152602001807f4f776e61626c653a2063616c6c6572206973206e6f7420746865206f776e657281525060200191505060405180910390fd5b600073ffffffffffffffffffffffffffffffffffffffff168173ffffffffffffffffffffffffffffffffffffffff161415612142576040517f08c379a00000000000000000000000000000000000000000000000000000000081526004018080602001828103825260268152602001806126066026913960400191505060405180910390fd5b8073ffffffffffffffffffffffffffffffffffffffff16600560019054906101000a900473ffffffffffffffffffffffffffffffffffffffff1673ffffffffffffffffffffffffffffffffffffffff167f8be0079c531659141344cd1fd0a4f28419497f9722a3daafe3b4186f6b6457e060405160405180910390a380600560016101000a81548173ffffffffffffffffffffffffffffffffffffffff021916908373ffffffffffffffffffffffffffffffffffffffff16021790555050565b600033905090565b600080828401905083811015612288576040517f08c379a000000000000000000000000000000000000000000000000000000000815260040180806020018281038252601b8152602001807f536166654d6174683a206164646974696f6e206f766572666c6f77000000000081525060200191505060405180910390fd5b8091505092915050565b60006122d483836040518060400160405280601e81526020017f536166654d6174683a207375627472616374696f6e206f766572666c6f7700008152506123da565b905092915050565b6000808314156122ef576000905061235c565b600082840290508284828161230057fe5b0414612357576040517f08c379a000000000000000000000000000000000000000000000000000000000815260040180806020018281038252602181526020018061262c6021913960400191505060405180910390fd5b809150505b92915050565b60006123a483836040518060400160405280601a81526020017f536166654d6174683a206469766973696f6e206279207a65726f00000000000081525061249a565b905092915050565b600060ff6001901b8214156123c057600080fd5b600082126123ce57816123d3565b816000035b9050919050565b6000838311158290612487576040517f08c379a00000000000000000000000000000000000000000000000000000000081526004018080602001828103825283818151815260200191508051906020019080838360005b8381101561244c578082015181840152602081019050612431565b50505050905090810190601f1680156124795780820380516001836020036101000a031916815260200191505b509250505060405180910390fd5b5060008385039050809150509392505050565b60008083118290612546576040517f08c379a00000000000000000000000000000000000000000000000000000000081526004018080602001828103825283818151815260200191508051906020019080838360005b8381101561250b5780820151818401526020810190506124f0565b50505050905090810190601f1680156125385780820380516001836020036101000a031916815260200191505b509250505060405180910390fd5b50600083858161255257fe5b049050809150509392505050565b828054600181600116156101000203166002900490600052602060002090601f016020900481019282601f106125a157805160ff19168380011785556125cf565b828001600101855582156125cf579182015b828111156125ce5782518255916020019190600101906125b3565b5b5090506125dc91906125e0565b5090565b61260291905b808211156125fe5760008160009055506001016125e6565b5090565b9056fe4f776e61626c653a206e6577206f776e657220697320746865207a65726f2061646472657373536166654d6174683a206d756c7469706c69636174696f6e206f766572666c6f77a26469706673582212202ebf2c139a7139189836f4dc593468b919ea467980dcf6be3911c626554debdd64736f6c63430006060033536166654d6174683a206d756c7469706c69636174696f6e206f766572666c6f77a26469706673582212207b2ad8fede56ae566a65cc1e0f2eac39a0dfc6ee270529956d10b8aa4c7f628a64736f6c63430006060033",
  "devdoc": {
    "methods": {}
  },
  "userdoc": {
    "methods": {
      "settle()": {
        "notice": "The user wants out of the pool and so at the end of this epoch we will let them cash out."
      }
    }
  },
  "storageLayout": {
    "storage": [
      {
        "astId": 2749,
        "contract": "contracts/OptionsPool.sol:OptionsPool",
        "label": "settlements",
        "offset": 0,
        "slot": "0",
        "type": "t_mapping(t_address,t_struct(Settlement)2745_storage)"
      },
      {
        "astId": 2753,
        "contract": "contracts/OptionsPool.sol:OptionsPool",
        "label": "epochToPrice",
        "offset": 0,
        "slot": "1",
        "type": "t_mapping(t_uint256,t_uint256)"
      },
      {
        "astId": 2755,
        "contract": "contracts/OptionsPool.sol:OptionsPool",
        "label": "up",
        "offset": 0,
        "slot": "2",
        "type": "t_contract(RebaseableToken)4363"
      },
      {
        "astId": 2757,
        "contract": "contracts/OptionsPool.sol:OptionsPool",
        "label": "down",
        "offset": 0,
        "slot": "3",
        "type": "t_contract(RebaseableToken)4363"
      },
      {
        "astId": 2759,
        "contract": "contracts/OptionsPool.sol:OptionsPool",
        "label": "owner",
        "offset": 0,
        "slot": "4",
        "type": "t_address"
      },
      {
        "astId": 2761,
        "contract": "contracts/OptionsPool.sol:OptionsPool",
        "label": "oracle",
        "offset": 0,
        "slot": "5",
        "type": "t_contract(IPriceOracleGetter)5161"
      },
      {
        "astId": 2763,
        "contract": "contracts/OptionsPool.sol:OptionsPool",
        "label": "epochStartPrice",
        "offset": 0,
        "slot": "6",
        "type": "t_uint256"
      },
      {
        "astId": 2765,
        "contract": "contracts/OptionsPool.sol:OptionsPool",
        "label": "epochStart",
        "offset": 0,
        "slot": "7",
        "type": "t_uint256"
      },
      {
        "astId": 2768,
        "contract": "contracts/OptionsPool.sol:OptionsPool",
        "label": "epoch",
        "offset": 0,
        "slot": "8",
        "type": "t_uint256"
      },
      {
        "astId": 2770,
        "contract": "contracts/OptionsPool.sol:OptionsPool",
        "label": "epochLength",
        "offset": 0,
        "slot": "9",
        "type": "t_uint256"
      },
      {
        "astId": 2772,
        "contract": "contracts/OptionsPool.sol:OptionsPool",
        "label": "underlying",
        "offset": 0,
        "slot": "10",
        "type": "t_contract(IERC20)985"
      },
      {
        "astId": 2774,
        "contract": "contracts/OptionsPool.sol:OptionsPool",
        "label": "payoutToken",
        "offset": 0,
        "slot": "11",
        "type": "t_contract(IERC20)985"
      },
      {
        "astId": 2776,
        "contract": "contracts/OptionsPool.sol:OptionsPool",
        "label": "uniswapFactory",
        "offset": 0,
        "slot": "12",
        "type": "t_contract(IMinimalUniswapV2Factory)5146"
      },
      {
        "astId": 2778,
        "contract": "contracts/OptionsPool.sol:OptionsPool",
        "label": "uniswapPair",
        "offset": 0,
        "slot": "13",
        "type": "t_contract(IMinimalUniswapV2Pair)5150"
      },
      {
        "astId": 2780,
        "contract": "contracts/OptionsPool.sol:OptionsPool",
        "label": "multiplier",
        "offset": 20,
        "slot": "13",
        "type": "t_uint8"
      }
    ],
    "types": {
      "t_address": {
        "encoding": "inplace",
        "label": "address",
        "numberOfBytes": "20"
      },
      "t_contract(IERC20)985": {
        "encoding": "inplace",
        "label": "contract IERC20",
        "numberOfBytes": "20"
      },
      "t_contract(IMinimalUniswapV2Factory)5146": {
        "encoding": "inplace",
        "label": "contract IMinimalUniswapV2Factory",
        "numberOfBytes": "20"
      },
      "t_contract(IMinimalUniswapV2Pair)5150": {
        "encoding": "inplace",
        "label": "contract IMinimalUniswapV2Pair",
        "numberOfBytes": "20"
      },
      "t_contract(IPriceOracleGetter)5161": {
        "encoding": "inplace",
        "label": "contract IPriceOracleGetter",
        "numberOfBytes": "20"
      },
      "t_contract(RebaseableToken)4363": {
        "encoding": "inplace",
        "label": "contract RebaseableToken",
        "numberOfBytes": "20"
      },
      "t_mapping(t_address,t_struct(Settlement)2745_storage)": {
        "encoding": "mapping",
        "key": "t_address",
        "label": "mapping(address => struct OptionsPool.Settlement)",
        "numberOfBytes": "32",
        "value": "t_struct(Settlement)2745_storage"
      },
      "t_mapping(t_uint256,t_uint256)": {
        "encoding": "mapping",
        "key": "t_uint256",
        "label": "mapping(uint256 => uint256)",
        "numberOfBytes": "32",
        "value": "t_uint256"
      },
      "t_struct(Settlement)2745_storage": {
        "encoding": "inplace",
        "label": "struct OptionsPool.Settlement",
        "members": [
          {
            "astId": 2740,
            "contract": "contracts/OptionsPool.sol:OptionsPool",
            "label": "ups",
            "offset": 0,
            "slot": "0",
            "type": "t_uint256"
          },
          {
            "astId": 2742,
            "contract": "contracts/OptionsPool.sol:OptionsPool",
            "label": "downs",
            "offset": 0,
            "slot": "1",
            "type": "t_uint256"
          },
          {
            "astId": 2744,
            "contract": "contracts/OptionsPool.sol:OptionsPool",
            "label": "epoch",
            "offset": 0,
            "slot": "2",
            "type": "t_uint256"
          }
        ],
        "numberOfBytes": "96"
      },
      "t_uint256": {
        "encoding": "inplace",
        "label": "uint256",
        "numberOfBytes": "32"
      },
      "t_uint8": {
        "encoding": "inplace",
        "label": "uint8",
        "numberOfBytes": "1"
      }
    }
  },
  "gasEstimates": {
    "creation": {
      "codeDepositCost": "4903600",
      "executionCost": "31674",
      "totalCost": "4935274"
    },
    "external": {
      "deposit(uint256)": "infinite",
      "down()": "1449",
      "epoch()": "1291",
      "epochLength()": "1115",
      "epochStart()": "1027",
      "epochStartPrice()": "1247",
      "epochToPrice(uint256)": "1383",
      "initialize(address,address,uint256,uint8,address,address,address)": "infinite",
      "liquidate()": "infinite",
      "multiplier()": "1147",
      "mySettlement()": "infinite",
      "oracle()": "1229",
      "payoutToken()": "1141",
      "setOwner(address)": "21971",
      "settle()": "infinite",
      "testForEnd()": "infinite",
      "underlying()": "1185",
      "uniswapFactory()": "1317",
      "uniswapPair()": "1405",
      "up()": "1427"
    },
    "internal": {
      "createUpAndDown()": "infinite",
      "endEpoch()": "infinite",
      "percentChangeMax100(uint256,uint256)": "infinite",
      "setTokens(address,address)": "infinite",
      "updatePrice(uint256)": "infinite",
      "updateUniswap()": "infinite"
    }
  }
}