{
  "abi": [
    {
      "inputs": [
        {
          "internalType": "address",
          "name": "admin_",
          "type": "address"
        },
        {
          "internalType": "uint256",
          "name": "delay_",
          "type": "uint256"
        },
        {
          "internalType": "address",
          "name": "chk_",
          "type": "address"
        }
      ],
      "stateMutability": "nonpayable",
      "type": "constructor"
    },
    {
      "anonymous": false,
      "inputs": [
        {
          "indexed": true,
          "internalType": "bytes32",
          "name": "txHash",
          "type": "bytes32"
        },
        {
          "indexed": true,
          "internalType": "address",
          "name": "target",
          "type": "address"
        },
        {
          "indexed": false,
          "internalType": "uint256",
          "name": "value",
          "type": "uint256"
        },
        {
          "indexed": false,
          "internalType": "string",
          "name": "signature",
          "type": "string"
        },
        {
          "indexed": false,
          "internalType": "bytes",
          "name": "data",
          "type": "bytes"
        },
        {
          "indexed": false,
          "internalType": "uint256",
          "name": "eta",
          "type": "uint256"
        }
      ],
      "name": "CancelTransaction",
      "type": "event"
    },
    {
      "anonymous": false,
      "inputs": [
        {
          "indexed": true,
          "internalType": "bytes32",
          "name": "txHash",
          "type": "bytes32"
        },
        {
          "indexed": true,
          "internalType": "address",
          "name": "target",
          "type": "address"
        },
        {
          "indexed": false,
          "internalType": "uint256",
          "name": "value",
          "type": "uint256"
        },
        {
          "indexed": false,
          "internalType": "string",
          "name": "signature",
          "type": "string"
        },
        {
          "indexed": false,
          "internalType": "bytes",
          "name": "data",
          "type": "bytes"
        },
        {
          "indexed": false,
          "internalType": "uint256",
          "name": "eta",
          "type": "uint256"
        }
      ],
      "name": "ExecuteTransaction",
      "type": "event"
    },
    {
      "anonymous": false,
      "inputs": [
        {
          "indexed": true,
          "internalType": "address",
          "name": "newAdmin",
          "type": "address"
        }
      ],
      "name": "NewAdmin",
      "type": "event"
    },
    {
      "anonymous": false,
      "inputs": [
        {
          "indexed": true,
          "internalType": "uint256",
          "name": "newDelay",
          "type": "uint256"
        }
      ],
      "name": "NewDelay",
      "type": "event"
    },
    {
      "anonymous": false,
      "inputs": [
        {
          "indexed": true,
          "internalType": "address",
          "name": "newPendingAdmin",
          "type": "address"
        }
      ],
      "name": "NewPendingAdmin",
      "type": "event"
    },
    {
      "anonymous": false,
      "inputs": [
        {
          "indexed": true,
          "internalType": "bytes32",
          "name": "txHash",
          "type": "bytes32"
        },
        {
          "indexed": true,
          "internalType": "address",
          "name": "target",
          "type": "address"
        },
        {
          "indexed": false,
          "internalType": "uint256",
          "name": "value",
          "type": "uint256"
        },
        {
          "indexed": false,
          "internalType": "string",
          "name": "signature",
          "type": "string"
        },
        {
          "indexed": false,
          "internalType": "bytes",
          "name": "data",
          "type": "bytes"
        },
        {
          "indexed": false,
          "internalType": "uint256",
          "name": "eta",
          "type": "uint256"
        }
      ],
      "name": "QueueTransaction",
      "type": "event"
    },
    {
      "anonymous": false,
      "inputs": [
        {
          "indexed": true,
          "internalType": "address",
          "name": "voter",
          "type": "address"
        },
        {
          "indexed": true,
          "internalType": "bytes32",
          "name": "txHash",
          "type": "bytes32"
        },
        {
          "indexed": false,
          "internalType": "bool",
          "name": "support",
          "type": "bool"
        },
        {
          "indexed": false,
          "internalType": "uint256",
          "name": "votes",
          "type": "uint256"
        }
      ],
      "name": "VoteCast",
      "type": "event"
    },
    {
      "inputs": [],
      "name": "GRACE_PERIOD",
      "outputs": [
        {
          "internalType": "uint256",
          "name": "",
          "type": "uint256"
        }
      ],
      "stateMutability": "view",
      "type": "function"
    },
    {
      "inputs": [],
      "name": "MAXIMUM_DELAY",
      "outputs": [
        {
          "internalType": "uint256",
          "name": "",
          "type": "uint256"
        }
      ],
      "stateMutability": "view",
      "type": "function"
    },
    {
      "inputs": [],
      "name": "MINIMUM_DELAY",
      "outputs": [
        {
          "internalType": "uint256",
          "name": "",
          "type": "uint256"
        }
      ],
      "stateMutability": "view",
      "type": "function"
    },
    {
      "inputs": [],
      "name": "acceptAdmin",
      "outputs": [],
      "stateMutability": "nonpayable",
      "type": "function"
    },
    {
      "inputs": [],
      "name": "admin",
      "outputs": [
        {
          "internalType": "address",
          "name": "",
          "type": "address"
        }
      ],
      "stateMutability": "view",
      "type": "function"
    },
    {
      "inputs": [],
      "name": "admin_initialized",
      "outputs": [
        {
          "internalType": "bool",
          "name": "",
          "type": "bool"
        }
      ],
      "stateMutability": "view",
      "type": "function"
    },
    {
      "inputs": [
        {
          "internalType": "address",
          "name": "target",
          "type": "address"
        },
        {
          "internalType": "uint256",
          "name": "value",
          "type": "uint256"
        },
        {
          "internalType": "string",
          "name": "signature",
          "type": "string"
        },
        {
          "internalType": "bytes",
          "name": "data",
          "type": "bytes"
        },
        {
          "internalType": "uint256",
          "name": "eta",
          "type": "uint256"
        }
      ],
      "name": "cancelTransaction",
      "outputs": [],
      "stateMutability": "nonpayable",
      "type": "function"
    },
    {
      "inputs": [],
      "name": "delay",
      "outputs": [
        {
          "internalType": "uint256",
          "name": "",
          "type": "uint256"
        }
      ],
      "stateMutability": "view",
      "type": "function"
    },
    {
      "inputs": [
        {
          "internalType": "address",
          "name": "target",
          "type": "address"
        },
        {
          "internalType": "uint256",
          "name": "value",
          "type": "uint256"
        },
        {
          "internalType": "string",
          "name": "signature",
          "type": "string"
        },
        {
          "internalType": "bytes",
          "name": "data",
          "type": "bytes"
        },
        {
          "internalType": "uint256",
          "name": "eta",
          "type": "uint256"
        }
      ],
      "name": "executeTransaction",
      "outputs": [
        {
          "internalType": "bytes",
          "name": "",
          "type": "bytes"
        }
      ],
      "stateMutability": "payable",
      "type": "function"
    },
    {
      "inputs": [],
      "name": "pendingAdmin",
      "outputs": [
        {
          "internalType": "address",
          "name": "",
          "type": "address"
        }
      ],
      "stateMutability": "view",
      "type": "function"
    },
    {
      "inputs": [
        {
          "internalType": "address",
          "name": "target",
          "type": "address"
        },
        {
          "internalType": "uint256",
          "name": "value",
          "type": "uint256"
        },
        {
          "internalType": "string",
          "name": "signature",
          "type": "string"
        },
        {
          "internalType": "bytes",
          "name": "data",
          "type": "bytes"
        },
        {
          "internalType": "uint256",
          "name": "eta",
          "type": "uint256"
        }
      ],
      "name": "queueTransaction",
      "outputs": [
        {
          "internalType": "bytes32",
          "name": "",
          "type": "bytes32"
        }
      ],
      "stateMutability": "nonpayable",
      "type": "function"
    },
    {
      "inputs": [
        {
          "internalType": "bytes32",
          "name": "",
          "type": "bytes32"
        }
      ],
      "name": "queuedTransactions",
      "outputs": [
        {
          "internalType": "uint256",
          "name": "queuedBlock",
          "type": "uint256"
        },
        {
          "internalType": "uint256",
          "name": "againstVotes",
          "type": "uint256"
        },
        {
          "internalType": "uint256",
          "name": "totalSupply",
          "type": "uint256"
        },
        {
          "internalType": "bool",
          "name": "queued",
          "type": "bool"
        }
      ],
      "stateMutability": "view",
      "type": "function"
    },
    {
      "inputs": [
        {
          "internalType": "uint256",
          "name": "delay_",
          "type": "uint256"
        }
      ],
      "name": "setDelay",
      "outputs": [],
      "stateMutability": "nonpayable",
      "type": "function"
    },
    {
      "inputs": [
        {
          "internalType": "address",
          "name": "pendingAdmin_",
          "type": "address"
        }
      ],
      "name": "setPendingAdmin",
      "outputs": [],
      "stateMutability": "nonpayable",
      "type": "function"
    },
    {
      "inputs": [
        {
          "internalType": "bytes32",
          "name": "txHash",
          "type": "bytes32"
        }
      ],
      "name": "veto",
      "outputs": [],
      "stateMutability": "nonpayable",
      "type": "function"
    },
    {
      "stateMutability": "payable",
      "type": "receive"
    }
  ],
  "address": "0xeADAbaBA781b91e36Cc0DcA4EC6f87b8f0732cf8",
  "args": [
    "0x70A5C9D346416f901826581d423Cd5B92d44Ff5a",
    "172800",
    "0x141D0c7d6A728B4aE475bf2A52C72Cd5e06A3056"
  ],
  "solcInputHash": "0xee773e4688817491e4fd3adb1a9cfca6773794e23eae5f62e53f922420011816",
  "bytecode": "0x608060405234801561001057600080fd5b50604051620028a6380380620028a68339818101604052606081101561003557600080fd5b810190808051906020019092919080519060200190929190805190602001909291905050506202a3008210156100b7576040517f08c379a00000000000000000000000000000000000000000000000000000000081526004018080602001828103825260378152602001806200286f6037913960400191505060405180910390fd5b62278d00821115610114576040517f08c379a000000000000000000000000000000000000000000000000000000000815260040180806020018281038252603b81526020018062002834603b913960400191505060405180910390fd5b826000806101000a81548173ffffffffffffffffffffffffffffffffffffffff021916908373ffffffffffffffffffffffffffffffffffffffff160217905550816002819055506000600360006101000a81548160ff02191690831515021790555080600360016101000a81548173ffffffffffffffffffffffffffffffffffffffff021916908373ffffffffffffffffffffffffffffffffffffffff16021790555050505061266a80620001ca6000396000f3fe6080604052600436106100bc5760003560e01c80630825f38f146100c85780630e18b681146102c757806326782247146102de5780633a66f901146103355780634dd18bf5146104dc578063591fcdfe1461052d5780636a42b8f8146106c05780636fc1f57e146106eb5780637d645fab1461071a578063b1b43ae514610745578063c1a287e214610770578063e177246e1461079b578063f2b06537146107d6578063f851a4401461083e578063fb6f93f914610895576100c3565b366100c357005b600080fd5b61024c600480360360a08110156100de57600080fd5b81019080803573ffffffffffffffffffffffffffffffffffffffff169060200190929190803590602001909291908035906020019064010000000081111561012557600080fd5b82018360208201111561013757600080fd5b8035906020019184600183028401116401000000008311171561015957600080fd5b91908080601f016020809104026020016040519081016040528093929190818152602001838380828437600081840152601f19601f820116905080830192505050505050509192919290803590602001906401000000008111156101bc57600080fd5b8201836020820111156101ce57600080fd5b803590602001918460018302840111640100000000831117156101f057600080fd5b91908080601f016020809104026020016040519081016040528093929190818152602001838380828437600081840152601f19601f820116905080830192505050505050509192919290803590602001909291905050506108d0565b6040518080602001828103825283818151815260200191508051906020019080838360005b8381101561028c578082015181840152602081019050610271565b50505050905090810190601f1680156102b95780820380516001836020036101000a031916815260200191505b509250505060405180910390f35b3480156102d357600080fd5b506102dc610ffb565b005b3480156102ea57600080fd5b506102f3611189565b604051808273ffffffffffffffffffffffffffffffffffffffff1673ffffffffffffffffffffffffffffffffffffffff16815260200191505060405180910390f35b34801561034157600080fd5b506104c6600480360360a081101561035857600080fd5b81019080803573ffffffffffffffffffffffffffffffffffffffff169060200190929190803590602001909291908035906020019064010000000081111561039f57600080fd5b8201836020820111156103b157600080fd5b803590602001918460018302840111640100000000831117156103d357600080fd5b91908080601f016020809104026020016040519081016040528093929190818152602001838380828437600081840152601f19601f8201169050808301925050505050505091929192908035906020019064010000000081111561043657600080fd5b82018360208201111561044857600080fd5b8035906020019184600183028401116401000000008311171561046a57600080fd5b91908080601f016020809104026020016040519081016040528093929190818152602001838380828437600081840152601f19601f820116905080830192505050505050509192919290803590602001909291905050506111af565b6040518082815260200191505060405180910390f35b3480156104e857600080fd5b5061052b600480360360208110156104ff57600080fd5b81019080803573ffffffffffffffffffffffffffffffffffffffff169060200190929190505050611632565b005b34801561053957600080fd5b506106be600480360360a081101561055057600080fd5b81019080803573ffffffffffffffffffffffffffffffffffffffff169060200190929190803590602001909291908035906020019064010000000081111561059757600080fd5b8201836020820111156105a957600080fd5b803590602001918460018302840111640100000000831117156105cb57600080fd5b91908080601f016020809104026020016040519081016040528093929190818152602001838380828437600081840152601f19601f8201169050808301925050505050505091929192908035906020019064010000000081111561062e57600080fd5b82018360208201111561064057600080fd5b8035906020019184600183028401116401000000008311171561066257600080fd5b91908080601f016020809104026020016040519081016040528093929190818152602001838380828437600081840152601f19601f8201169050808301925050505050505091929192908035906020019092919050505061183a565b005b3480156106cc57600080fd5b506106d5611b88565b6040518082815260200191505060405180910390f35b3480156106f757600080fd5b50610700611b8e565b604051808215151515815260200191505060405180910390f35b34801561072657600080fd5b5061072f611ba1565b6040518082815260200191505060405180910390f35b34801561075157600080fd5b5061075a611ba8565b6040518082815260200191505060405180910390f35b34801561077c57600080fd5b50610785611baf565b6040518082815260200191505060405180910390f35b3480156107a757600080fd5b506107d4600480360360208110156107be57600080fd5b8101908080359060200190929190505050611bb6565b005b3480156107e257600080fd5b5061080f600480360360208110156107f957600080fd5b8101908080359060200190929190505050611d2b565b604051808581526020018481526020018381526020018215151515815260200194505050505060405180910390f35b34801561084a57600080fd5b50610853611d68565b604051808273ffffffffffffffffffffffffffffffffffffffff1673ffffffffffffffffffffffffffffffffffffffff16815260200191505060405180910390f35b3480156108a157600080fd5b506108ce600480360360208110156108b857600080fd5b8101908080359060200190929190505050611d8d565b005b60606000809054906101000a900473ffffffffffffffffffffffffffffffffffffffff1673ffffffffffffffffffffffffffffffffffffffff163373ffffffffffffffffffffffffffffffffffffffff1614610977576040517f08c379a00000000000000000000000000000000000000000000000000000000081526004018080602001828103825260388152602001806122996038913960400191505060405180910390fd5b60008686868686604051602001808673ffffffffffffffffffffffffffffffffffffffff1673ffffffffffffffffffffffffffffffffffffffff1681526020018581526020018060200180602001848152602001838103835286818151815260200191508051906020019080838360005b83811015610a035780820151818401526020810190506109e8565b50505050905090810190601f168015610a305780820380516001836020036101000a031916815260200191505b50838103825285818151815260200191508051906020019080838360005b83811015610a69578082015181840152602081019050610a4e565b50505050905090810190601f168015610a965780820380516001836020036101000a031916815260200191505b509750505050505050506040516020818303038152906040528051906020012090506004600082815260200190815260200160002060040160009054906101000a900460ff16610b31576040517f08c379a000000000000000000000000000000000000000000000000000000000815260040180806020018281038252603d815260200180612457603d913960400191505060405180910390fd5b82610b3a612072565b1015610b91576040517f08c379a000000000000000000000000000000000000000000000000000000000815260040180806020018281038252604581526020018061236b6045913960600191505060405180910390fd5b610ba7621275008461207a90919063ffffffff16565b610baf612072565b1115610c06576040517f08c379a00000000000000000000000000000000000000000000000000000000081526004018080602001828103825260338152602001806123386033913960400191505060405180910390fd5b6000600460008381526020019081526020016000209050600081600201541115610cb1576033610c5a8260030154610c4c6064856002015461210290919063ffffffff16565b61218890919063ffffffff16565b10610cb0576040517f08c379a00000000000000000000000000000000000000000000000000000000081526004018080602001828103825260308152602001806123086030913960400191505060405180910390fd5b5b60008160040160006101000a81548160ff021916908315150217905550600081600101819055506060600087511415610cec57859050610da7565b86805190602001208660405160200180837bffffffffffffffffffffffffffffffffffffffffffffffffffffffff19167bffffffffffffffffffffffffffffffffffffffffffffffffffffffff1916815260040182805190602001908083835b60208310610d6f5780518252602082019150602081019050602083039250610d4c565b6001836020036101000a0380198251168184511680821785525050505050509050019250505060405160208183030381529060405290505b600060608a73ffffffffffffffffffffffffffffffffffffffff168a846040518082805190602001908083835b60208310610df75780518252602082019150602081019050602083039250610dd4565b6001836020036101000a03801982511681845116808217855250505050505090500191505060006040518083038185875af1925050503d8060008114610e59576040519150601f19603f3d011682016040523d82523d6000602084013e610e5e565b606091505b509150915081610eb9576040517f08c379a000000000000000000000000000000000000000000000000000000000815260040180806020018281038252603d81526020018061257e603d913960400191505060405180910390fd5b8a73ffffffffffffffffffffffffffffffffffffffff16857fa560e3198060a2f10670c1ec5b403077ea6ae93ca8de1c32b451dc1a943cd6e78c8c8c8c604051808581526020018060200180602001848152602001838103835286818151815260200191508051906020019080838360005b83811015610f46578082015181840152602081019050610f2b565b50505050905090810190601f168015610f735780820380516001836020036101000a031916815260200191505b50838103825285818151815260200191508051906020019080838360005b83811015610fac578082015181840152602081019050610f91565b50505050905090810190601f168015610fd95780820380516001836020036101000a031916815260200191505b50965050505050505060405180910390a3809550505050505095945050505050565b600160009054906101000a900473ffffffffffffffffffffffffffffffffffffffff1673ffffffffffffffffffffffffffffffffffffffff163373ffffffffffffffffffffffffffffffffffffffff16146110a1576040517f08c379a00000000000000000000000000000000000000000000000000000000081526004018080602001828103825260388152602001806124b56038913960400191505060405180910390fd5b336000806101000a81548173ffffffffffffffffffffffffffffffffffffffff021916908373ffffffffffffffffffffffffffffffffffffffff1602179055506000600160006101000a81548173ffffffffffffffffffffffffffffffffffffffff021916908373ffffffffffffffffffffffffffffffffffffffff1602179055506000809054906101000a900473ffffffffffffffffffffffffffffffffffffffff1673ffffffffffffffffffffffffffffffffffffffff167f71614071b88dee5e0b2ae578a9dd7b2ebbe9ae832ba419dc0242cd065a290b6c60405160405180910390a2565b600160009054906101000a900473ffffffffffffffffffffffffffffffffffffffff1681565b60008060009054906101000a900473ffffffffffffffffffffffffffffffffffffffff1673ffffffffffffffffffffffffffffffffffffffff163373ffffffffffffffffffffffffffffffffffffffff1614611256576040517f08c379a00000000000000000000000000000000000000000000000000000000081526004018080602001828103825260368152602001806125486036913960400191505060405180910390fd5b611272600254611264612072565b61207a90919063ffffffff16565b8210156112ca576040517f08c379a00000000000000000000000000000000000000000000000000000000081526004018080602001828103825260498152602001806125bb6049913960600191505060405180910390fd5b60008686868686604051602001808673ffffffffffffffffffffffffffffffffffffffff1673ffffffffffffffffffffffffffffffffffffffff1681526020018581526020018060200180602001848152602001838103835286818151815260200191508051906020019080838360005b8381101561135657808201518184015260208101905061133b565b50505050905090810190601f1680156113835780820380516001836020036101000a031916815260200191505b50838103825285818151815260200191508051906020019080838360005b838110156113bc5780820151818401526020810190506113a1565b50505050905090810190601f1680156113e95780820380516001836020036101000a031916815260200191505b50975050505050505050604051602081830303815290604052805190602001209050600060046000838152602001908152602001600020905060018160040160006101000a81548160ff021916908315150217905550438160010181905550600360019054906101000a900473ffffffffffffffffffffffffffffffffffffffff1673ffffffffffffffffffffffffffffffffffffffff166318160ddd6040518163ffffffff1660e01b815260040160206040518083038186803b1580156114b057600080fd5b505afa1580156114c4573d6000803e3d6000fd5b505050506040513d60208110156114da57600080fd5b810190808051906020019092919050505081600301819055508773ffffffffffffffffffffffffffffffffffffffff16827f76e2796dc3a81d57b0e8504b647febcbeeb5f4af818e164f11eef8131a6a763f89898989604051808581526020018060200180602001848152602001838103835286818151815260200191508051906020019080838360005b83811015611580578082015181840152602081019050611565565b50505050905090810190601f1680156115ad5780820380516001836020036101000a031916815260200191505b50838103825285818151815260200191508051906020019080838360005b838110156115e65780820151818401526020810190506115cb565b50505050905090810190601f1680156116135780820380516001836020036101000a031916815260200191505b50965050505050505060405180910390a3819250505095945050505050565b600360009054906101000a900460ff16156116d0573073ffffffffffffffffffffffffffffffffffffffff163373ffffffffffffffffffffffffffffffffffffffff16146116cb576040517f08c379a00000000000000000000000000000000000000000000000000000000081526004018080602001828103825260388152602001806125106038913960400191505060405180910390fd5b611791565b6000809054906101000a900473ffffffffffffffffffffffffffffffffffffffff1673ffffffffffffffffffffffffffffffffffffffff163373ffffffffffffffffffffffffffffffffffffffff1614611775576040517f08c379a000000000000000000000000000000000000000000000000000000000815260040180806020018281038252603b8152602001806123e4603b913960400191505060405180910390fd5b6001600360006101000a81548160ff0219169083151502179055505b80600160006101000a81548173ffffffffffffffffffffffffffffffffffffffff021916908373ffffffffffffffffffffffffffffffffffffffff160217905550600160009054906101000a900473ffffffffffffffffffffffffffffffffffffffff1673ffffffffffffffffffffffffffffffffffffffff167f69d78e38a01985fbb1462961809b4b2d65531bc93b2b94037f3334b82ca4a75660405160405180910390a250565b6000809054906101000a900473ffffffffffffffffffffffffffffffffffffffff1673ffffffffffffffffffffffffffffffffffffffff163373ffffffffffffffffffffffffffffffffffffffff16146118df576040517f08c379a00000000000000000000000000000000000000000000000000000000081526004018080602001828103825260378152602001806122d16037913960400191505060405180910390fd5b60008585858585604051602001808673ffffffffffffffffffffffffffffffffffffffff1673ffffffffffffffffffffffffffffffffffffffff1681526020018581526020018060200180602001848152602001838103835286818151815260200191508051906020019080838360005b8381101561196b578082015181840152602081019050611950565b50505050905090810190601f1680156119985780820380516001836020036101000a031916815260200191505b50838103825285818151815260200191508051906020019080838360005b838110156119d15780820151818401526020810190506119b6565b50505050905090810190601f1680156119fe5780820380516001836020036101000a031916815260200191505b5097505050505050505060405160208183030381529060405280519060200120905060006004600083815260200190815260200160002060040160006101000a81548160ff0219169083151502179055508573ffffffffffffffffffffffffffffffffffffffff16817f2fffc091a501fd91bfbff27141450d3acb40fb8e6d8382b243ec7a812a3aaf8787878787604051808581526020018060200180602001848152602001838103835286818151815260200191508051906020019080838360005b83811015611adc578082015181840152602081019050611ac1565b50505050905090810190601f168015611b095780820380516001836020036101000a031916815260200191505b50838103825285818151815260200191508051906020019080838360005b83811015611b42578082015181840152602081019050611b27565b50505050905090810190601f168015611b6f5780820380516001836020036101000a031916815260200191505b50965050505050505060405180910390a3505050505050565b60025481565b600360009054906101000a900460ff1681565b62278d0081565b6202a30081565b6212750081565b3073ffffffffffffffffffffffffffffffffffffffff163373ffffffffffffffffffffffffffffffffffffffff1614611c3a576040517f08c379a00000000000000000000000000000000000000000000000000000000081526004018080602001828103825260318152602001806126046031913960400191505060405180910390fd5b6202a300811015611c96576040517f08c379a00000000000000000000000000000000000000000000000000000000081526004018080602001828103825260348152602001806123b06034913960400191505060405180910390fd5b62278d00811115611cf2576040517f08c379a000000000000000000000000000000000000000000000000000000000815260040180806020018281038252603881526020018061241f6038913960400191505060405180910390fd5b806002819055506002547f948b1f6a42ee138b7e34058ba85a37f716d55ff25ff05a763f15bed6a04c8d2c60405160405180910390a250565b60046020528060005260406000206000915090508060010154908060020154908060030154908060040160009054906101000a900460ff16905084565b6000809054906101000a900473ffffffffffffffffffffffffffffffffffffffff1681565b600033905060006004600084815260200190815260200160002090508060040160009054906101000a900460ff16611e2d576040517f08c379a00000000000000000000000000000000000000000000000000000000081526004018080602001828103825260208152602001807f54696d654c6f636b3a3a7665746f3a207478206973206e6f742071756575656481525060200191505060405180910390fd5b60008160000160008473ffffffffffffffffffffffffffffffffffffffff1673ffffffffffffffffffffffffffffffffffffffff1681526020019081526020016000209050600015158160000160009054906101000a900460ff16151514611ee0576040517f08c379a00000000000000000000000000000000000000000000000000000000081526004018080602001828103825260238152602001806124ed6023913960400191505060405180910390fd5b6000600360019054906101000a900473ffffffffffffffffffffffffffffffffffffffff1673ffffffffffffffffffffffffffffffffffffffff1663782d6fe18585600101546040518363ffffffff1660e01b8152600401808373ffffffffffffffffffffffffffffffffffffffff1673ffffffffffffffffffffffffffffffffffffffff1681526020018281526020019250505060206040518083038186803b158015611f8d57600080fd5b505afa158015611fa1573d6000803e3d6000fd5b505050506040513d6020811015611fb757600080fd5b81019080805190602001909291905050509050611fe181846002015461207a90919063ffffffff16565b836002018190555060018260000160006101000a81548160ff021916908315150217905550808260010181905550848473ffffffffffffffffffffffffffffffffffffffff167f62ce13214c9fbe98f71fa2a4e06c456b20fa5af381d079f6aeff2503ee5b3e1a60008460405180831515151581526020018281526020019250505060405180910390a35050505050565b600042905090565b6000808284019050838110156120f8576040517f08c379a000000000000000000000000000000000000000000000000000000000815260040180806020018281038252601b8152602001807f536166654d6174683a206164646974696f6e206f766572666c6f77000000000081525060200191505060405180910390fd5b8091505092915050565b6000808314156121155760009050612182565b600082840290508284828161212657fe5b041461217d576040517f08c379a00000000000000000000000000000000000000000000000000000000081526004018080602001828103825260218152602001806124946021913960400191505060405180910390fd5b809150505b92915050565b60006121ca83836040518060400160405280601a81526020017f536166654d6174683a206469766973696f6e206279207a65726f0000000000008152506121d2565b905092915050565b6000808311829061227e576040517f08c379a00000000000000000000000000000000000000000000000000000000081526004018080602001828103825283818151815260200191508051906020019080838360005b83811015612243578082015181840152602081019050612228565b50505050905090810190601f1680156122705780820380516001836020036101000a031916815260200191505b509250505060405180910390fd5b50600083858161228a57fe5b04905080915050939250505056fe54696d656c6f636b3a3a657865637574655472616e73616374696f6e3a2043616c6c206d75737420636f6d652066726f6d2061646d696e2e54696d656c6f636b3a3a63616e63656c5472616e73616374696f6e3a2043616c6c206d75737420636f6d652066726f6d2061646d696e2e54696d654c6f636b3a3a657865637574655472616e73616374696f6e3a20436f6d6d756e6974792072656a656374656454696d656c6f636b3a3a657865637574655472616e73616374696f6e3a205472616e73616374696f6e206973207374616c652e54696d656c6f636b3a3a657865637574655472616e73616374696f6e3a205472616e73616374696f6e206861736e2774207375727061737365642074696d65206c6f636b2e54696d656c6f636b3a3a73657444656c61793a2044656c6179206d75737420657863656564206d696e696d756d2064656c61792e54696d656c6f636b3a3a73657450656e64696e6741646d696e3a2046697273742063616c6c206d75737420636f6d652066726f6d2061646d696e2e54696d656c6f636b3a3a73657444656c61793a2044656c6179206d757374206e6f7420657863656564206d6178696d756d2064656c61792e54696d656c6f636b3a3a657865637574655472616e73616374696f6e3a205472616e73616374696f6e206861736e2774206265656e207175657565642e536166654d6174683a206d756c7469706c69636174696f6e206f766572666c6f7754696d656c6f636b3a3a61636365707441646d696e3a2043616c6c206d75737420636f6d652066726f6d2070656e64696e6741646d696e2e54696d654c6f636b3a3a7665746f3a20766f74657220616c726561647920766f74656454696d656c6f636b3a3a73657450656e64696e6741646d696e3a2043616c6c206d75737420636f6d652066726f6d2054696d656c6f636b2e54696d656c6f636b3a3a71756575655472616e73616374696f6e3a2043616c6c206d75737420636f6d652066726f6d2061646d696e2e54696d656c6f636b3a3a657865637574655472616e73616374696f6e3a205472616e73616374696f6e20657865637574696f6e2072657665727465642e54696d656c6f636b3a3a71756575655472616e73616374696f6e3a20457374696d6174656420657865637574696f6e20626c6f636b206d75737420736174697366792064656c61792e54696d656c6f636b3a3a73657444656c61793a2043616c6c206d75737420636f6d652066726f6d2054696d656c6f636b2ea2646970667358221220a4db5c46e1caeb5153181dbffc3aa2b88ee910c1498b3648347510e7433261d864736f6c6343000606003354696d656c6f636b3a3a636f6e7374727563746f723a2044656c6179206d757374206e6f7420657863656564206d6178696d756d2064656c61792e54696d656c6f636b3a3a636f6e7374727563746f723a2044656c6179206d75737420657863656564206d696e696d756d2064656c61792e",
  "devdoc": {
    "methods": {}
  },
  "userdoc": {
    "methods": {}
  },
  "storageLayout": {
    "storage": [
      {
        "astId": 4452,
        "contract": "contracts/Timelock.sol:Timelock",
        "label": "admin",
        "offset": 0,
        "slot": "0",
        "type": "t_address"
      },
      {
        "astId": 4454,
        "contract": "contracts/Timelock.sol:Timelock",
        "label": "pendingAdmin",
        "offset": 0,
        "slot": "1",
        "type": "t_address"
      },
      {
        "astId": 4456,
        "contract": "contracts/Timelock.sol:Timelock",
        "label": "delay",
        "offset": 0,
        "slot": "2",
        "type": "t_uint256"
      },
      {
        "astId": 4458,
        "contract": "contracts/Timelock.sol:Timelock",
        "label": "admin_initialized",
        "offset": 0,
        "slot": "3",
        "type": "t_bool"
      },
      {
        "astId": 4460,
        "contract": "contracts/Timelock.sol:Timelock",
        "label": "chk",
        "offset": 1,
        "slot": "3",
        "type": "t_contract(CheckToken)6519"
      },
      {
        "astId": 4484,
        "contract": "contracts/Timelock.sol:Timelock",
        "label": "queuedTransactions",
        "offset": 0,
        "slot": "4",
        "type": "t_mapping(t_bytes32,t_struct(QueuedTransaction)4480_storage)"
      }
    ],
    "types": {
      "t_address": {
        "encoding": "inplace",
        "label": "address",
        "numberOfBytes": "20"
      },
      "t_bool": {
        "encoding": "inplace",
        "label": "bool",
        "numberOfBytes": "1"
      },
      "t_bytes32": {
        "encoding": "inplace",
        "label": "bytes32",
        "numberOfBytes": "32"
      },
      "t_contract(CheckToken)6519": {
        "encoding": "inplace",
        "label": "contract CheckToken",
        "numberOfBytes": "20"
      },
      "t_mapping(t_address,t_struct(Receipt)4467_storage)": {
        "encoding": "mapping",
        "key": "t_address",
        "label": "mapping(address => struct Timelock.Receipt)",
        "numberOfBytes": "32",
        "value": "t_struct(Receipt)4467_storage"
      },
      "t_mapping(t_bytes32,t_struct(QueuedTransaction)4480_storage)": {
        "encoding": "mapping",
        "key": "t_bytes32",
        "label": "mapping(bytes32 => struct Timelock.QueuedTransaction)",
        "numberOfBytes": "32",
        "value": "t_struct(QueuedTransaction)4480_storage"
      },
      "t_struct(QueuedTransaction)4480_storage": {
        "encoding": "inplace",
        "label": "struct Timelock.QueuedTransaction",
        "members": [
          {
            "astId": 4471,
            "contract": "contracts/Timelock.sol:Timelock",
            "label": "receipts",
            "offset": 0,
            "slot": "0",
            "type": "t_mapping(t_address,t_struct(Receipt)4467_storage)"
          },
          {
            "astId": 4473,
            "contract": "contracts/Timelock.sol:Timelock",
            "label": "queuedBlock",
            "offset": 0,
            "slot": "1",
            "type": "t_uint256"
          },
          {
            "astId": 4475,
            "contract": "contracts/Timelock.sol:Timelock",
            "label": "againstVotes",
            "offset": 0,
            "slot": "2",
            "type": "t_uint256"
          },
          {
            "astId": 4477,
            "contract": "contracts/Timelock.sol:Timelock",
            "label": "totalSupply",
            "offset": 0,
            "slot": "3",
            "type": "t_uint256"
          },
          {
            "astId": 4479,
            "contract": "contracts/Timelock.sol:Timelock",
            "label": "queued",
            "offset": 0,
            "slot": "4",
            "type": "t_bool"
          }
        ],
        "numberOfBytes": "160"
      },
      "t_struct(Receipt)4467_storage": {
        "encoding": "inplace",
        "label": "struct Timelock.Receipt",
        "members": [
          {
            "astId": 4462,
            "contract": "contracts/Timelock.sol:Timelock",
            "label": "hasVoted",
            "offset": 0,
            "slot": "0",
            "type": "t_bool"
          },
          {
            "astId": 4464,
            "contract": "contracts/Timelock.sol:Timelock",
            "label": "support",
            "offset": 1,
            "slot": "0",
            "type": "t_bool"
          },
          {
            "astId": 4466,
            "contract": "contracts/Timelock.sol:Timelock",
            "label": "votes",
            "offset": 0,
            "slot": "1",
            "type": "t_uint256"
          }
        ],
        "numberOfBytes": "64"
      },
      "t_uint256": {
        "encoding": "inplace",
        "label": "uint256",
        "numberOfBytes": "32"
      }
    }
  },
  "gasEstimates": {
    "creation": {
      "codeDepositCost": "1966800",
      "executionCost": "infinite",
      "totalCost": "infinite"
    },
    "external": {
      "GRACE_PERIOD()": "403",
      "MAXIMUM_DELAY()": "359",
      "MINIMUM_DELAY()": "381",
      "acceptAdmin()": "infinite",
      "admin()": "1317",
      "admin_initialized()": "1185",
      "cancelTransaction(address,uint256,string,bytes,uint256)": "infinite",
      "delay()": "1115",
      "executeTransaction(address,uint256,string,bytes,uint256)": "infinite",
      "pendingAdmin()": "1075",
      "queueTransaction(address,uint256,string,bytes,uint256)": "infinite",
      "queuedTransactions(bytes32)": "3963",
      "setDelay(uint256)": "infinite",
      "setPendingAdmin(address)": "infinite",
      "veto(bytes32)": "infinite"
    },
    "internal": {
      "getBlockTimestamp()": "22"
    }
  }
}