{
  "address": "0x51f12Aaca4f91ef3DAeF2e7a98f5285712014D39",
  "abi": [
    {
      "inputs": [
        {
          "internalType": "address",
          "name": "tokenAddr",
          "type": "address"
        }
      ],
      "stateMutability": "nonpayable",
      "type": "constructor"
    },
    {
      "anonymous": false,
      "inputs": [
        {
          "indexed": false,
          "internalType": "bytes32",
          "name": "code",
          "type": "bytes32"
        },
        {
          "indexed": false,
          "internalType": "address",
          "name": "to",
          "type": "address"
        }
      ],
      "name": "LogCashIn",
      "type": "event"
    },
    {
      "anonymous": false,
      "inputs": [
        {
          "indexed": true,
          "internalType": "address",
          "name": "previousOwner",
          "type": "address"
        },
        {
          "indexed": true,
          "internalType": "address",
          "name": "newOwner",
          "type": "address"
        }
      ],
      "name": "OwnershipTransferred",
      "type": "event"
    },
    {
      "inputs": [
        {
          "internalType": "bytes32",
          "name": "codeHash",
          "type": "bytes32"
        },
        {
          "internalType": "uint256",
          "name": "amount",
          "type": "uint256"
        }
      ],
      "name": "addCode",
      "outputs": [],
      "stateMutability": "nonpayable",
      "type": "function"
    },
    {
      "inputs": [
        {
          "internalType": "string",
          "name": "code",
          "type": "string"
        },
        {
          "internalType": "address",
          "name": "to",
          "type": "address"
        }
      ],
      "name": "cashIn",
      "outputs": [],
      "stateMutability": "nonpayable",
      "type": "function"
    },
    {
      "inputs": [],
      "name": "owner",
      "outputs": [
        {
          "internalType": "address",
          "name": "",
          "type": "address"
        }
      ],
      "stateMutability": "view",
      "type": "function"
    },
    {
      "inputs": [],
      "name": "renounceOwnership",
      "outputs": [],
      "stateMutability": "nonpayable",
      "type": "function"
    },
    {
      "inputs": [
        {
          "internalType": "address",
          "name": "newOwner",
          "type": "address"
        }
      ],
      "name": "transferOwnership",
      "outputs": [],
      "stateMutability": "nonpayable",
      "type": "function"
    }
  ],
  "transactionHash": "0x8c3adb6366e3eb608ed90be3dd1f669067ae4be3811597241e6ba43ca6b9cc6c",
  "args": [
    "0x6E4Cf31cD0fc32fA4f4725FFA28A5017e27Fa31a"
  ],
  "bytecode": "0x608060405234801561001057600080fd5b506040516109103803806109108339818101604052602081101561003357600080fd5b5051600061003f6100ae565b600080546001600160a01b0319166001600160a01b0383169081178255604051929350917f8be0079c531659141344cd1fd0a4f28419497f9722a3daafe3b4186f6b6457e0908290a350600280546001600160a01b0319166001600160a01b03929092169190911790556100b2565b3390565b61084f806100c16000396000f3fe608060405234801561001057600080fd5b50600436106100575760003560e01c80632e933fde1461005c578063715018a6146100815780638da5cb5b14610089578063ebe9be97146100ad578063f2fde38b1461015c575b600080fd5b61007f6004803603604081101561007257600080fd5b5080359060200135610182565b005b61007f6101ec565b61009161027c565b604080516001600160a01b039092168252519081900360200190f35b61007f600480360360408110156100c357600080fd5b810190602081018135600160201b8111156100dd57600080fd5b8201836020820111156100ef57600080fd5b803590602001918460018302840111600160201b8311171561011057600080fd5b91908080601f016020809104026020016040519081016040528093929190818152602001838380828437600092019190915250929550505090356001600160a01b0316915061028b9050565b61007f6004803603602081101561017257600080fd5b50356001600160a01b03166103cf565b61018a6104b5565b6000546001600160a01b039081169116146101da576040805162461bcd60e51b815260206004820181905260248201526000805160206107b0833981519152604482015290519081900360640190fd5b60009182526001602052604090912055565b6101f46104b5565b6000546001600160a01b03908116911614610244576040805162461bcd60e51b815260206004820181905260248201526000805160206107b0833981519152604482015290519081900360640190fd5b600080546040516001600160a01b03909116906000805160206107d0833981519152908390a3600080546001600160a01b0319169055565b6000546001600160a01b031690565b6000826040516020018082805190602001908083835b602083106102c05780518252601f1990920191602091820191016102a1565b6001836020036101000a03801982511681845116808217855250505050505090500191505060405160208183030381529060405280519060200120905060006001600083815260200190815260200160002054905060008111610360576040805162461bcd60e51b81526020600482015260136024820152724661756365743a556e6b6e6f776e20636f646560681b604482015290519081900360640190fd5b600082815260016020526040812055600254610386906001600160a01b031684836104b9565b604080518381526001600160a01b038516602082015281517fd26ae1beda9914dd5ea60564fe357aa6cdb15f6a9be6d4a309e939be0d76e396929181900390910190a150505050565b6103d76104b5565b6000546001600160a01b03908116911614610427576040805162461bcd60e51b815260206004820181905260248201526000805160206107b0833981519152604482015290519081900360640190fd5b6001600160a01b03811661046c5760405162461bcd60e51b815260040180806020018281038252602681526020018061078a6026913960400191505060405180910390fd5b600080546040516001600160a01b03808516939216916000805160206107d083398151915291a3600080546001600160a01b0319166001600160a01b0392909216919091179055565b3390565b604080516001600160a01b038416602482015260448082018490528251808303909101815260649091019091526020810180516001600160e01b031663a9059cbb60e01b17905261050b908490610510565b505050565b6060610565826040518060400160405280602081526020017f5361666545524332303a206c6f772d6c6576656c2063616c6c206661696c6564815250856001600160a01b03166105c19092919063ffffffff16565b80519091501561050b5780806020019051602081101561058457600080fd5b505161050b5760405162461bcd60e51b815260040180806020018281038252602a8152602001806107f0602a913960400191505060405180910390fd5b60606105d084846000856105d8565b949350505050565b60606105e385610783565b610634576040805162461bcd60e51b815260206004820152601d60248201527f416464726573733a2063616c6c20746f206e6f6e2d636f6e7472616374000000604482015290519081900360640190fd5b60006060866001600160a01b031685876040518082805190602001908083835b602083106106735780518252601f199092019160209182019101610654565b6001836020036101000a03801982511681845116808217855250505050505090500191505060006040518083038185875af1925050503d80600081146106d5576040519150601f19603f3d011682016040523d82523d6000602084013e6106da565b606091505b509150915081156106ee5791506105d09050565b8051156106fe5780518082602001fd5b8360405162461bcd60e51b81526004018080602001828103825283818151815260200191508051906020019080838360005b83811015610748578181015183820152602001610730565b50505050905090810190601f1680156107755780820380516001836020036101000a031916815260200191505b509250505060405180910390fd5b3b15159056fe4f776e61626c653a206e6577206f776e657220697320746865207a65726f20616464726573734f776e61626c653a2063616c6c6572206973206e6f7420746865206f776e65728be0079c531659141344cd1fd0a4f28419497f9722a3daafe3b4186f6b6457e05361666545524332303a204552433230206f7065726174696f6e20646964206e6f742073756363656564a26469706673582212202d8b7312c9caf5e7e061195092901f1ab24bcc86f2773fa6b476eee0415aa51864736f6c634300060c0033"
}