{
  "address": "0x05B4D17Ca4B9B2aA723e01d367180682956B7237",
  "abi": [
    {
      "inputs": [
        {
          "internalType": "address",
          "name": "weth_",
          "type": "address"
        },
        {
          "internalType": "address",
          "name": "factory_",
          "type": "address"
        }
      ],
      "stateMutability": "nonpayable",
      "type": "constructor"
    },
    {
      "inputs": [],
      "name": "factory",
      "outputs": [
        {
          "internalType": "address",
          "name": "",
          "type": "address"
        }
      ],
      "stateMutability": "view",
      "type": "function"
    },
    {
      "inputs": [
        {
          "internalType": "address",
          "name": "underlying",
          "type": "address"
        }
      ],
      "name": "getAssetPrice",
      "outputs": [
        {
          "internalType": "uint256",
          "name": "",
          "type": "uint256"
        }
      ],
      "stateMutability": "view",
      "type": "function"
    },
    {
      "inputs": [],
      "name": "weth",
      "outputs": [
        {
          "internalType": "address",
          "name": "",
          "type": "address"
        }
      ],
      "stateMutability": "view",
      "type": "function"
    }
  ],
  "transactionHash": "0x8617b8327fb6907e11684ef59a38abc95b98c55783a35d7194eda8365597adbc",
  "args": [
    "0xc02aaa39b223fe8d0a0e5c4f27ead9083c756cc2",
    "0x5C69bEe701ef814a2B6a3EDD4B1652CB9cc5aA6f"
  ],
  "solcInputHash": "32bd804c7b4a7b43b56cd0ef0ae8b92f",
  "bytecode": "0x6080604052600180546001600160a01b031916735c69bee701ef814a2b6a3edd4b1652cb9cc5aa6f17905534801561003657600080fd5b5060405161061f38038061061f8339818101604052604081101561005957600080fd5b5080516020909101516001600160a01b0381161561008d57600180546001600160a01b0319166001600160a01b0383161790555b50600080546001600160a01b039092166001600160a01b0319909216919091179055610561806100be6000396000f3fe608060405234801561001057600080fd5b50600436106100415760003560e01c80633fc8cef314610046578063b3596f071461006a578063c45a0155146100a2575b600080fd5b61004e6100aa565b604080516001600160a01b039092168252519081900360200190f35b6100906004803603602081101561008057600080fd5b50356001600160a01b03166100b9565b60408051918252519081900360200190f35b61004e610135565b6000546001600160a01b031681565b60008054819081906100d59085906001600160a01b0316610144565b600154919350915060009081906100f6906001600160a01b03168585610222565b909250905081816001600160a01b03888116908716146101165750819050825b610129670de0b6b3a764000083836102e9565b98975050505050505050565b6001546001600160a01b031681565b600080826001600160a01b0316846001600160a01b031614156101985760405162461bcd60e51b81526004018080602001828103825260258152602001806104ba6025913960400191505060405180910390fd5b826001600160a01b0316846001600160a01b0316106101b85782846101bb565b83835b90925090506001600160a01b03821661021b576040805162461bcd60e51b815260206004820152601e60248201527f556e697377617056324c6962726172793a205a45524f5f414444524553530000604482015290519081900360640190fd5b9250929050565b60008060006102318585610144565b509050600080610242888888610395565b6001600160a01b0316630902f1ac6040518163ffffffff1660e01b815260040160606040518083038186803b15801561027a57600080fd5b505afa15801561028e573d6000803e3d6000fd5b505050506040513d60608110156102a457600080fd5b5080516020909101516001600160701b0391821693501690506001600160a01b03878116908416146102d75780826102da565b81815b90999098509650505050505050565b60008084116103295760405162461bcd60e51b81526004018080602001828103825260258152602001806105076025913960400191505060405180910390fd5b6000831180156103395750600082115b6103745760405162461bcd60e51b81526004018080602001828103825260288152602001806104df6028913960400191505060405180910390fd5b82610385858463ffffffff61045016565b8161038c57fe5b04949350505050565b60008060006103a48585610144565b604080516001600160601b0319606094851b811660208084019190915293851b81166034830152825160288184030181526048830184528051908501206001600160f81b031960688401529a90941b9093166069840152607d8301989098527f96e8ac4277198ff8b6f785478aa9a39f403cb768dd02cbee326c3e7da348845f609d808401919091528851808403909101815260bd909201909752805196019590952095945050505050565b600081158061046b5750508082028282828161046857fe5b04145b6104b3576040805162461bcd60e51b815260206004820152601460248201527364732d6d6174682d6d756c2d6f766572666c6f7760601b604482015290519081900360640190fd5b9291505056fe556e697377617056324c6962726172793a204944454e544943414c5f414444524553534553556e697377617056324c6962726172793a20494e53554646494349454e545f4c4951554944495459556e697377617056324c6962726172793a20494e53554646494349454e545f414d4f554e54a2646970667358221220533040c371da93b64611c29c6969769337e04da4fc93945784f384c43a7ae26164736f6c63430006060033",
  "devdoc": {
    "methods": {}
  },
  "userdoc": {
    "methods": {},
    "notice": "Don't use this thing, don't it uses the spot price of Uniswap - that's a BAAAAD idea."
  },
  "storageLayout": {
    "storage": [
      {
        "astId": 876,
        "contract": "contracts/YOLOracle.sol:YOLOracle",
        "label": "weth",
        "offset": 0,
        "slot": "0",
        "type": "t_address"
      },
      {
        "astId": 879,
        "contract": "contracts/YOLOracle.sol:YOLOracle",
        "label": "factory",
        "offset": 0,
        "slot": "1",
        "type": "t_address"
      }
    ],
    "types": {
      "t_address": {
        "encoding": "inplace",
        "label": "address",
        "numberOfBytes": "20"
      }
    }
  }
}